{
	"TokenSwapper.sol": {
		"InoPay": {
			"abi": [
				{
					"inputs": [
						{
							"internalType": "address",
							"name": "_owner",
							"type": "address"
						}
					],
					"stateMutability": "nonpayable",
					"type": "constructor"
				},
				{
					"inputs": [],
					"name": "QUOTER",
					"outputs": [
						{
							"internalType": "address",
							"name": "",
							"type": "address"
						}
					],
					"stateMutability": "view",
					"type": "function"
				},
				{
					"inputs": [],
					"name": "WETH",
					"outputs": [
						{
							"internalType": "address",
							"name": "",
							"type": "address"
						}
					],
					"stateMutability": "view",
					"type": "function"
				},
				{
					"inputs": [],
					"name": "_getWETH",
					"outputs": [
						{
							"internalType": "address",
							"name": "",
							"type": "address"
						}
					],
					"stateMutability": "view",
					"type": "function"
				},
				{
					"inputs": [
						{
							"internalType": "uint256",
							"name": "ethAmount",
							"type": "uint256"
						}
					],
					"name": "_quoteV2",
					"outputs": [
						{
							"internalType": "uint256",
							"name": "",
							"type": "uint256"
						}
					],
					"stateMutability": "view",
					"type": "function"
				},
				{
					"inputs": [
						{
							"internalType": "uint256",
							"name": "ethAmount",
							"type": "uint256"
						}
					],
					"name": "_quoteV3",
					"outputs": [
						{
							"internalType": "uint256",
							"name": "",
							"type": "uint256"
						}
					],
					"stateMutability": "view",
					"type": "function"
				},
				{
					"inputs": [
						{
							"internalType": "address",
							"name": "tokenAddress",
							"type": "address"
						}
					],
					"name": "addAllowedToken",
					"outputs": [],
					"stateMutability": "nonpayable",
					"type": "function"
				},
				{
					"inputs": [
						{
							"internalType": "uint256",
							"name": "",
							"type": "uint256"
						}
					],
					"name": "allowedTokens",
					"outputs": [
						{
							"internalType": "address",
							"name": "",
							"type": "address"
						}
					],
					"stateMutability": "view",
					"type": "function"
				},
				{
					"inputs": [],
					"name": "allowedTokensCount",
					"outputs": [
						{
							"internalType": "uint256",
							"name": "",
							"type": "uint256"
						}
					],
					"stateMutability": "view",
					"type": "function"
				},
				{
					"inputs": [
						{
							"internalType": "address",
							"name": "",
							"type": "address"
						}
					],
					"name": "allowedTokensExists",
					"outputs": [
						{
							"internalType": "bool",
							"name": "",
							"type": "bool"
						}
					],
					"stateMutability": "view",
					"type": "function"
				},
				{
					"inputs": [
						{
							"internalType": "address",
							"name": "",
							"type": "address"
						}
					],
					"name": "allowedTokensIds",
					"outputs": [
						{
							"internalType": "uint256",
							"name": "",
							"type": "uint256"
						}
					],
					"stateMutability": "view",
					"type": "function"
				},
				{
					"inputs": [
						{
							"internalType": "address",
							"name": "tokenAddress",
							"type": "address"
						}
					],
					"name": "delAllowedToken",
					"outputs": [],
					"stateMutability": "nonpayable",
					"type": "function"
				},
				{
					"inputs": [],
					"name": "dexVersion",
					"outputs": [
						{
							"internalType": "enum InoPay.DexVersion",
							"name": "",
							"type": "uint8"
						}
					],
					"stateMutability": "view",
					"type": "function"
				},
				{
					"inputs": [],
					"name": "getAllowedTokens",
					"outputs": [
						{
							"components": [
								{
									"internalType": "uint256",
									"name": "tokenId",
									"type": "uint256"
								},
								{
									"internalType": "address",
									"name": "tokenAddress",
									"type": "address"
								},
								{
									"internalType": "string",
									"name": "tokenSymbol",
									"type": "string"
								},
								{
									"internalType": "string",
									"name": "tokenName",
									"type": "string"
								},
								{
									"internalType": "uint8",
									"name": "tokenDecimals",
									"type": "uint8"
								},
								{
									"internalType": "uint256",
									"name": "balance",
									"type": "uint256"
								}
							],
							"internalType": "struct InoPay.TokenInfo[]",
							"name": "ret",
							"type": "tuple[]"
						}
					],
					"stateMutability": "view",
					"type": "function"
				},
				{
					"inputs": [],
					"name": "getContractInfo",
					"outputs": [
						{
							"components": [
								{
									"internalType": "bool",
									"name": "inited",
									"type": "bool"
								},
								{
									"internalType": "address",
									"name": "owner",
									"type": "address"
								},
								{
									"internalType": "address",
									"name": "targetToken",
									"type": "address"
								},
								{
									"internalType": "address",
									"name": "routerV2",
									"type": "address"
								},
								{
									"internalType": "address",
									"name": "routerV3",
									"type": "address"
								},
								{
									"internalType": "uint24",
									"name": "v3PoolFee",
									"type": "uint24"
								},
								{
									"internalType": "enum InoPay.DexVersion",
									"name": "dexVersion",
									"type": "uint8"
								},
								{
									"internalType": "uint256",
									"name": "minAmountOut",
									"type": "uint256"
								},
								{
									"internalType": "address",
									"name": "QUOTER",
									"type": "address"
								},
								{
									"internalType": "address",
									"name": "WETH",
									"type": "address"
								},
								{
									"internalType": "uint256",
									"name": "ethBalance",
									"type": "uint256"
								},
								{
									"internalType": "uint256",
									"name": "totalEthIn",
									"type": "uint256"
								},
								{
									"internalType": "uint256",
									"name": "totalSwapOut",
									"type": "uint256"
								}
							],
							"internalType": "struct InoPay.ContractInfo",
							"name": "",
							"type": "tuple"
						}
					],
					"stateMutability": "view",
					"type": "function"
				},
				{
					"inputs": [
						{
							"internalType": "uint256",
							"name": "_ethAmount",
							"type": "uint256"
						},
						{
							"internalType": "address",
							"name": "_weth",
							"type": "address"
						},
						{
							"internalType": "address",
							"name": "_targetToken",
							"type": "address"
						},
						{
							"internalType": "address",
							"name": "_routerV2",
							"type": "address"
						}
					],
					"name": "getQuoteV2",
					"outputs": [
						{
							"internalType": "uint256",
							"name": "",
							"type": "uint256"
						}
					],
					"stateMutability": "view",
					"type": "function"
				},
				{
					"inputs": [
						{
							"internalType": "uint256",
							"name": "_ethAmount",
							"type": "uint256"
						},
						{
							"internalType": "address",
							"name": "_weth",
							"type": "address"
						},
						{
							"internalType": "address",
							"name": "_targetToken",
							"type": "address"
						},
						{
							"internalType": "uint256",
							"name": "_v3PoolFee",
							"type": "uint256"
						},
						{
							"internalType": "address",
							"name": "_quoter",
							"type": "address"
						}
					],
					"name": "getQuoteV3",
					"outputs": [
						{
							"internalType": "uint256",
							"name": "",
							"type": "uint256"
						}
					],
					"stateMutability": "view",
					"type": "function"
				},
				{
					"inputs": [
						{
							"internalType": "address",
							"name": "_weth",
							"type": "address"
						},
						{
							"internalType": "address",
							"name": "_targetToken",
							"type": "address"
						},
						{
							"internalType": "address",
							"name": "_routerV2",
							"type": "address"
						},
						{
							"internalType": "uint256",
							"name": "_minAmountOut",
							"type": "uint256"
						}
					],
					"name": "init",
					"outputs": [],
					"stateMutability": "nonpayable",
					"type": "function"
				},
				{
					"inputs": [],
					"name": "inited",
					"outputs": [
						{
							"internalType": "bool",
							"name": "",
							"type": "bool"
						}
					],
					"stateMutability": "view",
					"type": "function"
				},
				{
					"inputs": [],
					"name": "minAmountOut",
					"outputs": [
						{
							"internalType": "uint256",
							"name": "",
							"type": "uint256"
						}
					],
					"stateMutability": "view",
					"type": "function"
				},
				{
					"inputs": [],
					"name": "owner",
					"outputs": [
						{
							"internalType": "address",
							"name": "",
							"type": "address"
						}
					],
					"stateMutability": "view",
					"type": "function"
				},
				{
					"inputs": [],
					"name": "reciever",
					"outputs": [
						{
							"internalType": "address",
							"name": "",
							"type": "address"
						}
					],
					"stateMutability": "view",
					"type": "function"
				},
				{
					"inputs": [
						{
							"internalType": "address",
							"name": "tokenAddress",
							"type": "address"
						}
					],
					"name": "recoveryToken",
					"outputs": [],
					"stateMutability": "nonpayable",
					"type": "function"
				},
				{
					"inputs": [],
					"name": "routerV2",
					"outputs": [
						{
							"internalType": "address",
							"name": "",
							"type": "address"
						}
					],
					"stateMutability": "view",
					"type": "function"
				},
				{
					"inputs": [],
					"name": "routerV3",
					"outputs": [
						{
							"internalType": "address",
							"name": "",
							"type": "address"
						}
					],
					"stateMutability": "view",
					"type": "function"
				},
				{
					"inputs": [
						{
							"internalType": "enum InoPay.DexVersion",
							"name": "_version",
							"type": "uint8"
						}
					],
					"name": "setDexVersion",
					"outputs": [],
					"stateMutability": "nonpayable",
					"type": "function"
				},
				{
					"inputs": [
						{
							"internalType": "uint256",
							"name": "_min",
							"type": "uint256"
						}
					],
					"name": "setMinAmountOut",
					"outputs": [],
					"stateMutability": "nonpayable",
					"type": "function"
				},
				{
					"inputs": [
						{
							"internalType": "address",
							"name": "newReciever",
							"type": "address"
						}
					],
					"name": "setReciever",
					"outputs": [],
					"stateMutability": "nonpayable",
					"type": "function"
				},
				{
					"inputs": [
						{
							"internalType": "address",
							"name": "newRouterV2",
							"type": "address"
						}
					],
					"name": "setRouterV2",
					"outputs": [],
					"stateMutability": "nonpayable",
					"type": "function"
				},
				{
					"inputs": [
						{
							"internalType": "address",
							"name": "newTargetToken",
							"type": "address"
						}
					],
					"name": "setTargetToken",
					"outputs": [],
					"stateMutability": "nonpayable",
					"type": "function"
				},
				{
					"inputs": [
						{
							"internalType": "address",
							"name": "newWETH",
							"type": "address"
						}
					],
					"name": "setWETH",
					"outputs": [],
					"stateMutability": "nonpayable",
					"type": "function"
				},
				{
					"inputs": [],
					"name": "targetToken",
					"outputs": [
						{
							"internalType": "address",
							"name": "",
							"type": "address"
						}
					],
					"stateMutability": "view",
					"type": "function"
				},
				{
					"inputs": [],
					"name": "totalEthIn",
					"outputs": [
						{
							"internalType": "uint256",
							"name": "",
							"type": "uint256"
						}
					],
					"stateMutability": "view",
					"type": "function"
				},
				{
					"inputs": [],
					"name": "totalSwapOut",
					"outputs": [
						{
							"internalType": "uint256",
							"name": "",
							"type": "uint256"
						}
					],
					"stateMutability": "view",
					"type": "function"
				},
				{
					"inputs": [
						{
							"internalType": "address",
							"name": "newOwner",
							"type": "address"
						}
					],
					"name": "transferOwnership",
					"outputs": [],
					"stateMutability": "nonpayable",
					"type": "function"
				},
				{
					"inputs": [],
					"name": "v3PoolFee",
					"outputs": [
						{
							"internalType": "uint24",
							"name": "",
							"type": "uint24"
						}
					],
					"stateMutability": "view",
					"type": "function"
				},
				{
					"inputs": [],
					"name": "version",
					"outputs": [
						{
							"internalType": "uint256",
							"name": "",
							"type": "uint256"
						}
					],
					"stateMutability": "view",
					"type": "function"
				},
				{
					"inputs": [],
					"name": "withdrawETH",
					"outputs": [],
					"stateMutability": "nonpayable",
					"type": "function"
				},
				{
					"inputs": [],
					"name": "withdrawTokens",
					"outputs": [],
					"stateMutability": "nonpayable",
					"type": "function"
				},
				{
					"stateMutability": "payable",
					"type": "receive"
				}
			],
			"devdoc": {
				"kind": "dev",
				"methods": {},
				"version": 1
			},
			"evm": {
				"assembly": "    /* \"TokenSwapper.sol\":2636:12852  contract InoPay is ReentrancyGuard  {... */\n  mstore(0x40, 0x80)\n    /* \"TokenSwapper.sol\":2905:2949  DexVersion public dexVersion = DexVersion.V2 */\n  0x04\n  dup1\n  sload\n  not(shl(0xb8, 0xff))\n  and\n  swap1\n  sstore\n    /* \"TokenSwapper.sol\":3106:3132  bool public inited = false */\n  0x07\n  dup1\n  sload\n  not(shl(0xa0, 0xff))\n  and\n  swap1\n  sstore\n    /* \"TokenSwapper.sol\":2936:2949  DexVersion.V2 */\n  0x00\n    /* \"TokenSwapper.sol\":3392:3421  uint256 public totalEthIn = 0 */\n  0x0d\n  dup2\n  swap1\n  sstore\n    /* \"TokenSwapper.sol\":3428:3459  uint256 public totalSwapOut = 0 */\n  0x0e\n  sstore\n    /* \"TokenSwapper.sol\":3568:3657  constructor(address _owner) {... */\n  callvalue\n  dup1\n  iszero\n  tag_4\n  jumpi\n  0x00\n  dup1\n  revert\ntag_4:\n  pop\n  mload(0x40)\n  sub(codesize, bytecodeSize)\n  dup1\n  bytecodeSize\n  dup4\n  codecopy\n  dup2\n  add\n  0x40\n  dup2\n  swap1\n  mstore\n  tag_5\n  swap2\n  tag_6\n  jump\t// in\ntag_5:\n    /* \"TokenSwapper.sol\":142:143  1 */\n  0x01\n    /* \"TokenSwapper.sol\":253:260  _status */\n  0x00\n    /* \"TokenSwapper.sol\":253:275  _status = _NOT_ENTERED */\n  dup2\n  swap1\n  sstore\n    /* \"TokenSwapper.sol\":3607:3621  owner = _owner */\n  dup1\n  sload\n  sub(shl(0xa0, 0x01), 0x01)\n  swap1\n  swap3\n  and\n  not(sub(shl(0xa0, 0x01), 0x01))\n  swap3\n  dup4\n  and\n  dup2\n  or\n  swap1\n  swap2\n  sstore\n    /* \"TokenSwapper.sol\":3632:3640  reciever */\n  0x08\n    /* \"TokenSwapper.sol\":3632:3649  reciever = _owner */\n  dup1\n  sload\n  swap1\n  swap3\n  and\n  or\n  swap1\n  sstore\n    /* \"TokenSwapper.sol\":2636:12852  contract InoPay is ReentrancyGuard  {... */\n  jump(tag_12)\n    /* \"#utility.yul\":146:436   */\ntag_6:\n    /* \"#utility.yul\":216:222   */\n  0x00\n    /* \"#utility.yul\":269:271   */\n  0x20\n    /* \"#utility.yul\":257:266   */\n  dup3\n    /* \"#utility.yul\":248:255   */\n  dup5\n    /* \"#utility.yul\":244:267   */\n  sub\n    /* \"#utility.yul\":240:272   */\n  slt\n    /* \"#utility.yul\":237:289   */\n  iszero\n  tag_15\n  jumpi\n    /* \"#utility.yul\":285:286   */\n  0x00\n    /* \"#utility.yul\":282:283   */\n  dup1\n    /* \"#utility.yul\":275:287   */\n  revert\n    /* \"#utility.yul\":237:289   */\ntag_15:\n    /* \"#utility.yul\":311:327   */\n  dup2\n  mload\n  sub(shl(0xa0, 0x01), 0x01)\n    /* \"#utility.yul\":356:387   */\n  dup2\n  and\n    /* \"#utility.yul\":346:388   */\n  dup2\n  eq\n    /* \"#utility.yul\":336:406   */\n  tag_16\n  jumpi\n    /* \"#utility.yul\":402:403   */\n  0x00\n    /* \"#utility.yul\":399:400   */\n  dup1\n    /* \"#utility.yul\":392:404   */\n  revert\n    /* \"#utility.yul\":336:406   */\ntag_16:\n    /* \"#utility.yul\":425:430   */\n  swap4\n    /* \"#utility.yul\":146:436   */\n  swap3\n  pop\n  pop\n  pop\n  jump\t// out\ntag_12:\n    /* \"TokenSwapper.sol\":2636:12852  contract InoPay is ReentrancyGuard  {... */\n  dataSize(sub_0)\n  dup1\n  dataOffset(sub_0)\n  0x00\n  codecopy\n  0x00\n  return\nstop\n\nsub_0: assembly {\n        /* \"TokenSwapper.sol\":2636:12852  contract InoPay is ReentrancyGuard  {... */\n      mstore(0x40, 0x80)\n      jumpi(tag_1, lt(calldatasize, 0x04))\n      shr(0xe0, calldataload(0x00))\n      dup1\n      0x76776b9f\n      gt\n      tag_41\n      jumpi\n      dup1\n      0xa0db86f9\n      gt\n      tag_42\n      jumpi\n      dup1\n      0xf2b3b467\n      gt\n      tag_43\n      jumpi\n      dup1\n      0xf4b0b756\n      gt\n      tag_44\n      jumpi\n      dup1\n      0xf4b0b756\n      eq\n      tag_38\n      jumpi\n      dup1\n      0xf775cca7\n      eq\n      tag_39\n      jumpi\n      dup1\n      0xfa34a5fd\n      eq\n      tag_40\n      jumpi\n      0x00\n      dup1\n      revert\n    tag_44:\n      dup1\n      0xf2b3b467\n      eq\n      tag_36\n      jumpi\n      dup1\n      0xf2fde38b\n      eq\n      tag_37\n      jumpi\n      0x00\n      dup1\n      revert\n    tag_43:\n      dup1\n      0xd9d7438e\n      gt\n      tag_45\n      jumpi\n      dup1\n      0xd9d7438e\n      eq\n      tag_33\n      jumpi\n      dup1\n      0xe086e5ec\n      eq\n      tag_34\n      jumpi\n      dup1\n      0xe5ee1d40\n      eq\n      tag_35\n      jumpi\n      0x00\n      dup1\n      revert\n    tag_45:\n      dup1\n      0xa0db86f9\n      eq\n      tag_31\n      jumpi\n      dup1\n      0xad5c4648\n      eq\n      tag_32\n      jumpi\n      0x00\n      dup1\n      revert\n    tag_42:\n      dup1\n      0x8da5cb5b\n      gt\n      tag_46\n      jumpi\n      dup1\n      0x91f59369\n      gt\n      tag_47\n      jumpi\n      dup1\n      0x91f59369\n      eq\n      tag_28\n      jumpi\n      dup1\n      0x954b1fe4\n      eq\n      tag_29\n      jumpi\n      dup1\n      0x9ec7e5db\n      eq\n      tag_30\n      jumpi\n      0x00\n      dup1\n      revert\n    tag_47:\n      dup1\n      0x8da5cb5b\n      eq\n      tag_26\n      jumpi\n      dup1\n      0x8dae88c2\n      eq\n      tag_27\n      jumpi\n      0x00\n      dup1\n      revert\n    tag_46:\n      dup1\n      0x76776b9f\n      eq\n      tag_22\n      jumpi\n      dup1\n      0x7cc1f867\n      eq\n      tag_23\n      jumpi\n      dup1\n      0x7de0dd79\n      eq\n      tag_24\n      jumpi\n      dup1\n      0x8d8f2adb\n      eq\n      tag_25\n      jumpi\n      0x00\n      dup1\n      revert\n    tag_41:\n      dup1\n      0x43c885ba\n      gt\n      tag_48\n      jumpi\n      dup1\n      0x54fd4d50\n      gt\n      tag_49\n      jumpi\n      dup1\n      0x59accd05\n      gt\n      tag_50\n      jumpi\n      dup1\n      0x59accd05\n      eq\n      tag_19\n      jumpi\n      dup1\n      0x5b769f3c\n      eq\n      tag_20\n      jumpi\n      dup1\n      0x5e5f2e26\n      eq\n      tag_21\n      jumpi\n      0x00\n      dup1\n      revert\n    tag_50:\n      dup1\n      0x54fd4d50\n      eq\n      tag_17\n      jumpi\n      dup1\n      0x55430892\n      eq\n      tag_18\n      jumpi\n      0x00\n      dup1\n      revert\n    tag_49:\n      dup1\n      0x4bce5afd\n      gt\n      tag_51\n      jumpi\n      dup1\n      0x4bce5afd\n      eq\n      tag_14\n      jumpi\n      dup1\n      0x502f7446\n      eq\n      tag_15\n      jumpi\n      dup1\n      0x54a3b27a\n      eq\n      tag_16\n      jumpi\n      0x00\n      dup1\n      revert\n    tag_51:\n      dup1\n      0x43c885ba\n      eq\n      tag_12\n      jumpi\n      dup1\n      0x46639dba\n      eq\n      tag_13\n      jumpi\n      0x00\n      dup1\n      revert\n    tag_48:\n      dup1\n      0x20a05ff7\n      gt\n      tag_52\n      jumpi\n      dup1\n      0x327107f7\n      gt\n      tag_53\n      jumpi\n      dup1\n      0x327107f7\n      eq\n      tag_9\n      jumpi\n      dup1\n      0x3f79b667\n      eq\n      tag_10\n      jumpi\n      dup1\n      0x4178617f\n      eq\n      tag_11\n      jumpi\n      0x00\n      dup1\n      revert\n    tag_53:\n      dup1\n      0x20a05ff7\n      eq\n      tag_7\n      jumpi\n      dup1\n      0x3024b233\n      eq\n      tag_8\n      jumpi\n      0x00\n      dup1\n      revert\n    tag_52:\n      dup1\n      0x024ece89\n      eq\n      tag_3\n      jumpi\n      dup1\n      0x034f5423\n      eq\n      tag_4\n      jumpi\n      dup1\n      0x1727533f\n      eq\n      tag_5\n      jumpi\n      dup1\n      0x1b66cb00\n      eq\n      tag_6\n      jumpi\n      0x00\n      dup1\n      revert\n    tag_1:\n      jumpi(tag_2, calldatasize)\n        /* \"TokenSwapper.sol\":4343:4349  inited */\n      sload(0x07)\n      0x010000000000000000000000000000000000000000\n      swap1\n      div\n      0xff\n      and\n        /* \"TokenSwapper.sol\":4339:4468  if (inited) {... */\n      iszero\n      tag_61\n      jumpi\n        /* \"TokenSwapper.sol\":4380:4389  msg.value */\n      callvalue\n        /* \"TokenSwapper.sol\":4366:4376  totalEthIn */\n      0x0d\n      0x00\n        /* \"TokenSwapper.sol\":4366:4389  totalEthIn += msg.value */\n      dup3\n      dup3\n      sload\n      tag_57\n      swap2\n      swap1\n      tag_58\n      jump\t// in\n    tag_57:\n      swap1\n      swap2\n      sstore\n      pop\n        /* \"TokenSwapper.sol\":4404:4425  trySwapIfProfitable() */\n      tag_59\n      swap1\n      pop\n        /* \"TokenSwapper.sol\":4404:4423  trySwapIfProfitable */\n      tag_60\n        /* \"TokenSwapper.sol\":4404:4425  trySwapIfProfitable() */\n      jump\t// in\n    tag_59:\n        /* \"TokenSwapper.sol\":4440:4456  withdrawTokens() */\n      tag_61\n        /* \"TokenSwapper.sol\":4440:4454  withdrawTokens */\n      tag_62\n        /* \"TokenSwapper.sol\":4440:4456  withdrawTokens() */\n      jump\t// in\n    tag_61:\n        /* \"TokenSwapper.sol\":2636:12852  contract InoPay is ReentrancyGuard  {... */\n      stop\n    tag_2:\n      0x00\n      dup1\n      revert\n        /* \"TokenSwapper.sol\":8286:9507  function getAllowedTokens() public view returns (TokenInfo[] memory ret) {... */\n    tag_3:\n      callvalue\n      dup1\n      iszero\n      tag_63\n      jumpi\n      0x00\n      dup1\n      revert\n    tag_63:\n      pop\n      tag_64\n      tag_65\n      jump\t// in\n    tag_64:\n      mload(0x40)\n      tag_66\n      swap2\n      swap1\n      tag_67\n      jump\t// in\n    tag_66:\n      mload(0x40)\n      dup1\n      swap2\n      sub\n      swap1\n      return\n        /* \"TokenSwapper.sol\":5472:5621  function _quoteV2(uint256 ethAmount) public view returns (uint256) {... */\n    tag_4:\n      callvalue\n      dup1\n      iszero\n      tag_68\n      jumpi\n      0x00\n      dup1\n      revert\n    tag_68:\n      pop\n      tag_69\n      tag_70\n      calldatasize\n      0x04\n      tag_71\n      jump\t// in\n    tag_70:\n      tag_72\n      jump\t// in\n    tag_69:\n      mload(0x40)\n        /* \"#utility.yul\":3026:3051   */\n      swap1\n      dup2\n      mstore\n        /* \"#utility.yul\":3014:3016   */\n      0x20\n        /* \"#utility.yul\":2999:3017   */\n      add\n        /* \"TokenSwapper.sol\":5472:5621  function _quoteV2(uint256 ethAmount) public view returns (uint256) {... */\n      tag_66\n        /* \"#utility.yul\":2880:3057   */\n      jump\n        /* \"TokenSwapper.sol\":2875:2898  uint24 public v3PoolFee */\n    tag_5:\n      callvalue\n      dup1\n      iszero\n      tag_75\n      jumpi\n      0x00\n      dup1\n      revert\n    tag_75:\n      pop\n      sload(0x04)\n      tag_76\n      swap1\n      0x010000000000000000000000000000000000000000\n      swap1\n      div\n      0xffffff\n      and\n      dup2\n      jump\n    tag_76:\n      mload(0x40)\n        /* \"#utility.yul\":3333:3341   */\n      0xffffff\n        /* \"#utility.yul\":3321:3342   */\n      swap1\n      swap2\n      and\n        /* \"#utility.yul\":3303:3343   */\n      dup2\n      mstore\n        /* \"#utility.yul\":3291:3293   */\n      0x20\n        /* \"#utility.yul\":3276:3294   */\n      add\n        /* \"TokenSwapper.sol\":2875:2898  uint24 public v3PoolFee */\n      tag_66\n        /* \"#utility.yul\":3159:3349   */\n      jump\n        /* \"TokenSwapper.sol\":10743:10921  function setTargetToken(address newTargetToken) external onlyOwner {... */\n    tag_6:\n      callvalue\n      dup1\n      iszero\n      tag_80\n      jumpi\n      0x00\n      dup1\n      revert\n    tag_80:\n      pop\n      tag_61\n      tag_82\n      calldatasize\n      0x04\n      tag_83\n      jump\t// in\n    tag_82:\n      tag_84\n      jump\t// in\n        /* \"TokenSwapper.sol\":3350:3383  uint256 public allowedTokensCount */\n    tag_7:\n      callvalue\n      dup1\n      iszero\n      tag_85\n      jumpi\n      0x00\n      dup1\n      revert\n    tag_85:\n      pop\n      tag_69\n      sload(0x0c)\n      dup2\n      jump\n        /* \"TokenSwapper.sol\":3232:3283  mapping(address => bool) public allowedTokensExists */\n    tag_8:\n      callvalue\n      dup1\n      iszero\n      tag_89\n      jumpi\n      0x00\n      dup1\n      revert\n    tag_89:\n      pop\n      tag_90\n      tag_91\n      calldatasize\n      0x04\n      tag_83\n      jump\t// in\n    tag_91:\n      mstore(0x20, 0x0a)\n      0x00\n      swap1\n      dup2\n      mstore\n      0x40\n      swap1\n      keccak256\n      sload\n      0xff\n      and\n      dup2\n      jump\n    tag_90:\n      mload(0x40)\n        /* \"#utility.yul\":4007:4021   */\n      swap1\n      iszero\n        /* \"#utility.yul\":4000:4022   */\n      iszero\n        /* \"#utility.yul\":3982:4023   */\n      dup2\n      mstore\n        /* \"#utility.yul\":3970:3972   */\n      0x20\n        /* \"#utility.yul\":3955:3973   */\n      add\n        /* \"TokenSwapper.sol\":3232:3283  mapping(address => bool) public allowedTokensExists */\n      tag_66\n        /* \"#utility.yul\":3842:4029   */\n      jump\n        /* \"TokenSwapper.sol\":2782:2808  address public targetToken */\n    tag_9:\n      callvalue\n      dup1\n      iszero\n      tag_95\n      jumpi\n      0x00\n      dup1\n      revert\n    tag_95:\n      pop\n      sload(0x02)\n      tag_96\n      swap1\n      0xffffffffffffffffffffffffffffffffffffffff\n      and\n      dup2\n      jump\n    tag_96:\n      mload(0x40)\n        /* \"#utility.yul\":4210:4252   */\n      0xffffffffffffffffffffffffffffffffffffffff\n        /* \"#utility.yul\":4198:4253   */\n      swap1\n      swap2\n      and\n        /* \"#utility.yul\":4180:4254   */\n      dup2\n      mstore\n        /* \"#utility.yul\":4168:4170   */\n      0x20\n        /* \"#utility.yul\":4153:4171   */\n      add\n        /* \"TokenSwapper.sol\":2782:2808  address public targetToken */\n      tag_66\n        /* \"#utility.yul\":4034:4260   */\n      jump\n        /* \"TokenSwapper.sol\":6002:6160  function _quoteV3(uint256 ethAmount) public view returns (uint256) {... */\n    tag_10:\n      callvalue\n      dup1\n      iszero\n      tag_100\n      jumpi\n      0x00\n      dup1\n      revert\n    tag_100:\n      pop\n      tag_69\n      tag_102\n      calldatasize\n      0x04\n      tag_71\n      jump\t// in\n    tag_102:\n      tag_103\n      jump\t// in\n        /* \"TokenSwapper.sol\":9513:9866  function addAllowedToken(address tokenAddress) public onlyOwner {... */\n    tag_11:\n      callvalue\n      dup1\n      iszero\n      tag_105\n      jumpi\n      0x00\n      dup1\n      revert\n    tag_105:\n      pop\n      tag_61\n      tag_107\n      calldatasize\n      0x04\n      tag_83\n      jump\t// in\n    tag_107:\n      tag_108\n      jump\t// in\n        /* \"TokenSwapper.sol\":3106:3132  bool public inited = false */\n    tag_12:\n      callvalue\n      dup1\n      iszero\n      tag_109\n      jumpi\n      0x00\n      dup1\n      revert\n    tag_109:\n      pop\n      sload(0x07)\n      tag_90\n      swap1\n      0x010000000000000000000000000000000000000000\n      swap1\n      div\n      0xff\n      and\n      dup2\n      jump\n        /* \"TokenSwapper.sol\":3665:4293  function init(... */\n    tag_13:\n      callvalue\n      dup1\n      iszero\n      tag_113\n      jumpi\n      0x00\n      dup1\n      revert\n    tag_113:\n      pop\n      tag_61\n      tag_115\n      calldatasize\n      0x04\n      tag_116\n      jump\t// in\n    tag_115:\n      tag_117\n      jump\t// in\n        /* \"TokenSwapper.sol\":3428:3459  uint256 public totalSwapOut = 0 */\n    tag_14:\n      callvalue\n      dup1\n      iszero\n      tag_118\n      jumpi\n      0x00\n      dup1\n      revert\n    tag_118:\n      pop\n      tag_69\n      sload(0x0e)\n      dup2\n      jump\n        /* \"TokenSwapper.sol\":2815:2838  address public routerV2 */\n    tag_15:\n      callvalue\n      dup1\n      iszero\n      tag_122\n      jumpi\n      0x00\n      dup1\n      revert\n    tag_122:\n      pop\n      sload(0x03)\n      tag_96\n      swap1\n      0xffffffffffffffffffffffffffffffffffffffff\n      and\n      dup2\n      jump\n        /* \"TokenSwapper.sol\":3290:3341  mapping(address => uint256) public allowedTokensIds */\n    tag_16:\n      callvalue\n      dup1\n      iszero\n      tag_126\n      jumpi\n      0x00\n      dup1\n      revert\n    tag_126:\n      pop\n      tag_69\n      tag_128\n      calldatasize\n      0x04\n      tag_83\n      jump\t// in\n    tag_128:\n      mstore(0x20, 0x0b)\n      0x00\n      swap1\n      dup2\n      mstore\n      0x40\n      swap1\n      keccak256\n      sload\n      dup2\n      jump\n        /* \"TokenSwapper.sol\":2713:2748  uint256 public constant version = 2 */\n    tag_17:\n      callvalue\n      dup1\n      iszero\n      tag_131\n      jumpi\n      0x00\n      dup1\n      revert\n    tag_131:\n      pop\n      tag_69\n        /* \"TokenSwapper.sol\":2747:2748  2 */\n      0x02\n        /* \"TokenSwapper.sol\":2713:2748  uint256 public constant version = 2 */\n      dup2\n      jump\n        /* \"TokenSwapper.sol\":9872:10340  function delAllowedToken(address tokenAddress) public onlyOwner {... */\n    tag_18:\n      callvalue\n      dup1\n      iszero\n      tag_135\n      jumpi\n      0x00\n      dup1\n      revert\n    tag_135:\n      pop\n      tag_61\n      tag_137\n      calldatasize\n      0x04\n      tag_83\n      jump\t// in\n    tag_137:\n      tag_138\n      jump\t// in\n        /* \"TokenSwapper.sol\":10927:11090  function setRouterV2(address newRouterV2) external onlyOwner {... */\n    tag_19:\n      callvalue\n      dup1\n      iszero\n      tag_139\n      jumpi\n      0x00\n      dup1\n      revert\n    tag_139:\n      pop\n      tag_61\n      tag_141\n      calldatasize\n      0x04\n      tag_83\n      jump\t// in\n    tag_141:\n      tag_142\n      jump\t// in\n        /* \"TokenSwapper.sol\":10651:10737  function setWETH(address newWETH) external onlyOwner {... */\n    tag_20:\n      callvalue\n      dup1\n      iszero\n      tag_143\n      jumpi\n      0x00\n      dup1\n      revert\n    tag_143:\n      pop\n      tag_61\n      tag_145\n      calldatasize\n      0x04\n      tag_83\n      jump\t// in\n    tag_145:\n      tag_146\n      jump\t// in\n        /* \"TokenSwapper.sol\":3177:3225  mapping(uint256 => address) public allowedTokens */\n    tag_21:\n      callvalue\n      dup1\n      iszero\n      tag_147\n      jumpi\n      0x00\n      dup1\n      revert\n    tag_147:\n      pop\n      tag_96\n      tag_149\n      calldatasize\n      0x04\n      tag_71\n      jump\t// in\n    tag_149:\n      mstore(0x20, 0x09)\n      0x00\n      swap1\n      dup2\n      mstore\n      0x40\n      swap1\n      keccak256\n      sload\n      0xffffffffffffffffffffffffffffffffffffffff\n      and\n      dup2\n      jump\n        /* \"TokenSwapper.sol\":3392:3421  uint256 public totalEthIn = 0 */\n    tag_22:\n      callvalue\n      dup1\n      iszero\n      tag_152\n      jumpi\n      0x00\n      dup1\n      revert\n    tag_152:\n      pop\n      tag_69\n      sload(0x0d)\n      dup2\n      jump\n        /* \"TokenSwapper.sol\":12271:12849  function getContractInfo() public view returns (ContractInfo memory) {... */\n    tag_23:\n      callvalue\n      dup1\n      iszero\n      tag_156\n      jumpi\n      0x00\n      dup1\n      revert\n    tag_156:\n      pop\n      tag_157\n      tag_158\n      jump\t// in\n    tag_157:\n      mload(0x40)\n      tag_66\n      swap2\n      swap1\n      tag_160\n      jump\t// in\n        /* \"TokenSwapper.sol\":2905:2949  DexVersion public dexVersion = DexVersion.V2 */\n    tag_24:\n      callvalue\n      dup1\n      iszero\n      tag_161\n      jumpi\n      0x00\n      dup1\n      revert\n    tag_161:\n      pop\n      sload(0x04)\n      tag_162\n      swap1\n      0x010000000000000000000000000000000000000000000000\n      swap1\n      div\n      0xff\n      and\n      dup2\n      jump\n    tag_162:\n      mload(0x40)\n      tag_66\n      swap2\n      swap1\n      tag_165\n      jump\t// in\n        /* \"TokenSwapper.sol\":4864:5464  function withdrawTokens() public nonReentrant {... */\n    tag_25:\n      callvalue\n      dup1\n      iszero\n      tag_166\n      jumpi\n      0x00\n      dup1\n      revert\n    tag_166:\n      pop\n      tag_61\n      tag_62\n      jump\t// in\n        /* \"TokenSwapper.sol\":2755:2775  address public owner */\n    tag_26:\n      callvalue\n      dup1\n      iszero\n      tag_168\n      jumpi\n      0x00\n      dup1\n      revert\n    tag_168:\n      pop\n      sload(0x01)\n      tag_96\n      swap1\n      0xffffffffffffffffffffffffffffffffffffffff\n      and\n      dup2\n      jump\n        /* \"TokenSwapper.sol\":3050:3071  address public QUOTER */\n    tag_27:\n      callvalue\n      dup1\n      iszero\n      tag_172\n      jumpi\n      0x00\n      dup1\n      revert\n    tag_172:\n      pop\n      sload(0x06)\n      tag_96\n      swap1\n      0xffffffffffffffffffffffffffffffffffffffff\n      and\n      dup2\n      jump\n        /* \"TokenSwapper.sol\":7994:8074  function _getWETH() public view returns (address) {... */\n    tag_28:\n      callvalue\n      dup1\n      iszero\n      tag_176\n      jumpi\n      0x00\n      dup1\n      revert\n    tag_176:\n      pop\n        /* \"TokenSwapper.sol\":8062:8066  WETH */\n      and(0xffffffffffffffffffffffffffffffffffffffff, sload(0x07))\n        /* \"TokenSwapper.sol\":7994:8074  function _getWETH() public view returns (address) {... */\n      jump(tag_96)\n        /* \"TokenSwapper.sol\":11096:11199  function setDexVersion(DexVersion _version) external onlyOwner {... */\n    tag_29:\n      callvalue\n      dup1\n      iszero\n      tag_180\n      jumpi\n      0x00\n      dup1\n      revert\n    tag_180:\n      pop\n      tag_61\n      tag_182\n      calldatasize\n      0x04\n      tag_183\n      jump\t// in\n    tag_182:\n      tag_184\n      jump\t// in\n        /* \"TokenSwapper.sol\":5627:5996  function getQuoteV2(uint256 _ethAmount, address _weth, address _targetToken, address _routerV2) public view returns (uint256) {... */\n    tag_30:\n      callvalue\n      dup1\n      iszero\n      tag_185\n      jumpi\n      0x00\n      dup1\n      revert\n    tag_185:\n      pop\n      tag_69\n      tag_187\n      calldatasize\n      0x04\n      tag_188\n      jump\t// in\n    tag_187:\n      tag_189\n      jump\t// in\n        /* \"TokenSwapper.sol\":10380:10543  function setReciever(address newReciever) external onlyOwner {... */\n    tag_31:\n      callvalue\n      dup1\n      iszero\n      tag_191\n      jumpi\n      0x00\n      dup1\n      revert\n    tag_191:\n      pop\n      tag_61\n      tag_193\n      calldatasize\n      0x04\n      tag_83\n      jump\t// in\n    tag_193:\n      tag_194\n      jump\t// in\n        /* \"TokenSwapper.sol\":3078:3097  address public WETH */\n    tag_32:\n      callvalue\n      dup1\n      iszero\n      tag_195\n      jumpi\n      0x00\n      dup1\n      revert\n    tag_195:\n      pop\n      sload(0x07)\n      tag_96\n      swap1\n      0xffffffffffffffffffffffffffffffffffffffff\n      and\n      dup2\n      jump\n        /* \"TokenSwapper.sol\":6166:6759  function getQuoteV3(uint256 _ethAmount, address _weth, address _targetToken, uint256 _v3PoolFee, address _quoter) public view returns (uint256) {... */\n    tag_33:\n      callvalue\n      dup1\n      iszero\n      tag_199\n      jumpi\n      0x00\n      dup1\n      revert\n    tag_199:\n      pop\n      tag_69\n      tag_201\n      calldatasize\n      0x04\n      tag_202\n      jump\t// in\n    tag_201:\n      tag_203\n      jump\t// in\n        /* \"TokenSwapper.sol\":11205:11315  function withdrawETH() external onlyOwner {... */\n    tag_34:\n      callvalue\n      dup1\n      iszero\n      tag_205\n      jumpi\n      0x00\n      dup1\n      revert\n    tag_205:\n      pop\n      tag_61\n      tag_207\n      jump\t// in\n        /* \"TokenSwapper.sol\":2958:2985  uint256 public minAmountOut */\n    tag_35:\n      callvalue\n      dup1\n      iszero\n      tag_208\n      jumpi\n      0x00\n      dup1\n      revert\n    tag_208:\n      pop\n      tag_69\n      sload(0x05)\n      dup2\n      jump\n        /* \"TokenSwapper.sol\":2845:2868  address public routerV3 */\n    tag_36:\n      callvalue\n      dup1\n      iszero\n      tag_212\n      jumpi\n      0x00\n      dup1\n      revert\n    tag_212:\n      pop\n      sload(0x04)\n      tag_96\n      swap1\n      0xffffffffffffffffffffffffffffffffffffffff\n      and\n      dup2\n      jump\n        /* \"TokenSwapper.sol\":11321:11476  function transferOwnership(address newOwner) public onlyOwner {... */\n    tag_37:\n      callvalue\n      dup1\n      iszero\n      tag_216\n      jumpi\n      0x00\n      dup1\n      revert\n    tag_216:\n      pop\n      tag_61\n      tag_218\n      calldatasize\n      0x04\n      tag_83\n      jump\t// in\n    tag_218:\n      tag_219\n      jump\t// in\n        /* \"TokenSwapper.sol\":3141:3164  address public reciever */\n    tag_38:\n      callvalue\n      dup1\n      iszero\n      tag_220\n      jumpi\n      0x00\n      dup1\n      revert\n    tag_220:\n      pop\n      sload(0x08)\n      tag_96\n      swap1\n      0xffffffffffffffffffffffffffffffffffffffff\n      and\n      dup2\n      jump\n        /* \"TokenSwapper.sol\":10549:10645  function setMinAmountOut(uint256 _min) external onlyOwner {... */\n    tag_39:\n      callvalue\n      dup1\n      iszero\n      tag_224\n      jumpi\n      0x00\n      dup1\n      revert\n    tag_224:\n      pop\n      tag_61\n      tag_226\n      calldatasize\n      0x04\n      tag_71\n      jump\t// in\n    tag_226:\n      tag_227\n      jump\t// in\n        /* \"TokenSwapper.sol\":11482:11870  function recoveryToken(address tokenAddress) public onlyOwner {... */\n    tag_40:\n      callvalue\n      dup1\n      iszero\n      tag_228\n      jumpi\n      0x00\n      dup1\n      revert\n    tag_228:\n      pop\n      tag_61\n      tag_230\n      calldatasize\n      0x04\n      tag_83\n      jump\t// in\n    tag_230:\n      tag_231\n      jump\t// in\n        /* \"TokenSwapper.sol\":4483:4856  function trySwapIfProfitable() private nonReentrant {... */\n    tag_60:\n        /* \"TokenSwapper.sol\":324:345  _nonReentrantBefore() */\n      tag_233\n        /* \"TokenSwapper.sol\":324:343  _nonReentrantBefore */\n      tag_234\n        /* \"TokenSwapper.sol\":324:345  _nonReentrantBefore() */\n      jump\t// in\n    tag_233:\n        /* \"TokenSwapper.sol\":4565:4586  address(this).balance */\n      selfbalance\n        /* \"TokenSwapper.sol\":4546:4562  uint256 ethToUse */\n      0x00\n        /* \"TokenSwapper.sol\":4601:4614  ethToUse == 0 */\n      dup2\n      swap1\n      sub\n        /* \"TokenSwapper.sol\":4597:4623  if (ethToUse == 0) return; */\n      tag_236\n      jumpi\n        /* \"TokenSwapper.sol\":4616:4623  return; */\n      pop\n      jump(tag_235)\n        /* \"TokenSwapper.sol\":4597:4623  if (ethToUse == 0) return; */\n    tag_236:\n        /* \"TokenSwapper.sol\":4635:4655  uint256 estimatedOut */\n      0x00\n      dup1\n        /* \"TokenSwapper.sol\":4658:4668  dexVersion */\n      sload(0x04)\n      0x010000000000000000000000000000000000000000000000\n      swap1\n      div\n      0xff\n      and\n        /* \"TokenSwapper.sol\":4658:4685  dexVersion == DexVersion.V2 */\n      0x01\n      dup2\n      gt\n      iszero\n      tag_241\n      jumpi\n      tag_241\n      tag_239\n      jump\t// in\n    tag_241:\n      eq\n        /* \"TokenSwapper.sol\":4658:4753  dexVersion == DexVersion.V2... */\n      tag_242\n      jumpi\n        /* \"TokenSwapper.sol\":4735:4753  _quoteV3(ethToUse) */\n      tag_243\n        /* \"TokenSwapper.sol\":4744:4752  ethToUse */\n      dup3\n        /* \"TokenSwapper.sol\":4735:4743  _quoteV3 */\n      tag_103\n        /* \"TokenSwapper.sol\":4735:4753  _quoteV3(ethToUse) */\n      jump\t// in\n    tag_243:\n        /* \"TokenSwapper.sol\":4658:4753  dexVersion == DexVersion.V2... */\n      jump(tag_245)\n    tag_242:\n        /* \"TokenSwapper.sol\":4701:4719  _quoteV2(ethToUse) */\n      tag_245\n        /* \"TokenSwapper.sol\":4710:4718  ethToUse */\n      dup3\n        /* \"TokenSwapper.sol\":4701:4709  _quoteV2 */\n      tag_72\n        /* \"TokenSwapper.sol\":4701:4719  _quoteV2(ethToUse) */\n      jump\t// in\n    tag_245:\n        /* \"TokenSwapper.sol\":4635:4753  uint256 estimatedOut = dexVersion == DexVersion.V2... */\n      swap1\n      pop\n        /* \"TokenSwapper.sol\":4786:4798  minAmountOut */\n      sload(0x05)\n        /* \"TokenSwapper.sol\":4770:4782  estimatedOut */\n      dup2\n        /* \"TokenSwapper.sol\":4770:4798  estimatedOut >= minAmountOut */\n      lt\n        /* \"TokenSwapper.sol\":4766:4849  if (estimatedOut >= minAmountOut) {... */\n      tag_246\n      jumpi\n        /* \"TokenSwapper.sol\":4815:4837  _performSwap(ethToUse) */\n      tag_247\n        /* \"TokenSwapper.sol\":4828:4836  ethToUse */\n      dup3\n        /* \"TokenSwapper.sol\":4815:4827  _performSwap */\n      tag_248\n        /* \"TokenSwapper.sol\":4815:4837  _performSwap(ethToUse) */\n      jump\t// in\n    tag_247:\n      pop\n        /* \"TokenSwapper.sol\":4766:4849  if (estimatedOut >= minAmountOut) {... */\n    tag_246:\n        /* \"TokenSwapper.sol\":4535:4856  {... */\n      pop\n      pop\n        /* \"TokenSwapper.sol\":356:357  _ */\n    tag_235:\n        /* \"TokenSwapper.sol\":368:388  _nonReentrantAfter() */\n      tag_249\n        /* \"TokenSwapper.sol\":142:143  1 */\n      0x01\n        /* \"TokenSwapper.sol\":607:614  _status */\n      0x00\n        /* \"TokenSwapper.sol\":607:629  _status = _NOT_ENTERED */\n      sstore\n        /* \"TokenSwapper.sol\":558:637  function _nonReentrantAfter() private {... */\n      jump\n        /* \"TokenSwapper.sol\":368:388  _nonReentrantAfter() */\n    tag_249:\n        /* \"TokenSwapper.sol\":4483:4856  function trySwapIfProfitable() private nonReentrant {... */\n      jump\t// out\n        /* \"TokenSwapper.sol\":4864:5464  function withdrawTokens() public nonReentrant {... */\n    tag_62:\n        /* \"TokenSwapper.sol\":324:345  _nonReentrantBefore() */\n      tag_252\n        /* \"TokenSwapper.sol\":324:343  _nonReentrantBefore */\n      tag_234\n        /* \"TokenSwapper.sol\":324:345  _nonReentrantBefore() */\n      jump\t// in\n    tag_252:\n        /* \"TokenSwapper.sol\":4951:4962  targetToken */\n      sload(0x02)\n        /* \"TokenSwapper.sol\":4944:4988  IERC20(targetToken).balanceOf(address(this)) */\n      mload(0x40)\n      0x70a0823100000000000000000000000000000000000000000000000000000000\n      dup2\n      mstore\n        /* \"TokenSwapper.sol\":4982:4986  this */\n      address\n        /* \"TokenSwapper.sol\":4944:4988  IERC20(targetToken).balanceOf(address(this)) */\n      0x04\n      dup3\n      add\n        /* \"#utility.yul\":4180:4254   */\n      mstore\n        /* \"TokenSwapper.sol\":4921:4941  uint256 tokenBalance */\n      0x00\n      swap2\n        /* \"TokenSwapper.sol\":4951:4962  targetToken */\n      0xffffffffffffffffffffffffffffffffffffffff\n      and\n      swap1\n        /* \"TokenSwapper.sol\":4944:4973  IERC20(targetToken).balanceOf */\n      0x70a08231\n      swap1\n        /* \"#utility.yul\":4153:4171   */\n      0x24\n      add\n        /* \"TokenSwapper.sol\":4944:4988  IERC20(targetToken).balanceOf(address(this)) */\n      0x20\n      mload(0x40)\n      dup1\n      dup4\n      sub\n      dup2\n      dup7\n      gas\n      staticcall\n      iszero\n      dup1\n      iszero\n      tag_256\n      jumpi\n      returndatasize\n      0x00\n      dup1\n      returndatacopy\n      revert(0x00, returndatasize)\n    tag_256:\n      pop\n      pop\n      pop\n      pop\n      mload(0x40)\n      returndatasize\n      not(0x1f)\n      0x1f\n      dup3\n      add\n      and\n      dup3\n      add\n      dup1\n      0x40\n      mstore\n      pop\n      dup2\n      add\n      swap1\n      tag_257\n      swap2\n      swap1\n      tag_258\n      jump\t// in\n    tag_257:\n        /* \"TokenSwapper.sol\":4921:4988  uint256 tokenBalance = IERC20(targetToken).balanceOf(address(this)) */\n      swap1\n      pop\n        /* \"TokenSwapper.sol\":5003:5019  tokenBalance > 0 */\n      dup1\n      iszero\n        /* \"TokenSwapper.sol\":4999:5073  if (tokenBalance > 0) IERC20(targetToken).transfer(reciever, tokenBalance) */\n      tag_259\n      jumpi\n        /* \"TokenSwapper.sol\":5028:5039  targetToken */\n      sload(0x02)\n        /* \"TokenSwapper.sol\":5050:5058  reciever */\n      sload(0x08)\n        /* \"TokenSwapper.sol\":5021:5073  IERC20(targetToken).transfer(reciever, tokenBalance) */\n      mload(0x40)\n      0xa9059cbb00000000000000000000000000000000000000000000000000000000\n      dup2\n      mstore\n        /* \"TokenSwapper.sol\":5028:5039  targetToken */\n      0xffffffffffffffffffffffffffffffffffffffff\n        /* \"TokenSwapper.sol\":5050:5058  reciever */\n      swap2\n      dup3\n      and\n        /* \"TokenSwapper.sol\":5021:5073  IERC20(targetToken).transfer(reciever, tokenBalance) */\n      0x04\n      dup3\n      add\n        /* \"#utility.yul\":8478:8552   */\n      mstore\n        /* \"#utility.yul\":8568:8586   */\n      0x24\n      dup2\n      add\n        /* \"#utility.yul\":8561:8595   */\n      dup5\n      swap1\n      mstore\n        /* \"TokenSwapper.sol\":5028:5039  targetToken */\n      swap2\n      and\n      swap1\n        /* \"TokenSwapper.sol\":5021:5049  IERC20(targetToken).transfer */\n      0xa9059cbb\n      swap1\n        /* \"#utility.yul\":8451:8469   */\n      0x44\n      add\n        /* \"TokenSwapper.sol\":5021:5073  IERC20(targetToken).transfer(reciever, tokenBalance) */\n      0x20\n      mload(0x40)\n      dup1\n      dup4\n      sub\n      dup2\n      0x00\n      dup8\n      gas\n      call\n      iszero\n      dup1\n      iszero\n      tag_263\n      jumpi\n      returndatasize\n      0x00\n      dup1\n      returndatacopy\n      revert(0x00, returndatasize)\n    tag_263:\n      pop\n      pop\n      pop\n      pop\n      mload(0x40)\n      returndatasize\n      not(0x1f)\n      0x1f\n      dup3\n      add\n      and\n      dup3\n      add\n      dup1\n      0x40\n      mstore\n      pop\n      dup2\n      add\n      swap1\n      tag_264\n      swap2\n      swap1\n      tag_265\n      jump\t// in\n    tag_264:\n      pop\n        /* \"TokenSwapper.sol\":4999:5073  if (tokenBalance > 0) IERC20(targetToken).transfer(reciever, tokenBalance) */\n    tag_259:\n        /* \"TokenSwapper.sol\":5088:5106  allowedTokensCount */\n      sload(0x0c)\n        /* \"TokenSwapper.sol\":5088:5110  allowedTokensCount > 0 */\n      iszero\n        /* \"TokenSwapper.sol\":5084:5457  if (allowedTokensCount > 0) {... */\n      tag_266\n      jumpi\n        /* \"TokenSwapper.sol\":5150:5151  1 */\n      0x01\n        /* \"TokenSwapper.sol\":5127:5446  for (uint256 tokenId = 1; tokenId <= allowedTokensCount; tokenId++) {... */\n    tag_267:\n        /* \"TokenSwapper.sol\":5164:5182  allowedTokensCount */\n      sload(0x0c)\n        /* \"TokenSwapper.sol\":5153:5160  tokenId */\n      dup2\n        /* \"TokenSwapper.sol\":5153:5182  tokenId <= allowedTokensCount */\n      gt\n        /* \"TokenSwapper.sol\":5127:5446  for (uint256 tokenId = 1; tokenId <= allowedTokensCount; tokenId++) {... */\n      tag_246\n      jumpi\n        /* \"TokenSwapper.sol\":5236:5258  allowedTokens[tokenId] */\n      0x00\n      dup2\n      dup2\n      mstore\n        /* \"TokenSwapper.sol\":5236:5249  allowedTokens */\n      0x09\n        /* \"TokenSwapper.sol\":5236:5258  allowedTokens[tokenId] */\n      0x20\n      mstore\n      0x40\n      swap1\n      dup2\n      swap1\n      keccak256\n      sload\n        /* \"TokenSwapper.sol\":5229:5284  IERC20(allowedTokens[tokenId]).balanceOf(address(this)) */\n      swap1\n      mload\n      0x70a0823100000000000000000000000000000000000000000000000000000000\n      dup2\n      mstore\n        /* \"TokenSwapper.sol\":5278:5282  this */\n      address\n        /* \"TokenSwapper.sol\":5229:5284  IERC20(allowedTokens[tokenId]).balanceOf(address(this)) */\n      0x04\n      dup3\n      add\n        /* \"#utility.yul\":4180:4254   */\n      mstore\n        /* \"TokenSwapper.sol\":5236:5258  allowedTokens[tokenId] */\n      0xffffffffffffffffffffffffffffffffffffffff\n      swap1\n      swap2\n      and\n      swap1\n        /* \"TokenSwapper.sol\":5229:5269  IERC20(allowedTokens[tokenId]).balanceOf */\n      0x70a08231\n      swap1\n        /* \"#utility.yul\":4153:4171   */\n      0x24\n      add\n        /* \"TokenSwapper.sol\":5229:5284  IERC20(allowedTokens[tokenId]).balanceOf(address(this)) */\n      0x20\n      mload(0x40)\n      dup1\n      dup4\n      sub\n      dup2\n      dup7\n      gas\n      staticcall\n      iszero\n      dup1\n      iszero\n      tag_272\n      jumpi\n      returndatasize\n      0x00\n      dup1\n      returndatacopy\n      revert(0x00, returndatasize)\n    tag_272:\n      pop\n      pop\n      pop\n      pop\n      mload(0x40)\n      returndatasize\n      not(0x1f)\n      0x1f\n      dup3\n      add\n      and\n      dup3\n      add\n      dup1\n      0x40\n      mstore\n      pop\n      dup2\n      add\n      swap1\n      tag_273\n      swap2\n      swap1\n      tag_258\n      jump\t// in\n    tag_273:\n        /* \"TokenSwapper.sol\":5214:5284  tokenBalance = IERC20(allowedTokens[tokenId]).balanceOf(address(this)) */\n      swap2\n      pop\n        /* \"TokenSwapper.sol\":5307:5323  tokenBalance > 0 */\n      dup2\n      iszero\n        /* \"TokenSwapper.sol\":5303:5431  if (tokenBalance > 0) {... */\n      tag_274\n      jumpi\n        /* \"TokenSwapper.sol\":5355:5377  allowedTokens[tokenId] */\n      0x00\n      dup2\n      dup2\n      mstore\n        /* \"TokenSwapper.sol\":5355:5368  allowedTokens */\n      0x09\n        /* \"TokenSwapper.sol\":5355:5377  allowedTokens[tokenId] */\n      0x20\n      mstore\n      0x40\n      swap1\n      dup2\n      swap1\n      keccak256\n      sload\n        /* \"TokenSwapper.sol\":5388:5396  reciever */\n      sload(0x08)\n        /* \"TokenSwapper.sol\":5348:5411  IERC20(allowedTokens[tokenId]).transfer(reciever, tokenBalance) */\n      swap2\n      mload\n      0xa9059cbb00000000000000000000000000000000000000000000000000000000\n      dup2\n      mstore\n        /* \"TokenSwapper.sol\":5355:5377  allowedTokens[tokenId] */\n      0xffffffffffffffffffffffffffffffffffffffff\n        /* \"TokenSwapper.sol\":5388:5396  reciever */\n      swap3\n      dup4\n      and\n        /* \"TokenSwapper.sol\":5348:5411  IERC20(allowedTokens[tokenId]).transfer(reciever, tokenBalance) */\n      0x04\n      dup3\n      add\n        /* \"#utility.yul\":8478:8552   */\n      mstore\n        /* \"#utility.yul\":8568:8586   */\n      0x24\n      dup2\n      add\n        /* \"#utility.yul\":8561:8595   */\n      dup6\n      swap1\n      mstore\n        /* \"TokenSwapper.sol\":5355:5377  allowedTokens[tokenId] */\n      swap2\n      and\n      swap1\n        /* \"TokenSwapper.sol\":5348:5387  IERC20(allowedTokens[tokenId]).transfer */\n      0xa9059cbb\n      swap1\n        /* \"#utility.yul\":8451:8469   */\n      0x44\n      add\n        /* \"TokenSwapper.sol\":5348:5411  IERC20(allowedTokens[tokenId]).transfer(reciever, tokenBalance) */\n      0x20\n      mload(0x40)\n      dup1\n      dup4\n      sub\n      dup2\n      0x00\n      dup8\n      gas\n      call\n      iszero\n      dup1\n      iszero\n      tag_277\n      jumpi\n      returndatasize\n      0x00\n      dup1\n      returndatacopy\n      revert(0x00, returndatasize)\n    tag_277:\n      pop\n      pop\n      pop\n      pop\n      mload(0x40)\n      returndatasize\n      not(0x1f)\n      0x1f\n      dup3\n      add\n      and\n      dup3\n      add\n      dup1\n      0x40\n      mstore\n      pop\n      dup2\n      add\n      swap1\n      tag_278\n      swap2\n      swap1\n      tag_265\n      jump\t// in\n    tag_278:\n      pop\n        /* \"TokenSwapper.sol\":5303:5431  if (tokenBalance > 0) {... */\n    tag_274:\n        /* \"TokenSwapper.sol\":5184:5193  tokenId++ */\n      dup1\n      tag_279\n      dup2\n      tag_280\n      jump\t// in\n    tag_279:\n      swap2\n      pop\n      pop\n        /* \"TokenSwapper.sol\":5127:5446  for (uint256 tokenId = 1; tokenId <= allowedTokensCount; tokenId++) {... */\n      jump(tag_267)\n        /* \"TokenSwapper.sol\":5084:5457  if (allowedTokensCount > 0) {... */\n    tag_266:\n        /* \"TokenSwapper.sol\":4910:5464  {... */\n      pop\n        /* \"TokenSwapper.sol\":368:388  _nonReentrantAfter() */\n      tag_249\n        /* \"TokenSwapper.sol\":142:143  1 */\n      0x01\n        /* \"TokenSwapper.sol\":607:614  _status */\n      0x00\n        /* \"TokenSwapper.sol\":607:629  _status = _NOT_ENTERED */\n      sstore\n        /* \"TokenSwapper.sol\":558:637  function _nonReentrantAfter() private {... */\n      jump\n        /* \"TokenSwapper.sol\":8286:9507  function getAllowedTokens() public view returns (TokenInfo[] memory ret) {... */\n    tag_65:\n        /* \"TokenSwapper.sol\":8374:8380  inited */\n      sload(0x07)\n        /* \"TokenSwapper.sol\":8335:8357  TokenInfo[] memory ret */\n      0x60\n      swap1\n        /* \"TokenSwapper.sol\":8374:8380  inited */\n      0x010000000000000000000000000000000000000000\n      swap1\n      div\n      0xff\n      and\n        /* \"TokenSwapper.sol\":8370:9500  if (inited) {... */\n      iszero\n      tag_283\n      jumpi\n        /* \"TokenSwapper.sol\":8419:8437  allowedTokensCount */\n      sload(0x0c)\n        /* \"TokenSwapper.sol\":8419:8441  allowedTokensCount + 1 */\n      tag_284\n      swap1\n        /* \"TokenSwapper.sol\":8440:8441  1 */\n      0x01\n        /* \"TokenSwapper.sol\":8419:8441  allowedTokensCount + 1 */\n      tag_58\n      jump\t// in\n    tag_284:\n        /* \"TokenSwapper.sol\":8403:8442  new TokenInfo[](allowedTokensCount + 1) */\n      0xffffffffffffffff\n      dup2\n      gt\n      iszero\n      tag_286\n      jumpi\n      tag_286\n      tag_287\n      jump\t// in\n    tag_286:\n      mload(0x40)\n      swap1\n      dup1\n      dup3\n      mstore\n      dup1\n      0x20\n      mul\n      0x20\n      add\n      dup3\n      add\n      0x40\n      mstore\n      dup1\n      iszero\n      tag_288\n      jumpi\n      dup2\n      0x20\n      add\n    tag_289:\n      tag_290\n      mload(0x40)\n      dup1\n      0xc0\n      add\n      0x40\n      mstore\n      dup1\n      0x00\n      dup2\n      mstore\n      0x20\n      add\n      and(0xffffffffffffffffffffffffffffffffffffffff, 0x00)\n      dup2\n      mstore\n      0x20\n      add\n      0x60\n      dup2\n      mstore\n      0x20\n      add\n      0x60\n      dup2\n      mstore\n      0x20\n      add\n      and(0xff, 0x00)\n      dup2\n      mstore\n      0x20\n      add\n      0x00\n      dup2\n      mstore\n      pop\n      swap1\n      jump\n    tag_290:\n      dup2\n      mstore\n      0x20\n      add\n      swap1\n      0x01\n      swap1\n      sub\n      swap1\n      dup2\n      tag_289\n      jumpi\n      swap1\n      pop\n    tag_288:\n      pop\n        /* \"TokenSwapper.sol\":8483:8494  targetToken */\n      sload(0x02)\n        /* \"TokenSwapper.sol\":8519:8830  TokenInfo({... */\n      0x40\n      dup1\n      mload\n      0xc0\n      dup2\n      add\n      dup3\n      mstore\n        /* \"TokenSwapper.sol\":8457:8473  IERC20 baseToken */\n      0x00\n        /* \"TokenSwapper.sol\":8519:8830  TokenInfo({... */\n      dup1\n      dup3\n      mstore\n        /* \"TokenSwapper.sol\":8483:8494  targetToken */\n      0xffffffffffffffffffffffffffffffffffffffff\n      swap1\n      swap4\n      and\n        /* \"TokenSwapper.sol\":8519:8830  TokenInfo({... */\n      0x20\n      dup3\n      add\n      dup2\n      swap1\n      mstore\n        /* \"TokenSwapper.sol\":8634:8652  baseToken.symbol() */\n      dup3\n      mload\n      0x95d89b4100000000000000000000000000000000000000000000000000000000\n      dup2\n      mstore\n      dup4\n      mload\n        /* \"TokenSwapper.sol\":8397:8442  ret = new TokenInfo[](allowedTokensCount + 1) */\n      swap6\n      swap7\n      pop\n        /* \"TokenSwapper.sol\":8483:8494  targetToken */\n      swap1\n      swap5\n        /* \"TokenSwapper.sol\":8519:8830  TokenInfo({... */\n      swap2\n      swap4\n      swap3\n      dup5\n      add\n      swap3\n        /* \"TokenSwapper.sol\":8483:8494  targetToken */\n      dup6\n      swap3\n        /* \"TokenSwapper.sol\":8634:8650  baseToken.symbol */\n      0x95d89b41\n      swap3\n        /* \"TokenSwapper.sol\":8634:8652  baseToken.symbol() */\n      0x04\n      dup1\n      dup3\n      add\n      swap4\n        /* \"TokenSwapper.sol\":8457:8473  IERC20 baseToken */\n      swap3\n        /* \"TokenSwapper.sol\":8634:8652  baseToken.symbol() */\n      swap2\n      dup3\n      swap1\n      sub\n      add\n      dup2\n        /* \"TokenSwapper.sol\":8483:8494  targetToken */\n      dup7\n        /* \"TokenSwapper.sol\":8634:8652  baseToken.symbol() */\n      gas\n      staticcall\n      iszero\n      dup1\n      iszero\n      tag_293\n      jumpi\n      returndatasize\n      0x00\n      dup1\n      returndatacopy\n      revert(0x00, returndatasize)\n    tag_293:\n      pop\n      pop\n      pop\n      pop\n      mload(0x40)\n      returndatasize\n      0x00\n      dup3\n      returndatacopy\n      0x1f\n      returndatasize\n      swap1\n      dup2\n      add\n      0xffffffffffffffffffffffffffffffffffffffffffffffffffffffffffffffe0\n      and\n      dup3\n      add\n      0x40\n      mstore\n      tag_294\n      swap2\n      swap1\n      dup2\n      add\n      swap1\n      tag_295\n      jump\t// in\n    tag_294:\n        /* \"TokenSwapper.sol\":8519:8830  TokenInfo({... */\n      dup2\n      mstore\n      0x20\n      add\n        /* \"TokenSwapper.sol\":8682:8691  baseToken */\n      dup3\n        /* \"TokenSwapper.sol\":8682:8696  baseToken.name */\n      0xffffffffffffffffffffffffffffffffffffffff\n      and\n      0x06fdde03\n        /* \"TokenSwapper.sol\":8682:8698  baseToken.name() */\n      mload(0x40)\n      dup2\n      0xffffffff\n      and\n      0xe0\n      shl\n      dup2\n      mstore\n      0x04\n      add\n      0x00\n      mload(0x40)\n      dup1\n      dup4\n      sub\n      dup2\n      dup7\n      gas\n      staticcall\n      iszero\n      dup1\n      iszero\n      tag_297\n      jumpi\n      returndatasize\n      0x00\n      dup1\n      returndatacopy\n      revert(0x00, returndatasize)\n    tag_297:\n      pop\n      pop\n      pop\n      pop\n      mload(0x40)\n      returndatasize\n      0x00\n      dup3\n      returndatacopy\n      0x1f\n      returndatasize\n      swap1\n      dup2\n      add\n      0xffffffffffffffffffffffffffffffffffffffffffffffffffffffffffffffe0\n      and\n      dup3\n      add\n      0x40\n      mstore\n      tag_298\n      swap2\n      swap1\n      dup2\n      add\n      swap1\n      tag_295\n      jump\t// in\n    tag_298:\n        /* \"TokenSwapper.sol\":8519:8830  TokenInfo({... */\n      dup2\n      mstore\n      0x20\n      add\n        /* \"TokenSwapper.sol\":8732:8741  baseToken */\n      dup3\n        /* \"TokenSwapper.sol\":8732:8750  baseToken.decimals */\n      0xffffffffffffffffffffffffffffffffffffffff\n      and\n      0x313ce567\n        /* \"TokenSwapper.sol\":8732:8752  baseToken.decimals() */\n      mload(0x40)\n      dup2\n      0xffffffff\n      and\n      0xe0\n      shl\n      dup2\n      mstore\n      0x04\n      add\n      0x20\n      mload(0x40)\n      dup1\n      dup4\n      sub\n      dup2\n      dup7\n      gas\n      staticcall\n      iszero\n      dup1\n      iszero\n      tag_300\n      jumpi\n      returndatasize\n      0x00\n      dup1\n      returndatacopy\n      revert(0x00, returndatasize)\n    tag_300:\n      pop\n      pop\n      pop\n      pop\n      mload(0x40)\n      returndatasize\n      not(0x1f)\n      0x1f\n      dup3\n      add\n      and\n      dup3\n      add\n      dup1\n      0x40\n      mstore\n      pop\n      dup2\n      add\n      swap1\n      tag_301\n      swap2\n      swap1\n      tag_302\n      jump\t// in\n    tag_301:\n        /* \"TokenSwapper.sol\":8519:8830  TokenInfo({... */\n      0xff\n      and\n      dup2\n      mstore\n        /* \"TokenSwapper.sol\":8780:8814  baseToken.balanceOf(address(this)) */\n      mload(0x40)\n      0x70a0823100000000000000000000000000000000000000000000000000000000\n      dup2\n      mstore\n        /* \"TokenSwapper.sol\":8808:8812  this */\n      address\n        /* \"TokenSwapper.sol\":8780:8814  baseToken.balanceOf(address(this)) */\n      0x04\n      dup3\n      add\n        /* \"#utility.yul\":4180:4254   */\n      mstore\n        /* \"TokenSwapper.sol\":8519:8830  TokenInfo({... */\n      0x20\n      swap1\n      swap2\n      add\n      swap1\n        /* \"TokenSwapper.sol\":8780:8799  baseToken.balanceOf */\n      0xffffffffffffffffffffffffffffffffffffffff\n      dup5\n      and\n      swap1\n      0x70a08231\n      swap1\n        /* \"#utility.yul\":4153:4171   */\n      0x24\n      add\n        /* \"TokenSwapper.sol\":8780:8814  baseToken.balanceOf(address(this)) */\n      0x20\n      mload(0x40)\n      dup1\n      dup4\n      sub\n      dup2\n      dup7\n      gas\n      staticcall\n      iszero\n      dup1\n      iszero\n      tag_305\n      jumpi\n      returndatasize\n      0x00\n      dup1\n      returndatacopy\n      revert(0x00, returndatasize)\n    tag_305:\n      pop\n      pop\n      pop\n      pop\n      mload(0x40)\n      returndatasize\n      not(0x1f)\n      0x1f\n      dup3\n      add\n      and\n      dup3\n      add\n      dup1\n      0x40\n      mstore\n      pop\n      dup2\n      add\n      swap1\n      tag_306\n      swap2\n      swap1\n      tag_258\n      jump\t// in\n    tag_306:\n        /* \"TokenSwapper.sol\":8519:8830  TokenInfo({... */\n      dup2\n      mstore\n      pop\n        /* \"TokenSwapper.sol\":8510:8513  ret */\n      dup3\n        /* \"TokenSwapper.sol\":8514:8515  0 */\n      0x00\n        /* \"TokenSwapper.sol\":8510:8516  ret[0] */\n      dup2\n      mload\n      dup2\n      lt\n      tag_308\n      jumpi\n      tag_308\n      tag_309\n      jump\t// in\n    tag_308:\n      0x20\n      swap1\n      dup2\n      mul\n      swap2\n      swap1\n      swap2\n      add\n      add\n        /* \"TokenSwapper.sol\":8510:8830  ret[0] = TokenInfo({... */\n      mstore\n        /* \"TokenSwapper.sol\":8849:8867  allowedTokensCount */\n      sload(0x0c)\n        /* \"TokenSwapper.sol\":8849:8871  allowedTokensCount > 0 */\n      iszero\n        /* \"TokenSwapper.sol\":8845:9489  if (allowedTokensCount > 0) {... */\n      tag_310\n      jumpi\n        /* \"TokenSwapper.sol\":8915:8916  1 */\n      0x01\n        /* \"TokenSwapper.sol\":8892:9474  for (uint256 tokenId = 1; tokenId <= allowedTokensCount; tokenId++) {... */\n    tag_311:\n        /* \"TokenSwapper.sol\":8929:8947  allowedTokensCount */\n      sload(0x0c)\n        /* \"TokenSwapper.sol\":8918:8925  tokenId */\n      dup2\n        /* \"TokenSwapper.sol\":8918:8947  tokenId <= allowedTokensCount */\n      gt\n        /* \"TokenSwapper.sol\":8892:9474  for (uint256 tokenId = 1; tokenId <= allowedTokensCount; tokenId++) {... */\n      tag_312\n      jumpi\n        /* \"TokenSwapper.sol\":8983:8999  IERC20 tokenInfo */\n      0x00\n        /* \"TokenSwapper.sol\":9009:9031  allowedTokens[tokenId] */\n      dup2\n      dup2\n      mstore\n        /* \"TokenSwapper.sol\":9009:9022  allowedTokens */\n      0x09\n        /* \"TokenSwapper.sol\":9009:9031  allowedTokens[tokenId] */\n      0x20\n      dup2\n      dup2\n      mstore\n      0x40\n      dup1\n      dup5\n      keccak256\n      sload\n        /* \"TokenSwapper.sol\":9070:9454  TokenInfo({... */\n      dup2\n      mload\n      0xc0\n      dup2\n      add\n      dup4\n      mstore\n      dup7\n      dup2\n      mstore\n        /* \"TokenSwapper.sol\":9164:9186  allowedTokens[tokenId] */\n      dup7\n      dup7\n      mstore\n      swap4\n      dup4\n      mstore\n        /* \"TokenSwapper.sol\":9009:9031  allowedTokens[tokenId] */\n      0xffffffffffffffffffffffffffffffffffffffff\n      and\n        /* \"TokenSwapper.sol\":9070:9454  TokenInfo({... */\n      swap2\n      dup4\n      add\n      dup3\n      swap1\n      mstore\n        /* \"TokenSwapper.sol\":9226:9244  tokenInfo.symbol() */\n      dup1\n      mload\n      0x95d89b4100000000000000000000000000000000000000000000000000000000\n      dup2\n      mstore\n      dup2\n      mload\n        /* \"TokenSwapper.sol\":9009:9031  allowedTokens[tokenId] */\n      swap3\n      swap5\n        /* \"TokenSwapper.sol\":9070:9454  TokenInfo({... */\n      swap2\n      dup5\n      add\n      swap3\n        /* \"TokenSwapper.sol\":9009:9031  allowedTokens[tokenId] */\n      dup6\n      swap3\n        /* \"TokenSwapper.sol\":9226:9242  tokenInfo.symbol */\n      0x95d89b41\n      swap3\n        /* \"TokenSwapper.sol\":9226:9244  tokenInfo.symbol() */\n      0x04\n      dup1\n      dup3\n      add\n      swap4\n      swap2\n      dup3\n      swap1\n      sub\n      add\n      dup2\n        /* \"TokenSwapper.sol\":9009:9031  allowedTokens[tokenId] */\n      dup7\n        /* \"TokenSwapper.sol\":9226:9244  tokenInfo.symbol() */\n      gas\n      staticcall\n      iszero\n      dup1\n      iszero\n      tag_315\n      jumpi\n      returndatasize\n      0x00\n      dup1\n      returndatacopy\n      revert(0x00, returndatasize)\n    tag_315:\n      pop\n      pop\n      pop\n      pop\n      mload(0x40)\n      returndatasize\n      0x00\n      dup3\n      returndatacopy\n      0x1f\n      returndatasize\n      swap1\n      dup2\n      add\n      0xffffffffffffffffffffffffffffffffffffffffffffffffffffffffffffffe0\n      and\n      dup3\n      add\n      0x40\n      mstore\n      tag_316\n      swap2\n      swap1\n      dup2\n      add\n      swap1\n      tag_295\n      jump\t// in\n    tag_316:\n        /* \"TokenSwapper.sol\":9070:9454  TokenInfo({... */\n      dup2\n      mstore\n      0x20\n      add\n        /* \"TokenSwapper.sol\":9282:9291  tokenInfo */\n      dup3\n        /* \"TokenSwapper.sol\":9282:9296  tokenInfo.name */\n      0xffffffffffffffffffffffffffffffffffffffff\n      and\n      0x06fdde03\n        /* \"TokenSwapper.sol\":9282:9298  tokenInfo.name() */\n      mload(0x40)\n      dup2\n      0xffffffff\n      and\n      0xe0\n      shl\n      dup2\n      mstore\n      0x04\n      add\n      0x00\n      mload(0x40)\n      dup1\n      dup4\n      sub\n      dup2\n      dup7\n      gas\n      staticcall\n      iszero\n      dup1\n      iszero\n      tag_318\n      jumpi\n      returndatasize\n      0x00\n      dup1\n      returndatacopy\n      revert(0x00, returndatasize)\n    tag_318:\n      pop\n      pop\n      pop\n      pop\n      mload(0x40)\n      returndatasize\n      0x00\n      dup3\n      returndatacopy\n      0x1f\n      returndatasize\n      swap1\n      dup2\n      add\n      0xffffffffffffffffffffffffffffffffffffffffffffffffffffffffffffffe0\n      and\n      dup3\n      add\n      0x40\n      mstore\n      tag_319\n      swap2\n      swap1\n      dup2\n      add\n      swap1\n      tag_295\n      jump\t// in\n    tag_319:\n        /* \"TokenSwapper.sol\":9070:9454  TokenInfo({... */\n      dup2\n      mstore\n      0x20\n      add\n        /* \"TokenSwapper.sol\":9340:9349  tokenInfo */\n      dup3\n        /* \"TokenSwapper.sol\":9340:9358  tokenInfo.decimals */\n      0xffffffffffffffffffffffffffffffffffffffff\n      and\n      0x313ce567\n        /* \"TokenSwapper.sol\":9340:9360  tokenInfo.decimals() */\n      mload(0x40)\n      dup2\n      0xffffffff\n      and\n      0xe0\n      shl\n      dup2\n      mstore\n      0x04\n      add\n      0x20\n      mload(0x40)\n      dup1\n      dup4\n      sub\n      dup2\n      dup7\n      gas\n      staticcall\n      iszero\n      dup1\n      iszero\n      tag_321\n      jumpi\n      returndatasize\n      0x00\n      dup1\n      returndatacopy\n      revert(0x00, returndatasize)\n    tag_321:\n      pop\n      pop\n      pop\n      pop\n      mload(0x40)\n      returndatasize\n      not(0x1f)\n      0x1f\n      dup3\n      add\n      and\n      dup3\n      add\n      dup1\n      0x40\n      mstore\n      pop\n      dup2\n      add\n      swap1\n      tag_322\n      swap2\n      swap1\n      tag_302\n      jump\t// in\n    tag_322:\n        /* \"TokenSwapper.sol\":9070:9454  TokenInfo({... */\n      0xff\n      and\n      dup2\n      mstore\n        /* \"TokenSwapper.sol\":9396:9430  tokenInfo.balanceOf(address(this)) */\n      mload(0x40)\n      0x70a0823100000000000000000000000000000000000000000000000000000000\n      dup2\n      mstore\n        /* \"TokenSwapper.sol\":9424:9428  this */\n      address\n        /* \"TokenSwapper.sol\":9396:9430  tokenInfo.balanceOf(address(this)) */\n      0x04\n      dup3\n      add\n        /* \"#utility.yul\":4180:4254   */\n      mstore\n        /* \"TokenSwapper.sol\":9070:9454  TokenInfo({... */\n      0x20\n      swap1\n      swap2\n      add\n      swap1\n        /* \"TokenSwapper.sol\":9396:9415  tokenInfo.balanceOf */\n      0xffffffffffffffffffffffffffffffffffffffff\n      dup5\n      and\n      swap1\n      0x70a08231\n      swap1\n        /* \"#utility.yul\":4153:4171   */\n      0x24\n      add\n        /* \"TokenSwapper.sol\":9396:9430  tokenInfo.balanceOf(address(this)) */\n      0x20\n      mload(0x40)\n      dup1\n      dup4\n      sub\n      dup2\n      dup7\n      gas\n      staticcall\n      iszero\n      dup1\n      iszero\n      tag_325\n      jumpi\n      returndatasize\n      0x00\n      dup1\n      returndatacopy\n      revert(0x00, returndatasize)\n    tag_325:\n      pop\n      pop\n      pop\n      pop\n      mload(0x40)\n      returndatasize\n      not(0x1f)\n      0x1f\n      dup3\n      add\n      and\n      dup3\n      add\n      dup1\n      0x40\n      mstore\n      pop\n      dup2\n      add\n      swap1\n      tag_326\n      swap2\n      swap1\n      tag_258\n      jump\t// in\n    tag_326:\n        /* \"TokenSwapper.sol\":9070:9454  TokenInfo({... */\n      dup2\n      mstore\n      pop\n        /* \"TokenSwapper.sol\":9055:9058  ret */\n      dup5\n        /* \"TokenSwapper.sol\":9059:9066  tokenId */\n      dup4\n        /* \"TokenSwapper.sol\":9055:9067  ret[tokenId] */\n      dup2\n      mload\n      dup2\n      lt\n      tag_328\n      jumpi\n      tag_328\n      tag_309\n      jump\t// in\n    tag_328:\n      0x20\n      mul\n      0x20\n      add\n      add\n        /* \"TokenSwapper.sol\":9055:9454  ret[tokenId] = TokenInfo({... */\n      dup2\n      swap1\n      mstore\n      pop\n        /* \"TokenSwapper.sol\":8960:9474  {... */\n      pop\n        /* \"TokenSwapper.sol\":8949:8958  tokenId++ */\n      dup1\n      dup1\n      tag_329\n      swap1\n      tag_280\n      jump\t// in\n    tag_329:\n      swap2\n      pop\n      pop\n        /* \"TokenSwapper.sol\":8892:9474  for (uint256 tokenId = 1; tokenId <= allowedTokensCount; tokenId++) {... */\n      jump(tag_311)\n    tag_312:\n      pop\n        /* \"TokenSwapper.sol\":8845:9489  if (allowedTokensCount > 0) {... */\n    tag_310:\n        /* \"TokenSwapper.sol\":8382:9500  {... */\n      pop\n        /* \"TokenSwapper.sol\":8370:9500  if (inited) {... */\n    tag_283:\n        /* \"TokenSwapper.sol\":8286:9507  function getAllowedTokens() public view returns (TokenInfo[] memory ret) {... */\n      swap1\n      jump\t// out\n        /* \"TokenSwapper.sol\":5472:5621  function _quoteV2(uint256 ethAmount) public view returns (uint256) {... */\n    tag_72:\n        /* \"TokenSwapper.sol\":5530:5537  uint256 */\n      0x00\n        /* \"TokenSwapper.sol\":5557:5613  getQuoteV2(ethAmount, _getWETH(), targetToken, routerV2) */\n      tag_331\n        /* \"TokenSwapper.sol\":5568:5577  ethAmount */\n      dup3\n        /* \"TokenSwapper.sol\":5579:5589  _getWETH() */\n      tag_332\n        /* \"TokenSwapper.sol\":8062:8066  WETH */\n      and(0xffffffffffffffffffffffffffffffffffffffff, sload(0x07))\n      swap1\n        /* \"TokenSwapper.sol\":7994:8074  function _getWETH() public view returns (address) {... */\n      jump\n        /* \"TokenSwapper.sol\":5579:5589  _getWETH() */\n    tag_332:\n        /* \"TokenSwapper.sol\":5591:5602  targetToken */\n      sload(0x02)\n        /* \"TokenSwapper.sol\":5604:5612  routerV2 */\n      sload(0x03)\n        /* \"TokenSwapper.sol\":5591:5602  targetToken */\n      0xffffffffffffffffffffffffffffffffffffffff\n      swap2\n      dup3\n      and\n      swap2\n        /* \"TokenSwapper.sol\":5604:5612  routerV2 */\n      and\n        /* \"TokenSwapper.sol\":5557:5567  getQuoteV2 */\n      tag_189\n        /* \"TokenSwapper.sol\":5557:5613  getQuoteV2(ethAmount, _getWETH(), targetToken, routerV2) */\n      jump\t// in\n    tag_331:\n        /* \"TokenSwapper.sol\":5550:5613  return getQuoteV2(ethAmount, _getWETH(), targetToken, routerV2) */\n      swap3\n        /* \"TokenSwapper.sol\":5472:5621  function _quoteV2(uint256 ethAmount) public view returns (uint256) {... */\n      swap2\n      pop\n      pop\n      jump\t// out\n        /* \"TokenSwapper.sol\":10743:10921  function setTargetToken(address newTargetToken) external onlyOwner {... */\n    tag_84:\n        /* \"TokenSwapper.sol\":3522:3527  owner */\n      and(0xffffffffffffffffffffffffffffffffffffffff, sload(0x01))\n        /* \"TokenSwapper.sol\":3508:3518  msg.sender */\n      caller\n        /* \"TokenSwapper.sol\":3508:3527  msg.sender == owner */\n      eq\n        /* \"TokenSwapper.sol\":3500:3542  require(msg.sender == owner, \"Only owner\") */\n      tag_334\n      jumpi\n      mload(0x40)\n      0x08c379a000000000000000000000000000000000000000000000000000000000\n      dup2\n      mstore\n        /* \"#utility.yul\":11068:11070   */\n      0x20\n        /* \"TokenSwapper.sol\":3500:3542  require(msg.sender == owner, \"Only owner\") */\n      0x04\n      dup3\n      add\n        /* \"#utility.yul\":11050:11071   */\n      mstore\n        /* \"#utility.yul\":11107:11109   */\n      0x0a\n        /* \"#utility.yul\":11087:11105   */\n      0x24\n      dup3\n      add\n        /* \"#utility.yul\":11080:11110   */\n      mstore\n        /* \"#utility.yul\":11146:11158   */\n      0x4f6e6c79206f776e657200000000000000000000000000000000000000000000\n        /* \"#utility.yul\":11126:11144   */\n      0x44\n      dup3\n      add\n        /* \"#utility.yul\":11119:11159   */\n      mstore\n        /* \"#utility.yul\":11176:11194   */\n      0x64\n      add\n        /* \"TokenSwapper.sol\":3500:3542  require(msg.sender == owner, \"Only owner\") */\n    tag_335:\n      mload(0x40)\n      dup1\n      swap2\n      sub\n      swap1\n      revert\n    tag_334:\n        /* \"TokenSwapper.sol\":10829:10857  newTargetToken != address(0) */\n      0xffffffffffffffffffffffffffffffffffffffff\n      dup2\n      and\n        /* \"TokenSwapper.sol\":10821:10874  require(newTargetToken != address(0), \"Cant be zero\") */\n      tag_338\n      jumpi\n      mload(0x40)\n      0x08c379a000000000000000000000000000000000000000000000000000000000\n      dup2\n      mstore\n        /* \"#utility.yul\":11407:11409   */\n      0x20\n        /* \"TokenSwapper.sol\":10821:10874  require(newTargetToken != address(0), \"Cant be zero\") */\n      0x04\n      dup3\n      add\n        /* \"#utility.yul\":11389:11410   */\n      mstore\n        /* \"#utility.yul\":11446:11448   */\n      0x0c\n        /* \"#utility.yul\":11426:11444   */\n      0x24\n      dup3\n      add\n        /* \"#utility.yul\":11419:11449   */\n      mstore\n        /* \"#utility.yul\":11485:11499   */\n      0x43616e74206265207a65726f0000000000000000000000000000000000000000\n        /* \"#utility.yul\":11465:11483   */\n      0x44\n      dup3\n      add\n        /* \"#utility.yul\":11458:11500   */\n      mstore\n        /* \"#utility.yul\":11517:11535   */\n      0x64\n      add\n        /* \"TokenSwapper.sol\":10821:10874  require(newTargetToken != address(0), \"Cant be zero\") */\n      tag_335\n        /* \"#utility.yul\":11205:11541   */\n      jump\n        /* \"TokenSwapper.sol\":10821:10874  require(newTargetToken != address(0), \"Cant be zero\") */\n    tag_338:\n        /* \"TokenSwapper.sol\":10885:10896  targetToken */\n      0x02\n        /* \"TokenSwapper.sol\":10885:10913  targetToken = newTargetToken */\n      dup1\n      sload\n      0xffffffffffffffffffffffff0000000000000000000000000000000000000000\n      and\n      0xffffffffffffffffffffffffffffffffffffffff\n      swap3\n      swap1\n      swap3\n      and\n      swap2\n      swap1\n      swap2\n      or\n      swap1\n      sstore\n        /* \"TokenSwapper.sol\":10743:10921  function setTargetToken(address newTargetToken) external onlyOwner {... */\n      jump\t// out\n        /* \"TokenSwapper.sol\":6002:6160  function _quoteV3(uint256 ethAmount) public view returns (uint256) {... */\n    tag_103:\n        /* \"TokenSwapper.sol\":6060:6067  uint256 */\n      0x00\n        /* \"TokenSwapper.sol\":6087:6152  getQuoteV3(ethAmount, _getWETH(), targetToken, v3PoolFee, QUOTER) */\n      tag_331\n        /* \"TokenSwapper.sol\":6098:6107  ethAmount */\n      dup3\n        /* \"TokenSwapper.sol\":6109:6119  _getWETH() */\n      tag_343\n        /* \"TokenSwapper.sol\":8062:8066  WETH */\n      and(0xffffffffffffffffffffffffffffffffffffffff, sload(0x07))\n      swap1\n        /* \"TokenSwapper.sol\":7994:8074  function _getWETH() public view returns (address) {... */\n      jump\n        /* \"TokenSwapper.sol\":6109:6119  _getWETH() */\n    tag_343:\n        /* \"TokenSwapper.sol\":6121:6132  targetToken */\n      sload(0x02)\n        /* \"TokenSwapper.sol\":6134:6143  v3PoolFee */\n      sload(0x04)\n        /* \"TokenSwapper.sol\":6145:6151  QUOTER */\n      sload(0x06)\n        /* \"TokenSwapper.sol\":6121:6132  targetToken */\n      0xffffffffffffffffffffffffffffffffffffffff\n      swap3\n      dup4\n      and\n      swap3\n        /* \"TokenSwapper.sol\":6134:6143  v3PoolFee */\n      0x010000000000000000000000000000000000000000\n      swap1\n      swap3\n      div\n      0xffffff\n      and\n      swap2\n        /* \"TokenSwapper.sol\":6145:6151  QUOTER */\n      and\n        /* \"TokenSwapper.sol\":6087:6097  getQuoteV3 */\n      tag_203\n        /* \"TokenSwapper.sol\":6087:6152  getQuoteV3(ethAmount, _getWETH(), targetToken, v3PoolFee, QUOTER) */\n      jump\t// in\n        /* \"TokenSwapper.sol\":9513:9866  function addAllowedToken(address tokenAddress) public onlyOwner {... */\n    tag_108:\n        /* \"TokenSwapper.sol\":3522:3527  owner */\n      and(0xffffffffffffffffffffffffffffffffffffffff, sload(0x01))\n        /* \"TokenSwapper.sol\":3508:3518  msg.sender */\n      caller\n        /* \"TokenSwapper.sol\":3508:3527  msg.sender == owner */\n      eq\n        /* \"TokenSwapper.sol\":3500:3542  require(msg.sender == owner, \"Only owner\") */\n      tag_345\n      jumpi\n      mload(0x40)\n      0x08c379a000000000000000000000000000000000000000000000000000000000\n      dup2\n      mstore\n        /* \"#utility.yul\":11068:11070   */\n      0x20\n        /* \"TokenSwapper.sol\":3500:3542  require(msg.sender == owner, \"Only owner\") */\n      0x04\n      dup3\n      add\n        /* \"#utility.yul\":11050:11071   */\n      mstore\n        /* \"#utility.yul\":11107:11109   */\n      0x0a\n        /* \"#utility.yul\":11087:11105   */\n      0x24\n      dup3\n      add\n        /* \"#utility.yul\":11080:11110   */\n      mstore\n        /* \"#utility.yul\":11146:11158   */\n      0x4f6e6c79206f776e657200000000000000000000000000000000000000000000\n        /* \"#utility.yul\":11126:11144   */\n      0x44\n      dup3\n      add\n        /* \"#utility.yul\":11119:11159   */\n      mstore\n        /* \"#utility.yul\":11176:11194   */\n      0x64\n      add\n        /* \"TokenSwapper.sol\":3500:3542  require(msg.sender == owner, \"Only owner\") */\n      tag_335\n        /* \"#utility.yul\":10866:11200   */\n      jump\n        /* \"TokenSwapper.sol\":3500:3542  require(msg.sender == owner, \"Only owner\") */\n    tag_345:\n        /* \"TokenSwapper.sol\":9593:9626  allowedTokensExists[tokenAddress] */\n      0xffffffffffffffffffffffffffffffffffffffff\n      dup2\n      and\n      0x00\n      swap1\n      dup2\n      mstore\n        /* \"TokenSwapper.sol\":9593:9612  allowedTokensExists */\n      0x0a\n        /* \"TokenSwapper.sol\":9593:9626  allowedTokensExists[tokenAddress] */\n      0x20\n      mstore\n      0x40\n      swap1\n      keccak256\n      sload\n      0xff\n      and\n        /* \"TokenSwapper.sol\":9588:9859  if (!allowedTokensExists[tokenAddress]) {... */\n      tag_348\n      jumpi\n        /* \"TokenSwapper.sol\":9643:9661  allowedTokensCount */\n      0x0c\n        /* \"TokenSwapper.sol\":9643:9663  allowedTokensCount++ */\n      dup1\n      sload\n      swap1\n        /* \"TokenSwapper.sol\":9643:9661  allowedTokensCount */\n      0x00\n        /* \"TokenSwapper.sol\":9643:9663  allowedTokensCount++ */\n      tag_349\n      dup4\n      tag_280\n      jump\t// in\n    tag_349:\n      swap1\n      swap2\n      sstore\n      pop\n      pop\n        /* \"TokenSwapper.sol\":9692:9710  allowedTokensCount */\n      0x0c\n      dup1\n      sload\n        /* \"TokenSwapper.sol\":9678:9711  allowedTokens[allowedTokensCount] */\n      0x00\n      swap1\n      dup2\n      mstore\n        /* \"TokenSwapper.sol\":9678:9691  allowedTokens */\n      0x09\n        /* \"TokenSwapper.sol\":9678:9711  allowedTokens[allowedTokensCount] */\n      0x20\n      swap1\n      dup2\n      mstore\n      0x40\n      dup1\n      dup4\n      keccak256\n        /* \"TokenSwapper.sol\":9678:9726  allowedTokens[allowedTokensCount] = tokenAddress */\n      dup1\n      sload\n      0xffffffffffffffffffffffff0000000000000000000000000000000000000000\n      and\n      0xffffffffffffffffffffffffffffffffffffffff\n      dup8\n      and\n      swap1\n      dup2\n      or\n      swap1\n      swap2\n      sstore\n        /* \"TokenSwapper.sol\":9741:9774  allowedTokensExists[tokenAddress] */\n      dup4\n      mstore\n        /* \"TokenSwapper.sol\":9741:9760  allowedTokensExists */\n      0x0a\n        /* \"TokenSwapper.sol\":9741:9774  allowedTokensExists[tokenAddress] */\n      dup3\n      mstore\n      dup1\n      dup4\n      keccak256\n        /* \"TokenSwapper.sol\":9741:9781  allowedTokensExists[tokenAddress] = true */\n      dup1\n      sload\n      0xffffffffffffffffffffffffffffffffffffffffffffffffffffffffffffff00\n      and\n      0x01\n      or\n      swap1\n      sstore\n        /* \"TokenSwapper.sol\":9829:9847  allowedTokensCount */\n      swap3\n      sload\n        /* \"TokenSwapper.sol\":9796:9812  allowedTokensIds */\n      0x0b\n        /* \"TokenSwapper.sol\":9796:9826  allowedTokensIds[tokenAddress] */\n      swap1\n      swap2\n      mstore\n      swap2\n      swap1\n      keccak256\n        /* \"TokenSwapper.sol\":9796:9847  allowedTokensIds[tokenAddress] = allowedTokensCount */\n      sstore\n        /* \"TokenSwapper.sol\":9588:9859  if (!allowedTokensExists[tokenAddress]) {... */\n    tag_348:\n        /* \"TokenSwapper.sol\":9513:9866  function addAllowedToken(address tokenAddress) public onlyOwner {... */\n      pop\n      jump\t// out\n        /* \"TokenSwapper.sol\":3665:4293  function init(... */\n    tag_117:\n        /* \"TokenSwapper.sol\":3522:3527  owner */\n      and(0xffffffffffffffffffffffffffffffffffffffff, sload(0x01))\n        /* \"TokenSwapper.sol\":3508:3518  msg.sender */\n      caller\n        /* \"TokenSwapper.sol\":3508:3527  msg.sender == owner */\n      eq\n        /* \"TokenSwapper.sol\":3500:3542  require(msg.sender == owner, \"Only owner\") */\n      tag_351\n      jumpi\n      mload(0x40)\n      0x08c379a000000000000000000000000000000000000000000000000000000000\n      dup2\n      mstore\n        /* \"#utility.yul\":11068:11070   */\n      0x20\n        /* \"TokenSwapper.sol\":3500:3542  require(msg.sender == owner, \"Only owner\") */\n      0x04\n      dup3\n      add\n        /* \"#utility.yul\":11050:11071   */\n      mstore\n        /* \"#utility.yul\":11107:11109   */\n      0x0a\n        /* \"#utility.yul\":11087:11105   */\n      0x24\n      dup3\n      add\n        /* \"#utility.yul\":11080:11110   */\n      mstore\n        /* \"#utility.yul\":11146:11158   */\n      0x4f6e6c79206f776e657200000000000000000000000000000000000000000000\n        /* \"#utility.yul\":11126:11144   */\n      0x44\n      dup3\n      add\n        /* \"#utility.yul\":11119:11159   */\n      mstore\n        /* \"#utility.yul\":11176:11194   */\n      0x64\n      add\n        /* \"TokenSwapper.sol\":3500:3542  require(msg.sender == owner, \"Only owner\") */\n      tag_335\n        /* \"#utility.yul\":10866:11200   */\n      jump\n        /* \"TokenSwapper.sol\":3500:3542  require(msg.sender == owner, \"Only owner\") */\n    tag_351:\n        /* \"TokenSwapper.sol\":3837:3843  inited */\n      sload(0x07)\n      0x010000000000000000000000000000000000000000\n      swap1\n      div\n      0xff\n      and\n        /* \"TokenSwapper.sol\":3837:3852  inited == false */\n      iszero\n        /* \"TokenSwapper.sol\":3829:3871  require(inited == false, \"Already inited\") */\n      tag_354\n      jumpi\n      mload(0x40)\n      0x08c379a000000000000000000000000000000000000000000000000000000000\n      dup2\n      mstore\n        /* \"#utility.yul\":11748:11750   */\n      0x20\n        /* \"TokenSwapper.sol\":3829:3871  require(inited == false, \"Already inited\") */\n      0x04\n      dup3\n      add\n        /* \"#utility.yul\":11730:11751   */\n      mstore\n        /* \"#utility.yul\":11787:11789   */\n      0x0e\n        /* \"#utility.yul\":11767:11785   */\n      0x24\n      dup3\n      add\n        /* \"#utility.yul\":11760:11790   */\n      mstore\n        /* \"#utility.yul\":11826:11842   */\n      0x416c726561647920696e69746564000000000000000000000000000000000000\n        /* \"#utility.yul\":11806:11824   */\n      0x44\n      dup3\n      add\n        /* \"#utility.yul\":11799:11843   */\n      mstore\n        /* \"#utility.yul\":11860:11878   */\n      0x64\n      add\n        /* \"TokenSwapper.sol\":3829:3871  require(inited == false, \"Already inited\") */\n      tag_335\n        /* \"#utility.yul\":11546:11884   */\n      jump\n        /* \"TokenSwapper.sol\":3829:3871  require(inited == false, \"Already inited\") */\n    tag_354:\n        /* \"TokenSwapper.sol\":3890:3909  _weth != address(0) */\n      0xffffffffffffffffffffffffffffffffffffffff\n      dup5\n      and\n        /* \"TokenSwapper.sol\":3882:3937  require(_weth != address(0), \"Invalid wrapped address\") */\n      tag_357\n      jumpi\n      mload(0x40)\n      0x08c379a000000000000000000000000000000000000000000000000000000000\n      dup2\n      mstore\n        /* \"#utility.yul\":12091:12093   */\n      0x20\n        /* \"TokenSwapper.sol\":3882:3937  require(_weth != address(0), \"Invalid wrapped address\") */\n      0x04\n      dup3\n      add\n        /* \"#utility.yul\":12073:12094   */\n      mstore\n        /* \"#utility.yul\":12130:12132   */\n      0x17\n        /* \"#utility.yul\":12110:12128   */\n      0x24\n      dup3\n      add\n        /* \"#utility.yul\":12103:12133   */\n      mstore\n        /* \"#utility.yul\":12169:12194   */\n      0x496e76616c696420777261707065642061646472657373000000000000000000\n        /* \"#utility.yul\":12149:12167   */\n      0x44\n      dup3\n      add\n        /* \"#utility.yul\":12142:12195   */\n      mstore\n        /* \"#utility.yul\":12212:12230   */\n      0x64\n      add\n        /* \"TokenSwapper.sol\":3882:3937  require(_weth != address(0), \"Invalid wrapped address\") */\n      tag_335\n        /* \"#utility.yul\":11889:12236   */\n      jump\n        /* \"TokenSwapper.sol\":3882:3937  require(_weth != address(0), \"Invalid wrapped address\") */\n    tag_357:\n        /* \"TokenSwapper.sol\":3956:3982  _targetToken != address(0) */\n      0xffffffffffffffffffffffffffffffffffffffff\n      dup4\n      and\n        /* \"TokenSwapper.sol\":3948:4000  require(_targetToken != address(0), \"Invalid token\") */\n      tag_360\n      jumpi\n      mload(0x40)\n      0x08c379a000000000000000000000000000000000000000000000000000000000\n      dup2\n      mstore\n        /* \"#utility.yul\":12443:12445   */\n      0x20\n        /* \"TokenSwapper.sol\":3948:4000  require(_targetToken != address(0), \"Invalid token\") */\n      0x04\n      dup3\n      add\n        /* \"#utility.yul\":12425:12446   */\n      mstore\n        /* \"#utility.yul\":12482:12484   */\n      0x0d\n        /* \"#utility.yul\":12462:12480   */\n      0x24\n      dup3\n      add\n        /* \"#utility.yul\":12455:12485   */\n      mstore\n        /* \"#utility.yul\":12521:12536   */\n      0x496e76616c696420746f6b656e00000000000000000000000000000000000000\n        /* \"#utility.yul\":12501:12519   */\n      0x44\n      dup3\n      add\n        /* \"#utility.yul\":12494:12537   */\n      mstore\n        /* \"#utility.yul\":12554:12572   */\n      0x64\n      add\n        /* \"TokenSwapper.sol\":3948:4000  require(_targetToken != address(0), \"Invalid token\") */\n      tag_335\n        /* \"#utility.yul\":12241:12578   */\n      jump\n        /* \"TokenSwapper.sol\":3948:4000  require(_targetToken != address(0), \"Invalid token\") */\n    tag_360:\n        /* \"TokenSwapper.sol\":4019:4042  _routerV2 != address(0) */\n      0xffffffffffffffffffffffffffffffffffffffff\n      dup3\n      and\n        /* \"TokenSwapper.sol\":4011:4064  require(_routerV2 != address(0), \"Invalid V2 router\") */\n      tag_363\n      jumpi\n      mload(0x40)\n      0x08c379a000000000000000000000000000000000000000000000000000000000\n      dup2\n      mstore\n        /* \"#utility.yul\":12785:12787   */\n      0x20\n        /* \"TokenSwapper.sol\":4011:4064  require(_routerV2 != address(0), \"Invalid V2 router\") */\n      0x04\n      dup3\n      add\n        /* \"#utility.yul\":12767:12788   */\n      mstore\n        /* \"#utility.yul\":12824:12826   */\n      0x11\n        /* \"#utility.yul\":12804:12822   */\n      0x24\n      dup3\n      add\n        /* \"#utility.yul\":12797:12827   */\n      mstore\n        /* \"#utility.yul\":12863:12882   */\n      0x496e76616c696420563220726f75746572000000000000000000000000000000\n        /* \"#utility.yul\":12843:12861   */\n      0x44\n      dup3\n      add\n        /* \"#utility.yul\":12836:12883   */\n      mstore\n        /* \"#utility.yul\":12900:12918   */\n      0x64\n      add\n        /* \"TokenSwapper.sol\":4011:4064  require(_routerV2 != address(0), \"Invalid V2 router\") */\n      tag_335\n        /* \"#utility.yul\":12583:12924   */\n      jump\n        /* \"TokenSwapper.sol\":4011:4064  require(_routerV2 != address(0), \"Invalid V2 router\") */\n    tag_363:\n        /* \"TokenSwapper.sol\":4099:4100  0 */\n      0x00\n        /* \"TokenSwapper.sol\":4083:4096  _minAmountOut */\n      dup2\n        /* \"TokenSwapper.sol\":4083:4100  _minAmountOut > 0 */\n      gt\n        /* \"TokenSwapper.sol\":4075:4131  require(_minAmountOut > 0, \"Min amount out must be > 0\") */\n      tag_366\n      jumpi\n      mload(0x40)\n      0x08c379a000000000000000000000000000000000000000000000000000000000\n      dup2\n      mstore\n        /* \"#utility.yul\":13131:13133   */\n      0x20\n        /* \"TokenSwapper.sol\":4075:4131  require(_minAmountOut > 0, \"Min amount out must be > 0\") */\n      0x04\n      dup3\n      add\n        /* \"#utility.yul\":13113:13134   */\n      mstore\n        /* \"#utility.yul\":13170:13172   */\n      0x1a\n        /* \"#utility.yul\":13150:13168   */\n      0x24\n      dup3\n      add\n        /* \"#utility.yul\":13143:13173   */\n      mstore\n        /* \"#utility.yul\":13209:13237   */\n      0x4d696e20616d6f756e74206f7574206d757374206265203e2030000000000000\n        /* \"#utility.yul\":13189:13207   */\n      0x44\n      dup3\n      add\n        /* \"#utility.yul\":13182:13238   */\n      mstore\n        /* \"#utility.yul\":13255:13273   */\n      0x64\n      add\n        /* \"TokenSwapper.sol\":4075:4131  require(_minAmountOut > 0, \"Min amount out must be > 0\") */\n      tag_335\n        /* \"#utility.yul\":12929:13279   */\n      jump\n        /* \"TokenSwapper.sol\":4075:4131  require(_minAmountOut > 0, \"Min amount out must be > 0\") */\n    tag_366:\n        /* \"TokenSwapper.sol\":4142:4148  inited */\n      0x07\n        /* \"TokenSwapper.sol\":4142:4155  inited = true */\n      dup1\n      sload\n        /* \"TokenSwapper.sol\":4166:4178  WETH = _weth */\n      0xffffffffffffffffffffffffffffffffffffffff\n      swap6\n      dup7\n      and\n      0xffffffffffffffffffffff000000000000000000000000000000000000000000\n      swap1\n      swap2\n      and\n      or\n        /* \"TokenSwapper.sol\":4142:4155  inited = true */\n      0x010000000000000000000000000000000000000000\n        /* \"TokenSwapper.sol\":4166:4178  WETH = _weth */\n      or\n      swap1\n      sstore\n        /* \"TokenSwapper.sol\":4189:4200  targetToken */\n      0x02\n        /* \"TokenSwapper.sol\":4189:4215  targetToken = _targetToken */\n      dup1\n      sload\n      swap4\n      dup6\n      and\n        /* \"TokenSwapper.sol\":4166:4178  WETH = _weth */\n      0xffffffffffffffffffffffff0000000000000000000000000000000000000000\n        /* \"TokenSwapper.sol\":4189:4215  targetToken = _targetToken */\n      swap5\n      dup6\n      and\n      or\n      swap1\n      sstore\n        /* \"TokenSwapper.sol\":4226:4234  routerV2 */\n      0x03\n        /* \"TokenSwapper.sol\":4226:4246  routerV2 = _routerV2 */\n      dup1\n      sload\n      swap3\n      swap1\n      swap5\n      and\n      swap2\n      swap1\n      swap3\n      and\n      or\n      swap1\n      swap2\n      sstore\n      0x05\n        /* \"TokenSwapper.sol\":4257:4285  minAmountOut = _minAmountOut */\n      sstore\n        /* \"TokenSwapper.sol\":3665:4293  function init(... */\n      jump\t// out\n        /* \"TokenSwapper.sol\":9872:10340  function delAllowedToken(address tokenAddress) public onlyOwner {... */\n    tag_138:\n        /* \"TokenSwapper.sol\":3522:3527  owner */\n      and(0xffffffffffffffffffffffffffffffffffffffff, sload(0x01))\n        /* \"TokenSwapper.sol\":3508:3518  msg.sender */\n      caller\n        /* \"TokenSwapper.sol\":3508:3527  msg.sender == owner */\n      eq\n        /* \"TokenSwapper.sol\":3500:3542  require(msg.sender == owner, \"Only owner\") */\n      tag_370\n      jumpi\n      mload(0x40)\n      0x08c379a000000000000000000000000000000000000000000000000000000000\n      dup2\n      mstore\n        /* \"#utility.yul\":11068:11070   */\n      0x20\n        /* \"TokenSwapper.sol\":3500:3542  require(msg.sender == owner, \"Only owner\") */\n      0x04\n      dup3\n      add\n        /* \"#utility.yul\":11050:11071   */\n      mstore\n        /* \"#utility.yul\":11107:11109   */\n      0x0a\n        /* \"#utility.yul\":11087:11105   */\n      0x24\n      dup3\n      add\n        /* \"#utility.yul\":11080:11110   */\n      mstore\n        /* \"#utility.yul\":11146:11158   */\n      0x4f6e6c79206f776e657200000000000000000000000000000000000000000000\n        /* \"#utility.yul\":11126:11144   */\n      0x44\n      dup3\n      add\n        /* \"#utility.yul\":11119:11159   */\n      mstore\n        /* \"#utility.yul\":11176:11194   */\n      0x64\n      add\n        /* \"TokenSwapper.sol\":3500:3542  require(msg.sender == owner, \"Only owner\") */\n      tag_335\n        /* \"#utility.yul\":10866:11200   */\n      jump\n        /* \"TokenSwapper.sol\":3500:3542  require(msg.sender == owner, \"Only owner\") */\n    tag_370:\n        /* \"TokenSwapper.sol\":9951:9984  allowedTokensExists[tokenAddress] */\n      0xffffffffffffffffffffffffffffffffffffffff\n      dup2\n      and\n      0x00\n      swap1\n      dup2\n      mstore\n        /* \"TokenSwapper.sol\":9951:9970  allowedTokensExists */\n      0x0a\n        /* \"TokenSwapper.sol\":9951:9984  allowedTokensExists[tokenAddress] */\n      0x20\n      mstore\n      0x40\n      swap1\n      keccak256\n      sload\n      0xff\n      and\n        /* \"TokenSwapper.sol\":9947:10333  if (allowedTokensExists[tokenAddress]) {... */\n      iszero\n      tag_348\n      jumpi\n        /* \"TokenSwapper.sol\":10019:10049  allowedTokensIds[tokenAddress] */\n      0xffffffffffffffffffffffffffffffffffffffff\n      dup1\n      dup3\n      and\n        /* \"TokenSwapper.sol\":10001:10016  uint256 tokenId */\n      0x00\n        /* \"TokenSwapper.sol\":10019:10049  allowedTokensIds[tokenAddress] */\n      dup2\n      dup2\n      mstore\n        /* \"TokenSwapper.sol\":10019:10035  allowedTokensIds */\n      0x0b\n        /* \"TokenSwapper.sol\":10019:10049  allowedTokensIds[tokenAddress] */\n      0x20\n      dup2\n      dup2\n      mstore\n      0x40\n      dup1\n      dup5\n      keccak256\n      sload\n        /* \"TokenSwapper.sol\":10113:10131  allowedTokensCount */\n      0x0c\n      dup1\n      sload\n        /* \"TokenSwapper.sol\":10099:10132  allowedTokens[allowedTokensCount] */\n      dup7\n      mstore\n        /* \"TokenSwapper.sol\":10099:10112  allowedTokens */\n      0x09\n        /* \"TokenSwapper.sol\":10099:10132  allowedTokens[allowedTokensCount] */\n      dup1\n      dup6\n      mstore\n      dup4\n      dup8\n      keccak256\n      sload\n      dup10\n      and\n        /* \"TokenSwapper.sol\":10064:10147  allowedTokensIds[... */\n      dup8\n      mstore\n      swap5\n      dup5\n      mstore\n      dup3\n      dup7\n      keccak256\n        /* \"TokenSwapper.sol\":10064:10157  allowedTokensIds[... */\n      dup3\n      swap1\n      sstore\n        /* \"TokenSwapper.sol\":10211:10229  allowedTokensCount */\n      dup1\n      sload\n        /* \"TokenSwapper.sol\":10197:10230  allowedTokens[allowedTokensCount] */\n      dup7\n      mstore\n      swap4\n      dup4\n      mstore\n      dup2\n      dup6\n      keccak256\n      sload\n        /* \"TokenSwapper.sol\":10172:10194  allowedTokens[tokenId] */\n      dup2\n      dup7\n      mstore\n      dup3\n      dup7\n      keccak256\n        /* \"TokenSwapper.sol\":10172:10230  allowedTokens[tokenId] = allowedTokens[allowedTokensCount] */\n      dup1\n      sload\n      0xffffffffffffffffffffffff0000000000000000000000000000000000000000\n      and\n        /* \"TokenSwapper.sol\":10197:10230  allowedTokens[allowedTokensCount] */\n      swap2\n      swap1\n      swap9\n      and\n        /* \"TokenSwapper.sol\":10172:10230  allowedTokens[tokenId] = allowedTokens[allowedTokensCount] */\n      or\n      swap1\n      swap7\n      sstore\n        /* \"TokenSwapper.sol\":10245:10278  allowedTokensExists[tokenAddress] */\n      swap4\n      dup4\n      mstore\n        /* \"TokenSwapper.sol\":10245:10264  allowedTokensExists */\n      0x0a\n        /* \"TokenSwapper.sol\":10245:10278  allowedTokensExists[tokenAddress] */\n      swap1\n      mstore\n      swap2\n      dup2\n      keccak256\n        /* \"TokenSwapper.sol\":10245:10286  allowedTokensExists[tokenAddress] = false */\n      dup1\n      sload\n      0xffffffffffffffffffffffffffffffffffffffffffffffffffffffffffffff00\n      and\n      swap1\n      sstore\n        /* \"TokenSwapper.sol\":10301:10321  allowedTokensCount-- */\n      dup2\n      sload\n      swap2\n        /* \"TokenSwapper.sol\":10113:10131  allowedTokensCount */\n      swap1\n        /* \"TokenSwapper.sol\":10301:10321  allowedTokensCount-- */\n      tag_374\n      dup4\n      tag_375\n      jump\t// in\n    tag_374:\n      swap2\n      swap1\n      pop\n      sstore\n      pop\n        /* \"TokenSwapper.sol\":9986:10333  {... */\n      pop\n        /* \"TokenSwapper.sol\":9872:10340  function delAllowedToken(address tokenAddress) public onlyOwner {... */\n      pop\n      jump\t// out\n        /* \"TokenSwapper.sol\":10927:11090  function setRouterV2(address newRouterV2) external onlyOwner {... */\n    tag_142:\n        /* \"TokenSwapper.sol\":3522:3527  owner */\n      and(0xffffffffffffffffffffffffffffffffffffffff, sload(0x01))\n        /* \"TokenSwapper.sol\":3508:3518  msg.sender */\n      caller\n        /* \"TokenSwapper.sol\":3508:3527  msg.sender == owner */\n      eq\n        /* \"TokenSwapper.sol\":3500:3542  require(msg.sender == owner, \"Only owner\") */\n      tag_377\n      jumpi\n      mload(0x40)\n      0x08c379a000000000000000000000000000000000000000000000000000000000\n      dup2\n      mstore\n        /* \"#utility.yul\":11068:11070   */\n      0x20\n        /* \"TokenSwapper.sol\":3500:3542  require(msg.sender == owner, \"Only owner\") */\n      0x04\n      dup3\n      add\n        /* \"#utility.yul\":11050:11071   */\n      mstore\n        /* \"#utility.yul\":11107:11109   */\n      0x0a\n        /* \"#utility.yul\":11087:11105   */\n      0x24\n      dup3\n      add\n        /* \"#utility.yul\":11080:11110   */\n      mstore\n        /* \"#utility.yul\":11146:11158   */\n      0x4f6e6c79206f776e657200000000000000000000000000000000000000000000\n        /* \"#utility.yul\":11126:11144   */\n      0x44\n      dup3\n      add\n        /* \"#utility.yul\":11119:11159   */\n      mstore\n        /* \"#utility.yul\":11176:11194   */\n      0x64\n      add\n        /* \"TokenSwapper.sol\":3500:3542  require(msg.sender == owner, \"Only owner\") */\n      tag_335\n        /* \"#utility.yul\":10866:11200   */\n      jump\n        /* \"TokenSwapper.sol\":3500:3542  require(msg.sender == owner, \"Only owner\") */\n    tag_377:\n        /* \"TokenSwapper.sol\":11007:11032  newRouterV2 != address(0) */\n      0xffffffffffffffffffffffffffffffffffffffff\n      dup2\n      and\n        /* \"TokenSwapper.sol\":10999:11049  require(newRouterV2 != address(0), \"Cant be zero\") */\n      tag_380\n      jumpi\n      mload(0x40)\n      0x08c379a000000000000000000000000000000000000000000000000000000000\n      dup2\n      mstore\n        /* \"#utility.yul\":11407:11409   */\n      0x20\n        /* \"TokenSwapper.sol\":10999:11049  require(newRouterV2 != address(0), \"Cant be zero\") */\n      0x04\n      dup3\n      add\n        /* \"#utility.yul\":11389:11410   */\n      mstore\n        /* \"#utility.yul\":11446:11448   */\n      0x0c\n        /* \"#utility.yul\":11426:11444   */\n      0x24\n      dup3\n      add\n        /* \"#utility.yul\":11419:11449   */\n      mstore\n        /* \"#utility.yul\":11485:11499   */\n      0x43616e74206265207a65726f0000000000000000000000000000000000000000\n        /* \"#utility.yul\":11465:11483   */\n      0x44\n      dup3\n      add\n        /* \"#utility.yul\":11458:11500   */\n      mstore\n        /* \"#utility.yul\":11517:11535   */\n      0x64\n      add\n        /* \"TokenSwapper.sol\":10999:11049  require(newRouterV2 != address(0), \"Cant be zero\") */\n      tag_335\n        /* \"#utility.yul\":11205:11541   */\n      jump\n        /* \"TokenSwapper.sol\":10999:11049  require(newRouterV2 != address(0), \"Cant be zero\") */\n    tag_380:\n        /* \"TokenSwapper.sol\":11060:11068  routerV2 */\n      0x03\n        /* \"TokenSwapper.sol\":11060:11082  routerV2 = newRouterV2 */\n      dup1\n      sload\n      0xffffffffffffffffffffffff0000000000000000000000000000000000000000\n      and\n      0xffffffffffffffffffffffffffffffffffffffff\n      swap3\n      swap1\n      swap3\n      and\n      swap2\n      swap1\n      swap2\n      or\n      swap1\n      sstore\n        /* \"TokenSwapper.sol\":10927:11090  function setRouterV2(address newRouterV2) external onlyOwner {... */\n      jump\t// out\n        /* \"TokenSwapper.sol\":10651:10737  function setWETH(address newWETH) external onlyOwner {... */\n    tag_146:\n        /* \"TokenSwapper.sol\":3522:3527  owner */\n      and(0xffffffffffffffffffffffffffffffffffffffff, sload(0x01))\n        /* \"TokenSwapper.sol\":3508:3518  msg.sender */\n      caller\n        /* \"TokenSwapper.sol\":3508:3527  msg.sender == owner */\n      eq\n        /* \"TokenSwapper.sol\":3500:3542  require(msg.sender == owner, \"Only owner\") */\n      tag_383\n      jumpi\n      mload(0x40)\n      0x08c379a000000000000000000000000000000000000000000000000000000000\n      dup2\n      mstore\n        /* \"#utility.yul\":11068:11070   */\n      0x20\n        /* \"TokenSwapper.sol\":3500:3542  require(msg.sender == owner, \"Only owner\") */\n      0x04\n      dup3\n      add\n        /* \"#utility.yul\":11050:11071   */\n      mstore\n        /* \"#utility.yul\":11107:11109   */\n      0x0a\n        /* \"#utility.yul\":11087:11105   */\n      0x24\n      dup3\n      add\n        /* \"#utility.yul\":11080:11110   */\n      mstore\n        /* \"#utility.yul\":11146:11158   */\n      0x4f6e6c79206f776e657200000000000000000000000000000000000000000000\n        /* \"#utility.yul\":11126:11144   */\n      0x44\n      dup3\n      add\n        /* \"#utility.yul\":11119:11159   */\n      mstore\n        /* \"#utility.yul\":11176:11194   */\n      0x64\n      add\n        /* \"TokenSwapper.sol\":3500:3542  require(msg.sender == owner, \"Only owner\") */\n      tag_335\n        /* \"#utility.yul\":10866:11200   */\n      jump\n        /* \"TokenSwapper.sol\":3500:3542  require(msg.sender == owner, \"Only owner\") */\n    tag_383:\n        /* \"TokenSwapper.sol\":10715:10719  WETH */\n      0x07\n        /* \"TokenSwapper.sol\":10715:10729  WETH = newWETH */\n      dup1\n      sload\n      0xffffffffffffffffffffffff0000000000000000000000000000000000000000\n      and\n      0xffffffffffffffffffffffffffffffffffffffff\n      swap3\n      swap1\n      swap3\n      and\n      swap2\n      swap1\n      swap2\n      or\n      swap1\n      sstore\n        /* \"TokenSwapper.sol\":10651:10737  function setWETH(address newWETH) external onlyOwner {... */\n      jump\t// out\n        /* \"TokenSwapper.sol\":12271:12849  function getContractInfo() public view returns (ContractInfo memory) {... */\n    tag_158:\n        /* \"TokenSwapper.sol\":12319:12338  ContractInfo memory */\n      tag_386\n      0x40\n      dup1\n      mload\n      0x01a0\n      dup2\n      add\n      dup3\n      mstore\n      0x00\n      dup1\n      dup3\n      mstore\n      0x20\n      dup3\n      add\n      dup2\n      swap1\n      mstore\n      swap2\n      dup2\n      add\n      dup3\n      swap1\n      mstore\n      0x60\n      dup2\n      add\n      dup3\n      swap1\n      mstore\n      0x80\n      dup2\n      add\n      dup3\n      swap1\n      mstore\n      0xa0\n      dup2\n      add\n      dup3\n      swap1\n      mstore\n      swap1\n      0xc0\n      dup3\n      add\n      swap1\n      dup2\n      mstore\n      0x20\n      add\n      0x00\n      dup2\n      mstore\n      0x20\n      add\n      and(0xffffffffffffffffffffffffffffffffffffffff, 0x00)\n      dup2\n      mstore\n      0x20\n      add\n      and(0xffffffffffffffffffffffffffffffffffffffff, 0x00)\n      dup2\n      mstore\n      0x20\n      add\n      0x00\n      dup2\n      mstore\n      0x20\n      add\n      0x00\n      dup2\n      mstore\n      0x20\n      add\n      0x00\n      dup2\n      mstore\n      pop\n      swap1\n      jump\n    tag_386:\n        /* \"TokenSwapper.sol\":12358:12841  ContractInfo({... */\n      0x40\n      dup1\n      mload\n      0x01a0\n      dup2\n      add\n      dup3\n      mstore\n        /* \"TokenSwapper.sol\":12394:12400  inited */\n      sload(0x07)\n      0x010000000000000000000000000000000000000000\n      swap1\n      dup2\n      swap1\n      div\n      0xff\n      swap1\n      dup2\n      and\n        /* \"TokenSwapper.sol\":12358:12841  ContractInfo({... */\n      iszero\n      iszero\n      dup4\n      mstore\n        /* \"TokenSwapper.sol\":12422:12427  owner */\n      0x01\n      dup1\n      sload\n      0xffffffffffffffffffffffffffffffffffffffff\n      swap1\n      dup2\n      and\n        /* \"TokenSwapper.sol\":12358:12841  ContractInfo({... */\n      0x20\n      dup7\n      add\n      mstore\n        /* \"TokenSwapper.sol\":12455:12466  targetToken */\n      sload(0x02)\n      dup2\n      and\n        /* \"TokenSwapper.sol\":12358:12841  ContractInfo({... */\n      swap6\n      dup6\n      add\n      swap6\n      swap1\n      swap6\n      mstore\n        /* \"TokenSwapper.sol\":12491:12499  routerV2 */\n      sload(0x03)\n      dup6\n      and\n        /* \"TokenSwapper.sol\":12358:12841  ContractInfo({... */\n      0x60\n      dup6\n      add\n      mstore\n        /* \"TokenSwapper.sol\":12524:12532  routerV3 */\n      sload(0x04)\n      swap5\n      dup6\n      and\n        /* \"TokenSwapper.sol\":12358:12841  ContractInfo({... */\n      0x80\n      dup6\n      add\n      mstore\n        /* \"TokenSwapper.sol\":12558:12567  v3PoolFee */\n      swap2\n      dup5\n      div\n      0xffffff\n      and\n        /* \"TokenSwapper.sol\":12358:12841  ContractInfo({... */\n      0xa0\n      dup5\n      add\n      mstore\n      swap2\n      swap3\n      0xc0\n      dup5\n      add\n      swap3\n        /* \"TokenSwapper.sol\":12594:12604  dexVersion */\n      0x010000000000000000000000000000000000000000000000\n      swap1\n      swap2\n      div\n      and\n      swap1\n        /* \"TokenSwapper.sol\":12358:12841  ContractInfo({... */\n      dup2\n      gt\n      iszero\n      tag_390\n      jumpi\n      tag_390\n      tag_239\n      jump\t// in\n    tag_390:\n      dup2\n      mstore\n        /* \"TokenSwapper.sol\":12635:12647  minAmountOut */\n      sload(0x05)\n        /* \"TokenSwapper.sol\":12358:12841  ContractInfo({... */\n      0x20\n      dup3\n      add\n      mstore\n        /* \"TokenSwapper.sol\":12670:12676  QUOTER */\n      sload(0x06)\n      0xffffffffffffffffffffffffffffffffffffffff\n      swap1\n      dup2\n      and\n        /* \"TokenSwapper.sol\":12358:12841  ContractInfo({... */\n      0x40\n      dup4\n      add\n      mstore\n        /* \"TokenSwapper.sol\":12697:12701  WETH */\n      sload(0x07)\n      and\n        /* \"TokenSwapper.sol\":12358:12841  ContractInfo({... */\n      0x60\n      dup3\n      add\n      mstore\n        /* \"TokenSwapper.sol\":12730:12751  address(this).balance */\n      selfbalance\n        /* \"TokenSwapper.sol\":12358:12841  ContractInfo({... */\n      0x80\n      dup3\n      add\n      mstore\n        /* \"TokenSwapper.sol\":12778:12788  totalEthIn */\n      sload(0x0d)\n        /* \"TokenSwapper.sol\":12358:12841  ContractInfo({... */\n      0xa0\n      dup3\n      add\n      mstore\n        /* \"TokenSwapper.sol\":12817:12829  totalSwapOut */\n      sload(0x0e)\n        /* \"TokenSwapper.sol\":12358:12841  ContractInfo({... */\n      0xc0\n      swap1\n      swap2\n      add\n      mstore\n        /* \"TokenSwapper.sol\":12351:12841  return ContractInfo({... */\n      swap2\n        /* \"TokenSwapper.sol\":12271:12849  function getContractInfo() public view returns (ContractInfo memory) {... */\n      swap1\n      pop\n      jump\t// out\n        /* \"TokenSwapper.sol\":11096:11199  function setDexVersion(DexVersion _version) external onlyOwner {... */\n    tag_184:\n        /* \"TokenSwapper.sol\":3522:3527  owner */\n      and(0xffffffffffffffffffffffffffffffffffffffff, sload(0x01))\n        /* \"TokenSwapper.sol\":3508:3518  msg.sender */\n      caller\n        /* \"TokenSwapper.sol\":3508:3527  msg.sender == owner */\n      eq\n        /* \"TokenSwapper.sol\":3500:3542  require(msg.sender == owner, \"Only owner\") */\n      tag_393\n      jumpi\n      mload(0x40)\n      0x08c379a000000000000000000000000000000000000000000000000000000000\n      dup2\n      mstore\n        /* \"#utility.yul\":11068:11070   */\n      0x20\n        /* \"TokenSwapper.sol\":3500:3542  require(msg.sender == owner, \"Only owner\") */\n      0x04\n      dup3\n      add\n        /* \"#utility.yul\":11050:11071   */\n      mstore\n        /* \"#utility.yul\":11107:11109   */\n      0x0a\n        /* \"#utility.yul\":11087:11105   */\n      0x24\n      dup3\n      add\n        /* \"#utility.yul\":11080:11110   */\n      mstore\n        /* \"#utility.yul\":11146:11158   */\n      0x4f6e6c79206f776e657200000000000000000000000000000000000000000000\n        /* \"#utility.yul\":11126:11144   */\n      0x44\n      dup3\n      add\n        /* \"#utility.yul\":11119:11159   */\n      mstore\n        /* \"#utility.yul\":11176:11194   */\n      0x64\n      add\n        /* \"TokenSwapper.sol\":3500:3542  require(msg.sender == owner, \"Only owner\") */\n      tag_335\n        /* \"#utility.yul\":10866:11200   */\n      jump\n        /* \"TokenSwapper.sol\":3500:3542  require(msg.sender == owner, \"Only owner\") */\n    tag_393:\n        /* \"TokenSwapper.sol\":11170:11180  dexVersion */\n      0x04\n        /* \"TokenSwapper.sol\":11170:11191  dexVersion = _version */\n      dup1\n      sload\n        /* \"TokenSwapper.sol\":11183:11191  _version */\n      dup3\n      swap2\n        /* \"TokenSwapper.sol\":11170:11180  dexVersion */\n      swap1\n        /* \"TokenSwapper.sol\":11170:11191  dexVersion = _version */\n      0xffffffffffffffff00ffffffffffffffffffffffffffffffffffffffffffffff\n      and\n      0x010000000000000000000000000000000000000000000000\n        /* \"TokenSwapper.sol\":11183:11191  _version */\n      dup4\n        /* \"TokenSwapper.sol\":11170:11191  dexVersion = _version */\n      0x01\n      dup2\n      gt\n      iszero\n      tag_397\n      jumpi\n      tag_397\n      tag_239\n      jump\t// in\n    tag_397:\n      mul\n      or\n      swap1\n      sstore\n      pop\n        /* \"TokenSwapper.sol\":11096:11199  function setDexVersion(DexVersion _version) external onlyOwner {... */\n      pop\n      jump\t// out\n        /* \"TokenSwapper.sol\":5627:5996  function getQuoteV2(uint256 _ethAmount, address _weth, address _targetToken, address _routerV2) public view returns (uint256) {... */\n    tag_189:\n        /* \"TokenSwapper.sol\":5788:5804  new address[](2) */\n      0x40\n      dup1\n      mload\n        /* \"TokenSwapper.sol\":5802:5803  2 */\n      0x02\n        /* \"TokenSwapper.sol\":5788:5804  new address[](2) */\n      dup1\n      dup3\n      mstore\n      0x60\n      dup3\n      add\n      dup4\n      mstore\n        /* \"TokenSwapper.sol\":5744:5751  uint256 */\n      0x00\n      swap3\n      dup4\n      swap3\n        /* \"TokenSwapper.sol\":5788:5804  new address[](2) */\n      swap2\n        /* \"TokenSwapper.sol\":5802:5803  2 */\n      swap1\n        /* \"TokenSwapper.sol\":5788:5804  new address[](2) */\n      0x20\n      dup4\n      add\n      swap1\n      dup1\n      calldatasize\n      dup4\n      calldatacopy\n      add\n      swap1\n      pop\n      pop\n        /* \"TokenSwapper.sol\":5764:5804  address[] memory path = new address[](2) */\n      swap1\n      pop\n        /* \"TokenSwapper.sol\":5825:5830  _weth */\n      dup5\n        /* \"TokenSwapper.sol\":5815:5819  path */\n      dup2\n        /* \"TokenSwapper.sol\":5820:5821  0 */\n      0x00\n        /* \"TokenSwapper.sol\":5815:5822  path[0] */\n      dup2\n      mload\n      dup2\n      lt\n      tag_403\n      jumpi\n      tag_403\n      tag_309\n      jump\t// in\n    tag_403:\n      0x20\n      mul\n      0x20\n      add\n      add\n        /* \"TokenSwapper.sol\":5815:5830  path[0] = _weth */\n      swap1\n      0xffffffffffffffffffffffffffffffffffffffff\n      and\n      swap1\n      dup2\n      0xffffffffffffffffffffffffffffffffffffffff\n      and\n      dup2\n      mstore\n      pop\n      pop\n        /* \"TokenSwapper.sol\":5851:5863  _targetToken */\n      dup4\n        /* \"TokenSwapper.sol\":5841:5845  path */\n      dup2\n        /* \"TokenSwapper.sol\":5846:5847  1 */\n      0x01\n        /* \"TokenSwapper.sol\":5841:5848  path[1] */\n      dup2\n      mload\n      dup2\n      lt\n      tag_405\n      jumpi\n      tag_405\n      tag_309\n      jump\t// in\n    tag_405:\n        /* \"TokenSwapper.sol\":5841:5863  path[1] = _targetToken */\n      0xffffffffffffffffffffffffffffffffffffffff\n      swap3\n      dup4\n      and\n        /* \"TokenSwapper.sol\":5841:5848  path[1] */\n      0x20\n      swap2\n      dup3\n      mul\n      swap3\n      swap1\n      swap3\n      add\n      add\n        /* \"TokenSwapper.sol\":5841:5863  path[1] = _targetToken */\n      mstore\n        /* \"TokenSwapper.sol\":5901:5960  IUniswapV2Router(_routerV2).getAmountsOut(_ethAmount, path) */\n      mload(0x40)\n      0xd06ca61f00000000000000000000000000000000000000000000000000000000\n      dup2\n      mstore\n        /* \"TokenSwapper.sol\":5874:5898  uint256[] memory amounts */\n      0x00\n      swap2\n        /* \"TokenSwapper.sol\":5901:5942  IUniswapV2Router(_routerV2).getAmountsOut */\n      dup6\n      and\n      swap1\n      0xd06ca61f\n      swap1\n        /* \"TokenSwapper.sol\":5901:5960  IUniswapV2Router(_routerV2).getAmountsOut(_ethAmount, path) */\n      tag_406\n      swap1\n        /* \"TokenSwapper.sol\":5943:5953  _ethAmount */\n      dup11\n      swap1\n        /* \"TokenSwapper.sol\":5955:5959  path */\n      dup7\n      swap1\n        /* \"TokenSwapper.sol\":5901:5960  IUniswapV2Router(_routerV2).getAmountsOut(_ethAmount, path) */\n      0x04\n      add\n      tag_407\n      jump\t// in\n    tag_406:\n      0x00\n      mload(0x40)\n      dup1\n      dup4\n      sub\n      dup2\n      dup7\n      gas\n      staticcall\n      iszero\n      dup1\n      iszero\n      tag_409\n      jumpi\n      returndatasize\n      0x00\n      dup1\n      returndatacopy\n      revert(0x00, returndatasize)\n    tag_409:\n      pop\n      pop\n      pop\n      pop\n      mload(0x40)\n      returndatasize\n      0x00\n      dup3\n      returndatacopy\n      0x1f\n      returndatasize\n      swap1\n      dup2\n      add\n      0xffffffffffffffffffffffffffffffffffffffffffffffffffffffffffffffe0\n      and\n      dup3\n      add\n      0x40\n      mstore\n      tag_410\n      swap2\n      swap1\n      dup2\n      add\n      swap1\n      tag_411\n      jump\t// in\n    tag_410:\n        /* \"TokenSwapper.sol\":5874:5960  uint256[] memory amounts = IUniswapV2Router(_routerV2).getAmountsOut(_ethAmount, path) */\n      swap1\n      pop\n        /* \"TokenSwapper.sol\":5978:5985  amounts */\n      dup1\n        /* \"TokenSwapper.sol\":5986:5987  1 */\n      0x01\n        /* \"TokenSwapper.sol\":5978:5988  amounts[1] */\n      dup2\n      mload\n      dup2\n      lt\n      tag_413\n      jumpi\n      tag_413\n      tag_309\n      jump\t// in\n    tag_413:\n      0x20\n      mul\n      0x20\n      add\n      add\n      mload\n        /* \"TokenSwapper.sol\":5971:5988  return amounts[1] */\n      swap3\n      pop\n      pop\n      pop\n        /* \"TokenSwapper.sol\":5627:5996  function getQuoteV2(uint256 _ethAmount, address _weth, address _targetToken, address _routerV2) public view returns (uint256) {... */\n      swap5\n      swap4\n      pop\n      pop\n      pop\n      pop\n      jump\t// out\n        /* \"TokenSwapper.sol\":10380:10543  function setReciever(address newReciever) external onlyOwner {... */\n    tag_194:\n        /* \"TokenSwapper.sol\":3522:3527  owner */\n      and(0xffffffffffffffffffffffffffffffffffffffff, sload(0x01))\n        /* \"TokenSwapper.sol\":3508:3518  msg.sender */\n      caller\n        /* \"TokenSwapper.sol\":3508:3527  msg.sender == owner */\n      eq\n        /* \"TokenSwapper.sol\":3500:3542  require(msg.sender == owner, \"Only owner\") */\n      tag_415\n      jumpi\n      mload(0x40)\n      0x08c379a000000000000000000000000000000000000000000000000000000000\n      dup2\n      mstore\n        /* \"#utility.yul\":11068:11070   */\n      0x20\n        /* \"TokenSwapper.sol\":3500:3542  require(msg.sender == owner, \"Only owner\") */\n      0x04\n      dup3\n      add\n        /* \"#utility.yul\":11050:11071   */\n      mstore\n        /* \"#utility.yul\":11107:11109   */\n      0x0a\n        /* \"#utility.yul\":11087:11105   */\n      0x24\n      dup3\n      add\n        /* \"#utility.yul\":11080:11110   */\n      mstore\n        /* \"#utility.yul\":11146:11158   */\n      0x4f6e6c79206f776e657200000000000000000000000000000000000000000000\n        /* \"#utility.yul\":11126:11144   */\n      0x44\n      dup3\n      add\n        /* \"#utility.yul\":11119:11159   */\n      mstore\n        /* \"#utility.yul\":11176:11194   */\n      0x64\n      add\n        /* \"TokenSwapper.sol\":3500:3542  require(msg.sender == owner, \"Only owner\") */\n      tag_335\n        /* \"#utility.yul\":10866:11200   */\n      jump\n        /* \"TokenSwapper.sol\":3500:3542  require(msg.sender == owner, \"Only owner\") */\n    tag_415:\n        /* \"TokenSwapper.sol\":10460:10485  newReciever != address(0) */\n      0xffffffffffffffffffffffffffffffffffffffff\n      dup2\n      and\n        /* \"TokenSwapper.sol\":10452:10502  require(newReciever != address(0), \"Cant be zero\") */\n      tag_418\n      jumpi\n      mload(0x40)\n      0x08c379a000000000000000000000000000000000000000000000000000000000\n      dup2\n      mstore\n        /* \"#utility.yul\":11407:11409   */\n      0x20\n        /* \"TokenSwapper.sol\":10452:10502  require(newReciever != address(0), \"Cant be zero\") */\n      0x04\n      dup3\n      add\n        /* \"#utility.yul\":11389:11410   */\n      mstore\n        /* \"#utility.yul\":11446:11448   */\n      0x0c\n        /* \"#utility.yul\":11426:11444   */\n      0x24\n      dup3\n      add\n        /* \"#utility.yul\":11419:11449   */\n      mstore\n        /* \"#utility.yul\":11485:11499   */\n      0x43616e74206265207a65726f0000000000000000000000000000000000000000\n        /* \"#utility.yul\":11465:11483   */\n      0x44\n      dup3\n      add\n        /* \"#utility.yul\":11458:11500   */\n      mstore\n        /* \"#utility.yul\":11517:11535   */\n      0x64\n      add\n        /* \"TokenSwapper.sol\":10452:10502  require(newReciever != address(0), \"Cant be zero\") */\n      tag_335\n        /* \"#utility.yul\":11205:11541   */\n      jump\n        /* \"TokenSwapper.sol\":10452:10502  require(newReciever != address(0), \"Cant be zero\") */\n    tag_418:\n        /* \"TokenSwapper.sol\":10513:10521  reciever */\n      0x08\n        /* \"TokenSwapper.sol\":10513:10535  reciever = newReciever */\n      dup1\n      sload\n      0xffffffffffffffffffffffff0000000000000000000000000000000000000000\n      and\n      0xffffffffffffffffffffffffffffffffffffffff\n      swap3\n      swap1\n      swap3\n      and\n      swap2\n      swap1\n      swap2\n      or\n      swap1\n      sstore\n        /* \"TokenSwapper.sol\":10380:10543  function setReciever(address newReciever) external onlyOwner {... */\n      jump\t// out\n        /* \"TokenSwapper.sol\":6166:6759  function getQuoteV3(uint256 _ethAmount, address _weth, address _targetToken, uint256 _v3PoolFee, address _quoter) public view returns (uint256) {... */\n    tag_203:\n        /* \"TokenSwapper.sol\":6390:6635  abi.encodeWithSelector(... */\n      0x40\n      dup1\n      mload\n        /* \"TokenSwapper.sol\":6357:6375  _quoter.staticcall */\n      0xffffffffffffffffffffffffffffffffffffffff\n        /* \"#utility.yul\":15594:15609   */\n      dup7\n      dup2\n      and\n        /* \"TokenSwapper.sol\":6390:6635  abi.encodeWithSelector(... */\n      0x24\n      dup4\n      add\n        /* \"#utility.yul\":15576:15610   */\n      mstore\n        /* \"#utility.yul\":15646:15661   */\n      dup6\n      dup2\n      and\n        /* \"#utility.yul\":15626:15644   */\n      0x44\n      dup4\n      add\n        /* \"#utility.yul\":15619:15662   */\n      mstore\n        /* \"#utility.yul\":15678:15696   */\n      0x64\n      dup3\n      add\n        /* \"#utility.yul\":15671:15705   */\n      dup9\n      swap1\n      mstore\n        /* \"#utility.yul\":15721:15739   */\n      0x84\n      dup3\n      add\n        /* \"#utility.yul\":15714:15748   */\n      dup6\n      swap1\n      mstore\n      0x00\n        /* \"#utility.yul\":15764:15783   */\n      0xa4\n      dup1\n      dup5\n      add\n        /* \"#utility.yul\":15757:15801   */\n      dup3\n      swap1\n      mstore\n        /* \"TokenSwapper.sol\":6390:6635  abi.encodeWithSelector(... */\n      dup5\n      mload\n      dup1\n      dup6\n      sub\n      swap1\n      swap2\n      add\n      dup2\n      mstore\n        /* \"#utility.yul\":15487:15506   */\n      0xc4\n      swap1\n      swap4\n      add\n        /* \"TokenSwapper.sol\":6390:6635  abi.encodeWithSelector(... */\n      dup5\n      mstore\n      0x20\n      dup4\n      add\n      dup1\n      mload\n      0xffffffffffffffffffffffffffffffffffffffffffffffffffffffff\n      and\n        /* \"TokenSwapper.sol\":6431:6478  IUniswapV3Quoter.quoteExactInputSingle.selector */\n      0x1296323f00000000000000000000000000000000000000000000000000000000\n        /* \"TokenSwapper.sol\":6390:6635  abi.encodeWithSelector(... */\n      or\n      swap1\n      mstore\n        /* \"TokenSwapper.sol\":6357:6646  _quoter.staticcall(... */\n      swap3\n      mload\n      dup4\n      swap3\n      dup4\n      swap3\n        /* \"TokenSwapper.sol\":6357:6375  _quoter.staticcall */\n      dup7\n      and\n      swap2\n        /* \"TokenSwapper.sol\":6357:6646  _quoter.staticcall(... */\n      tag_423\n      swap2\n        /* \"TokenSwapper.sol\":6390:6635  abi.encodeWithSelector(... */\n      swap1\n        /* \"TokenSwapper.sol\":6357:6646  _quoter.staticcall(... */\n      tag_424\n      jump\t// in\n    tag_423:\n      0x00\n      mload(0x40)\n      dup1\n      dup4\n      sub\n      dup2\n      dup6\n      gas\n      staticcall\n      swap2\n      pop\n      pop\n      returndatasize\n      dup1\n      0x00\n      dup2\n      eq\n      tag_427\n      jumpi\n      mload(0x40)\n      swap2\n      pop\n      and(add(returndatasize, 0x3f), not(0x1f))\n      dup3\n      add\n      0x40\n      mstore\n      returndatasize\n      dup3\n      mstore\n      returndatasize\n      0x00\n      0x20\n      dup5\n      add\n      returndatacopy\n      jump(tag_426)\n    tag_427:\n      0x60\n      swap2\n      pop\n    tag_426:\n      pop\n        /* \"TokenSwapper.sol\":6321:6646  (bool success, bytes memory data) = _quoter.staticcall(... */\n      swap2\n      pop\n      swap2\n      pop\n        /* \"TokenSwapper.sol\":6663:6670  success */\n      dup2\n        /* \"TokenSwapper.sol\":6659:6733  if (success) {... */\n      iszero\n      tag_428\n      jumpi\n        /* \"TokenSwapper.sol\":6705:6709  data */\n      dup1\n        /* \"TokenSwapper.sol\":6694:6721  abi.decode(data, (uint256)) */\n      dup1\n      0x20\n      add\n      swap1\n      mload\n      dup2\n      add\n      swap1\n      tag_429\n      swap2\n      swap1\n      tag_258\n      jump\t// in\n    tag_429:\n        /* \"TokenSwapper.sol\":6687:6721  return abi.decode(data, (uint256)) */\n      swap3\n      pop\n      pop\n      pop\n      jump(tag_420)\n        /* \"TokenSwapper.sol\":6659:6733  if (success) {... */\n    tag_428:\n        /* \"TokenSwapper.sol\":6750:6751  0 */\n      0x00\n        /* \"TokenSwapper.sol\":6743:6751  return 0 */\n      swap3\n      pop\n      pop\n      pop\n        /* \"TokenSwapper.sol\":6166:6759  function getQuoteV3(uint256 _ethAmount, address _weth, address _targetToken, uint256 _v3PoolFee, address _quoter) public view returns (uint256) {... */\n    tag_420:\n      swap6\n      swap5\n      pop\n      pop\n      pop\n      pop\n      pop\n      jump\t// out\n        /* \"TokenSwapper.sol\":11205:11315  function withdrawETH() external onlyOwner {... */\n    tag_207:\n        /* \"TokenSwapper.sol\":3522:3527  owner */\n      and(0xffffffffffffffffffffffffffffffffffffffff, sload(0x01))\n        /* \"TokenSwapper.sol\":3508:3518  msg.sender */\n      caller\n        /* \"TokenSwapper.sol\":3508:3527  msg.sender == owner */\n      eq\n        /* \"TokenSwapper.sol\":3500:3542  require(msg.sender == owner, \"Only owner\") */\n      tag_431\n      jumpi\n      mload(0x40)\n      0x08c379a000000000000000000000000000000000000000000000000000000000\n      dup2\n      mstore\n        /* \"#utility.yul\":11068:11070   */\n      0x20\n        /* \"TokenSwapper.sol\":3500:3542  require(msg.sender == owner, \"Only owner\") */\n      0x04\n      dup3\n      add\n        /* \"#utility.yul\":11050:11071   */\n      mstore\n        /* \"#utility.yul\":11107:11109   */\n      0x0a\n        /* \"#utility.yul\":11087:11105   */\n      0x24\n      dup3\n      add\n        /* \"#utility.yul\":11080:11110   */\n      mstore\n        /* \"#utility.yul\":11146:11158   */\n      0x4f6e6c79206f776e657200000000000000000000000000000000000000000000\n        /* \"#utility.yul\":11126:11144   */\n      0x44\n      dup3\n      add\n        /* \"#utility.yul\":11119:11159   */\n      mstore\n        /* \"#utility.yul\":11176:11194   */\n      0x64\n      add\n        /* \"TokenSwapper.sol\":3500:3542  require(msg.sender == owner, \"Only owner\") */\n      tag_335\n        /* \"#utility.yul\":10866:11200   */\n      jump\n        /* \"TokenSwapper.sol\":3500:3542  require(msg.sender == owner, \"Only owner\") */\n    tag_431:\n        /* \"TokenSwapper.sol\":11266:11274  reciever */\n      sload(0x08)\n        /* \"TokenSwapper.sol\":11258:11307  payable(reciever).transfer(address(this).balance) */\n      mload(0x40)\n        /* \"TokenSwapper.sol\":11266:11274  reciever */\n      0xffffffffffffffffffffffffffffffffffffffff\n      swap1\n      swap2\n      and\n      swap1\n        /* \"TokenSwapper.sol\":11285:11306  address(this).balance */\n      selfbalance\n        /* \"TokenSwapper.sol\":11258:11307  payable(reciever).transfer(address(this).balance) */\n      dup1\n      iszero\n      0x08fc\n      mul\n      swap2\n        /* \"TokenSwapper.sol\":11266:11274  reciever */\n      0x00\n        /* \"TokenSwapper.sol\":11258:11307  payable(reciever).transfer(address(this).balance) */\n      dup2\n        /* \"TokenSwapper.sol\":11266:11274  reciever */\n      dup2\n        /* \"TokenSwapper.sol\":11258:11307  payable(reciever).transfer(address(this).balance) */\n      dup2\n        /* \"TokenSwapper.sol\":11285:11306  address(this).balance */\n      dup6\n        /* \"TokenSwapper.sol\":11266:11274  reciever */\n      dup9\n        /* \"TokenSwapper.sol\":11258:11307  payable(reciever).transfer(address(this).balance) */\n      dup9\n      call\n      swap4\n      pop\n      pop\n      pop\n      pop\n      iszero\n      dup1\n      iszero\n      tag_348\n      jumpi\n      returndatasize\n      0x00\n      dup1\n      returndatacopy\n      revert(0x00, returndatasize)\n        /* \"TokenSwapper.sol\":11321:11476  function transferOwnership(address newOwner) public onlyOwner {... */\n    tag_219:\n        /* \"TokenSwapper.sol\":3522:3527  owner */\n      and(0xffffffffffffffffffffffffffffffffffffffff, sload(0x01))\n        /* \"TokenSwapper.sol\":3508:3518  msg.sender */\n      caller\n        /* \"TokenSwapper.sol\":3508:3527  msg.sender == owner */\n      eq\n        /* \"TokenSwapper.sol\":3500:3542  require(msg.sender == owner, \"Only owner\") */\n      tag_437\n      jumpi\n      mload(0x40)\n      0x08c379a000000000000000000000000000000000000000000000000000000000\n      dup2\n      mstore\n        /* \"#utility.yul\":11068:11070   */\n      0x20\n        /* \"TokenSwapper.sol\":3500:3542  require(msg.sender == owner, \"Only owner\") */\n      0x04\n      dup3\n      add\n        /* \"#utility.yul\":11050:11071   */\n      mstore\n        /* \"#utility.yul\":11107:11109   */\n      0x0a\n        /* \"#utility.yul\":11087:11105   */\n      0x24\n      dup3\n      add\n        /* \"#utility.yul\":11080:11110   */\n      mstore\n        /* \"#utility.yul\":11146:11158   */\n      0x4f6e6c79206f776e657200000000000000000000000000000000000000000000\n        /* \"#utility.yul\":11126:11144   */\n      0x44\n      dup3\n      add\n        /* \"#utility.yul\":11119:11159   */\n      mstore\n        /* \"#utility.yul\":11176:11194   */\n      0x64\n      add\n        /* \"TokenSwapper.sol\":3500:3542  require(msg.sender == owner, \"Only owner\") */\n      tag_335\n        /* \"#utility.yul\":10866:11200   */\n      jump\n        /* \"TokenSwapper.sol\":3500:3542  require(msg.sender == owner, \"Only owner\") */\n    tag_437:\n        /* \"TokenSwapper.sol\":11402:11424  newOwner != address(0) */\n      0xffffffffffffffffffffffffffffffffffffffff\n      dup2\n      and\n        /* \"TokenSwapper.sol\":11394:11441  require(newOwner != address(0), \"Cant be zero\") */\n      tag_440\n      jumpi\n      mload(0x40)\n      0x08c379a000000000000000000000000000000000000000000000000000000000\n      dup2\n      mstore\n        /* \"#utility.yul\":11407:11409   */\n      0x20\n        /* \"TokenSwapper.sol\":11394:11441  require(newOwner != address(0), \"Cant be zero\") */\n      0x04\n      dup3\n      add\n        /* \"#utility.yul\":11389:11410   */\n      mstore\n        /* \"#utility.yul\":11446:11448   */\n      0x0c\n        /* \"#utility.yul\":11426:11444   */\n      0x24\n      dup3\n      add\n        /* \"#utility.yul\":11419:11449   */\n      mstore\n        /* \"#utility.yul\":11485:11499   */\n      0x43616e74206265207a65726f0000000000000000000000000000000000000000\n        /* \"#utility.yul\":11465:11483   */\n      0x44\n      dup3\n      add\n        /* \"#utility.yul\":11458:11500   */\n      mstore\n        /* \"#utility.yul\":11517:11535   */\n      0x64\n      add\n        /* \"TokenSwapper.sol\":11394:11441  require(newOwner != address(0), \"Cant be zero\") */\n      tag_335\n        /* \"#utility.yul\":11205:11541   */\n      jump\n        /* \"TokenSwapper.sol\":11394:11441  require(newOwner != address(0), \"Cant be zero\") */\n    tag_440:\n        /* \"TokenSwapper.sol\":11452:11457  owner */\n      0x01\n        /* \"TokenSwapper.sol\":11452:11468  owner = newOwner */\n      dup1\n      sload\n      0xffffffffffffffffffffffff0000000000000000000000000000000000000000\n      and\n      0xffffffffffffffffffffffffffffffffffffffff\n      swap3\n      swap1\n      swap3\n      and\n      swap2\n      swap1\n      swap2\n      or\n      swap1\n      sstore\n        /* \"TokenSwapper.sol\":11321:11476  function transferOwnership(address newOwner) public onlyOwner {... */\n      jump\t// out\n        /* \"TokenSwapper.sol\":10549:10645  function setMinAmountOut(uint256 _min) external onlyOwner {... */\n    tag_227:\n        /* \"TokenSwapper.sol\":3522:3527  owner */\n      and(0xffffffffffffffffffffffffffffffffffffffff, sload(0x01))\n        /* \"TokenSwapper.sol\":3508:3518  msg.sender */\n      caller\n        /* \"TokenSwapper.sol\":3508:3527  msg.sender == owner */\n      eq\n        /* \"TokenSwapper.sol\":3500:3542  require(msg.sender == owner, \"Only owner\") */\n      tag_443\n      jumpi\n      mload(0x40)\n      0x08c379a000000000000000000000000000000000000000000000000000000000\n      dup2\n      mstore\n        /* \"#utility.yul\":11068:11070   */\n      0x20\n        /* \"TokenSwapper.sol\":3500:3542  require(msg.sender == owner, \"Only owner\") */\n      0x04\n      dup3\n      add\n        /* \"#utility.yul\":11050:11071   */\n      mstore\n        /* \"#utility.yul\":11107:11109   */\n      0x0a\n        /* \"#utility.yul\":11087:11105   */\n      0x24\n      dup3\n      add\n        /* \"#utility.yul\":11080:11110   */\n      mstore\n        /* \"#utility.yul\":11146:11158   */\n      0x4f6e6c79206f776e657200000000000000000000000000000000000000000000\n        /* \"#utility.yul\":11126:11144   */\n      0x44\n      dup3\n      add\n        /* \"#utility.yul\":11119:11159   */\n      mstore\n        /* \"#utility.yul\":11176:11194   */\n      0x64\n      add\n        /* \"TokenSwapper.sol\":3500:3542  require(msg.sender == owner, \"Only owner\") */\n      tag_335\n        /* \"#utility.yul\":10866:11200   */\n      jump\n        /* \"TokenSwapper.sol\":3500:3542  require(msg.sender == owner, \"Only owner\") */\n    tag_443:\n        /* \"TokenSwapper.sol\":10618:10630  minAmountOut */\n      0x05\n        /* \"TokenSwapper.sol\":10618:10637  minAmountOut = _min */\n      sstore\n        /* \"TokenSwapper.sol\":10549:10645  function setMinAmountOut(uint256 _min) external onlyOwner {... */\n      jump\t// out\n        /* \"TokenSwapper.sol\":11482:11870  function recoveryToken(address tokenAddress) public onlyOwner {... */\n    tag_231:\n        /* \"TokenSwapper.sol\":3522:3527  owner */\n      and(0xffffffffffffffffffffffffffffffffffffffff, sload(0x01))\n        /* \"TokenSwapper.sol\":3508:3518  msg.sender */\n      caller\n        /* \"TokenSwapper.sol\":3508:3527  msg.sender == owner */\n      eq\n        /* \"TokenSwapper.sol\":3500:3542  require(msg.sender == owner, \"Only owner\") */\n      tag_447\n      jumpi\n      mload(0x40)\n      0x08c379a000000000000000000000000000000000000000000000000000000000\n      dup2\n      mstore\n        /* \"#utility.yul\":11068:11070   */\n      0x20\n        /* \"TokenSwapper.sol\":3500:3542  require(msg.sender == owner, \"Only owner\") */\n      0x04\n      dup3\n      add\n        /* \"#utility.yul\":11050:11071   */\n      mstore\n        /* \"#utility.yul\":11107:11109   */\n      0x0a\n        /* \"#utility.yul\":11087:11105   */\n      0x24\n      dup3\n      add\n        /* \"#utility.yul\":11080:11110   */\n      mstore\n        /* \"#utility.yul\":11146:11158   */\n      0x4f6e6c79206f776e657200000000000000000000000000000000000000000000\n        /* \"#utility.yul\":11126:11144   */\n      0x44\n      dup3\n      add\n        /* \"#utility.yul\":11119:11159   */\n      mstore\n        /* \"#utility.yul\":11176:11194   */\n      0x64\n      add\n        /* \"TokenSwapper.sol\":3500:3542  require(msg.sender == owner, \"Only owner\") */\n      tag_335\n        /* \"#utility.yul\":10866:11200   */\n      jump\n        /* \"TokenSwapper.sol\":3500:3542  require(msg.sender == owner, \"Only owner\") */\n    tag_447:\n        /* \"TokenSwapper.sol\":11579:11590  targetToken */\n      sload(0x02)\n      0xffffffffffffffffffffffffffffffffffffffff\n        /* \"TokenSwapper.sol\":11563:11590  tokenAddress != targetToken */\n      dup3\n      dup2\n      and\n        /* \"TokenSwapper.sol\":11579:11590  targetToken */\n      swap2\n      and\n        /* \"TokenSwapper.sol\":11563:11590  tokenAddress != targetToken */\n      eq\n      dup1\n      iszero\n      swap1\n        /* \"TokenSwapper.sol\":11563:11628  tokenAddress != targetToken && !allowedTokensExists[tokenAddress] */\n      tag_450\n      jumpi\n      pop\n        /* \"TokenSwapper.sol\":11595:11628  allowedTokensExists[tokenAddress] */\n      0xffffffffffffffffffffffffffffffffffffffff\n      dup2\n      and\n      0x00\n      swap1\n      dup2\n      mstore\n        /* \"TokenSwapper.sol\":11595:11614  allowedTokensExists */\n      0x0a\n        /* \"TokenSwapper.sol\":11595:11628  allowedTokensExists[tokenAddress] */\n      0x20\n      mstore\n      0x40\n      swap1\n      keccak256\n      sload\n      0xff\n      and\n        /* \"TokenSwapper.sol\":11594:11628  !allowedTokensExists[tokenAddress] */\n      iszero\n        /* \"TokenSwapper.sol\":11563:11628  tokenAddress != targetToken && !allowedTokensExists[tokenAddress] */\n    tag_450:\n        /* \"TokenSwapper.sol\":11555:11670  require(tokenAddress != targetToken && !allowedTokensExists[tokenAddress], \"Cant recovery target or allowed token\") */\n      tag_451\n      jumpi\n      mload(0x40)\n      0x08c379a000000000000000000000000000000000000000000000000000000000\n      dup2\n      mstore\n        /* \"#utility.yul\":16306:16308   */\n      0x20\n        /* \"TokenSwapper.sol\":11555:11670  require(tokenAddress != targetToken && !allowedTokensExists[tokenAddress], \"Cant recovery target or allowed token\") */\n      0x04\n      dup3\n      add\n        /* \"#utility.yul\":16288:16309   */\n      mstore\n        /* \"#utility.yul\":16345:16347   */\n      0x25\n        /* \"#utility.yul\":16325:16343   */\n      0x24\n      dup3\n      add\n        /* \"#utility.yul\":16318:16348   */\n      mstore\n        /* \"#utility.yul\":16384:16418   */\n      0x43616e74207265636f7665727920746172676574206f7220616c6c6f77656420\n        /* \"#utility.yul\":16364:16382   */\n      0x44\n      dup3\n      add\n        /* \"#utility.yul\":16357:16419   */\n      mstore\n        /* \"#utility.yul\":16455:16462   */\n      0x746f6b656e000000000000000000000000000000000000000000000000000000\n        /* \"#utility.yul\":16435:16453   */\n      0x64\n      dup3\n      add\n        /* \"#utility.yul\":16428:16463   */\n      mstore\n        /* \"#utility.yul\":16480:16499   */\n      0x84\n      add\n        /* \"TokenSwapper.sol\":11555:11670  require(tokenAddress != targetToken && !allowedTokensExists[tokenAddress], \"Cant recovery target or allowed token\") */\n      tag_335\n        /* \"#utility.yul\":16104:16505   */\n      jump\n        /* \"TokenSwapper.sol\":11555:11670  require(tokenAddress != targetToken && !allowedTokensExists[tokenAddress], \"Cant recovery target or allowed token\") */\n    tag_451:\n        /* \"TokenSwapper.sol\":11735:11769  tokenInfo.balanceOf(address(this)) */\n      mload(0x40)\n      0x70a0823100000000000000000000000000000000000000000000000000000000\n      dup2\n      mstore\n        /* \"TokenSwapper.sol\":11763:11767  this */\n      address\n        /* \"TokenSwapper.sol\":11735:11769  tokenInfo.balanceOf(address(this)) */\n      0x04\n      dup3\n      add\n        /* \"#utility.yul\":4180:4254   */\n      mstore\n        /* \"TokenSwapper.sol\":11707:11719  tokenAddress */\n      dup2\n      swap1\n        /* \"TokenSwapper.sol\":11681:11697  IERC20 tokenInfo */\n      0x00\n      swap1\n        /* \"TokenSwapper.sol\":11735:11754  tokenInfo.balanceOf */\n      0xffffffffffffffffffffffffffffffffffffffff\n      dup4\n      and\n      swap1\n      0x70a08231\n      swap1\n        /* \"#utility.yul\":4153:4171   */\n      0x24\n      add\n        /* \"TokenSwapper.sol\":11735:11769  tokenInfo.balanceOf(address(this)) */\n      0x20\n      mload(0x40)\n      dup1\n      dup4\n      sub\n      dup2\n      dup7\n      gas\n      staticcall\n      iszero\n      dup1\n      iszero\n      tag_456\n      jumpi\n      returndatasize\n      0x00\n      dup1\n      returndatacopy\n      revert(0x00, returndatasize)\n    tag_456:\n      pop\n      pop\n      pop\n      pop\n      mload(0x40)\n      returndatasize\n      not(0x1f)\n      0x1f\n      dup3\n      add\n      and\n      dup3\n      add\n      dup1\n      0x40\n      mstore\n      pop\n      dup2\n      add\n      swap1\n      tag_457\n      swap2\n      swap1\n      tag_258\n      jump\t// in\n    tag_457:\n        /* \"TokenSwapper.sol\":11735:11773  tokenInfo.balanceOf(address(this)) > 0 */\n      gt\n        /* \"TokenSwapper.sol\":11731:11863  if (tokenInfo.balanceOf(address(this)) > 0) {... */\n      iszero\n      tag_458\n      jumpi\n        /* \"TokenSwapper.sol\":11809:11814  owner */\n      sload(0x01)\n        /* \"TokenSwapper.sol\":11816:11850  tokenInfo.balanceOf(address(this)) */\n      mload(0x40)\n      0x70a0823100000000000000000000000000000000000000000000000000000000\n      dup2\n      mstore\n        /* \"TokenSwapper.sol\":11844:11848  this */\n      address\n        /* \"TokenSwapper.sol\":11816:11850  tokenInfo.balanceOf(address(this)) */\n      0x04\n      dup3\n      add\n        /* \"#utility.yul\":4180:4254   */\n      mstore\n        /* \"TokenSwapper.sol\":11790:11808  tokenInfo.transfer */\n      0xffffffffffffffffffffffffffffffffffffffff\n      dup4\n      dup2\n      and\n      swap3\n      0xa9059cbb\n      swap3\n        /* \"TokenSwapper.sol\":11809:11814  owner */\n      swap2\n      and\n      swap1\n        /* \"TokenSwapper.sol\":11790:11808  tokenInfo.transfer */\n      dup4\n      swap1\n        /* \"TokenSwapper.sol\":11816:11835  tokenInfo.balanceOf */\n      0x70a08231\n      swap1\n        /* \"#utility.yul\":4153:4171   */\n      0x24\n      add\n        /* \"TokenSwapper.sol\":11816:11850  tokenInfo.balanceOf(address(this)) */\n      0x20\n      mload(0x40)\n      dup1\n      dup4\n      sub\n      dup2\n      dup7\n      gas\n      staticcall\n      iszero\n      dup1\n      iszero\n      tag_461\n      jumpi\n      returndatasize\n      0x00\n      dup1\n      returndatacopy\n      revert(0x00, returndatasize)\n    tag_461:\n      pop\n      pop\n      pop\n      pop\n      mload(0x40)\n      returndatasize\n      not(0x1f)\n      0x1f\n      dup3\n      add\n      and\n      dup3\n      add\n      dup1\n      0x40\n      mstore\n      pop\n      dup2\n      add\n      swap1\n      tag_462\n      swap2\n      swap1\n      tag_258\n      jump\t// in\n    tag_462:\n        /* \"TokenSwapper.sol\":11790:11851  tokenInfo.transfer(owner, tokenInfo.balanceOf(address(this))) */\n      mload(0x40)\n      0xffffffff00000000000000000000000000000000000000000000000000000000\n      0xe0\n      dup6\n      swap1\n      shl\n      and\n      dup2\n      mstore\n        /* \"#utility.yul\":8508:8550   */\n      0xffffffffffffffffffffffffffffffffffffffff\n        /* \"#utility.yul\":8496:8551   */\n      swap1\n      swap3\n      and\n        /* \"TokenSwapper.sol\":11790:11851  tokenInfo.transfer(owner, tokenInfo.balanceOf(address(this))) */\n      0x04\n      dup4\n      add\n        /* \"#utility.yul\":8478:8552   */\n      mstore\n        /* \"#utility.yul\":8568:8586   */\n      0x24\n      dup3\n      add\n        /* \"#utility.yul\":8561:8595   */\n      mstore\n        /* \"#utility.yul\":8451:8469   */\n      0x44\n      add\n        /* \"TokenSwapper.sol\":11790:11851  tokenInfo.transfer(owner, tokenInfo.balanceOf(address(this))) */\n      0x20\n      mload(0x40)\n      dup1\n      dup4\n      sub\n      dup2\n      0x00\n      dup8\n      gas\n      call\n      iszero\n      dup1\n      iszero\n      tag_465\n      jumpi\n      returndatasize\n      0x00\n      dup1\n      returndatacopy\n      revert(0x00, returndatasize)\n    tag_465:\n      pop\n      pop\n      pop\n      pop\n      mload(0x40)\n      returndatasize\n      not(0x1f)\n      0x1f\n      dup3\n      add\n      and\n      dup3\n      add\n      dup1\n      0x40\n      mstore\n      pop\n      dup2\n      add\n      swap1\n      tag_466\n      swap2\n      swap1\n      tag_265\n      jump\t// in\n    tag_466:\n      pop\n        /* \"TokenSwapper.sol\":11731:11863  if (tokenInfo.balanceOf(address(this)) > 0) {... */\n    tag_458:\n        /* \"TokenSwapper.sol\":11544:11870  {... */\n      pop\n        /* \"TokenSwapper.sol\":11482:11870  function recoveryToken(address tokenAddress) public onlyOwner {... */\n      pop\n      jump\t// out\n        /* \"TokenSwapper.sol\":402:552  function _nonReentrantBefore() private {... */\n    tag_234:\n        /* \"TokenSwapper.sol\":186:187  2 */\n      0x02\n        /* \"TokenSwapper.sol\":460:467  _status */\n      sload(0x00)\n        /* \"TokenSwapper.sol\":460:479  _status != _ENTERED */\n      sub\n        /* \"TokenSwapper.sol\":452:515  require(_status != _ENTERED, \"ReentrancyGuard: reentrant call\") */\n      tag_468\n      jumpi\n      mload(0x40)\n      0x08c379a000000000000000000000000000000000000000000000000000000000\n      dup2\n      mstore\n        /* \"#utility.yul\":16712:16714   */\n      0x20\n        /* \"TokenSwapper.sol\":452:515  require(_status != _ENTERED, \"ReentrancyGuard: reentrant call\") */\n      0x04\n      dup3\n      add\n        /* \"#utility.yul\":16694:16715   */\n      mstore\n        /* \"#utility.yul\":16751:16753   */\n      0x1f\n        /* \"#utility.yul\":16731:16749   */\n      0x24\n      dup3\n      add\n        /* \"#utility.yul\":16724:16754   */\n      mstore\n        /* \"#utility.yul\":16790:16823   */\n      0x5265656e7472616e637947756172643a207265656e7472616e742063616c6c00\n        /* \"#utility.yul\":16770:16788   */\n      0x44\n      dup3\n      add\n        /* \"#utility.yul\":16763:16824   */\n      mstore\n        /* \"#utility.yul\":16841:16859   */\n      0x64\n      add\n        /* \"TokenSwapper.sol\":452:515  require(_status != _ENTERED, \"ReentrancyGuard: reentrant call\") */\n      tag_335\n        /* \"#utility.yul\":16510:16865   */\n      jump\n        /* \"TokenSwapper.sol\":452:515  require(_status != _ENTERED, \"ReentrancyGuard: reentrant call\") */\n    tag_468:\n        /* \"TokenSwapper.sol\":186:187  2 */\n      0x02\n        /* \"TokenSwapper.sol\":526:533  _status */\n      0x00\n        /* \"TokenSwapper.sol\":526:544  _status = _ENTERED */\n      sstore\n        /* \"TokenSwapper.sol\":402:552  function _nonReentrantBefore() private {... */\n      jump\t// out\n        /* \"TokenSwapper.sol\":6765:7986  function _performSwap(uint256 ethAmount) internal returns (uint256) {... */\n    tag_248:\n        /* \"TokenSwapper.sol\":6824:6831  uint256 */\n      0x00\n        /* \"TokenSwapper.sol\":6864:6865  0 */\n      dup1\n        /* \"TokenSwapper.sol\":6852:6861  ethAmount */\n      dup3\n        /* \"TokenSwapper.sol\":6852:6865  ethAmount > 0 */\n      gt\n        /* \"TokenSwapper.sol\":6844:6884  require(ethAmount > 0, \"No ETH to swap\") */\n      tag_472\n      jumpi\n      mload(0x40)\n      0x08c379a000000000000000000000000000000000000000000000000000000000\n      dup2\n      mstore\n        /* \"#utility.yul\":17072:17074   */\n      0x20\n        /* \"TokenSwapper.sol\":6844:6884  require(ethAmount > 0, \"No ETH to swap\") */\n      0x04\n      dup3\n      add\n        /* \"#utility.yul\":17054:17075   */\n      mstore\n        /* \"#utility.yul\":17111:17113   */\n      0x0e\n        /* \"#utility.yul\":17091:17109   */\n      0x24\n      dup3\n      add\n        /* \"#utility.yul\":17084:17114   */\n      mstore\n        /* \"#utility.yul\":17150:17166   */\n      0x4e6f2045544820746f2073776170000000000000000000000000000000000000\n        /* \"#utility.yul\":17130:17148   */\n      0x44\n      dup3\n      add\n        /* \"#utility.yul\":17123:17167   */\n      mstore\n        /* \"#utility.yul\":17184:17202   */\n      0x64\n      add\n        /* \"TokenSwapper.sol\":6844:6884  require(ethAmount > 0, \"No ETH to swap\") */\n      tag_335\n        /* \"#utility.yul\":16870:17208   */\n      jump\n        /* \"TokenSwapper.sol\":6844:6884  require(ethAmount > 0, \"No ETH to swap\") */\n    tag_472:\n        /* \"TokenSwapper.sol\":6926:6937  targetToken */\n      sload(0x02)\n        /* \"TokenSwapper.sol\":6919:6963  IERC20(targetToken).balanceOf(address(this)) */\n      mload(0x40)\n      0x70a0823100000000000000000000000000000000000000000000000000000000\n      dup2\n      mstore\n        /* \"TokenSwapper.sol\":6957:6961  this */\n      address\n        /* \"TokenSwapper.sol\":6919:6963  IERC20(targetToken).balanceOf(address(this)) */\n      0x04\n      dup3\n      add\n        /* \"#utility.yul\":4180:4254   */\n      mstore\n        /* \"TokenSwapper.sol\":6895:6916  uint256 balanceBefore */\n      0x00\n      swap2\n        /* \"TokenSwapper.sol\":6926:6937  targetToken */\n      0xffffffffffffffffffffffffffffffffffffffff\n      and\n      swap1\n        /* \"TokenSwapper.sol\":6919:6948  IERC20(targetToken).balanceOf */\n      0x70a08231\n      swap1\n        /* \"#utility.yul\":4153:4171   */\n      0x24\n      add\n        /* \"TokenSwapper.sol\":6919:6963  IERC20(targetToken).balanceOf(address(this)) */\n      0x20\n      mload(0x40)\n      dup1\n      dup4\n      sub\n      dup2\n      dup7\n      gas\n      staticcall\n      iszero\n      dup1\n      iszero\n      tag_477\n      jumpi\n      returndatasize\n      0x00\n      dup1\n      returndatacopy\n      revert(0x00, returndatasize)\n    tag_477:\n      pop\n      pop\n      pop\n      pop\n      mload(0x40)\n      returndatasize\n      not(0x1f)\n      0x1f\n      dup3\n      add\n      and\n      dup3\n      add\n      dup1\n      0x40\n      mstore\n      pop\n      dup2\n      add\n      swap1\n      tag_478\n      swap2\n      swap1\n      tag_258\n      jump\t// in\n    tag_478:\n        /* \"TokenSwapper.sol\":6895:6963  uint256 balanceBefore = IERC20(targetToken).balanceOf(address(this)) */\n      swap1\n      pop\n        /* \"TokenSwapper.sol\":6994:7007  DexVersion.V2 */\n      0x00\n        /* \"TokenSwapper.sol\":6980:6990  dexVersion */\n      sload(0x04)\n      0x010000000000000000000000000000000000000000000000\n      swap1\n      div\n      0xff\n      and\n        /* \"TokenSwapper.sol\":6980:7007  dexVersion == DexVersion.V2 */\n      0x01\n      dup2\n      gt\n      iszero\n      tag_482\n      jumpi\n      tag_482\n      tag_239\n      jump\t// in\n    tag_482:\n      sub\n        /* \"TokenSwapper.sol\":6976:7817  if (dexVersion == DexVersion.V2) {... */\n      tag_483\n      jumpi\n        /* \"TokenSwapper.sol\":7048:7064  new address[](2) */\n      0x40\n      dup1\n      mload\n        /* \"TokenSwapper.sol\":7062:7063  2 */\n      0x02\n        /* \"TokenSwapper.sol\":7048:7064  new address[](2) */\n      dup1\n      dup3\n      mstore\n      0x60\n      dup3\n      add\n      dup4\n      mstore\n        /* \"TokenSwapper.sol\":7024:7045  address[] memory path */\n      0x00\n      swap3\n        /* \"TokenSwapper.sol\":7048:7064  new address[](2) */\n      0x20\n      dup4\n      add\n      swap1\n      dup1\n      calldatasize\n      dup4\n      calldatacopy\n      pop\n      pop\n        /* \"TokenSwapper.sol\":8062:8066  WETH */\n      sload(0x07)\n        /* \"TokenSwapper.sol\":7024:7064  address[] memory path = new address[](2) */\n      swap2\n      swap3\n      pop\n      pop\n        /* \"TokenSwapper.sol\":8062:8066  WETH */\n      0xffffffffffffffffffffffffffffffffffffffff\n      and\n        /* \"TokenSwapper.sol\":7079:7083  path */\n      dup2\n        /* \"TokenSwapper.sol\":7084:7085  0 */\n      0x00\n        /* \"TokenSwapper.sol\":7079:7086  path[0] */\n      dup2\n      mload\n      dup2\n      lt\n      tag_489\n      jumpi\n      tag_489\n      tag_309\n      jump\t// in\n    tag_489:\n        /* \"TokenSwapper.sol\":7079:7099  path[0] = _getWETH() */\n      0xffffffffffffffffffffffffffffffffffffffff\n      swap3\n      dup4\n      and\n        /* \"TokenSwapper.sol\":7079:7086  path[0] */\n      0x20\n      swap2\n      dup3\n      mul\n      swap3\n      swap1\n      swap3\n      add\n      add\n        /* \"TokenSwapper.sol\":7079:7099  path[0] = _getWETH() */\n      mstore\n        /* \"TokenSwapper.sol\":7124:7135  targetToken */\n      sload(0x02)\n        /* \"TokenSwapper.sol\":7114:7121  path[1] */\n      dup3\n      mload\n        /* \"TokenSwapper.sol\":7124:7135  targetToken */\n      swap2\n      and\n      swap1\n        /* \"TokenSwapper.sol\":7114:7118  path */\n      dup3\n      swap1\n        /* \"TokenSwapper.sol\":7124:7135  targetToken */\n      0x01\n      swap1\n        /* \"TokenSwapper.sol\":7114:7121  path[1] */\n      dup2\n      lt\n      tag_491\n      jumpi\n      tag_491\n      tag_309\n      jump\t// in\n    tag_491:\n        /* \"TokenSwapper.sol\":7114:7135  path[1] = targetToken */\n      0xffffffffffffffffffffffffffffffffffffffff\n      swap3\n      dup4\n      and\n        /* \"TokenSwapper.sol\":7114:7121  path[1] */\n      0x20\n      swap2\n      dup3\n      mul\n      swap3\n      swap1\n      swap3\n      add\n      add\n        /* \"TokenSwapper.sol\":7114:7135  path[1] = targetToken */\n      mstore\n        /* \"TokenSwapper.sol\":7169:7177  routerV2 */\n      sload(0x03)\n        /* \"TokenSwapper.sol\":7237:7249  minAmountOut */\n      sload(0x05)\n        /* \"TokenSwapper.sol\":7169:7177  routerV2 */\n      swap2\n      and\n      swap1\n        /* \"TokenSwapper.sol\":7152:7200  IUniswapV2Router(routerV2).swapExactETHForTokens */\n      0x7ff36ab5\n      swap1\n        /* \"TokenSwapper.sol\":7208:7217  ethAmount */\n      dup7\n      swap1\n        /* \"TokenSwapper.sol\":7268:7272  path */\n      dup5\n        /* \"TokenSwapper.sol\":7299:7303  this */\n      address\n        /* \"TokenSwapper.sol\":7323:7344  block.timestamp + 300 */\n      tag_492\n        /* \"TokenSwapper.sol\":7323:7338  block.timestamp */\n      timestamp\n        /* \"TokenSwapper.sol\":7341:7344  300 */\n      0x012c\n        /* \"TokenSwapper.sol\":7323:7344  block.timestamp + 300 */\n      tag_58\n      jump\t// in\n    tag_492:\n        /* \"TokenSwapper.sol\":7152:7359  IUniswapV2Router(routerV2).swapExactETHForTokens{value: ethAmount}(... */\n      mload(0x40)\n      dup7\n      0xffffffff\n      and\n      0xe0\n      shl\n      dup2\n      mstore\n      0x04\n      add\n      tag_493\n      swap5\n      swap4\n      swap3\n      swap2\n      swap1\n      tag_494\n      jump\t// in\n    tag_493:\n      0x00\n      mload(0x40)\n      dup1\n      dup4\n      sub\n      dup2\n      dup6\n      dup9\n      gas\n      call\n      iszero\n      dup1\n      iszero\n      tag_496\n      jumpi\n      returndatasize\n      0x00\n      dup1\n      returndatacopy\n      revert(0x00, returndatasize)\n    tag_496:\n      pop\n      pop\n      pop\n      pop\n      pop\n      mload(0x40)\n      returndatasize\n      0x00\n      dup3\n      returndatacopy\n      0x1f\n      returndatasize\n      swap1\n      dup2\n      add\n      0xffffffffffffffffffffffffffffffffffffffffffffffffffffffffffffffe0\n      and\n      dup3\n      add\n      0x40\n      mstore\n      tag_497\n      swap2\n      swap1\n      dup2\n      add\n      swap1\n      tag_411\n      jump\t// in\n    tag_497:\n      pop\n        /* \"TokenSwapper.sol\":7009:7371  {... */\n      pop\n        /* \"TokenSwapper.sol\":6976:7817  if (dexVersion == DexVersion.V2) {... */\n      jump(tag_498)\n    tag_483:\n        /* \"TokenSwapper.sol\":7404:7412  routerV3 */\n      sload(0x04)\n        /* \"TokenSwapper.sol\":7467:7790  ISwapRouter.ExactInputSingleParams(... */\n      0x40\n      dup1\n      mload\n        /* \"TokenSwapper.sol\":7404:7412  routerV3 */\n      0x0100\n        /* \"TokenSwapper.sol\":7467:7790  ISwapRouter.ExactInputSingleParams(... */\n      dup2\n      add\n      swap1\n      swap2\n      mstore\n        /* \"TokenSwapper.sol\":7404:7412  routerV3 */\n      0xffffffffffffffffffffffffffffffffffffffff\n      swap1\n      swap2\n      and\n      swap1\n        /* \"TokenSwapper.sol\":7392:7430  ISwapRouter(routerV3).exactInputSingle */\n      0x414bf389\n      swap1\n        /* \"TokenSwapper.sol\":7438:7447  ethAmount */\n      dup6\n      swap1\n        /* \"TokenSwapper.sol\":7467:7790  ISwapRouter.ExactInputSingleParams(... */\n      dup1\n        /* \"TokenSwapper.sol\":7524:7534  _getWETH() */\n      tag_499\n        /* \"TokenSwapper.sol\":8062:8066  WETH */\n      and(0xffffffffffffffffffffffffffffffffffffffff, sload(0x07))\n      swap1\n        /* \"TokenSwapper.sol\":7994:8074  function _getWETH() public view returns (address) {... */\n      jump\n        /* \"TokenSwapper.sol\":7524:7534  _getWETH() */\n    tag_499:\n        /* \"TokenSwapper.sol\":7467:7790  ISwapRouter.ExactInputSingleParams(... */\n      0xffffffffffffffffffffffffffffffffffffffff\n      swap1\n      dup2\n      and\n      dup3\n      mstore\n        /* \"TokenSwapper.sol\":7557:7568  targetToken */\n      sload(0x02)\n      and\n        /* \"TokenSwapper.sol\":7467:7790  ISwapRouter.ExactInputSingleParams(... */\n      0x20\n      dup3\n      add\n      mstore\n        /* \"TokenSwapper.sol\":7591:7600  v3PoolFee */\n      sload(0x04)\n      0x010000000000000000000000000000000000000000\n      swap1\n      div\n      0xffffff\n      and\n        /* \"TokenSwapper.sol\":7467:7790  ISwapRouter.ExactInputSingleParams(... */\n      0x40\n      dup3\n      add\n      mstore\n        /* \"TokenSwapper.sol\":7631:7635  this */\n      address\n        /* \"TokenSwapper.sol\":7467:7790  ISwapRouter.ExactInputSingleParams(... */\n      0x60\n      dup3\n      add\n      mstore\n      0x80\n      add\n        /* \"TokenSwapper.sol\":7659:7680  block.timestamp + 300 */\n      tag_500\n        /* \"TokenSwapper.sol\":7659:7674  block.timestamp */\n      timestamp\n        /* \"TokenSwapper.sol\":7677:7680  300 */\n      0x012c\n        /* \"TokenSwapper.sol\":7659:7680  block.timestamp + 300 */\n      tag_58\n      jump\t// in\n    tag_500:\n        /* \"TokenSwapper.sol\":7467:7790  ISwapRouter.ExactInputSingleParams(... */\n      dup2\n      mstore\n      0x20\n      add\n        /* \"TokenSwapper.sol\":7703:7712  ethAmount */\n      dup8\n        /* \"TokenSwapper.sol\":7467:7790  ISwapRouter.ExactInputSingleParams(... */\n      dup2\n      mstore\n      0x20\n      add\n        /* \"TokenSwapper.sol\":7735:7747  minAmountOut */\n      sload(0x05)\n        /* \"TokenSwapper.sol\":7467:7790  ISwapRouter.ExactInputSingleParams(... */\n      dup2\n      mstore\n      0x20\n      add\n        /* \"TokenSwapper.sol\":7770:7771  0 */\n      0x00\n        /* \"TokenSwapper.sol\":7467:7790  ISwapRouter.ExactInputSingleParams(... */\n      0xffffffffffffffffffffffffffffffffffffffff\n      and\n      dup2\n      mstore\n      pop\n        /* \"TokenSwapper.sol\":7392:7805  ISwapRouter(routerV3).exactInputSingle{value: ethAmount}(... */\n      mload(0x40)\n      dup4\n      0xffffffff\n      and\n      0xe0\n      shl\n      dup2\n      mstore\n      0x04\n      add\n      tag_501\n      swap2\n      swap1\n        /* \"#utility.yul\":17913:17917   */\n      0x00\n        /* \"#utility.yul\":17955:17958   */\n      0x0100\n        /* \"#utility.yul\":17944:17953   */\n      dup3\n        /* \"#utility.yul\":17940:17959   */\n      add\n        /* \"#utility.yul\":17932:17959   */\n      swap1\n      pop\n        /* \"#utility.yul\":17978:18020   */\n      0xffffffffffffffffffffffffffffffffffffffff\n        /* \"#utility.yul\":18066:18068   */\n      dup1\n        /* \"#utility.yul\":18057:18063   */\n      dup5\n        /* \"#utility.yul\":18051:18064   */\n      mload\n        /* \"#utility.yul\":18047:18069   */\n      and\n        /* \"#utility.yul\":18036:18045   */\n      dup4\n        /* \"#utility.yul\":18029:18070   */\n      mstore\n        /* \"#utility.yul\":18138:18140   */\n      dup1\n        /* \"#utility.yul\":18130:18134   */\n      0x20\n        /* \"#utility.yul\":18122:18128   */\n      dup6\n        /* \"#utility.yul\":18118:18135   */\n      add\n        /* \"#utility.yul\":18112:18136   */\n      mload\n        /* \"#utility.yul\":18108:18141   */\n      and\n        /* \"#utility.yul\":18101:18105   */\n      0x20\n        /* \"#utility.yul\":18090:18099   */\n      dup5\n        /* \"#utility.yul\":18086:18106   */\n      add\n        /* \"#utility.yul\":18079:18142   */\n      mstore\n        /* \"#utility.yul\":18210:18218   */\n      0xffffff\n        /* \"#utility.yul\":18202:18206   */\n      0x40\n        /* \"#utility.yul\":18194:18200   */\n      dup6\n        /* \"#utility.yul\":18190:18207   */\n      add\n        /* \"#utility.yul\":18184:18208   */\n      mload\n        /* \"#utility.yul\":18180:18219   */\n      and\n        /* \"#utility.yul\":18173:18177   */\n      0x40\n        /* \"#utility.yul\":18162:18171   */\n      dup5\n        /* \"#utility.yul\":18158:18178   */\n      add\n        /* \"#utility.yul\":18151:18220   */\n      mstore\n        /* \"#utility.yul\":18288:18290   */\n      dup1\n        /* \"#utility.yul\":18280:18284   */\n      0x60\n        /* \"#utility.yul\":18272:18278   */\n      dup6\n        /* \"#utility.yul\":18268:18285   */\n      add\n        /* \"#utility.yul\":18262:18286   */\n      mload\n        /* \"#utility.yul\":18258:18291   */\n      and\n        /* \"#utility.yul\":18251:18255   */\n      0x60\n        /* \"#utility.yul\":18240:18249   */\n      dup5\n        /* \"#utility.yul\":18236:18256   */\n      add\n        /* \"#utility.yul\":18229:18292   */\n      mstore\n        /* \"#utility.yul\":18348:18352   */\n      0x80\n        /* \"#utility.yul\":18340:18346   */\n      dup5\n        /* \"#utility.yul\":18336:18353   */\n      add\n        /* \"#utility.yul\":18330:18354   */\n      mload\n        /* \"#utility.yul\":18323:18327   */\n      0x80\n        /* \"#utility.yul\":18312:18321   */\n      dup5\n        /* \"#utility.yul\":18308:18328   */\n      add\n        /* \"#utility.yul\":18301:18355   */\n      mstore\n        /* \"#utility.yul\":18411:18415   */\n      0xa0\n        /* \"#utility.yul\":18403:18409   */\n      dup5\n        /* \"#utility.yul\":18399:18416   */\n      add\n        /* \"#utility.yul\":18393:18417   */\n      mload\n        /* \"#utility.yul\":18386:18390   */\n      0xa0\n        /* \"#utility.yul\":18375:18384   */\n      dup5\n        /* \"#utility.yul\":18371:18391   */\n      add\n        /* \"#utility.yul\":18364:18418   */\n      mstore\n        /* \"#utility.yul\":18474:18478   */\n      0xc0\n        /* \"#utility.yul\":18466:18472   */\n      dup5\n        /* \"#utility.yul\":18462:18479   */\n      add\n        /* \"#utility.yul\":18456:18480   */\n      mload\n        /* \"#utility.yul\":18449:18453   */\n      0xc0\n        /* \"#utility.yul\":18438:18447   */\n      dup5\n        /* \"#utility.yul\":18434:18454   */\n      add\n        /* \"#utility.yul\":18427:18481   */\n      mstore\n        /* \"#utility.yul\":18549:18551   */\n      dup1\n        /* \"#utility.yul\":18541:18545   */\n      0xe0\n        /* \"#utility.yul\":18533:18539   */\n      dup6\n        /* \"#utility.yul\":18529:18546   */\n      add\n        /* \"#utility.yul\":18523:18547   */\n      mload\n        /* \"#utility.yul\":18519:18552   */\n      and\n        /* \"#utility.yul\":18512:18516   */\n      0xe0\n        /* \"#utility.yul\":18501:18510   */\n      dup5\n        /* \"#utility.yul\":18497:18517   */\n      add\n        /* \"#utility.yul\":18490:18553   */\n      mstore\n      pop\n        /* \"#utility.yul\":17743:18559   */\n      swap3\n      swap2\n      pop\n      pop\n      jump\n        /* \"TokenSwapper.sol\":7392:7805  ISwapRouter(routerV3).exactInputSingle{value: ethAmount}(... */\n    tag_501:\n      0x20\n      mload(0x40)\n      dup1\n      dup4\n      sub\n      dup2\n      dup6\n      dup9\n      gas\n      call\n      iszero\n      dup1\n      iszero\n      tag_504\n      jumpi\n      returndatasize\n      0x00\n      dup1\n      returndatacopy\n      revert(0x00, returndatasize)\n    tag_504:\n      pop\n      pop\n      pop\n      pop\n      pop\n      mload(0x40)\n      returndatasize\n      not(0x1f)\n      0x1f\n      dup3\n      add\n      and\n      dup3\n      add\n      dup1\n      0x40\n      mstore\n      pop\n      dup2\n      add\n      swap1\n      tag_505\n      swap2\n      swap1\n      tag_258\n      jump\t// in\n    tag_505:\n      pop\n        /* \"TokenSwapper.sol\":6976:7817  if (dexVersion == DexVersion.V2) {... */\n    tag_498:\n        /* \"TokenSwapper.sol\":7858:7869  targetToken */\n      sload(0x02)\n        /* \"TokenSwapper.sol\":7851:7895  IERC20(targetToken).balanceOf(address(this)) */\n      mload(0x40)\n      0x70a0823100000000000000000000000000000000000000000000000000000000\n      dup2\n      mstore\n        /* \"TokenSwapper.sol\":7889:7893  this */\n      address\n        /* \"TokenSwapper.sol\":7851:7895  IERC20(targetToken).balanceOf(address(this)) */\n      0x04\n      dup3\n      add\n        /* \"#utility.yul\":4180:4254   */\n      mstore\n        /* \"TokenSwapper.sol\":7829:7848  uint256 tokenAmount */\n      0x00\n      swap2\n        /* \"TokenSwapper.sol\":7898:7911  balanceBefore */\n      dup4\n      swap2\n        /* \"TokenSwapper.sol\":7858:7869  targetToken */\n      0xffffffffffffffffffffffffffffffffffffffff\n      swap1\n      swap2\n      and\n      swap1\n        /* \"TokenSwapper.sol\":7851:7880  IERC20(targetToken).balanceOf */\n      0x70a08231\n      swap1\n        /* \"#utility.yul\":4153:4171   */\n      0x24\n      add\n        /* \"TokenSwapper.sol\":7851:7895  IERC20(targetToken).balanceOf(address(this)) */\n      0x20\n      mload(0x40)\n      dup1\n      dup4\n      sub\n      dup2\n      dup7\n      gas\n      staticcall\n      iszero\n      dup1\n      iszero\n      tag_508\n      jumpi\n      returndatasize\n      0x00\n      dup1\n      returndatacopy\n      revert(0x00, returndatasize)\n    tag_508:\n      pop\n      pop\n      pop\n      pop\n      mload(0x40)\n      returndatasize\n      not(0x1f)\n      0x1f\n      dup3\n      add\n      and\n      dup3\n      add\n      dup1\n      0x40\n      mstore\n      pop\n      dup2\n      add\n      swap1\n      tag_509\n      swap2\n      swap1\n      tag_258\n      jump\t// in\n    tag_509:\n        /* \"TokenSwapper.sol\":7851:7911  IERC20(targetToken).balanceOf(address(this)) - balanceBefore */\n      tag_510\n      swap2\n      swap1\n      tag_511\n      jump\t// in\n    tag_510:\n        /* \"TokenSwapper.sol\":7829:7911  uint256 tokenAmount = IERC20(targetToken).balanceOf(address(this)) - balanceBefore */\n      swap1\n      pop\n        /* \"TokenSwapper.sol\":7938:7949  tokenAmount */\n      dup1\n        /* \"TokenSwapper.sol\":7922:7934  totalSwapOut */\n      0x0e\n      0x00\n        /* \"TokenSwapper.sol\":7922:7949  totalSwapOut += tokenAmount */\n      dup3\n      dup3\n      sload\n      tag_512\n      swap2\n      swap1\n      tag_58\n      jump\t// in\n    tag_512:\n      swap1\n      swap2\n      sstore\n      pop\n        /* \"TokenSwapper.sol\":7967:7978  tokenAmount */\n      swap1\n      swap5\n        /* \"TokenSwapper.sol\":6765:7986  function _performSwap(uint256 ethAmount) internal returns (uint256) {... */\n      swap4\n      pop\n      pop\n      pop\n      pop\n      jump\t// out\n        /* \"#utility.yul\":14:198   */\n    tag_516:\n        /* \"#utility.yul\":66:143   */\n      0x4e487b7100000000000000000000000000000000000000000000000000000000\n        /* \"#utility.yul\":63:64   */\n      0x00\n        /* \"#utility.yul\":56:144   */\n      mstore\n        /* \"#utility.yul\":163:167   */\n      0x11\n        /* \"#utility.yul\":160:161   */\n      0x04\n        /* \"#utility.yul\":153:168   */\n      mstore\n        /* \"#utility.yul\":187:191   */\n      0x24\n        /* \"#utility.yul\":184:185   */\n      0x00\n        /* \"#utility.yul\":177:192   */\n      revert\n        /* \"#utility.yul\":203:328   */\n    tag_58:\n        /* \"#utility.yul\":268:277   */\n      dup1\n      dup3\n      add\n        /* \"#utility.yul\":289:299   */\n      dup1\n      dup3\n      gt\n        /* \"#utility.yul\":286:322   */\n      iszero\n      tag_331\n      jumpi\n        /* \"#utility.yul\":302:320   */\n      tag_331\n      tag_516\n      jump\t// in\n        /* \"#utility.yul\":465:715   */\n    tag_518:\n        /* \"#utility.yul\":550:551   */\n      0x00\n        /* \"#utility.yul\":560:673   */\n    tag_533:\n        /* \"#utility.yul\":574:580   */\n      dup4\n        /* \"#utility.yul\":571:572   */\n      dup2\n        /* \"#utility.yul\":568:581   */\n      lt\n        /* \"#utility.yul\":560:673   */\n      iszero\n      tag_535\n      jumpi\n        /* \"#utility.yul\":650:661   */\n      dup2\n      dup2\n      add\n        /* \"#utility.yul\":644:662   */\n      mload\n        /* \"#utility.yul\":631:642   */\n      dup4\n      dup3\n      add\n        /* \"#utility.yul\":624:663   */\n      mstore\n        /* \"#utility.yul\":596:598   */\n      0x20\n        /* \"#utility.yul\":589:599   */\n      add\n        /* \"#utility.yul\":560:673   */\n      jump(tag_533)\n    tag_535:\n      pop\n      pop\n        /* \"#utility.yul\":707:708   */\n      0x00\n        /* \"#utility.yul\":689:705   */\n      swap2\n      add\n        /* \"#utility.yul\":682:709   */\n      mstore\n        /* \"#utility.yul\":465:715   */\n      jump\t// out\n        /* \"#utility.yul\":720:1050   */\n    tag_519:\n        /* \"#utility.yul\":762:765   */\n      0x00\n        /* \"#utility.yul\":800:805   */\n      dup2\n        /* \"#utility.yul\":794:806   */\n      mload\n        /* \"#utility.yul\":827:833   */\n      dup1\n        /* \"#utility.yul\":822:825   */\n      dup5\n        /* \"#utility.yul\":815:834   */\n      mstore\n        /* \"#utility.yul\":843:919   */\n      tag_537\n        /* \"#utility.yul\":912:918   */\n      dup2\n        /* \"#utility.yul\":905:909   */\n      0x20\n        /* \"#utility.yul\":900:903   */\n      dup7\n        /* \"#utility.yul\":896:910   */\n      add\n        /* \"#utility.yul\":889:893   */\n      0x20\n        /* \"#utility.yul\":882:887   */\n      dup7\n        /* \"#utility.yul\":878:894   */\n      add\n        /* \"#utility.yul\":843:919   */\n      tag_518\n      jump\t// in\n    tag_537:\n        /* \"#utility.yul\":964:966   */\n      0x1f\n        /* \"#utility.yul\":952:967   */\n      add\n        /* \"#utility.yul\":969:1035   */\n      0xffffffffffffffffffffffffffffffffffffffffffffffffffffffffffffffe0\n        /* \"#utility.yul\":948:1036   */\n      and\n        /* \"#utility.yul\":939:1037   */\n      swap3\n      swap1\n      swap3\n      add\n        /* \"#utility.yul\":1039:1043   */\n      0x20\n        /* \"#utility.yul\":935:1044   */\n      add\n      swap3\n        /* \"#utility.yul\":720:1050   */\n      swap2\n      pop\n      pop\n      jump\t// out\n        /* \"#utility.yul\":1055:2690   */\n    tag_67:\n        /* \"#utility.yul\":1249:1253   */\n      0x00\n        /* \"#utility.yul\":1278:1280   */\n      0x20\n        /* \"#utility.yul\":1318:1320   */\n      dup1\n        /* \"#utility.yul\":1307:1316   */\n      dup4\n        /* \"#utility.yul\":1303:1321   */\n      add\n        /* \"#utility.yul\":1348:1350   */\n      dup2\n        /* \"#utility.yul\":1337:1346   */\n      dup5\n        /* \"#utility.yul\":1330:1351   */\n      mstore\n        /* \"#utility.yul\":1371:1377   */\n      dup1\n        /* \"#utility.yul\":1406:1412   */\n      dup6\n        /* \"#utility.yul\":1400:1413   */\n      mload\n        /* \"#utility.yul\":1437:1443   */\n      dup1\n        /* \"#utility.yul\":1429:1435   */\n      dup4\n        /* \"#utility.yul\":1422:1444   */\n      mstore\n        /* \"#utility.yul\":1463:1465   */\n      0x40\n        /* \"#utility.yul\":1453:1465   */\n      swap3\n      pop\n        /* \"#utility.yul\":1496:1498   */\n      0x40\n        /* \"#utility.yul\":1485:1494   */\n      dup7\n        /* \"#utility.yul\":1481:1499   */\n      add\n        /* \"#utility.yul\":1474:1499   */\n      swap2\n      pop\n        /* \"#utility.yul\":1558:1560   */\n      0x40\n        /* \"#utility.yul\":1548:1554   */\n      dup2\n        /* \"#utility.yul\":1545:1546   */\n      0x05\n        /* \"#utility.yul\":1541:1555   */\n      shl\n        /* \"#utility.yul\":1530:1539   */\n      dup8\n        /* \"#utility.yul\":1526:1556   */\n      add\n        /* \"#utility.yul\":1522:1561   */\n      add\n        /* \"#utility.yul\":1596:1598   */\n      dup5\n        /* \"#utility.yul\":1588:1594   */\n      dup9\n        /* \"#utility.yul\":1584:1599   */\n      add\n        /* \"#utility.yul\":1617:1618   */\n      0x00\n        /* \"#utility.yul\":1627:2661   */\n    tag_539:\n        /* \"#utility.yul\":1641:1647   */\n      dup4\n        /* \"#utility.yul\":1638:1639   */\n      dup2\n        /* \"#utility.yul\":1635:1648   */\n      lt\n        /* \"#utility.yul\":1627:2661   */\n      iszero\n      tag_541\n      jumpi\n        /* \"#utility.yul\":1730:1796   */\n      0xffffffffffffffffffffffffffffffffffffffffffffffffffffffffffffffc0\n        /* \"#utility.yul\":1718:1727   */\n      dup10\n        /* \"#utility.yul\":1710:1716   */\n      dup5\n        /* \"#utility.yul\":1706:1728   */\n      sub\n        /* \"#utility.yul\":1702:1797   */\n      add\n        /* \"#utility.yul\":1697:1700   */\n      dup6\n        /* \"#utility.yul\":1690:1798   */\n      mstore\n        /* \"#utility.yul\":1827:1833   */\n      dup2\n        /* \"#utility.yul\":1821:1834   */\n      mload\n        /* \"#utility.yul\":1857:1861   */\n      0xc0\n        /* \"#utility.yul\":1895:1897   */\n      dup2\n        /* \"#utility.yul\":1889:1898   */\n      mload\n        /* \"#utility.yul\":1881:1887   */\n      dup6\n        /* \"#utility.yul\":1874:1899   */\n      mstore\n        /* \"#utility.yul\":1960:2002   */\n      0xffffffffffffffffffffffffffffffffffffffff\n        /* \"#utility.yul\":1954:1956   */\n      dup10\n        /* \"#utility.yul\":1950:1952   */\n      dup4\n        /* \"#utility.yul\":1946:1957   */\n      add\n        /* \"#utility.yul\":1940:1958   */\n      mload\n        /* \"#utility.yul\":1936:2003   */\n      and\n        /* \"#utility.yul\":1931:1933   */\n      dup10\n        /* \"#utility.yul\":1923:1929   */\n      dup7\n        /* \"#utility.yul\":1919:1934   */\n      add\n        /* \"#utility.yul\":1912:2004   */\n      mstore\n        /* \"#utility.yul\":2051:2053   */\n      dup8\n        /* \"#utility.yul\":2047:2049   */\n      dup3\n        /* \"#utility.yul\":2043:2054   */\n      add\n        /* \"#utility.yul\":2037:2055   */\n      mload\n        /* \"#utility.yul\":2092:2094   */\n      dup2\n        /* \"#utility.yul\":2087:2089   */\n      dup10\n        /* \"#utility.yul\":2079:2085   */\n      dup8\n        /* \"#utility.yul\":2075:2090   */\n      add\n        /* \"#utility.yul\":2068:2095   */\n      mstore\n        /* \"#utility.yul\":2122:2170   */\n      tag_542\n        /* \"#utility.yul\":2166:2168   */\n      dup3\n        /* \"#utility.yul\":2158:2164   */\n      dup8\n        /* \"#utility.yul\":2154:2169   */\n      add\n        /* \"#utility.yul\":2140:2152   */\n      dup3\n        /* \"#utility.yul\":2122:2170   */\n      tag_519\n      jump\t// in\n    tag_542:\n        /* \"#utility.yul\":2108:2170   */\n      swap2\n      pop\n      pop\n        /* \"#utility.yul\":2193:2197   */\n      0x60\n        /* \"#utility.yul\":2246:2248   */\n      dup1\n        /* \"#utility.yul\":2242:2244   */\n      dup4\n        /* \"#utility.yul\":2238:2249   */\n      add\n        /* \"#utility.yul\":2232:2250   */\n      mload\n        /* \"#utility.yul\":2299:2305   */\n      dup7\n        /* \"#utility.yul\":2291:2297   */\n      dup4\n        /* \"#utility.yul\":2287:2306   */\n      sub\n        /* \"#utility.yul\":2282:2284   */\n      dup3\n        /* \"#utility.yul\":2274:2280   */\n      dup9\n        /* \"#utility.yul\":2270:2285   */\n      add\n        /* \"#utility.yul\":2263:2307   */\n      mstore\n        /* \"#utility.yul\":2334:2375   */\n      tag_543\n        /* \"#utility.yul\":2368:2374   */\n      dup4\n        /* \"#utility.yul\":2352:2366   */\n      dup3\n        /* \"#utility.yul\":2334:2375   */\n      tag_519\n      jump\t// in\n    tag_543:\n        /* \"#utility.yul\":2398:2402   */\n      0x80\n        /* \"#utility.yul\":2449:2460   */\n      dup6\n      dup2\n      add\n        /* \"#utility.yul\":2443:2461   */\n      mload\n        /* \"#utility.yul\":2463:2467   */\n      0xff\n        /* \"#utility.yul\":2439:2468   */\n      and\n        /* \"#utility.yul\":2422:2437   */\n      swap1\n      dup10\n      add\n        /* \"#utility.yul\":2415:2469   */\n      mstore\n        /* \"#utility.yul\":2492:2496   */\n      0xa0\n        /* \"#utility.yul\":2539:2550   */\n      swap5\n      dup6\n      add\n        /* \"#utility.yul\":2533:2551   */\n      mload\n        /* \"#utility.yul\":2516:2531   */\n      swap5\n      swap1\n      swap8\n      add\n        /* \"#utility.yul\":2509:2552   */\n      swap4\n      swap1\n      swap4\n      mstore\n      pop\n      pop\n      pop\n        /* \"#utility.yul\":2639:2651   */\n      swap4\n      dup7\n      add\n      swap4\n        /* \"#utility.yul\":2604:2619   */\n      swap1\n      dup7\n      add\n      swap1\n        /* \"#utility.yul\":1663:1664   */\n      0x01\n        /* \"#utility.yul\":1656:1665   */\n      add\n        /* \"#utility.yul\":1627:2661   */\n      jump(tag_539)\n    tag_541:\n      pop\n        /* \"#utility.yul\":2678:2684   */\n      swap1\n      swap9\n        /* \"#utility.yul\":1055:2690   */\n      swap8\n      pop\n      pop\n      pop\n      pop\n      pop\n      pop\n      pop\n      pop\n      jump\t// out\n        /* \"#utility.yul\":2695:2875   */\n    tag_71:\n        /* \"#utility.yul\":2754:2760   */\n      0x00\n        /* \"#utility.yul\":2807:2809   */\n      0x20\n        /* \"#utility.yul\":2795:2804   */\n      dup3\n        /* \"#utility.yul\":2786:2793   */\n      dup5\n        /* \"#utility.yul\":2782:2805   */\n      sub\n        /* \"#utility.yul\":2778:2810   */\n      slt\n        /* \"#utility.yul\":2775:2827   */\n      iszero\n      tag_545\n      jumpi\n        /* \"#utility.yul\":2823:2824   */\n      0x00\n        /* \"#utility.yul\":2820:2821   */\n      dup1\n        /* \"#utility.yul\":2813:2825   */\n      revert\n        /* \"#utility.yul\":2775:2827   */\n    tag_545:\n      pop\n        /* \"#utility.yul\":2846:2869   */\n      calldataload\n      swap2\n        /* \"#utility.yul\":2695:2875   */\n      swap1\n      pop\n      jump\t// out\n        /* \"#utility.yul\":3354:3550   */\n    tag_521:\n        /* \"#utility.yul\":3422:3442   */\n      dup1\n      calldataload\n        /* \"#utility.yul\":3482:3524   */\n      0xffffffffffffffffffffffffffffffffffffffff\n        /* \"#utility.yul\":3471:3525   */\n      dup2\n      and\n        /* \"#utility.yul\":3461:3526   */\n      dup2\n      eq\n        /* \"#utility.yul\":3451:3544   */\n      tag_550\n      jumpi\n        /* \"#utility.yul\":3540:3541   */\n      0x00\n        /* \"#utility.yul\":3537:3538   */\n      dup1\n        /* \"#utility.yul\":3530:3542   */\n      revert\n        /* \"#utility.yul\":3451:3544   */\n    tag_550:\n        /* \"#utility.yul\":3354:3550   */\n      swap2\n      swap1\n      pop\n      jump\t// out\n        /* \"#utility.yul\":3555:3741   */\n    tag_83:\n        /* \"#utility.yul\":3614:3620   */\n      0x00\n        /* \"#utility.yul\":3667:3669   */\n      0x20\n        /* \"#utility.yul\":3655:3664   */\n      dup3\n        /* \"#utility.yul\":3646:3653   */\n      dup5\n        /* \"#utility.yul\":3642:3665   */\n      sub\n        /* \"#utility.yul\":3638:3670   */\n      slt\n        /* \"#utility.yul\":3635:3687   */\n      iszero\n      tag_552\n      jumpi\n        /* \"#utility.yul\":3683:3684   */\n      0x00\n        /* \"#utility.yul\":3680:3681   */\n      dup1\n        /* \"#utility.yul\":3673:3685   */\n      revert\n        /* \"#utility.yul\":3635:3687   */\n    tag_552:\n        /* \"#utility.yul\":3706:3735   */\n      tag_553\n        /* \"#utility.yul\":3725:3734   */\n      dup3\n        /* \"#utility.yul\":3706:3735   */\n      tag_521\n      jump\t// in\n    tag_553:\n        /* \"#utility.yul\":3696:3735   */\n      swap4\n        /* \"#utility.yul\":3555:3741   */\n      swap3\n      pop\n      pop\n      pop\n      jump\t// out\n        /* \"#utility.yul\":4265:4668   */\n    tag_116:\n        /* \"#utility.yul\":4351:4357   */\n      0x00\n        /* \"#utility.yul\":4359:4365   */\n      dup1\n        /* \"#utility.yul\":4367:4373   */\n      0x00\n        /* \"#utility.yul\":4375:4381   */\n      dup1\n        /* \"#utility.yul\":4428:4431   */\n      0x80\n        /* \"#utility.yul\":4416:4425   */\n      dup6\n        /* \"#utility.yul\":4407:4414   */\n      dup8\n        /* \"#utility.yul\":4403:4426   */\n      sub\n        /* \"#utility.yul\":4399:4432   */\n      slt\n        /* \"#utility.yul\":4396:4449   */\n      iszero\n      tag_558\n      jumpi\n        /* \"#utility.yul\":4445:4446   */\n      0x00\n        /* \"#utility.yul\":4442:4443   */\n      dup1\n        /* \"#utility.yul\":4435:4447   */\n      revert\n        /* \"#utility.yul\":4396:4449   */\n    tag_558:\n        /* \"#utility.yul\":4468:4497   */\n      tag_559\n        /* \"#utility.yul\":4487:4496   */\n      dup6\n        /* \"#utility.yul\":4468:4497   */\n      tag_521\n      jump\t// in\n    tag_559:\n        /* \"#utility.yul\":4458:4497   */\n      swap4\n      pop\n        /* \"#utility.yul\":4516:4554   */\n      tag_560\n        /* \"#utility.yul\":4550:4552   */\n      0x20\n        /* \"#utility.yul\":4539:4548   */\n      dup7\n        /* \"#utility.yul\":4535:4553   */\n      add\n        /* \"#utility.yul\":4516:4554   */\n      tag_521\n      jump\t// in\n    tag_560:\n        /* \"#utility.yul\":4506:4554   */\n      swap3\n      pop\n        /* \"#utility.yul\":4573:4611   */\n      tag_561\n        /* \"#utility.yul\":4607:4609   */\n      0x40\n        /* \"#utility.yul\":4596:4605   */\n      dup7\n        /* \"#utility.yul\":4592:4610   */\n      add\n        /* \"#utility.yul\":4573:4611   */\n      tag_521\n      jump\t// in\n    tag_561:\n        /* \"#utility.yul\":4265:4668   */\n      swap4\n      swap7\n      swap3\n      swap6\n      pop\n        /* \"#utility.yul\":4563:4611   */\n      swap3\n      swap4\n        /* \"#utility.yul\":4658:4660   */\n      0x60\n        /* \"#utility.yul\":4643:4661   */\n      add\n        /* \"#utility.yul\":4630:4662   */\n      calldataload\n      swap3\n      pop\n      pop\n        /* \"#utility.yul\":4265:4668   */\n      jump\t// out\n        /* \"#utility.yul\":4673:4857   */\n    tag_239:\n        /* \"#utility.yul\":4725:4802   */\n      0x4e487b7100000000000000000000000000000000000000000000000000000000\n        /* \"#utility.yul\":4722:4723   */\n      0x00\n        /* \"#utility.yul\":4715:4803   */\n      mstore\n        /* \"#utility.yul\":4822:4826   */\n      0x21\n        /* \"#utility.yul\":4819:4820   */\n      0x04\n        /* \"#utility.yul\":4812:4827   */\n      mstore\n        /* \"#utility.yul\":4846:4850   */\n      0x24\n        /* \"#utility.yul\":4843:4844   */\n      0x00\n        /* \"#utility.yul\":4836:4851   */\n      revert\n        /* \"#utility.yul\":4862:5157   */\n    tag_523:\n        /* \"#utility.yul\":4944:4945   */\n      0x02\n        /* \"#utility.yul\":4937:4942   */\n      dup2\n        /* \"#utility.yul\":4934:4946   */\n      lt\n        /* \"#utility.yul\":4924:5124   */\n      tag_564\n      jumpi\n        /* \"#utility.yul\":4980:5057   */\n      0x4e487b7100000000000000000000000000000000000000000000000000000000\n        /* \"#utility.yul\":4977:4978   */\n      0x00\n        /* \"#utility.yul\":4970:5058   */\n      mstore\n        /* \"#utility.yul\":5081:5085   */\n      0x21\n        /* \"#utility.yul\":5078:5079   */\n      0x04\n        /* \"#utility.yul\":5071:5086   */\n      mstore\n        /* \"#utility.yul\":5109:5113   */\n      0x24\n        /* \"#utility.yul\":5106:5107   */\n      0x00\n        /* \"#utility.yul\":5099:5114   */\n      revert\n        /* \"#utility.yul\":4924:5124   */\n    tag_564:\n        /* \"#utility.yul\":5133:5151   */\n      swap1\n      mstore\n        /* \"#utility.yul\":4862:5157   */\n      jump\t// out\n        /* \"#utility.yul\":5162:6736   */\n    tag_160:\n        /* \"#utility.yul\":5385:5398   */\n      dup2\n      mload\n        /* \"#utility.yul\":3816:3829   */\n      iszero\n        /* \"#utility.yul\":3809:3830   */\n      iszero\n        /* \"#utility.yul\":3797:3831   */\n      dup2\n      mstore\n        /* \"#utility.yul\":5356:5359   */\n      0x01a0\n        /* \"#utility.yul\":5341:5360   */\n      dup2\n      add\n        /* \"#utility.yul\":5457:5461   */\n      0x20\n        /* \"#utility.yul\":5449:5455   */\n      dup4\n        /* \"#utility.yul\":5445:5462   */\n      add\n        /* \"#utility.yul\":5439:5463   */\n      mload\n        /* \"#utility.yul\":5472:5526   */\n      tag_567\n        /* \"#utility.yul\":5520:5524   */\n      0x20\n        /* \"#utility.yul\":5509:5518   */\n      dup5\n        /* \"#utility.yul\":5505:5525   */\n      add\n        /* \"#utility.yul\":5491:5503   */\n      dup3\n        /* \"#utility.yul\":410:452   */\n      0xffffffffffffffffffffffffffffffffffffffff\n        /* \"#utility.yul\":399:453   */\n      and\n        /* \"#utility.yul\":387:454   */\n      swap1\n      mstore\n        /* \"#utility.yul\":333:460   */\n      jump\n        /* \"#utility.yul\":5472:5526   */\n    tag_567:\n      pop\n        /* \"#utility.yul\":5575:5579   */\n      0x40\n        /* \"#utility.yul\":5567:5573   */\n      dup4\n        /* \"#utility.yul\":5563:5580   */\n      add\n        /* \"#utility.yul\":5557:5581   */\n      mload\n        /* \"#utility.yul\":5590:5646   */\n      tag_568\n        /* \"#utility.yul\":5640:5644   */\n      0x40\n        /* \"#utility.yul\":5629:5638   */\n      dup5\n        /* \"#utility.yul\":5625:5645   */\n      add\n        /* \"#utility.yul\":5609:5623   */\n      dup3\n        /* \"#utility.yul\":410:452   */\n      0xffffffffffffffffffffffffffffffffffffffff\n        /* \"#utility.yul\":399:453   */\n      and\n        /* \"#utility.yul\":387:454   */\n      swap1\n      mstore\n        /* \"#utility.yul\":333:460   */\n      jump\n        /* \"#utility.yul\":5590:5646   */\n    tag_568:\n      pop\n        /* \"#utility.yul\":5695:5699   */\n      0x60\n        /* \"#utility.yul\":5687:5693   */\n      dup4\n        /* \"#utility.yul\":5683:5700   */\n      add\n        /* \"#utility.yul\":5677:5701   */\n      mload\n        /* \"#utility.yul\":5710:5766   */\n      tag_569\n        /* \"#utility.yul\":5760:5764   */\n      0x60\n        /* \"#utility.yul\":5749:5758   */\n      dup5\n        /* \"#utility.yul\":5745:5765   */\n      add\n        /* \"#utility.yul\":5729:5743   */\n      dup3\n        /* \"#utility.yul\":410:452   */\n      0xffffffffffffffffffffffffffffffffffffffff\n        /* \"#utility.yul\":399:453   */\n      and\n        /* \"#utility.yul\":387:454   */\n      swap1\n      mstore\n        /* \"#utility.yul\":333:460   */\n      jump\n        /* \"#utility.yul\":5710:5766   */\n    tag_569:\n      pop\n        /* \"#utility.yul\":5815:5819   */\n      0x80\n        /* \"#utility.yul\":5807:5813   */\n      dup4\n        /* \"#utility.yul\":5803:5820   */\n      add\n        /* \"#utility.yul\":5797:5821   */\n      mload\n        /* \"#utility.yul\":5830:5886   */\n      tag_570\n        /* \"#utility.yul\":5880:5884   */\n      0x80\n        /* \"#utility.yul\":5869:5878   */\n      dup5\n        /* \"#utility.yul\":5865:5885   */\n      add\n        /* \"#utility.yul\":5849:5863   */\n      dup3\n        /* \"#utility.yul\":410:452   */\n      0xffffffffffffffffffffffffffffffffffffffff\n        /* \"#utility.yul\":399:453   */\n      and\n        /* \"#utility.yul\":387:454   */\n      swap1\n      mstore\n        /* \"#utility.yul\":333:460   */\n      jump\n        /* \"#utility.yul\":5830:5886   */\n    tag_570:\n      pop\n        /* \"#utility.yul\":5935:5939   */\n      0xa0\n        /* \"#utility.yul\":5927:5933   */\n      dup4\n        /* \"#utility.yul\":5923:5940   */\n      add\n        /* \"#utility.yul\":5917:5941   */\n      mload\n        /* \"#utility.yul\":5950:6005   */\n      tag_571\n        /* \"#utility.yul\":5999:6003   */\n      0xa0\n        /* \"#utility.yul\":5988:5997   */\n      dup5\n        /* \"#utility.yul\":5984:6004   */\n      add\n        /* \"#utility.yul\":5968:5982   */\n      dup3\n        /* \"#utility.yul\":3138:3146   */\n      0xffffff\n        /* \"#utility.yul\":3127:3147   */\n      and\n        /* \"#utility.yul\":3115:3148   */\n      swap1\n      mstore\n        /* \"#utility.yul\":3062:3154   */\n      jump\n        /* \"#utility.yul\":5950:6005   */\n    tag_571:\n      pop\n        /* \"#utility.yul\":6054:6058   */\n      0xc0\n        /* \"#utility.yul\":6046:6052   */\n      dup4\n        /* \"#utility.yul\":6042:6059   */\n      add\n        /* \"#utility.yul\":6036:6060   */\n      mload\n        /* \"#utility.yul\":6069:6133   */\n      tag_572\n        /* \"#utility.yul\":6127:6131   */\n      0xc0\n        /* \"#utility.yul\":6116:6125   */\n      dup5\n        /* \"#utility.yul\":6112:6132   */\n      add\n        /* \"#utility.yul\":6096:6110   */\n      dup3\n        /* \"#utility.yul\":6069:6133   */\n      tag_523\n      jump\t// in\n    tag_572:\n      pop\n        /* \"#utility.yul\":6189:6193   */\n      0xe0\n        /* \"#utility.yul\":6181:6187   */\n      dup4\n        /* \"#utility.yul\":6177:6194   */\n      add\n        /* \"#utility.yul\":6171:6195   */\n      mload\n        /* \"#utility.yul\":6164:6168   */\n      0xe0\n        /* \"#utility.yul\":6153:6162   */\n      dup4\n        /* \"#utility.yul\":6149:6169   */\n      add\n        /* \"#utility.yul\":6142:6196   */\n      mstore\n        /* \"#utility.yul\":6215:6221   */\n      0x0100\n        /* \"#utility.yul\":6270:6272   */\n      dup1\n        /* \"#utility.yul\":6262:6268   */\n      dup5\n        /* \"#utility.yul\":6258:6273   */\n      add\n        /* \"#utility.yul\":6252:6274   */\n      mload\n        /* \"#utility.yul\":6283:6337   */\n      tag_573\n        /* \"#utility.yul\":6333:6335   */\n      dup3\n        /* \"#utility.yul\":6322:6331   */\n      dup6\n        /* \"#utility.yul\":6318:6336   */\n      add\n        /* \"#utility.yul\":6302:6316   */\n      dup3\n        /* \"#utility.yul\":410:452   */\n      0xffffffffffffffffffffffffffffffffffffffff\n        /* \"#utility.yul\":399:453   */\n      and\n        /* \"#utility.yul\":387:454   */\n      swap1\n      mstore\n        /* \"#utility.yul\":333:460   */\n      jump\n        /* \"#utility.yul\":6283:6337   */\n    tag_573:\n      pop\n      pop\n        /* \"#utility.yul\":6356:6362   */\n      0x0120\n        /* \"#utility.yul\":6399:6414   */\n      dup4\n      dup2\n      add\n        /* \"#utility.yul\":6393:6415   */\n      mload\n        /* \"#utility.yul\":410:452   */\n      0xffffffffffffffffffffffffffffffffffffffff\n        /* \"#utility.yul\":399:453   */\n      and\n        /* \"#utility.yul\":6459:6477   */\n      swap1\n      dup4\n      add\n        /* \"#utility.yul\":387:454   */\n      mstore\n        /* \"#utility.yul\":6497:6503   */\n      0x0140\n        /* \"#utility.yul\":6545:6560   */\n      dup1\n      dup5\n      add\n        /* \"#utility.yul\":6539:6561   */\n      mload\n        /* \"#utility.yul\":6519:6537   */\n      swap1\n      dup4\n      add\n        /* \"#utility.yul\":6512:6562   */\n      mstore\n        /* \"#utility.yul\":6581:6587   */\n      0x0160\n        /* \"#utility.yul\":6629:6644   */\n      dup1\n      dup5\n      add\n        /* \"#utility.yul\":6623:6645   */\n      mload\n        /* \"#utility.yul\":6603:6621   */\n      swap1\n      dup4\n      add\n        /* \"#utility.yul\":6596:6646   */\n      mstore\n        /* \"#utility.yul\":6665:6671   */\n      0x0180\n        /* \"#utility.yul\":6713:6728   */\n      swap3\n      dup4\n      add\n        /* \"#utility.yul\":6707:6729   */\n      mload\n        /* \"#utility.yul\":6687:6705   */\n      swap3\n      swap1\n      swap2\n      add\n        /* \"#utility.yul\":6680:6730   */\n      swap2\n      swap1\n      swap2\n      mstore\n        /* \"#utility.yul\":6687:6705   */\n      swap1\n        /* \"#utility.yul\":5162:6736   */\n      jump\t// out\n        /* \"#utility.yul\":6741:6950   */\n    tag_165:\n        /* \"#utility.yul\":6887:6889   */\n      0x20\n        /* \"#utility.yul\":6872:6890   */\n      dup2\n      add\n        /* \"#utility.yul\":6899:6944   */\n      tag_331\n        /* \"#utility.yul\":6876:6885   */\n      dup3\n        /* \"#utility.yul\":6926:6932   */\n      dup5\n        /* \"#utility.yul\":6899:6944   */\n      tag_523\n      jump\t// in\n        /* \"#utility.yul\":6955:7225   */\n    tag_183:\n        /* \"#utility.yul\":7028:7034   */\n      0x00\n        /* \"#utility.yul\":7081:7083   */\n      0x20\n        /* \"#utility.yul\":7069:7078   */\n      dup3\n        /* \"#utility.yul\":7060:7067   */\n      dup5\n        /* \"#utility.yul\":7056:7079   */\n      sub\n        /* \"#utility.yul\":7052:7084   */\n      slt\n        /* \"#utility.yul\":7049:7101   */\n      iszero\n      tag_578\n      jumpi\n        /* \"#utility.yul\":7097:7098   */\n      0x00\n        /* \"#utility.yul\":7094:7095   */\n      dup1\n        /* \"#utility.yul\":7087:7099   */\n      revert\n        /* \"#utility.yul\":7049:7101   */\n    tag_578:\n        /* \"#utility.yul\":7136:7145   */\n      dup2\n        /* \"#utility.yul\":7123:7146   */\n      calldataload\n        /* \"#utility.yul\":7175:7176   */\n      0x02\n        /* \"#utility.yul\":7168:7173   */\n      dup2\n        /* \"#utility.yul\":7165:7177   */\n      lt\n        /* \"#utility.yul\":7155:7195   */\n      tag_553\n      jumpi\n        /* \"#utility.yul\":7191:7192   */\n      0x00\n        /* \"#utility.yul\":7188:7189   */\n      dup1\n        /* \"#utility.yul\":7181:7193   */\n      revert\n        /* \"#utility.yul\":7230:7633   */\n    tag_188:\n        /* \"#utility.yul\":7316:7322   */\n      0x00\n        /* \"#utility.yul\":7324:7330   */\n      dup1\n        /* \"#utility.yul\":7332:7338   */\n      0x00\n        /* \"#utility.yul\":7340:7346   */\n      dup1\n        /* \"#utility.yul\":7393:7396   */\n      0x80\n        /* \"#utility.yul\":7381:7390   */\n      dup6\n        /* \"#utility.yul\":7372:7379   */\n      dup8\n        /* \"#utility.yul\":7368:7391   */\n      sub\n        /* \"#utility.yul\":7364:7397   */\n      slt\n        /* \"#utility.yul\":7361:7414   */\n      iszero\n      tag_581\n      jumpi\n        /* \"#utility.yul\":7410:7411   */\n      0x00\n        /* \"#utility.yul\":7407:7408   */\n      dup1\n        /* \"#utility.yul\":7400:7412   */\n      revert\n        /* \"#utility.yul\":7361:7414   */\n    tag_581:\n        /* \"#utility.yul\":7446:7455   */\n      dup5\n        /* \"#utility.yul\":7433:7456   */\n      calldataload\n        /* \"#utility.yul\":7423:7456   */\n      swap4\n      pop\n        /* \"#utility.yul\":7475:7513   */\n      tag_582\n        /* \"#utility.yul\":7509:7511   */\n      0x20\n        /* \"#utility.yul\":7498:7507   */\n      dup7\n        /* \"#utility.yul\":7494:7512   */\n      add\n        /* \"#utility.yul\":7475:7513   */\n      tag_521\n      jump\t// in\n    tag_582:\n        /* \"#utility.yul\":7465:7513   */\n      swap3\n      pop\n        /* \"#utility.yul\":7532:7570   */\n      tag_583\n        /* \"#utility.yul\":7566:7568   */\n      0x40\n        /* \"#utility.yul\":7555:7564   */\n      dup7\n        /* \"#utility.yul\":7551:7569   */\n      add\n        /* \"#utility.yul\":7532:7570   */\n      tag_521\n      jump\t// in\n    tag_583:\n        /* \"#utility.yul\":7522:7570   */\n      swap2\n      pop\n        /* \"#utility.yul\":7589:7627   */\n      tag_584\n        /* \"#utility.yul\":7623:7625   */\n      0x60\n        /* \"#utility.yul\":7612:7621   */\n      dup7\n        /* \"#utility.yul\":7608:7626   */\n      add\n        /* \"#utility.yul\":7589:7627   */\n      tag_521\n      jump\t// in\n    tag_584:\n        /* \"#utility.yul\":7579:7627   */\n      swap1\n      pop\n        /* \"#utility.yul\":7230:7633   */\n      swap3\n      swap6\n      swap2\n      swap5\n      pop\n      swap3\n      pop\n      jump\t// out\n        /* \"#utility.yul\":7638:8110   */\n    tag_202:\n        /* \"#utility.yul\":7733:7739   */\n      0x00\n        /* \"#utility.yul\":7741:7747   */\n      dup1\n        /* \"#utility.yul\":7749:7755   */\n      0x00\n        /* \"#utility.yul\":7757:7763   */\n      dup1\n        /* \"#utility.yul\":7765:7771   */\n      0x00\n        /* \"#utility.yul\":7818:7821   */\n      0xa0\n        /* \"#utility.yul\":7806:7815   */\n      dup7\n        /* \"#utility.yul\":7797:7804   */\n      dup9\n        /* \"#utility.yul\":7793:7816   */\n      sub\n        /* \"#utility.yul\":7789:7822   */\n      slt\n        /* \"#utility.yul\":7786:7839   */\n      iszero\n      tag_586\n      jumpi\n        /* \"#utility.yul\":7835:7836   */\n      0x00\n        /* \"#utility.yul\":7832:7833   */\n      dup1\n        /* \"#utility.yul\":7825:7837   */\n      revert\n        /* \"#utility.yul\":7786:7839   */\n    tag_586:\n        /* \"#utility.yul\":7871:7880   */\n      dup6\n        /* \"#utility.yul\":7858:7881   */\n      calldataload\n        /* \"#utility.yul\":7848:7881   */\n      swap5\n      pop\n        /* \"#utility.yul\":7900:7938   */\n      tag_587\n        /* \"#utility.yul\":7934:7936   */\n      0x20\n        /* \"#utility.yul\":7923:7932   */\n      dup8\n        /* \"#utility.yul\":7919:7937   */\n      add\n        /* \"#utility.yul\":7900:7938   */\n      tag_521\n      jump\t// in\n    tag_587:\n        /* \"#utility.yul\":7890:7938   */\n      swap4\n      pop\n        /* \"#utility.yul\":7957:7995   */\n      tag_588\n        /* \"#utility.yul\":7991:7993   */\n      0x40\n        /* \"#utility.yul\":7980:7989   */\n      dup8\n        /* \"#utility.yul\":7976:7994   */\n      add\n        /* \"#utility.yul\":7957:7995   */\n      tag_521\n      jump\t// in\n    tag_588:\n        /* \"#utility.yul\":7947:7995   */\n      swap3\n      pop\n        /* \"#utility.yul\":8042:8044   */\n      0x60\n        /* \"#utility.yul\":8031:8040   */\n      dup7\n        /* \"#utility.yul\":8027:8045   */\n      add\n        /* \"#utility.yul\":8014:8046   */\n      calldataload\n        /* \"#utility.yul\":8004:8046   */\n      swap2\n      pop\n        /* \"#utility.yul\":8065:8104   */\n      tag_589\n        /* \"#utility.yul\":8099:8102   */\n      0x80\n        /* \"#utility.yul\":8088:8097   */\n      dup8\n        /* \"#utility.yul\":8084:8103   */\n      add\n        /* \"#utility.yul\":8065:8104   */\n      tag_521\n      jump\t// in\n    tag_589:\n        /* \"#utility.yul\":8055:8104   */\n      swap1\n      pop\n        /* \"#utility.yul\":7638:8110   */\n      swap3\n      swap6\n      pop\n      swap3\n      swap6\n      swap1\n      swap4\n      pop\n      jump\t// out\n        /* \"#utility.yul\":8115:8299   */\n    tag_258:\n        /* \"#utility.yul\":8185:8191   */\n      0x00\n        /* \"#utility.yul\":8238:8240   */\n      0x20\n        /* \"#utility.yul\":8226:8235   */\n      dup3\n        /* \"#utility.yul\":8217:8224   */\n      dup5\n        /* \"#utility.yul\":8213:8236   */\n      sub\n        /* \"#utility.yul\":8209:8241   */\n      slt\n        /* \"#utility.yul\":8206:8258   */\n      iszero\n      tag_591\n      jumpi\n        /* \"#utility.yul\":8254:8255   */\n      0x00\n        /* \"#utility.yul\":8251:8252   */\n      dup1\n        /* \"#utility.yul\":8244:8256   */\n      revert\n        /* \"#utility.yul\":8206:8258   */\n    tag_591:\n      pop\n        /* \"#utility.yul\":8277:8293   */\n      mload\n      swap2\n        /* \"#utility.yul\":8115:8299   */\n      swap1\n      pop\n      jump\t// out\n        /* \"#utility.yul\":8606:8883   */\n    tag_265:\n        /* \"#utility.yul\":8673:8679   */\n      0x00\n        /* \"#utility.yul\":8726:8728   */\n      0x20\n        /* \"#utility.yul\":8714:8723   */\n      dup3\n        /* \"#utility.yul\":8705:8712   */\n      dup5\n        /* \"#utility.yul\":8701:8724   */\n      sub\n        /* \"#utility.yul\":8697:8729   */\n      slt\n        /* \"#utility.yul\":8694:8746   */\n      iszero\n      tag_594\n      jumpi\n        /* \"#utility.yul\":8742:8743   */\n      0x00\n        /* \"#utility.yul\":8739:8740   */\n      dup1\n        /* \"#utility.yul\":8732:8744   */\n      revert\n        /* \"#utility.yul\":8694:8746   */\n    tag_594:\n        /* \"#utility.yul\":8774:8783   */\n      dup2\n        /* \"#utility.yul\":8768:8784   */\n      mload\n        /* \"#utility.yul\":8827:8832   */\n      dup1\n        /* \"#utility.yul\":8820:8833   */\n      iszero\n        /* \"#utility.yul\":8813:8834   */\n      iszero\n        /* \"#utility.yul\":8806:8811   */\n      dup2\n        /* \"#utility.yul\":8803:8835   */\n      eq\n        /* \"#utility.yul\":8793:8853   */\n      tag_553\n      jumpi\n        /* \"#utility.yul\":8849:8850   */\n      0x00\n        /* \"#utility.yul\":8846:8847   */\n      dup1\n        /* \"#utility.yul\":8839:8851   */\n      revert\n        /* \"#utility.yul\":8888:9083   */\n    tag_280:\n        /* \"#utility.yul\":8927:8930   */\n      0x00\n        /* \"#utility.yul\":8958:9024   */\n      0xffffffffffffffffffffffffffffffffffffffffffffffffffffffffffffffff\n        /* \"#utility.yul\":8951:8956   */\n      dup3\n        /* \"#utility.yul\":8948:9025   */\n      sub\n        /* \"#utility.yul\":8945:9048   */\n      tag_598\n      jumpi\n        /* \"#utility.yul\":9028:9046   */\n      tag_598\n      tag_516\n      jump\t// in\n    tag_598:\n      pop\n        /* \"#utility.yul\":9075:9076   */\n      0x01\n        /* \"#utility.yul\":9064:9077   */\n      add\n      swap1\n        /* \"#utility.yul\":8888:9083   */\n      jump\t// out\n        /* \"#utility.yul\":9088:9272   */\n    tag_287:\n        /* \"#utility.yul\":9140:9217   */\n      0x4e487b7100000000000000000000000000000000000000000000000000000000\n        /* \"#utility.yul\":9137:9138   */\n      0x00\n        /* \"#utility.yul\":9130:9218   */\n      mstore\n        /* \"#utility.yul\":9237:9241   */\n      0x41\n        /* \"#utility.yul\":9234:9235   */\n      0x04\n        /* \"#utility.yul\":9227:9242   */\n      mstore\n        /* \"#utility.yul\":9261:9265   */\n      0x24\n        /* \"#utility.yul\":9258:9259   */\n      0x00\n        /* \"#utility.yul\":9251:9266   */\n      revert\n        /* \"#utility.yul\":9277:9611   */\n    tag_524:\n        /* \"#utility.yul\":9348:9350   */\n      0x40\n        /* \"#utility.yul\":9342:9351   */\n      mload\n        /* \"#utility.yul\":9404:9406   */\n      0x1f\n        /* \"#utility.yul\":9394:9407   */\n      dup3\n      add\n        /* \"#utility.yul\":9409:9475   */\n      0xffffffffffffffffffffffffffffffffffffffffffffffffffffffffffffffe0\n        /* \"#utility.yul\":9390:9476   */\n      and\n        /* \"#utility.yul\":9378:9477   */\n      dup2\n      add\n        /* \"#utility.yul\":9507:9525   */\n      0xffffffffffffffff\n        /* \"#utility.yul\":9492:9526   */\n      dup2\n      gt\n        /* \"#utility.yul\":9528:9550   */\n      dup3\n      dup3\n      lt\n        /* \"#utility.yul\":9489:9551   */\n      or\n        /* \"#utility.yul\":9486:9574   */\n      iszero\n      tag_602\n      jumpi\n        /* \"#utility.yul\":9554:9572   */\n      tag_602\n      tag_287\n      jump\t// in\n    tag_602:\n        /* \"#utility.yul\":9590:9592   */\n      0x40\n        /* \"#utility.yul\":9583:9605   */\n      mstore\n        /* \"#utility.yul\":9277:9611   */\n      swap2\n      swap1\n      pop\n      jump\t// out\n        /* \"#utility.yul\":9616:10394   */\n    tag_295:\n        /* \"#utility.yul\":9696:9702   */\n      0x00\n        /* \"#utility.yul\":9749:9751   */\n      0x20\n        /* \"#utility.yul\":9737:9746   */\n      dup3\n        /* \"#utility.yul\":9728:9735   */\n      dup5\n        /* \"#utility.yul\":9724:9747   */\n      sub\n        /* \"#utility.yul\":9720:9752   */\n      slt\n        /* \"#utility.yul\":9717:9769   */\n      iszero\n      tag_604\n      jumpi\n        /* \"#utility.yul\":9765:9766   */\n      0x00\n        /* \"#utility.yul\":9762:9763   */\n      dup1\n        /* \"#utility.yul\":9755:9767   */\n      revert\n        /* \"#utility.yul\":9717:9769   */\n    tag_604:\n        /* \"#utility.yul\":9798:9807   */\n      dup2\n        /* \"#utility.yul\":9792:9808   */\n      mload\n        /* \"#utility.yul\":9827:9845   */\n      0xffffffffffffffff\n        /* \"#utility.yul\":9868:9870   */\n      dup1\n        /* \"#utility.yul\":9860:9866   */\n      dup3\n        /* \"#utility.yul\":9857:9871   */\n      gt\n        /* \"#utility.yul\":9854:9888   */\n      iszero\n      tag_605\n      jumpi\n        /* \"#utility.yul\":9884:9885   */\n      0x00\n        /* \"#utility.yul\":9881:9882   */\n      dup1\n        /* \"#utility.yul\":9874:9886   */\n      revert\n        /* \"#utility.yul\":9854:9888   */\n    tag_605:\n        /* \"#utility.yul\":9922:9928   */\n      dup2\n        /* \"#utility.yul\":9911:9920   */\n      dup5\n        /* \"#utility.yul\":9907:9929   */\n      add\n        /* \"#utility.yul\":9897:9929   */\n      swap2\n      pop\n        /* \"#utility.yul\":9967:9974   */\n      dup5\n        /* \"#utility.yul\":9960:9964   */\n      0x1f\n        /* \"#utility.yul\":9956:9958   */\n      dup4\n        /* \"#utility.yul\":9952:9965   */\n      add\n        /* \"#utility.yul\":9948:9975   */\n      slt\n        /* \"#utility.yul\":9938:9993   */\n      tag_606\n      jumpi\n        /* \"#utility.yul\":9989:9990   */\n      0x00\n        /* \"#utility.yul\":9986:9987   */\n      dup1\n        /* \"#utility.yul\":9979:9991   */\n      revert\n        /* \"#utility.yul\":9938:9993   */\n    tag_606:\n        /* \"#utility.yul\":10018:10020   */\n      dup2\n        /* \"#utility.yul\":10012:10021   */\n      mload\n        /* \"#utility.yul\":10040:10042   */\n      dup2\n        /* \"#utility.yul\":10036:10038   */\n      dup2\n        /* \"#utility.yul\":10033:10043   */\n      gt\n        /* \"#utility.yul\":10030:10066   */\n      iszero\n      tag_608\n      jumpi\n        /* \"#utility.yul\":10046:10064   */\n      tag_608\n      tag_287\n      jump\t// in\n    tag_608:\n        /* \"#utility.yul\":10088:10200   */\n      tag_609\n        /* \"#utility.yul\":10196:10198   */\n      0x20\n        /* \"#utility.yul\":10127:10193   */\n      0xffffffffffffffffffffffffffffffffffffffffffffffffffffffffffffffe0\n        /* \"#utility.yul\":10120:10124   */\n      0x1f\n        /* \"#utility.yul\":10116:10118   */\n      dup5\n        /* \"#utility.yul\":10112:10125   */\n      add\n        /* \"#utility.yul\":10108:10194   */\n      and\n        /* \"#utility.yul\":10104:10199   */\n      add\n        /* \"#utility.yul\":10088:10200   */\n      tag_524\n      jump\t// in\n    tag_609:\n        /* \"#utility.yul\":10075:10200   */\n      swap2\n      pop\n        /* \"#utility.yul\":10223:10225   */\n      dup1\n        /* \"#utility.yul\":10216:10221   */\n      dup3\n        /* \"#utility.yul\":10209:10226   */\n      mstore\n        /* \"#utility.yul\":10263:10270   */\n      dup6\n        /* \"#utility.yul\":10258:10260   */\n      0x20\n        /* \"#utility.yul\":10253:10255   */\n      dup3\n        /* \"#utility.yul\":10249:10251   */\n      dup6\n        /* \"#utility.yul\":10245:10256   */\n      add\n        /* \"#utility.yul\":10241:10261   */\n      add\n        /* \"#utility.yul\":10238:10271   */\n      gt\n        /* \"#utility.yul\":10235:10288   */\n      iszero\n      tag_610\n      jumpi\n        /* \"#utility.yul\":10284:10285   */\n      0x00\n        /* \"#utility.yul\":10281:10282   */\n      dup1\n        /* \"#utility.yul\":10274:10286   */\n      revert\n        /* \"#utility.yul\":10235:10288   */\n    tag_610:\n        /* \"#utility.yul\":10297:10364   */\n      tag_611\n        /* \"#utility.yul\":10361:10363   */\n      dup2\n        /* \"#utility.yul\":10356:10358   */\n      0x20\n        /* \"#utility.yul\":10349:10354   */\n      dup5\n        /* \"#utility.yul\":10345:10359   */\n      add\n        /* \"#utility.yul\":10340:10342   */\n      0x20\n        /* \"#utility.yul\":10336:10338   */\n      dup7\n        /* \"#utility.yul\":10332:10343   */\n      add\n        /* \"#utility.yul\":10297:10364   */\n      tag_518\n      jump\t// in\n    tag_611:\n      pop\n        /* \"#utility.yul\":10383:10388   */\n      swap5\n        /* \"#utility.yul\":9616:10394   */\n      swap4\n      pop\n      pop\n      pop\n      pop\n      jump\t// out\n        /* \"#utility.yul\":10399:10672   */\n    tag_302:\n        /* \"#utility.yul\":10467:10473   */\n      0x00\n        /* \"#utility.yul\":10520:10522   */\n      0x20\n        /* \"#utility.yul\":10508:10517   */\n      dup3\n        /* \"#utility.yul\":10499:10506   */\n      dup5\n        /* \"#utility.yul\":10495:10518   */\n      sub\n        /* \"#utility.yul\":10491:10523   */\n      slt\n        /* \"#utility.yul\":10488:10540   */\n      iszero\n      tag_613\n      jumpi\n        /* \"#utility.yul\":10536:10537   */\n      0x00\n        /* \"#utility.yul\":10533:10534   */\n      dup1\n        /* \"#utility.yul\":10526:10538   */\n      revert\n        /* \"#utility.yul\":10488:10540   */\n    tag_613:\n        /* \"#utility.yul\":10568:10577   */\n      dup2\n        /* \"#utility.yul\":10562:10578   */\n      mload\n        /* \"#utility.yul\":10618:10622   */\n      0xff\n        /* \"#utility.yul\":10611:10616   */\n      dup2\n        /* \"#utility.yul\":10607:10623   */\n      and\n        /* \"#utility.yul\":10600:10605   */\n      dup2\n        /* \"#utility.yul\":10597:10624   */\n      eq\n        /* \"#utility.yul\":10587:10642   */\n      tag_553\n      jumpi\n        /* \"#utility.yul\":10638:10639   */\n      0x00\n        /* \"#utility.yul\":10635:10636   */\n      dup1\n        /* \"#utility.yul\":10628:10640   */\n      revert\n        /* \"#utility.yul\":10677:10861   */\n    tag_309:\n        /* \"#utility.yul\":10729:10806   */\n      0x4e487b7100000000000000000000000000000000000000000000000000000000\n        /* \"#utility.yul\":10726:10727   */\n      0x00\n        /* \"#utility.yul\":10719:10807   */\n      mstore\n        /* \"#utility.yul\":10826:10830   */\n      0x32\n        /* \"#utility.yul\":10823:10824   */\n      0x04\n        /* \"#utility.yul\":10816:10831   */\n      mstore\n        /* \"#utility.yul\":10850:10854   */\n      0x24\n        /* \"#utility.yul\":10847:10848   */\n      0x00\n        /* \"#utility.yul\":10840:10855   */\n      revert\n        /* \"#utility.yul\":13284:13480   */\n    tag_375:\n        /* \"#utility.yul\":13323:13326   */\n      0x00\n        /* \"#utility.yul\":13351:13356   */\n      dup2\n        /* \"#utility.yul\":13341:13380   */\n      tag_625\n      jumpi\n        /* \"#utility.yul\":13360:13378   */\n      tag_625\n      tag_516\n      jump\t// in\n    tag_625:\n      pop\n        /* \"#utility.yul\":13407:13473   */\n      0xffffffffffffffffffffffffffffffffffffffffffffffffffffffffffffffff\n        /* \"#utility.yul\":13396:13474   */\n      add\n      swap1\n        /* \"#utility.yul\":13284:13480   */\n      jump\t// out\n        /* \"#utility.yul\":13485:13973   */\n    tag_525:\n        /* \"#utility.yul\":13538:13541   */\n      0x00\n        /* \"#utility.yul\":13576:13581   */\n      dup2\n        /* \"#utility.yul\":13570:13582   */\n      mload\n        /* \"#utility.yul\":13603:13609   */\n      dup1\n        /* \"#utility.yul\":13598:13601   */\n      dup5\n        /* \"#utility.yul\":13591:13610   */\n      mstore\n        /* \"#utility.yul\":13629:13633   */\n      0x20\n        /* \"#utility.yul\":13658:13662   */\n      dup1\n        /* \"#utility.yul\":13653:13656   */\n      dup6\n        /* \"#utility.yul\":13649:13663   */\n      add\n        /* \"#utility.yul\":13642:13663   */\n      swap5\n      pop\n        /* \"#utility.yul\":13697:13701   */\n      0x20\n        /* \"#utility.yul\":13690:13695   */\n      dup5\n        /* \"#utility.yul\":13686:13702   */\n      add\n        /* \"#utility.yul\":13720:13721   */\n      0x00\n        /* \"#utility.yul\":13730:13948   */\n    tag_627:\n        /* \"#utility.yul\":13744:13750   */\n      dup4\n        /* \"#utility.yul\":13741:13742   */\n      dup2\n        /* \"#utility.yul\":13738:13751   */\n      lt\n        /* \"#utility.yul\":13730:13948   */\n      iszero\n      tag_629\n      jumpi\n        /* \"#utility.yul\":13809:13822   */\n      dup2\n      mload\n        /* \"#utility.yul\":13824:13866   */\n      0xffffffffffffffffffffffffffffffffffffffff\n        /* \"#utility.yul\":13805:13867   */\n      and\n        /* \"#utility.yul\":13793:13868   */\n      dup8\n      mstore\n        /* \"#utility.yul\":13888:13900   */\n      swap6\n      dup3\n      add\n      swap6\n        /* \"#utility.yul\":13923:13938   */\n      swap1\n      dup3\n      add\n      swap1\n        /* \"#utility.yul\":13766:13767   */\n      0x01\n        /* \"#utility.yul\":13759:13768   */\n      add\n        /* \"#utility.yul\":13730:13948   */\n      jump(tag_627)\n    tag_629:\n      pop\n        /* \"#utility.yul\":13964:13967   */\n      swap5\n      swap6\n        /* \"#utility.yul\":13485:13973   */\n      swap5\n      pop\n      pop\n      pop\n      pop\n      pop\n      jump\t// out\n        /* \"#utility.yul\":13978:14310   */\n    tag_407:\n        /* \"#utility.yul\":14185:14191   */\n      dup3\n        /* \"#utility.yul\":14174:14183   */\n      dup2\n        /* \"#utility.yul\":14167:14192   */\n      mstore\n        /* \"#utility.yul\":14228:14230   */\n      0x40\n        /* \"#utility.yul\":14223:14225   */\n      0x20\n        /* \"#utility.yul\":14212:14221   */\n      dup3\n        /* \"#utility.yul\":14208:14226   */\n      add\n        /* \"#utility.yul\":14201:14231   */\n      mstore\n        /* \"#utility.yul\":14148:14152   */\n      0x00\n        /* \"#utility.yul\":14248:14304   */\n      tag_631\n        /* \"#utility.yul\":14300:14302   */\n      0x40\n        /* \"#utility.yul\":14289:14298   */\n      dup4\n        /* \"#utility.yul\":14285:14303   */\n      add\n        /* \"#utility.yul\":14277:14283   */\n      dup5\n        /* \"#utility.yul\":14248:14304   */\n      tag_525\n      jump\t// in\n    tag_631:\n        /* \"#utility.yul\":14240:14304   */\n      swap5\n        /* \"#utility.yul\":13978:14310   */\n      swap4\n      pop\n      pop\n      pop\n      pop\n      jump\t// out\n        /* \"#utility.yul\":14315:15251   */\n    tag_411:\n        /* \"#utility.yul\":14410:14416   */\n      0x00\n        /* \"#utility.yul\":14441:14443   */\n      0x20\n        /* \"#utility.yul\":14484:14486   */\n      dup1\n        /* \"#utility.yul\":14472:14481   */\n      dup4\n        /* \"#utility.yul\":14463:14470   */\n      dup6\n        /* \"#utility.yul\":14459:14482   */\n      sub\n        /* \"#utility.yul\":14455:14487   */\n      slt\n        /* \"#utility.yul\":14452:14504   */\n      iszero\n      tag_633\n      jumpi\n        /* \"#utility.yul\":14500:14501   */\n      0x00\n        /* \"#utility.yul\":14497:14498   */\n      dup1\n        /* \"#utility.yul\":14490:14502   */\n      revert\n        /* \"#utility.yul\":14452:14504   */\n    tag_633:\n        /* \"#utility.yul\":14533:14542   */\n      dup3\n        /* \"#utility.yul\":14527:14543   */\n      mload\n        /* \"#utility.yul\":14562:14580   */\n      0xffffffffffffffff\n        /* \"#utility.yul\":14603:14605   */\n      dup1\n        /* \"#utility.yul\":14595:14601   */\n      dup3\n        /* \"#utility.yul\":14592:14606   */\n      gt\n        /* \"#utility.yul\":14589:14623   */\n      iszero\n      tag_634\n      jumpi\n        /* \"#utility.yul\":14619:14620   */\n      0x00\n        /* \"#utility.yul\":14616:14617   */\n      dup1\n        /* \"#utility.yul\":14609:14621   */\n      revert\n        /* \"#utility.yul\":14589:14623   */\n    tag_634:\n        /* \"#utility.yul\":14657:14663   */\n      dup2\n        /* \"#utility.yul\":14646:14655   */\n      dup6\n        /* \"#utility.yul\":14642:14664   */\n      add\n        /* \"#utility.yul\":14632:14664   */\n      swap2\n      pop\n        /* \"#utility.yul\":14702:14709   */\n      dup6\n        /* \"#utility.yul\":14695:14699   */\n      0x1f\n        /* \"#utility.yul\":14691:14693   */\n      dup4\n        /* \"#utility.yul\":14687:14700   */\n      add\n        /* \"#utility.yul\":14683:14710   */\n      slt\n        /* \"#utility.yul\":14673:14728   */\n      tag_635\n      jumpi\n        /* \"#utility.yul\":14724:14725   */\n      0x00\n        /* \"#utility.yul\":14721:14722   */\n      dup1\n        /* \"#utility.yul\":14714:14726   */\n      revert\n        /* \"#utility.yul\":14673:14728   */\n    tag_635:\n        /* \"#utility.yul\":14753:14755   */\n      dup2\n        /* \"#utility.yul\":14747:14756   */\n      mload\n        /* \"#utility.yul\":14775:14777   */\n      dup2\n        /* \"#utility.yul\":14771:14773   */\n      dup2\n        /* \"#utility.yul\":14768:14778   */\n      gt\n        /* \"#utility.yul\":14765:14801   */\n      iszero\n      tag_637\n      jumpi\n        /* \"#utility.yul\":14781:14799   */\n      tag_637\n      tag_287\n      jump\t// in\n    tag_637:\n        /* \"#utility.yul\":14827:14829   */\n      dup1\n        /* \"#utility.yul\":14824:14825   */\n      0x05\n        /* \"#utility.yul\":14820:14830   */\n      shl\n        /* \"#utility.yul\":14810:14830   */\n      swap2\n      pop\n        /* \"#utility.yul\":14850:14878   */\n      tag_638\n        /* \"#utility.yul\":14874:14876   */\n      dup5\n        /* \"#utility.yul\":14870:14872   */\n      dup4\n        /* \"#utility.yul\":14866:14877   */\n      add\n        /* \"#utility.yul\":14850:14878   */\n      tag_524\n      jump\t// in\n    tag_638:\n        /* \"#utility.yul\":14912:14927   */\n      dup2\n      dup2\n      mstore\n        /* \"#utility.yul\":14982:14993   */\n      swap2\n      dup4\n      add\n        /* \"#utility.yul\":14978:14998   */\n      dup5\n      add\n      swap2\n        /* \"#utility.yul\":14943:14955   */\n      dup5\n      dup2\n      add\n      swap1\n        /* \"#utility.yul\":15010:15029   */\n      dup9\n      dup5\n      gt\n        /* \"#utility.yul\":15007:15046   */\n      iszero\n      tag_639\n      jumpi\n        /* \"#utility.yul\":15042:15043   */\n      0x00\n        /* \"#utility.yul\":15039:15040   */\n      dup1\n        /* \"#utility.yul\":15032:15044   */\n      revert\n        /* \"#utility.yul\":15007:15046   */\n    tag_639:\n        /* \"#utility.yul\":15066:15077   */\n      swap4\n      dup6\n      add\n      swap4\n        /* \"#utility.yul\":15086:15221   */\n    tag_640:\n        /* \"#utility.yul\":15102:15108   */\n      dup4\n        /* \"#utility.yul\":15097:15100   */\n      dup6\n        /* \"#utility.yul\":15094:15109   */\n      lt\n        /* \"#utility.yul\":15086:15221   */\n      iszero\n      tag_642\n      jumpi\n        /* \"#utility.yul\":15168:15178   */\n      dup5\n      mload\n        /* \"#utility.yul\":15156:15179   */\n      dup3\n      mstore\n        /* \"#utility.yul\":15119:15131   */\n      swap4\n      dup6\n      add\n      swap4\n        /* \"#utility.yul\":15199:15211   */\n      swap1\n      dup6\n      add\n      swap1\n        /* \"#utility.yul\":15086:15221   */\n      jump(tag_640)\n    tag_642:\n        /* \"#utility.yul\":15240:15245   */\n      swap9\n        /* \"#utility.yul\":14315:15251   */\n      swap8\n      pop\n      pop\n      pop\n      pop\n      pop\n      pop\n      pop\n      pop\n      jump\t// out\n        /* \"#utility.yul\":15812:16099   */\n    tag_424:\n        /* \"#utility.yul\":15941:15944   */\n      0x00\n        /* \"#utility.yul\":15979:15985   */\n      dup3\n        /* \"#utility.yul\":15973:15986   */\n      mload\n        /* \"#utility.yul\":15995:16061   */\n      tag_645\n        /* \"#utility.yul\":16054:16060   */\n      dup2\n        /* \"#utility.yul\":16049:16052   */\n      dup5\n        /* \"#utility.yul\":16042:16046   */\n      0x20\n        /* \"#utility.yul\":16034:16040   */\n      dup8\n        /* \"#utility.yul\":16030:16047   */\n      add\n        /* \"#utility.yul\":15995:16061   */\n      tag_518\n      jump\t// in\n    tag_645:\n        /* \"#utility.yul\":16077:16093   */\n      swap2\n      swap1\n      swap2\n      add\n      swap3\n        /* \"#utility.yul\":15812:16099   */\n      swap2\n      pop\n      pop\n      jump\t// out\n        /* \"#utility.yul\":17213:17738   */\n    tag_494:\n        /* \"#utility.yul\":17476:17482   */\n      dup5\n        /* \"#utility.yul\":17465:17474   */\n      dup2\n        /* \"#utility.yul\":17458:17483   */\n      mstore\n        /* \"#utility.yul\":17519:17522   */\n      0x80\n        /* \"#utility.yul\":17514:17516   */\n      0x20\n        /* \"#utility.yul\":17503:17512   */\n      dup3\n        /* \"#utility.yul\":17499:17517   */\n      add\n        /* \"#utility.yul\":17492:17523   */\n      mstore\n        /* \"#utility.yul\":17439:17443   */\n      0x00\n        /* \"#utility.yul\":17540:17597   */\n      tag_650\n        /* \"#utility.yul\":17592:17595   */\n      0x80\n        /* \"#utility.yul\":17581:17590   */\n      dup4\n        /* \"#utility.yul\":17577:17596   */\n      add\n        /* \"#utility.yul\":17569:17575   */\n      dup7\n        /* \"#utility.yul\":17540:17597   */\n      tag_525\n      jump\t// in\n    tag_650:\n        /* \"#utility.yul\":17645:17687   */\n      0xffffffffffffffffffffffffffffffffffffffff\n        /* \"#utility.yul\":17633:17688   */\n      swap5\n      swap1\n      swap5\n      and\n        /* \"#utility.yul\":17628:17630   */\n      0x40\n        /* \"#utility.yul\":17613:17631   */\n      dup4\n      add\n        /* \"#utility.yul\":17606:17689   */\n      mstore\n      pop\n        /* \"#utility.yul\":17720:17722   */\n      0x60\n        /* \"#utility.yul\":17705:17723   */\n      add\n        /* \"#utility.yul\":17698:17732   */\n      mstore\n        /* \"#utility.yul\":17532:17597   */\n      swap3\n        /* \"#utility.yul\":17213:17738   */\n      swap2\n      pop\n      pop\n      jump\t// out\n        /* \"#utility.yul\":18564:18692   */\n    tag_511:\n        /* \"#utility.yul\":18631:18640   */\n      dup2\n      dup2\n      sub\n        /* \"#utility.yul\":18652:18663   */\n      dup2\n      dup2\n      gt\n        /* \"#utility.yul\":18649:18686   */\n      iszero\n      tag_331\n      jumpi\n        /* \"#utility.yul\":18666:18684   */\n      tag_331\n      tag_516\n      jump\t// in\n\n    auxdata: 0xa264697066735822122025567ac87c97589b0eab5f89949ff39bb347b6632cfdfdfa2ea70703aef03f8864736f6c63430008180033\n}\n",
				"bytecode": {
					"linkReferences": {},
					"object": "60806040526004805460ff60b81b191690556007805460ff60a01b191690555f600d819055600e5534801562000033575f80fd5b50604051620036d8380380620036d883398101604081905262000056916200008a565b60015f81905580546001600160a01b039092166001600160a01b0319928316811790915560088054909216179055620000b9565b5f602082840312156200009b575f80fd5b81516001600160a01b0381168114620000b2575f80fd5b9392505050565b61361180620000c75f395ff3fe60806040526004361061027a575f3560e01c806376776b9f1161014b578063a0db86f9116100c6578063f2b3b4671161007c578063f4b0b75611610062578063f4b0b75614610805578063f775cca714610831578063fa34a5fd14610850575f80fd5b8063f2b3b467146107ba578063f2fde38b146107e6575f80fd5b8063d9d7438e116100ac578063d9d7438e14610772578063e086e5ec14610791578063e5ee1d40146107a5575f80fd5b8063a0db86f914610727578063ad5c464814610746575f80fd5b80638da5cb5b1161011b57806391f593691161010157806391f59369146106bf578063954b1fe4146106e95780639ec7e5db14610708575f80fd5b80638da5cb5b146106675780638dae88c214610693575f80fd5b806376776b9f146105dc5780637cc1f867146105f15780637de0dd79146106125780638d8f2adb14610653575f80fd5b806343c885ba116101f557806354fd4d50116101ab57806359accd051161019157806359accd051461055d5780635b769f3c1461057c5780635e5f2e261461059b575f80fd5b806354fd4d501461052a578063554308921461053e575f80fd5b80634bce5afd116101db5780634bce5afd146104be578063502f7446146104d357806354a3b27a146104ff575f80fd5b806343c885ba1461046e57806346639dba1461049f575f80fd5b806320a05ff71161024a578063327107f711610230578063327107f7146103df5780633f79b667146104305780634178617f1461044f575f80fd5b806320a05ff71461038c5780633024b233146103a1575f80fd5b8063024ece89146102cf578063034f5423146102f95780631727533f146103265780631b66cb001461036d575f80fd5b366102cb5760075474010000000000000000000000000000000000000000900460ff16156102c95734600d5f8282546102b39190612db7565b909155506102c1905061086f565b6102c96108fa565b005b5f80fd5b3480156102da575f80fd5b506102e3610bb6565b6040516102f09190612e35565b60405180910390f35b348015610304575f80fd5b50610318610313366004612f1c565b6111cb565b6040519081526020016102f0565b348015610331575f80fd5b506004546103599074010000000000000000000000000000000000000000900462ffffff1681565b60405162ffffff90911681526020016102f0565b348015610378575f80fd5b506102c9610387366004612f5b565b61121a565b348015610397575f80fd5b50610318600c5481565b3480156103ac575f80fd5b506103cf6103bb366004612f5b565b600a6020525f908152604090205460ff1681565b60405190151581526020016102f0565b3480156103ea575f80fd5b5060025461040b9073ffffffffffffffffffffffffffffffffffffffff1681565b60405173ffffffffffffffffffffffffffffffffffffffff90911681526020016102f0565b34801561043b575f80fd5b5061031861044a366004612f1c565b611364565b34801561045a575f80fd5b506102c9610469366004612f5b565b6113cf565b348015610479575f80fd5b506007546103cf9074010000000000000000000000000000000000000000900460ff1681565b3480156104aa575f80fd5b506102c96104b9366004612f7b565b611526565b3480156104c9575f80fd5b50610318600e5481565b3480156104de575f80fd5b5060035461040b9073ffffffffffffffffffffffffffffffffffffffff1681565b34801561050a575f80fd5b50610318610519366004612f5b565b600b6020525f908152604090205481565b348015610535575f80fd5b50610318600281565b348015610549575f80fd5b506102c9610558366004612f5b565b6118a9565b348015610568575f80fd5b506102c9610577366004612f5b565b611a1f565b348015610587575f80fd5b506102c9610596366004612f5b565b611b64565b3480156105a6575f80fd5b5061040b6105b5366004612f1c565b60096020525f908152604090205473ffffffffffffffffffffffffffffffffffffffff1681565b3480156105e7575f80fd5b50610318600d5481565b3480156105fc575f80fd5b50610605611c2c565b6040516102f09190613029565b34801561061d575f80fd5b506004546106469077010000000000000000000000000000000000000000000000900460ff1681565b6040516102f0919061317b565b34801561065e575f80fd5b506102c96108fa565b348015610672575f80fd5b5060015461040b9073ffffffffffffffffffffffffffffffffffffffff1681565b34801561069e575f80fd5b5060065461040b9073ffffffffffffffffffffffffffffffffffffffff1681565b3480156106ca575f80fd5b5060075473ffffffffffffffffffffffffffffffffffffffff1661040b565b3480156106f4575f80fd5b506102c9610703366004613189565b611dbf565b348015610713575f80fd5b506103186107223660046131a7565b611e9c565b348015610732575f80fd5b506102c9610741366004612f5b565b61200d565b348015610751575f80fd5b5060075461040b9073ffffffffffffffffffffffffffffffffffffffff1681565b34801561077d575f80fd5b5061031861078c3660046131f1565b612152565b34801561079c575f80fd5b506102c9612272565b3480156107b0575f80fd5b5061031860055481565b3480156107c5575f80fd5b5060045461040b9073ffffffffffffffffffffffffffffffffffffffff1681565b3480156107f1575f80fd5b506102c9610800366004612f5b565b612336565b348015610810575f80fd5b5060085461040b9073ffffffffffffffffffffffffffffffffffffffff1681565b34801561083c575f80fd5b506102c961084b366004612f1c565b61247b565b34801561085b575f80fd5b506102c961086a366004612f5b565b612501565b610877612826565b475f81900361088657506108ef565b5f8060045477010000000000000000000000000000000000000000000000900460ff1660018111156108ba576108ba612fc3565b146108cd576108c882611364565b6108d6565b6108d6826111cb565b905060055481106108ec576108ea82612897565b505b50505b6108f860015f55565b565b610902612826565b6002546040517f70a082310000000000000000000000000000000000000000000000000000000081523060048201525f9173ffffffffffffffffffffffffffffffffffffffff16906370a0823190602401602060405180830381865afa15801561096e573d5f803e3d5ffd5b505050506040513d601f19601f820116820180604052508101906109929190613244565b90508015610a38576002546008546040517fa9059cbb00000000000000000000000000000000000000000000000000000000815273ffffffffffffffffffffffffffffffffffffffff91821660048201526024810184905291169063a9059cbb906044016020604051808303815f875af1158015610a12573d5f803e3d5ffd5b505050506040513d601f19601f82011682018060405250810190610a36919061325b565b505b600c5415610bac5760015b600c5481116108ec575f81815260096020526040908190205490517f70a0823100000000000000000000000000000000000000000000000000000000815230600482015273ffffffffffffffffffffffffffffffffffffffff909116906370a0823190602401602060405180830381865afa158015610ac4573d5f803e3d5ffd5b505050506040513d601f19601f82011682018060405250810190610ae89190613244565b91508115610b9a575f81815260096020526040908190205460085491517fa9059cbb00000000000000000000000000000000000000000000000000000000815273ffffffffffffffffffffffffffffffffffffffff92831660048201526024810185905291169063a9059cbb906044016020604051808303815f875af1158015610b74573d5f803e3d5ffd5b505050506040513d601f19601f82011682018060405250810190610b98919061325b565b505b80610ba48161327a565b915050610a43565b506108f860015f55565b60075460609074010000000000000000000000000000000000000000900460ff16156111c857600c54610bea906001612db7565b67ffffffffffffffff811115610c0257610c026132b1565b604051908082528060200260200182016040528015610c8157816020015b610c6e6040518060c001604052805f81526020015f73ffffffffffffffffffffffffffffffffffffffff16815260200160608152602001606081526020015f60ff1681526020015f81525090565b815260200190600190039081610c205790505b506002546040805160c0810182525f80825273ffffffffffffffffffffffffffffffffffffffff9093166020820181905282517f95d89b410000000000000000000000000000000000000000000000000000000081528351959650909491939284019285926395d89b419260048082019392918290030181865afa158015610d0b573d5f803e3d5ffd5b505050506040513d5f823e601f3d9081017fffffffffffffffffffffffffffffffffffffffffffffffffffffffffffffffe0168201604052610d50919081019061332d565b81526020018273ffffffffffffffffffffffffffffffffffffffff166306fdde036040518163ffffffff1660e01b81526004015f60405180830381865afa158015610d9d573d5f803e3d5ffd5b505050506040513d5f823e601f3d9081017fffffffffffffffffffffffffffffffffffffffffffffffffffffffffffffffe0168201604052610de2919081019061332d565b81526020018273ffffffffffffffffffffffffffffffffffffffff1663313ce5676040518163ffffffff1660e01b8152600401602060405180830381865afa158015610e30573d5f803e3d5ffd5b505050506040513d601f19601f82011682018060405250810190610e5491906133da565b60ff1681526040517f70a0823100000000000000000000000000000000000000000000000000000000815230600482015260209091019073ffffffffffffffffffffffffffffffffffffffff8416906370a0823190602401602060405180830381865afa158015610ec7573d5f803e3d5ffd5b505050506040513d601f19601f82011682018060405250810190610eeb9190613244565b815250825f81518110610f0057610f006133fa565b6020908102919091010152600c54156111c65760015b600c5481116111c4575f81815260096020818152604080842054815160c08101835286815286865293835273ffffffffffffffffffffffffffffffffffffffff1691830182905280517f95d89b41000000000000000000000000000000000000000000000000000000008152815192949184019285926395d89b4192600480820193918290030181865afa158015610fb0573d5f803e3d5ffd5b505050506040513d5f823e601f3d9081017fffffffffffffffffffffffffffffffffffffffffffffffffffffffffffffffe0168201604052610ff5919081019061332d565b81526020018273ffffffffffffffffffffffffffffffffffffffff166306fdde036040518163ffffffff1660e01b81526004015f60405180830381865afa158015611042573d5f803e3d5ffd5b505050506040513d5f823e601f3d9081017fffffffffffffffffffffffffffffffffffffffffffffffffffffffffffffffe0168201604052611087919081019061332d565b81526020018273ffffffffffffffffffffffffffffffffffffffff1663313ce5676040518163ffffffff1660e01b8152600401602060405180830381865afa1580156110d5573d5f803e3d5ffd5b505050506040513d601f19601f820116820180604052508101906110f991906133da565b60ff1681526040517f70a0823100000000000000000000000000000000000000000000000000000000815230600482015260209091019073ffffffffffffffffffffffffffffffffffffffff8416906370a0823190602401602060405180830381865afa15801561116c573d5f803e3d5ffd5b505050506040513d601f19601f820116820180604052508101906111909190613244565b8152508483815181106111a5576111a56133fa565b60200260200101819052505080806111bc9061327a565b915050610f16565b505b505b90565b5f611214826111ef60075473ffffffffffffffffffffffffffffffffffffffff1690565b60025460035473ffffffffffffffffffffffffffffffffffffffff9182169116611e9c565b92915050565b60015473ffffffffffffffffffffffffffffffffffffffff1633146112a0576040517f08c379a000000000000000000000000000000000000000000000000000000000815260206004820152600a60248201527f4f6e6c79206f776e65720000000000000000000000000000000000000000000060448201526064015b60405180910390fd5b73ffffffffffffffffffffffffffffffffffffffff811661131d576040517f08c379a000000000000000000000000000000000000000000000000000000000815260206004820152600c60248201527f43616e74206265207a65726f00000000000000000000000000000000000000006044820152606401611297565b600280547fffffffffffffffffffffffff00000000000000000000000000000000000000001673ffffffffffffffffffffffffffffffffffffffff92909216919091179055565b5f6112148261138860075473ffffffffffffffffffffffffffffffffffffffff1690565b60025460045460065473ffffffffffffffffffffffffffffffffffffffff928316927401000000000000000000000000000000000000000090920462ffffff169116612152565b60015473ffffffffffffffffffffffffffffffffffffffff163314611450576040517f08c379a000000000000000000000000000000000000000000000000000000000815260206004820152600a60248201527f4f6e6c79206f776e6572000000000000000000000000000000000000000000006044820152606401611297565b73ffffffffffffffffffffffffffffffffffffffff81165f908152600a602052604090205460ff1661152357600c8054905f61148b8361327a565b9091555050600c80545f90815260096020908152604080832080547fffffffffffffffffffffffff00000000000000000000000000000000000000001673ffffffffffffffffffffffffffffffffffffffff87169081179091558352600a825280832080547fffffffffffffffffffffffffffffffffffffffffffffffffffffffffffffff001660011790559254600b909152919020555b50565b60015473ffffffffffffffffffffffffffffffffffffffff1633146115a7576040517f08c379a000000000000000000000000000000000000000000000000000000000815260206004820152600a60248201527f4f6e6c79206f776e6572000000000000000000000000000000000000000000006044820152606401611297565b60075474010000000000000000000000000000000000000000900460ff161561162c576040517f08c379a000000000000000000000000000000000000000000000000000000000815260206004820152600e60248201527f416c726561647920696e697465640000000000000000000000000000000000006044820152606401611297565b73ffffffffffffffffffffffffffffffffffffffff84166116a9576040517f08c379a000000000000000000000000000000000000000000000000000000000815260206004820152601760248201527f496e76616c6964207772617070656420616464726573730000000000000000006044820152606401611297565b73ffffffffffffffffffffffffffffffffffffffff8316611726576040517f08c379a000000000000000000000000000000000000000000000000000000000815260206004820152600d60248201527f496e76616c696420746f6b656e000000000000000000000000000000000000006044820152606401611297565b73ffffffffffffffffffffffffffffffffffffffff82166117a3576040517f08c379a000000000000000000000000000000000000000000000000000000000815260206004820152601160248201527f496e76616c696420563220726f757465720000000000000000000000000000006044820152606401611297565b5f811161180c576040517f08c379a000000000000000000000000000000000000000000000000000000000815260206004820152601a60248201527f4d696e20616d6f756e74206f7574206d757374206265203e20300000000000006044820152606401611297565b6007805473ffffffffffffffffffffffffffffffffffffffff9586167fffffffffffffffffffffff0000000000000000000000000000000000000000009091161774010000000000000000000000000000000000000000179055600280549385167fffffffffffffffffffffffff000000000000000000000000000000000000000094851617905560038054929094169190921617909155600555565b60015473ffffffffffffffffffffffffffffffffffffffff16331461192a576040517f08c379a000000000000000000000000000000000000000000000000000000000815260206004820152600a60248201527f4f6e6c79206f776e6572000000000000000000000000000000000000000000006044820152606401611297565b73ffffffffffffffffffffffffffffffffffffffff81165f908152600a602052604090205460ff16156115235773ffffffffffffffffffffffffffffffffffffffff8082165f818152600b6020818152604080842054600c8054865260098085528387205489168752948452828620829055805486529383528185205481865282862080547fffffffffffffffffffffffff0000000000000000000000000000000000000000169190981617909655938352600a905291812080547fffffffffffffffffffffffffffffffffffffffffffffffffffffffffffffff0016905581549190611a1683613427565b91905055505050565b60015473ffffffffffffffffffffffffffffffffffffffff163314611aa0576040517f08c379a000000000000000000000000000000000000000000000000000000000815260206004820152600a60248201527f4f6e6c79206f776e6572000000000000000000000000000000000000000000006044820152606401611297565b73ffffffffffffffffffffffffffffffffffffffff8116611b1d576040517f08c379a000000000000000000000000000000000000000000000000000000000815260206004820152600c60248201527f43616e74206265207a65726f00000000000000000000000000000000000000006044820152606401611297565b600380547fffffffffffffffffffffffff00000000000000000000000000000000000000001673ffffffffffffffffffffffffffffffffffffffff92909216919091179055565b60015473ffffffffffffffffffffffffffffffffffffffff163314611be5576040517f08c379a000000000000000000000000000000000000000000000000000000000815260206004820152600a60248201527f4f6e6c79206f776e6572000000000000000000000000000000000000000000006044820152606401611297565b600780547fffffffffffffffffffffffff00000000000000000000000000000000000000001673ffffffffffffffffffffffffffffffffffffffff92909216919091179055565b611cbc604080516101a0810182525f80825260208201819052918101829052606081018290526080810182905260a081018290529060c082019081526020015f81526020015f73ffffffffffffffffffffffffffffffffffffffff1681526020015f73ffffffffffffffffffffffffffffffffffffffff1681526020015f81526020015f81526020015f81525090565b604080516101a081018252600754740100000000000000000000000000000000000000009081900460ff908116151583526001805473ffffffffffffffffffffffffffffffffffffffff908116602086015260025481169585019590955260035485166060850152600454948516608085015291840462ffffff1660a0840152919260c0840192770100000000000000000000000000000000000000000000009091041690811115611d7057611d70612fc3565b8152600554602082015260065473ffffffffffffffffffffffffffffffffffffffff9081166040830152600754166060820152476080820152600d5460a0820152600e5460c090910152919050565b60015473ffffffffffffffffffffffffffffffffffffffff163314611e40576040517f08c379a000000000000000000000000000000000000000000000000000000000815260206004820152600a60248201527f4f6e6c79206f776e6572000000000000000000000000000000000000000000006044820152606401611297565b600480548291907fffffffffffffffff00ffffffffffffffffffffffffffffffffffffffffffffff1677010000000000000000000000000000000000000000000000836001811115611e9457611e94612fc3565b021790555050565b6040805160028082526060820183525f928392919060208301908036833701905050905084815f81518110611ed357611ed36133fa565b602002602001019073ffffffffffffffffffffffffffffffffffffffff16908173ffffffffffffffffffffffffffffffffffffffff16815250508381600181518110611f2157611f216133fa565b73ffffffffffffffffffffffffffffffffffffffff92831660209182029290920101526040517fd06ca61f0000000000000000000000000000000000000000000000000000000081525f9185169063d06ca61f90611f85908a9086906004016134ab565b5f60405180830381865afa158015611f9f573d5f803e3d5ffd5b505050506040513d5f823e601f3d9081017fffffffffffffffffffffffffffffffffffffffffffffffffffffffffffffffe0168201604052611fe491908101906134cb565b905080600181518110611ff957611ff96133fa565b602002602001015192505050949350505050565b60015473ffffffffffffffffffffffffffffffffffffffff16331461208e576040517f08c379a000000000000000000000000000000000000000000000000000000000815260206004820152600a60248201527f4f6e6c79206f776e6572000000000000000000000000000000000000000000006044820152606401611297565b73ffffffffffffffffffffffffffffffffffffffff811661210b576040517f08c379a000000000000000000000000000000000000000000000000000000000815260206004820152600c60248201527f43616e74206265207a65726f00000000000000000000000000000000000000006044820152606401611297565b600880547fffffffffffffffffffffffff00000000000000000000000000000000000000001673ffffffffffffffffffffffffffffffffffffffff92909216919091179055565b6040805173ffffffffffffffffffffffffffffffffffffffff8681166024830152858116604483015260648201889052608482018590525f60a48084018290528451808503909101815260c490930184526020830180517bffffffffffffffffffffffffffffffffffffffffffffffffffffffff167f1296323f000000000000000000000000000000000000000000000000000000001790529251839283928616916121fe919061356c565b5f60405180830381855afa9150503d805f8114612236576040519150601f19603f3d011682016040523d82523d5f602084013e61223b565b606091505b50915091508115612263578080602001905181019061225a9190613244565b92505050612269565b5f925050505b95945050505050565b60015473ffffffffffffffffffffffffffffffffffffffff1633146122f3576040517f08c379a000000000000000000000000000000000000000000000000000000000815260206004820152600a60248201527f4f6e6c79206f776e6572000000000000000000000000000000000000000000006044820152606401611297565b60085460405173ffffffffffffffffffffffffffffffffffffffff909116904780156108fc02915f818181858888f19350505050158015611523573d5f803e3d5ffd5b60015473ffffffffffffffffffffffffffffffffffffffff1633146123b7576040517f08c379a000000000000000000000000000000000000000000000000000000000815260206004820152600a60248201527f4f6e6c79206f776e6572000000000000000000000000000000000000000000006044820152606401611297565b73ffffffffffffffffffffffffffffffffffffffff8116612434576040517f08c379a000000000000000000000000000000000000000000000000000000000815260206004820152600c60248201527f43616e74206265207a65726f00000000000000000000000000000000000000006044820152606401611297565b600180547fffffffffffffffffffffffff00000000000000000000000000000000000000001673ffffffffffffffffffffffffffffffffffffffff92909216919091179055565b60015473ffffffffffffffffffffffffffffffffffffffff1633146124fc576040517f08c379a000000000000000000000000000000000000000000000000000000000815260206004820152600a60248201527f4f6e6c79206f776e6572000000000000000000000000000000000000000000006044820152606401611297565b600555565b60015473ffffffffffffffffffffffffffffffffffffffff163314612582576040517f08c379a000000000000000000000000000000000000000000000000000000000815260206004820152600a60248201527f4f6e6c79206f776e6572000000000000000000000000000000000000000000006044820152606401611297565b60025473ffffffffffffffffffffffffffffffffffffffff8281169116148015906125d2575073ffffffffffffffffffffffffffffffffffffffff81165f908152600a602052604090205460ff16155b61265e576040517f08c379a000000000000000000000000000000000000000000000000000000000815260206004820152602560248201527f43616e74207265636f7665727920746172676574206f7220616c6c6f7765642060448201527f746f6b656e0000000000000000000000000000000000000000000000000000006064820152608401611297565b6040517f70a0823100000000000000000000000000000000000000000000000000000000815230600482015281905f9073ffffffffffffffffffffffffffffffffffffffff8316906370a0823190602401602060405180830381865afa1580156126ca573d5f803e3d5ffd5b505050506040513d601f19601f820116820180604052508101906126ee9190613244565b1115612822576001546040517f70a0823100000000000000000000000000000000000000000000000000000000815230600482015273ffffffffffffffffffffffffffffffffffffffff8381169263a9059cbb9291169083906370a0823190602401602060405180830381865afa15801561276b573d5f803e3d5ffd5b505050506040513d601f19601f8201168201806040525081019061278f9190613244565b6040517fffffffff0000000000000000000000000000000000000000000000000000000060e085901b16815273ffffffffffffffffffffffffffffffffffffffff909216600483015260248201526044016020604051808303815f875af11580156127fc573d5f803e3d5ffd5b505050506040513d601f19601f82011682018060405250810190612820919061325b565b505b5050565b60025f5403612891576040517f08c379a000000000000000000000000000000000000000000000000000000000815260206004820152601f60248201527f5265656e7472616e637947756172643a207265656e7472616e742063616c6c006044820152606401611297565b60025f55565b5f808211612901576040517f08c379a000000000000000000000000000000000000000000000000000000000815260206004820152600e60248201527f4e6f2045544820746f20737761700000000000000000000000000000000000006044820152606401611297565b6002546040517f70a082310000000000000000000000000000000000000000000000000000000081523060048201525f9173ffffffffffffffffffffffffffffffffffffffff16906370a0823190602401602060405180830381865afa15801561296d573d5f803e3d5ffd5b505050506040513d601f19601f820116820180604052508101906129919190613244565b90505f60045477010000000000000000000000000000000000000000000000900460ff1660018111156129c6576129c6612fc3565b03612b1d576040805160028082526060820183525f9260208301908036833750506007549192505073ffffffffffffffffffffffffffffffffffffffff16815f81518110612a1657612a166133fa565b73ffffffffffffffffffffffffffffffffffffffff9283166020918202929092010152600254825191169082906001908110612a5457612a546133fa565b73ffffffffffffffffffffffffffffffffffffffff9283166020918202929092010152600354600554911690637ff36ab59086908430612a964261012c612db7565b6040518663ffffffff1660e01b8152600401612ab59493929190613587565b5f6040518083038185885af1158015612ad0573d5f803e3d5ffd5b50505050506040513d5f823e601f3d9081017fffffffffffffffffffffffffffffffffffffffffffffffffffffffffffffffe0168201604052612b1691908101906134cb565b5050612ccc565b60045460408051610100810190915273ffffffffffffffffffffffffffffffffffffffff9091169063414bf38990859080612b6d60075473ffffffffffffffffffffffffffffffffffffffff1690565b73ffffffffffffffffffffffffffffffffffffffff908116825260025416602082015260045474010000000000000000000000000000000000000000900462ffffff166040820152306060820152608001612bca4261012c612db7565b815260200187815260200160055481526020015f73ffffffffffffffffffffffffffffffffffffffff168152506040518363ffffffff1660e01b8152600401612c8991905f6101008201905073ffffffffffffffffffffffffffffffffffffffff80845116835280602085015116602084015262ffffff60408501511660408401528060608501511660608401526080840151608084015260a084015160a084015260c084015160c08401528060e08501511660e08401525092915050565b60206040518083038185885af1158015612ca5573d5f803e3d5ffd5b50505050506040513d601f19601f82011682018060405250810190612cca9190613244565b505b6002546040517f70a082310000000000000000000000000000000000000000000000000000000081523060048201525f91839173ffffffffffffffffffffffffffffffffffffffff909116906370a0823190602401602060405180830381865afa158015612d3c573d5f803e3d5ffd5b505050506040513d601f19601f82011682018060405250810190612d609190613244565b612d6a91906135c8565b905080600e5f828254612d7d9190612db7565b9091555090949350505050565b7f4e487b71000000000000000000000000000000000000000000000000000000005f52601160045260245ffd5b8082018082111561121457611214612d8a565b5f5b83811015612de4578181015183820152602001612dcc565b50505f910152565b5f8151808452612e03816020860160208601612dca565b601f017fffffffffffffffffffffffffffffffffffffffffffffffffffffffffffffffe0169290920160200192915050565b5f60208083018184528085518083526040925060408601915060408160051b8701018488015f5b83811015612f0e577fffffffffffffffffffffffffffffffffffffffffffffffffffffffffffffffc0898403018552815160c08151855273ffffffffffffffffffffffffffffffffffffffff898301511689860152878201518189870152612ec682870182612dec565b91505060608083015186830382880152612ee08382612dec565b60808581015160ff169089015260a09485015194909701939093525050509386019390860190600101612e5c565b509098975050505050505050565b5f60208284031215612f2c575f80fd5b5035919050565b803573ffffffffffffffffffffffffffffffffffffffff81168114612f56575f80fd5b919050565b5f60208284031215612f6b575f80fd5b612f7482612f33565b9392505050565b5f805f8060808587031215612f8e575f80fd5b612f9785612f33565b9350612fa560208601612f33565b9250612fb360408601612f33565b9396929550929360600135925050565b7f4e487b71000000000000000000000000000000000000000000000000000000005f52602160045260245ffd5b60028110613025577f4e487b71000000000000000000000000000000000000000000000000000000005f52602160045260245ffd5b9052565b8151151581526101a08101602083015161305b602084018273ffffffffffffffffffffffffffffffffffffffff169052565b506040830151613083604084018273ffffffffffffffffffffffffffffffffffffffff169052565b5060608301516130ab606084018273ffffffffffffffffffffffffffffffffffffffff169052565b5060808301516130d3608084018273ffffffffffffffffffffffffffffffffffffffff169052565b5060a08301516130ea60a084018262ffffff169052565b5060c08301516130fd60c0840182612ff0565b5060e083015160e0830152610100808401516131308285018273ffffffffffffffffffffffffffffffffffffffff169052565b50506101208381015173ffffffffffffffffffffffffffffffffffffffff16908301526101408084015190830152610160808401519083015261018092830151929091019190915290565b602081016112148284612ff0565b5f60208284031215613199575f80fd5b813560028110612f74575f80fd5b5f805f80608085870312156131ba575f80fd5b843593506131ca60208601612f33565b92506131d860408601612f33565b91506131e660608601612f33565b905092959194509250565b5f805f805f60a08688031215613205575f80fd5b8535945061321560208701612f33565b935061322360408701612f33565b92506060860135915061323860808701612f33565b90509295509295909350565b5f60208284031215613254575f80fd5b5051919050565b5f6020828403121561326b575f80fd5b81518015158114612f74575f80fd5b5f7fffffffffffffffffffffffffffffffffffffffffffffffffffffffffffffffff82036132aa576132aa612d8a565b5060010190565b7f4e487b71000000000000000000000000000000000000000000000000000000005f52604160045260245ffd5b604051601f82017fffffffffffffffffffffffffffffffffffffffffffffffffffffffffffffffe016810167ffffffffffffffff81118282101715613325576133256132b1565b604052919050565b5f6020828403121561333d575f80fd5b815167ffffffffffffffff80821115613354575f80fd5b818401915084601f830112613367575f80fd5b815181811115613379576133796132b1565b6133aa60207fffffffffffffffffffffffffffffffffffffffffffffffffffffffffffffffe0601f840116016132de565b91508082528560208285010111156133c0575f80fd5b6133d1816020840160208601612dca565b50949350505050565b5f602082840312156133ea575f80fd5b815160ff81168114612f74575f80fd5b7f4e487b71000000000000000000000000000000000000000000000000000000005f52603260045260245ffd5b5f8161343557613435612d8a565b507fffffffffffffffffffffffffffffffffffffffffffffffffffffffffffffffff0190565b5f815180845260208085019450602084015f5b838110156134a057815173ffffffffffffffffffffffffffffffffffffffff168752958201959082019060010161346e565b509495945050505050565b828152604060208201525f6134c3604083018461345b565b949350505050565b5f60208083850312156134dc575f80fd5b825167ffffffffffffffff808211156134f3575f80fd5b818501915085601f830112613506575f80fd5b815181811115613518576135186132b1565b8060051b91506135298483016132de565b8181529183018401918481019088841115613542575f80fd5b938501935b8385101561356057845182529385019390850190613547565b98975050505050505050565b5f825161357d818460208701612dca565b9190910192915050565b848152608060208201525f61359f608083018661345b565b73ffffffffffffffffffffffffffffffffffffffff949094166040830152506060015292915050565b8181038181111561121457611214612d8a56fea264697066735822122025567ac87c97589b0eab5f89949ff39bb347b6632cfdfdfa2ea70703aef03f8864736f6c63430008180033",
					"opcodes": "PUSH1 0x80 PUSH1 0x40 MSTORE PUSH1 0x4 DUP1 SLOAD PUSH1 0xFF PUSH1 0xB8 SHL NOT AND SWAP1 SSTORE PUSH1 0x7 DUP1 SLOAD PUSH1 0xFF PUSH1 0xA0 SHL NOT AND SWAP1 SSTORE PUSH0 PUSH1 0xD DUP2 SWAP1 SSTORE PUSH1 0xE SSTORE CALLVALUE DUP1 ISZERO PUSH3 0x33 JUMPI PUSH0 DUP1 REVERT JUMPDEST POP PUSH1 0x40 MLOAD PUSH3 0x36D8 CODESIZE SUB DUP1 PUSH3 0x36D8 DUP4 CODECOPY DUP2 ADD PUSH1 0x40 DUP2 SWAP1 MSTORE PUSH3 0x56 SWAP2 PUSH3 0x8A JUMP JUMPDEST PUSH1 0x1 PUSH0 DUP2 SWAP1 SSTORE DUP1 SLOAD PUSH1 0x1 PUSH1 0x1 PUSH1 0xA0 SHL SUB SWAP1 SWAP3 AND PUSH1 0x1 PUSH1 0x1 PUSH1 0xA0 SHL SUB NOT SWAP3 DUP4 AND DUP2 OR SWAP1 SWAP2 SSTORE PUSH1 0x8 DUP1 SLOAD SWAP1 SWAP3 AND OR SWAP1 SSTORE PUSH3 0xB9 JUMP JUMPDEST PUSH0 PUSH1 0x20 DUP3 DUP5 SUB SLT ISZERO PUSH3 0x9B JUMPI PUSH0 DUP1 REVERT JUMPDEST DUP2 MLOAD PUSH1 0x1 PUSH1 0x1 PUSH1 0xA0 SHL SUB DUP2 AND DUP2 EQ PUSH3 0xB2 JUMPI PUSH0 DUP1 REVERT JUMPDEST SWAP4 SWAP3 POP POP POP JUMP JUMPDEST PUSH2 0x3611 DUP1 PUSH3 0xC7 PUSH0 CODECOPY PUSH0 RETURN INVALID PUSH1 0x80 PUSH1 0x40 MSTORE PUSH1 0x4 CALLDATASIZE LT PUSH2 0x27A JUMPI PUSH0 CALLDATALOAD PUSH1 0xE0 SHR DUP1 PUSH4 0x76776B9F GT PUSH2 0x14B JUMPI DUP1 PUSH4 0xA0DB86F9 GT PUSH2 0xC6 JUMPI DUP1 PUSH4 0xF2B3B467 GT PUSH2 0x7C JUMPI DUP1 PUSH4 0xF4B0B756 GT PUSH2 0x62 JUMPI DUP1 PUSH4 0xF4B0B756 EQ PUSH2 0x805 JUMPI DUP1 PUSH4 0xF775CCA7 EQ PUSH2 0x831 JUMPI DUP1 PUSH4 0xFA34A5FD EQ PUSH2 0x850 JUMPI PUSH0 DUP1 REVERT JUMPDEST DUP1 PUSH4 0xF2B3B467 EQ PUSH2 0x7BA JUMPI DUP1 PUSH4 0xF2FDE38B EQ PUSH2 0x7E6 JUMPI PUSH0 DUP1 REVERT JUMPDEST DUP1 PUSH4 0xD9D7438E GT PUSH2 0xAC JUMPI DUP1 PUSH4 0xD9D7438E EQ PUSH2 0x772 JUMPI DUP1 PUSH4 0xE086E5EC EQ PUSH2 0x791 JUMPI DUP1 PUSH4 0xE5EE1D40 EQ PUSH2 0x7A5 JUMPI PUSH0 DUP1 REVERT JUMPDEST DUP1 PUSH4 0xA0DB86F9 EQ PUSH2 0x727 JUMPI DUP1 PUSH4 0xAD5C4648 EQ PUSH2 0x746 JUMPI PUSH0 DUP1 REVERT JUMPDEST DUP1 PUSH4 0x8DA5CB5B GT PUSH2 0x11B JUMPI DUP1 PUSH4 0x91F59369 GT PUSH2 0x101 JUMPI DUP1 PUSH4 0x91F59369 EQ PUSH2 0x6BF JUMPI DUP1 PUSH4 0x954B1FE4 EQ PUSH2 0x6E9 JUMPI DUP1 PUSH4 0x9EC7E5DB EQ PUSH2 0x708 JUMPI PUSH0 DUP1 REVERT JUMPDEST DUP1 PUSH4 0x8DA5CB5B EQ PUSH2 0x667 JUMPI DUP1 PUSH4 0x8DAE88C2 EQ PUSH2 0x693 JUMPI PUSH0 DUP1 REVERT JUMPDEST DUP1 PUSH4 0x76776B9F EQ PUSH2 0x5DC JUMPI DUP1 PUSH4 0x7CC1F867 EQ PUSH2 0x5F1 JUMPI DUP1 PUSH4 0x7DE0DD79 EQ PUSH2 0x612 JUMPI DUP1 PUSH4 0x8D8F2ADB EQ PUSH2 0x653 JUMPI PUSH0 DUP1 REVERT JUMPDEST DUP1 PUSH4 0x43C885BA GT PUSH2 0x1F5 JUMPI DUP1 PUSH4 0x54FD4D50 GT PUSH2 0x1AB JUMPI DUP1 PUSH4 0x59ACCD05 GT PUSH2 0x191 JUMPI DUP1 PUSH4 0x59ACCD05 EQ PUSH2 0x55D JUMPI DUP1 PUSH4 0x5B769F3C EQ PUSH2 0x57C JUMPI DUP1 PUSH4 0x5E5F2E26 EQ PUSH2 0x59B JUMPI PUSH0 DUP1 REVERT JUMPDEST DUP1 PUSH4 0x54FD4D50 EQ PUSH2 0x52A JUMPI DUP1 PUSH4 0x55430892 EQ PUSH2 0x53E JUMPI PUSH0 DUP1 REVERT JUMPDEST DUP1 PUSH4 0x4BCE5AFD GT PUSH2 0x1DB JUMPI DUP1 PUSH4 0x4BCE5AFD EQ PUSH2 0x4BE JUMPI DUP1 PUSH4 0x502F7446 EQ PUSH2 0x4D3 JUMPI DUP1 PUSH4 0x54A3B27A EQ PUSH2 0x4FF JUMPI PUSH0 DUP1 REVERT JUMPDEST DUP1 PUSH4 0x43C885BA EQ PUSH2 0x46E JUMPI DUP1 PUSH4 0x46639DBA EQ PUSH2 0x49F JUMPI PUSH0 DUP1 REVERT JUMPDEST DUP1 PUSH4 0x20A05FF7 GT PUSH2 0x24A JUMPI DUP1 PUSH4 0x327107F7 GT PUSH2 0x230 JUMPI DUP1 PUSH4 0x327107F7 EQ PUSH2 0x3DF JUMPI DUP1 PUSH4 0x3F79B667 EQ PUSH2 0x430 JUMPI DUP1 PUSH4 0x4178617F EQ PUSH2 0x44F JUMPI PUSH0 DUP1 REVERT JUMPDEST DUP1 PUSH4 0x20A05FF7 EQ PUSH2 0x38C JUMPI DUP1 PUSH4 0x3024B233 EQ PUSH2 0x3A1 JUMPI PUSH0 DUP1 REVERT JUMPDEST DUP1 PUSH4 0x24ECE89 EQ PUSH2 0x2CF JUMPI DUP1 PUSH4 0x34F5423 EQ PUSH2 0x2F9 JUMPI DUP1 PUSH4 0x1727533F EQ PUSH2 0x326 JUMPI DUP1 PUSH4 0x1B66CB00 EQ PUSH2 0x36D JUMPI PUSH0 DUP1 REVERT JUMPDEST CALLDATASIZE PUSH2 0x2CB JUMPI PUSH1 0x7 SLOAD PUSH21 0x10000000000000000000000000000000000000000 SWAP1 DIV PUSH1 0xFF AND ISZERO PUSH2 0x2C9 JUMPI CALLVALUE PUSH1 0xD PUSH0 DUP3 DUP3 SLOAD PUSH2 0x2B3 SWAP2 SWAP1 PUSH2 0x2DB7 JUMP JUMPDEST SWAP1 SWAP2 SSTORE POP PUSH2 0x2C1 SWAP1 POP PUSH2 0x86F JUMP JUMPDEST PUSH2 0x2C9 PUSH2 0x8FA JUMP JUMPDEST STOP JUMPDEST PUSH0 DUP1 REVERT JUMPDEST CALLVALUE DUP1 ISZERO PUSH2 0x2DA JUMPI PUSH0 DUP1 REVERT JUMPDEST POP PUSH2 0x2E3 PUSH2 0xBB6 JUMP JUMPDEST PUSH1 0x40 MLOAD PUSH2 0x2F0 SWAP2 SWAP1 PUSH2 0x2E35 JUMP JUMPDEST PUSH1 0x40 MLOAD DUP1 SWAP2 SUB SWAP1 RETURN JUMPDEST CALLVALUE DUP1 ISZERO PUSH2 0x304 JUMPI PUSH0 DUP1 REVERT JUMPDEST POP PUSH2 0x318 PUSH2 0x313 CALLDATASIZE PUSH1 0x4 PUSH2 0x2F1C JUMP JUMPDEST PUSH2 0x11CB JUMP JUMPDEST PUSH1 0x40 MLOAD SWAP1 DUP2 MSTORE PUSH1 0x20 ADD PUSH2 0x2F0 JUMP JUMPDEST CALLVALUE DUP1 ISZERO PUSH2 0x331 JUMPI PUSH0 DUP1 REVERT JUMPDEST POP PUSH1 0x4 SLOAD PUSH2 0x359 SWAP1 PUSH21 0x10000000000000000000000000000000000000000 SWAP1 DIV PUSH3 0xFFFFFF AND DUP2 JUMP JUMPDEST PUSH1 0x40 MLOAD PUSH3 0xFFFFFF SWAP1 SWAP2 AND DUP2 MSTORE PUSH1 0x20 ADD PUSH2 0x2F0 JUMP JUMPDEST CALLVALUE DUP1 ISZERO PUSH2 0x378 JUMPI PUSH0 DUP1 REVERT JUMPDEST POP PUSH2 0x2C9 PUSH2 0x387 CALLDATASIZE PUSH1 0x4 PUSH2 0x2F5B JUMP JUMPDEST PUSH2 0x121A JUMP JUMPDEST CALLVALUE DUP1 ISZERO PUSH2 0x397 JUMPI PUSH0 DUP1 REVERT JUMPDEST POP PUSH2 0x318 PUSH1 0xC SLOAD DUP2 JUMP JUMPDEST CALLVALUE DUP1 ISZERO PUSH2 0x3AC JUMPI PUSH0 DUP1 REVERT JUMPDEST POP PUSH2 0x3CF PUSH2 0x3BB CALLDATASIZE PUSH1 0x4 PUSH2 0x2F5B JUMP JUMPDEST PUSH1 0xA PUSH1 0x20 MSTORE PUSH0 SWAP1 DUP2 MSTORE PUSH1 0x40 SWAP1 KECCAK256 SLOAD PUSH1 0xFF AND DUP2 JUMP JUMPDEST PUSH1 0x40 MLOAD SWAP1 ISZERO ISZERO DUP2 MSTORE PUSH1 0x20 ADD PUSH2 0x2F0 JUMP JUMPDEST CALLVALUE DUP1 ISZERO PUSH2 0x3EA JUMPI PUSH0 DUP1 REVERT JUMPDEST POP PUSH1 0x2 SLOAD PUSH2 0x40B SWAP1 PUSH20 0xFFFFFFFFFFFFFFFFFFFFFFFFFFFFFFFFFFFFFFFF AND DUP2 JUMP JUMPDEST PUSH1 0x40 MLOAD PUSH20 0xFFFFFFFFFFFFFFFFFFFFFFFFFFFFFFFFFFFFFFFF SWAP1 SWAP2 AND DUP2 MSTORE PUSH1 0x20 ADD PUSH2 0x2F0 JUMP JUMPDEST CALLVALUE DUP1 ISZERO PUSH2 0x43B JUMPI PUSH0 DUP1 REVERT JUMPDEST POP PUSH2 0x318 PUSH2 0x44A CALLDATASIZE PUSH1 0x4 PUSH2 0x2F1C JUMP JUMPDEST PUSH2 0x1364 JUMP JUMPDEST CALLVALUE DUP1 ISZERO PUSH2 0x45A JUMPI PUSH0 DUP1 REVERT JUMPDEST POP PUSH2 0x2C9 PUSH2 0x469 CALLDATASIZE PUSH1 0x4 PUSH2 0x2F5B JUMP JUMPDEST PUSH2 0x13CF JUMP JUMPDEST CALLVALUE DUP1 ISZERO PUSH2 0x479 JUMPI PUSH0 DUP1 REVERT JUMPDEST POP PUSH1 0x7 SLOAD PUSH2 0x3CF SWAP1 PUSH21 0x10000000000000000000000000000000000000000 SWAP1 DIV PUSH1 0xFF AND DUP2 JUMP JUMPDEST CALLVALUE DUP1 ISZERO PUSH2 0x4AA JUMPI PUSH0 DUP1 REVERT JUMPDEST POP PUSH2 0x2C9 PUSH2 0x4B9 CALLDATASIZE PUSH1 0x4 PUSH2 0x2F7B JUMP JUMPDEST PUSH2 0x1526 JUMP JUMPDEST CALLVALUE DUP1 ISZERO PUSH2 0x4C9 JUMPI PUSH0 DUP1 REVERT JUMPDEST POP PUSH2 0x318 PUSH1 0xE SLOAD DUP2 JUMP JUMPDEST CALLVALUE DUP1 ISZERO PUSH2 0x4DE JUMPI PUSH0 DUP1 REVERT JUMPDEST POP PUSH1 0x3 SLOAD PUSH2 0x40B SWAP1 PUSH20 0xFFFFFFFFFFFFFFFFFFFFFFFFFFFFFFFFFFFFFFFF AND DUP2 JUMP JUMPDEST CALLVALUE DUP1 ISZERO PUSH2 0x50A JUMPI PUSH0 DUP1 REVERT JUMPDEST POP PUSH2 0x318 PUSH2 0x519 CALLDATASIZE PUSH1 0x4 PUSH2 0x2F5B JUMP JUMPDEST PUSH1 0xB PUSH1 0x20 MSTORE PUSH0 SWAP1 DUP2 MSTORE PUSH1 0x40 SWAP1 KECCAK256 SLOAD DUP2 JUMP JUMPDEST CALLVALUE DUP1 ISZERO PUSH2 0x535 JUMPI PUSH0 DUP1 REVERT JUMPDEST POP PUSH2 0x318 PUSH1 0x2 DUP2 JUMP JUMPDEST CALLVALUE DUP1 ISZERO PUSH2 0x549 JUMPI PUSH0 DUP1 REVERT JUMPDEST POP PUSH2 0x2C9 PUSH2 0x558 CALLDATASIZE PUSH1 0x4 PUSH2 0x2F5B JUMP JUMPDEST PUSH2 0x18A9 JUMP JUMPDEST CALLVALUE DUP1 ISZERO PUSH2 0x568 JUMPI PUSH0 DUP1 REVERT JUMPDEST POP PUSH2 0x2C9 PUSH2 0x577 CALLDATASIZE PUSH1 0x4 PUSH2 0x2F5B JUMP JUMPDEST PUSH2 0x1A1F JUMP JUMPDEST CALLVALUE DUP1 ISZERO PUSH2 0x587 JUMPI PUSH0 DUP1 REVERT JUMPDEST POP PUSH2 0x2C9 PUSH2 0x596 CALLDATASIZE PUSH1 0x4 PUSH2 0x2F5B JUMP JUMPDEST PUSH2 0x1B64 JUMP JUMPDEST CALLVALUE DUP1 ISZERO PUSH2 0x5A6 JUMPI PUSH0 DUP1 REVERT JUMPDEST POP PUSH2 0x40B PUSH2 0x5B5 CALLDATASIZE PUSH1 0x4 PUSH2 0x2F1C JUMP JUMPDEST PUSH1 0x9 PUSH1 0x20 MSTORE PUSH0 SWAP1 DUP2 MSTORE PUSH1 0x40 SWAP1 KECCAK256 SLOAD PUSH20 0xFFFFFFFFFFFFFFFFFFFFFFFFFFFFFFFFFFFFFFFF AND DUP2 JUMP JUMPDEST CALLVALUE DUP1 ISZERO PUSH2 0x5E7 JUMPI PUSH0 DUP1 REVERT JUMPDEST POP PUSH2 0x318 PUSH1 0xD SLOAD DUP2 JUMP JUMPDEST CALLVALUE DUP1 ISZERO PUSH2 0x5FC JUMPI PUSH0 DUP1 REVERT JUMPDEST POP PUSH2 0x605 PUSH2 0x1C2C JUMP JUMPDEST PUSH1 0x40 MLOAD PUSH2 0x2F0 SWAP2 SWAP1 PUSH2 0x3029 JUMP JUMPDEST CALLVALUE DUP1 ISZERO PUSH2 0x61D JUMPI PUSH0 DUP1 REVERT JUMPDEST POP PUSH1 0x4 SLOAD PUSH2 0x646 SWAP1 PUSH24 0x10000000000000000000000000000000000000000000000 SWAP1 DIV PUSH1 0xFF AND DUP2 JUMP JUMPDEST PUSH1 0x40 MLOAD PUSH2 0x2F0 SWAP2 SWAP1 PUSH2 0x317B JUMP JUMPDEST CALLVALUE DUP1 ISZERO PUSH2 0x65E JUMPI PUSH0 DUP1 REVERT JUMPDEST POP PUSH2 0x2C9 PUSH2 0x8FA JUMP JUMPDEST CALLVALUE DUP1 ISZERO PUSH2 0x672 JUMPI PUSH0 DUP1 REVERT JUMPDEST POP PUSH1 0x1 SLOAD PUSH2 0x40B SWAP1 PUSH20 0xFFFFFFFFFFFFFFFFFFFFFFFFFFFFFFFFFFFFFFFF AND DUP2 JUMP JUMPDEST CALLVALUE DUP1 ISZERO PUSH2 0x69E JUMPI PUSH0 DUP1 REVERT JUMPDEST POP PUSH1 0x6 SLOAD PUSH2 0x40B SWAP1 PUSH20 0xFFFFFFFFFFFFFFFFFFFFFFFFFFFFFFFFFFFFFFFF AND DUP2 JUMP JUMPDEST CALLVALUE DUP1 ISZERO PUSH2 0x6CA JUMPI PUSH0 DUP1 REVERT JUMPDEST POP PUSH1 0x7 SLOAD PUSH20 0xFFFFFFFFFFFFFFFFFFFFFFFFFFFFFFFFFFFFFFFF AND PUSH2 0x40B JUMP JUMPDEST CALLVALUE DUP1 ISZERO PUSH2 0x6F4 JUMPI PUSH0 DUP1 REVERT JUMPDEST POP PUSH2 0x2C9 PUSH2 0x703 CALLDATASIZE PUSH1 0x4 PUSH2 0x3189 JUMP JUMPDEST PUSH2 0x1DBF JUMP JUMPDEST CALLVALUE DUP1 ISZERO PUSH2 0x713 JUMPI PUSH0 DUP1 REVERT JUMPDEST POP PUSH2 0x318 PUSH2 0x722 CALLDATASIZE PUSH1 0x4 PUSH2 0x31A7 JUMP JUMPDEST PUSH2 0x1E9C JUMP JUMPDEST CALLVALUE DUP1 ISZERO PUSH2 0x732 JUMPI PUSH0 DUP1 REVERT JUMPDEST POP PUSH2 0x2C9 PUSH2 0x741 CALLDATASIZE PUSH1 0x4 PUSH2 0x2F5B JUMP JUMPDEST PUSH2 0x200D JUMP JUMPDEST CALLVALUE DUP1 ISZERO PUSH2 0x751 JUMPI PUSH0 DUP1 REVERT JUMPDEST POP PUSH1 0x7 SLOAD PUSH2 0x40B SWAP1 PUSH20 0xFFFFFFFFFFFFFFFFFFFFFFFFFFFFFFFFFFFFFFFF AND DUP2 JUMP JUMPDEST CALLVALUE DUP1 ISZERO PUSH2 0x77D JUMPI PUSH0 DUP1 REVERT JUMPDEST POP PUSH2 0x318 PUSH2 0x78C CALLDATASIZE PUSH1 0x4 PUSH2 0x31F1 JUMP JUMPDEST PUSH2 0x2152 JUMP JUMPDEST CALLVALUE DUP1 ISZERO PUSH2 0x79C JUMPI PUSH0 DUP1 REVERT JUMPDEST POP PUSH2 0x2C9 PUSH2 0x2272 JUMP JUMPDEST CALLVALUE DUP1 ISZERO PUSH2 0x7B0 JUMPI PUSH0 DUP1 REVERT JUMPDEST POP PUSH2 0x318 PUSH1 0x5 SLOAD DUP2 JUMP JUMPDEST CALLVALUE DUP1 ISZERO PUSH2 0x7C5 JUMPI PUSH0 DUP1 REVERT JUMPDEST POP PUSH1 0x4 SLOAD PUSH2 0x40B SWAP1 PUSH20 0xFFFFFFFFFFFFFFFFFFFFFFFFFFFFFFFFFFFFFFFF AND DUP2 JUMP JUMPDEST CALLVALUE DUP1 ISZERO PUSH2 0x7F1 JUMPI PUSH0 DUP1 REVERT JUMPDEST POP PUSH2 0x2C9 PUSH2 0x800 CALLDATASIZE PUSH1 0x4 PUSH2 0x2F5B JUMP JUMPDEST PUSH2 0x2336 JUMP JUMPDEST CALLVALUE DUP1 ISZERO PUSH2 0x810 JUMPI PUSH0 DUP1 REVERT JUMPDEST POP PUSH1 0x8 SLOAD PUSH2 0x40B SWAP1 PUSH20 0xFFFFFFFFFFFFFFFFFFFFFFFFFFFFFFFFFFFFFFFF AND DUP2 JUMP JUMPDEST CALLVALUE DUP1 ISZERO PUSH2 0x83C JUMPI PUSH0 DUP1 REVERT JUMPDEST POP PUSH2 0x2C9 PUSH2 0x84B CALLDATASIZE PUSH1 0x4 PUSH2 0x2F1C JUMP JUMPDEST PUSH2 0x247B JUMP JUMPDEST CALLVALUE DUP1 ISZERO PUSH2 0x85B JUMPI PUSH0 DUP1 REVERT JUMPDEST POP PUSH2 0x2C9 PUSH2 0x86A CALLDATASIZE PUSH1 0x4 PUSH2 0x2F5B JUMP JUMPDEST PUSH2 0x2501 JUMP JUMPDEST PUSH2 0x877 PUSH2 0x2826 JUMP JUMPDEST SELFBALANCE PUSH0 DUP2 SWAP1 SUB PUSH2 0x886 JUMPI POP PUSH2 0x8EF JUMP JUMPDEST PUSH0 DUP1 PUSH1 0x4 SLOAD PUSH24 0x10000000000000000000000000000000000000000000000 SWAP1 DIV PUSH1 0xFF AND PUSH1 0x1 DUP2 GT ISZERO PUSH2 0x8BA JUMPI PUSH2 0x8BA PUSH2 0x2FC3 JUMP JUMPDEST EQ PUSH2 0x8CD JUMPI PUSH2 0x8C8 DUP3 PUSH2 0x1364 JUMP JUMPDEST PUSH2 0x8D6 JUMP JUMPDEST PUSH2 0x8D6 DUP3 PUSH2 0x11CB JUMP JUMPDEST SWAP1 POP PUSH1 0x5 SLOAD DUP2 LT PUSH2 0x8EC JUMPI PUSH2 0x8EA DUP3 PUSH2 0x2897 JUMP JUMPDEST POP JUMPDEST POP POP JUMPDEST PUSH2 0x8F8 PUSH1 0x1 PUSH0 SSTORE JUMP JUMPDEST JUMP JUMPDEST PUSH2 0x902 PUSH2 0x2826 JUMP JUMPDEST PUSH1 0x2 SLOAD PUSH1 0x40 MLOAD PUSH32 0x70A0823100000000000000000000000000000000000000000000000000000000 DUP2 MSTORE ADDRESS PUSH1 0x4 DUP3 ADD MSTORE PUSH0 SWAP2 PUSH20 0xFFFFFFFFFFFFFFFFFFFFFFFFFFFFFFFFFFFFFFFF AND SWAP1 PUSH4 0x70A08231 SWAP1 PUSH1 0x24 ADD PUSH1 0x20 PUSH1 0x40 MLOAD DUP1 DUP4 SUB DUP2 DUP7 GAS STATICCALL ISZERO DUP1 ISZERO PUSH2 0x96E JUMPI RETURNDATASIZE PUSH0 DUP1 RETURNDATACOPY RETURNDATASIZE PUSH0 REVERT JUMPDEST POP POP POP POP PUSH1 0x40 MLOAD RETURNDATASIZE PUSH1 0x1F NOT PUSH1 0x1F DUP3 ADD AND DUP3 ADD DUP1 PUSH1 0x40 MSTORE POP DUP2 ADD SWAP1 PUSH2 0x992 SWAP2 SWAP1 PUSH2 0x3244 JUMP JUMPDEST SWAP1 POP DUP1 ISZERO PUSH2 0xA38 JUMPI PUSH1 0x2 SLOAD PUSH1 0x8 SLOAD PUSH1 0x40 MLOAD PUSH32 0xA9059CBB00000000000000000000000000000000000000000000000000000000 DUP2 MSTORE PUSH20 0xFFFFFFFFFFFFFFFFFFFFFFFFFFFFFFFFFFFFFFFF SWAP2 DUP3 AND PUSH1 0x4 DUP3 ADD MSTORE PUSH1 0x24 DUP2 ADD DUP5 SWAP1 MSTORE SWAP2 AND SWAP1 PUSH4 0xA9059CBB SWAP1 PUSH1 0x44 ADD PUSH1 0x20 PUSH1 0x40 MLOAD DUP1 DUP4 SUB DUP2 PUSH0 DUP8 GAS CALL ISZERO DUP1 ISZERO PUSH2 0xA12 JUMPI RETURNDATASIZE PUSH0 DUP1 RETURNDATACOPY RETURNDATASIZE PUSH0 REVERT JUMPDEST POP POP POP POP PUSH1 0x40 MLOAD RETURNDATASIZE PUSH1 0x1F NOT PUSH1 0x1F DUP3 ADD AND DUP3 ADD DUP1 PUSH1 0x40 MSTORE POP DUP2 ADD SWAP1 PUSH2 0xA36 SWAP2 SWAP1 PUSH2 0x325B JUMP JUMPDEST POP JUMPDEST PUSH1 0xC SLOAD ISZERO PUSH2 0xBAC JUMPI PUSH1 0x1 JUMPDEST PUSH1 0xC SLOAD DUP2 GT PUSH2 0x8EC JUMPI PUSH0 DUP2 DUP2 MSTORE PUSH1 0x9 PUSH1 0x20 MSTORE PUSH1 0x40 SWAP1 DUP2 SWAP1 KECCAK256 SLOAD SWAP1 MLOAD PUSH32 0x70A0823100000000000000000000000000000000000000000000000000000000 DUP2 MSTORE ADDRESS PUSH1 0x4 DUP3 ADD MSTORE PUSH20 0xFFFFFFFFFFFFFFFFFFFFFFFFFFFFFFFFFFFFFFFF SWAP1 SWAP2 AND SWAP1 PUSH4 0x70A08231 SWAP1 PUSH1 0x24 ADD PUSH1 0x20 PUSH1 0x40 MLOAD DUP1 DUP4 SUB DUP2 DUP7 GAS STATICCALL ISZERO DUP1 ISZERO PUSH2 0xAC4 JUMPI RETURNDATASIZE PUSH0 DUP1 RETURNDATACOPY RETURNDATASIZE PUSH0 REVERT JUMPDEST POP POP POP POP PUSH1 0x40 MLOAD RETURNDATASIZE PUSH1 0x1F NOT PUSH1 0x1F DUP3 ADD AND DUP3 ADD DUP1 PUSH1 0x40 MSTORE POP DUP2 ADD SWAP1 PUSH2 0xAE8 SWAP2 SWAP1 PUSH2 0x3244 JUMP JUMPDEST SWAP2 POP DUP2 ISZERO PUSH2 0xB9A JUMPI PUSH0 DUP2 DUP2 MSTORE PUSH1 0x9 PUSH1 0x20 MSTORE PUSH1 0x40 SWAP1 DUP2 SWAP1 KECCAK256 SLOAD PUSH1 0x8 SLOAD SWAP2 MLOAD PUSH32 0xA9059CBB00000000000000000000000000000000000000000000000000000000 DUP2 MSTORE PUSH20 0xFFFFFFFFFFFFFFFFFFFFFFFFFFFFFFFFFFFFFFFF SWAP3 DUP4 AND PUSH1 0x4 DUP3 ADD MSTORE PUSH1 0x24 DUP2 ADD DUP6 SWAP1 MSTORE SWAP2 AND SWAP1 PUSH4 0xA9059CBB SWAP1 PUSH1 0x44 ADD PUSH1 0x20 PUSH1 0x40 MLOAD DUP1 DUP4 SUB DUP2 PUSH0 DUP8 GAS CALL ISZERO DUP1 ISZERO PUSH2 0xB74 JUMPI RETURNDATASIZE PUSH0 DUP1 RETURNDATACOPY RETURNDATASIZE PUSH0 REVERT JUMPDEST POP POP POP POP PUSH1 0x40 MLOAD RETURNDATASIZE PUSH1 0x1F NOT PUSH1 0x1F DUP3 ADD AND DUP3 ADD DUP1 PUSH1 0x40 MSTORE POP DUP2 ADD SWAP1 PUSH2 0xB98 SWAP2 SWAP1 PUSH2 0x325B JUMP JUMPDEST POP JUMPDEST DUP1 PUSH2 0xBA4 DUP2 PUSH2 0x327A JUMP JUMPDEST SWAP2 POP POP PUSH2 0xA43 JUMP JUMPDEST POP PUSH2 0x8F8 PUSH1 0x1 PUSH0 SSTORE JUMP JUMPDEST PUSH1 0x7 SLOAD PUSH1 0x60 SWAP1 PUSH21 0x10000000000000000000000000000000000000000 SWAP1 DIV PUSH1 0xFF AND ISZERO PUSH2 0x11C8 JUMPI PUSH1 0xC SLOAD PUSH2 0xBEA SWAP1 PUSH1 0x1 PUSH2 0x2DB7 JUMP JUMPDEST PUSH8 0xFFFFFFFFFFFFFFFF DUP2 GT ISZERO PUSH2 0xC02 JUMPI PUSH2 0xC02 PUSH2 0x32B1 JUMP JUMPDEST PUSH1 0x40 MLOAD SWAP1 DUP1 DUP3 MSTORE DUP1 PUSH1 0x20 MUL PUSH1 0x20 ADD DUP3 ADD PUSH1 0x40 MSTORE DUP1 ISZERO PUSH2 0xC81 JUMPI DUP2 PUSH1 0x20 ADD JUMPDEST PUSH2 0xC6E PUSH1 0x40 MLOAD DUP1 PUSH1 0xC0 ADD PUSH1 0x40 MSTORE DUP1 PUSH0 DUP2 MSTORE PUSH1 0x20 ADD PUSH0 PUSH20 0xFFFFFFFFFFFFFFFFFFFFFFFFFFFFFFFFFFFFFFFF AND DUP2 MSTORE PUSH1 0x20 ADD PUSH1 0x60 DUP2 MSTORE PUSH1 0x20 ADD PUSH1 0x60 DUP2 MSTORE PUSH1 0x20 ADD PUSH0 PUSH1 0xFF AND DUP2 MSTORE PUSH1 0x20 ADD PUSH0 DUP2 MSTORE POP SWAP1 JUMP JUMPDEST DUP2 MSTORE PUSH1 0x20 ADD SWAP1 PUSH1 0x1 SWAP1 SUB SWAP1 DUP2 PUSH2 0xC20 JUMPI SWAP1 POP JUMPDEST POP PUSH1 0x2 SLOAD PUSH1 0x40 DUP1 MLOAD PUSH1 0xC0 DUP2 ADD DUP3 MSTORE PUSH0 DUP1 DUP3 MSTORE PUSH20 0xFFFFFFFFFFFFFFFFFFFFFFFFFFFFFFFFFFFFFFFF SWAP1 SWAP4 AND PUSH1 0x20 DUP3 ADD DUP2 SWAP1 MSTORE DUP3 MLOAD PUSH32 0x95D89B4100000000000000000000000000000000000000000000000000000000 DUP2 MSTORE DUP4 MLOAD SWAP6 SWAP7 POP SWAP1 SWAP5 SWAP2 SWAP4 SWAP3 DUP5 ADD SWAP3 DUP6 SWAP3 PUSH4 0x95D89B41 SWAP3 PUSH1 0x4 DUP1 DUP3 ADD SWAP4 SWAP3 SWAP2 DUP3 SWAP1 SUB ADD DUP2 DUP7 GAS STATICCALL ISZERO DUP1 ISZERO PUSH2 0xD0B JUMPI RETURNDATASIZE PUSH0 DUP1 RETURNDATACOPY RETURNDATASIZE PUSH0 REVERT JUMPDEST POP POP POP POP PUSH1 0x40 MLOAD RETURNDATASIZE PUSH0 DUP3 RETURNDATACOPY PUSH1 0x1F RETURNDATASIZE SWAP1 DUP2 ADD PUSH32 0xFFFFFFFFFFFFFFFFFFFFFFFFFFFFFFFFFFFFFFFFFFFFFFFFFFFFFFFFFFFFFFE0 AND DUP3 ADD PUSH1 0x40 MSTORE PUSH2 0xD50 SWAP2 SWAP1 DUP2 ADD SWAP1 PUSH2 0x332D JUMP JUMPDEST DUP2 MSTORE PUSH1 0x20 ADD DUP3 PUSH20 0xFFFFFFFFFFFFFFFFFFFFFFFFFFFFFFFFFFFFFFFF AND PUSH4 0x6FDDE03 PUSH1 0x40 MLOAD DUP2 PUSH4 0xFFFFFFFF AND PUSH1 0xE0 SHL DUP2 MSTORE PUSH1 0x4 ADD PUSH0 PUSH1 0x40 MLOAD DUP1 DUP4 SUB DUP2 DUP7 GAS STATICCALL ISZERO DUP1 ISZERO PUSH2 0xD9D JUMPI RETURNDATASIZE PUSH0 DUP1 RETURNDATACOPY RETURNDATASIZE PUSH0 REVERT JUMPDEST POP POP POP POP PUSH1 0x40 MLOAD RETURNDATASIZE PUSH0 DUP3 RETURNDATACOPY PUSH1 0x1F RETURNDATASIZE SWAP1 DUP2 ADD PUSH32 0xFFFFFFFFFFFFFFFFFFFFFFFFFFFFFFFFFFFFFFFFFFFFFFFFFFFFFFFFFFFFFFE0 AND DUP3 ADD PUSH1 0x40 MSTORE PUSH2 0xDE2 SWAP2 SWAP1 DUP2 ADD SWAP1 PUSH2 0x332D JUMP JUMPDEST DUP2 MSTORE PUSH1 0x20 ADD DUP3 PUSH20 0xFFFFFFFFFFFFFFFFFFFFFFFFFFFFFFFFFFFFFFFF AND PUSH4 0x313CE567 PUSH1 0x40 MLOAD DUP2 PUSH4 0xFFFFFFFF AND PUSH1 0xE0 SHL DUP2 MSTORE PUSH1 0x4 ADD PUSH1 0x20 PUSH1 0x40 MLOAD DUP1 DUP4 SUB DUP2 DUP7 GAS STATICCALL ISZERO DUP1 ISZERO PUSH2 0xE30 JUMPI RETURNDATASIZE PUSH0 DUP1 RETURNDATACOPY RETURNDATASIZE PUSH0 REVERT JUMPDEST POP POP POP POP PUSH1 0x40 MLOAD RETURNDATASIZE PUSH1 0x1F NOT PUSH1 0x1F DUP3 ADD AND DUP3 ADD DUP1 PUSH1 0x40 MSTORE POP DUP2 ADD SWAP1 PUSH2 0xE54 SWAP2 SWAP1 PUSH2 0x33DA JUMP JUMPDEST PUSH1 0xFF AND DUP2 MSTORE PUSH1 0x40 MLOAD PUSH32 0x70A0823100000000000000000000000000000000000000000000000000000000 DUP2 MSTORE ADDRESS PUSH1 0x4 DUP3 ADD MSTORE PUSH1 0x20 SWAP1 SWAP2 ADD SWAP1 PUSH20 0xFFFFFFFFFFFFFFFFFFFFFFFFFFFFFFFFFFFFFFFF DUP5 AND SWAP1 PUSH4 0x70A08231 SWAP1 PUSH1 0x24 ADD PUSH1 0x20 PUSH1 0x40 MLOAD DUP1 DUP4 SUB DUP2 DUP7 GAS STATICCALL ISZERO DUP1 ISZERO PUSH2 0xEC7 JUMPI RETURNDATASIZE PUSH0 DUP1 RETURNDATACOPY RETURNDATASIZE PUSH0 REVERT JUMPDEST POP POP POP POP PUSH1 0x40 MLOAD RETURNDATASIZE PUSH1 0x1F NOT PUSH1 0x1F DUP3 ADD AND DUP3 ADD DUP1 PUSH1 0x40 MSTORE POP DUP2 ADD SWAP1 PUSH2 0xEEB SWAP2 SWAP1 PUSH2 0x3244 JUMP JUMPDEST DUP2 MSTORE POP DUP3 PUSH0 DUP2 MLOAD DUP2 LT PUSH2 0xF00 JUMPI PUSH2 0xF00 PUSH2 0x33FA JUMP JUMPDEST PUSH1 0x20 SWAP1 DUP2 MUL SWAP2 SWAP1 SWAP2 ADD ADD MSTORE PUSH1 0xC SLOAD ISZERO PUSH2 0x11C6 JUMPI PUSH1 0x1 JUMPDEST PUSH1 0xC SLOAD DUP2 GT PUSH2 0x11C4 JUMPI PUSH0 DUP2 DUP2 MSTORE PUSH1 0x9 PUSH1 0x20 DUP2 DUP2 MSTORE PUSH1 0x40 DUP1 DUP5 KECCAK256 SLOAD DUP2 MLOAD PUSH1 0xC0 DUP2 ADD DUP4 MSTORE DUP7 DUP2 MSTORE DUP7 DUP7 MSTORE SWAP4 DUP4 MSTORE PUSH20 0xFFFFFFFFFFFFFFFFFFFFFFFFFFFFFFFFFFFFFFFF AND SWAP2 DUP4 ADD DUP3 SWAP1 MSTORE DUP1 MLOAD PUSH32 0x95D89B4100000000000000000000000000000000000000000000000000000000 DUP2 MSTORE DUP2 MLOAD SWAP3 SWAP5 SWAP2 DUP5 ADD SWAP3 DUP6 SWAP3 PUSH4 0x95D89B41 SWAP3 PUSH1 0x4 DUP1 DUP3 ADD SWAP4 SWAP2 DUP3 SWAP1 SUB ADD DUP2 DUP7 GAS STATICCALL ISZERO DUP1 ISZERO PUSH2 0xFB0 JUMPI RETURNDATASIZE PUSH0 DUP1 RETURNDATACOPY RETURNDATASIZE PUSH0 REVERT JUMPDEST POP POP POP POP PUSH1 0x40 MLOAD RETURNDATASIZE PUSH0 DUP3 RETURNDATACOPY PUSH1 0x1F RETURNDATASIZE SWAP1 DUP2 ADD PUSH32 0xFFFFFFFFFFFFFFFFFFFFFFFFFFFFFFFFFFFFFFFFFFFFFFFFFFFFFFFFFFFFFFE0 AND DUP3 ADD PUSH1 0x40 MSTORE PUSH2 0xFF5 SWAP2 SWAP1 DUP2 ADD SWAP1 PUSH2 0x332D JUMP JUMPDEST DUP2 MSTORE PUSH1 0x20 ADD DUP3 PUSH20 0xFFFFFFFFFFFFFFFFFFFFFFFFFFFFFFFFFFFFFFFF AND PUSH4 0x6FDDE03 PUSH1 0x40 MLOAD DUP2 PUSH4 0xFFFFFFFF AND PUSH1 0xE0 SHL DUP2 MSTORE PUSH1 0x4 ADD PUSH0 PUSH1 0x40 MLOAD DUP1 DUP4 SUB DUP2 DUP7 GAS STATICCALL ISZERO DUP1 ISZERO PUSH2 0x1042 JUMPI RETURNDATASIZE PUSH0 DUP1 RETURNDATACOPY RETURNDATASIZE PUSH0 REVERT JUMPDEST POP POP POP POP PUSH1 0x40 MLOAD RETURNDATASIZE PUSH0 DUP3 RETURNDATACOPY PUSH1 0x1F RETURNDATASIZE SWAP1 DUP2 ADD PUSH32 0xFFFFFFFFFFFFFFFFFFFFFFFFFFFFFFFFFFFFFFFFFFFFFFFFFFFFFFFFFFFFFFE0 AND DUP3 ADD PUSH1 0x40 MSTORE PUSH2 0x1087 SWAP2 SWAP1 DUP2 ADD SWAP1 PUSH2 0x332D JUMP JUMPDEST DUP2 MSTORE PUSH1 0x20 ADD DUP3 PUSH20 0xFFFFFFFFFFFFFFFFFFFFFFFFFFFFFFFFFFFFFFFF AND PUSH4 0x313CE567 PUSH1 0x40 MLOAD DUP2 PUSH4 0xFFFFFFFF AND PUSH1 0xE0 SHL DUP2 MSTORE PUSH1 0x4 ADD PUSH1 0x20 PUSH1 0x40 MLOAD DUP1 DUP4 SUB DUP2 DUP7 GAS STATICCALL ISZERO DUP1 ISZERO PUSH2 0x10D5 JUMPI RETURNDATASIZE PUSH0 DUP1 RETURNDATACOPY RETURNDATASIZE PUSH0 REVERT JUMPDEST POP POP POP POP PUSH1 0x40 MLOAD RETURNDATASIZE PUSH1 0x1F NOT PUSH1 0x1F DUP3 ADD AND DUP3 ADD DUP1 PUSH1 0x40 MSTORE POP DUP2 ADD SWAP1 PUSH2 0x10F9 SWAP2 SWAP1 PUSH2 0x33DA JUMP JUMPDEST PUSH1 0xFF AND DUP2 MSTORE PUSH1 0x40 MLOAD PUSH32 0x70A0823100000000000000000000000000000000000000000000000000000000 DUP2 MSTORE ADDRESS PUSH1 0x4 DUP3 ADD MSTORE PUSH1 0x20 SWAP1 SWAP2 ADD SWAP1 PUSH20 0xFFFFFFFFFFFFFFFFFFFFFFFFFFFFFFFFFFFFFFFF DUP5 AND SWAP1 PUSH4 0x70A08231 SWAP1 PUSH1 0x24 ADD PUSH1 0x20 PUSH1 0x40 MLOAD DUP1 DUP4 SUB DUP2 DUP7 GAS STATICCALL ISZERO DUP1 ISZERO PUSH2 0x116C JUMPI RETURNDATASIZE PUSH0 DUP1 RETURNDATACOPY RETURNDATASIZE PUSH0 REVERT JUMPDEST POP POP POP POP PUSH1 0x40 MLOAD RETURNDATASIZE PUSH1 0x1F NOT PUSH1 0x1F DUP3 ADD AND DUP3 ADD DUP1 PUSH1 0x40 MSTORE POP DUP2 ADD SWAP1 PUSH2 0x1190 SWAP2 SWAP1 PUSH2 0x3244 JUMP JUMPDEST DUP2 MSTORE POP DUP5 DUP4 DUP2 MLOAD DUP2 LT PUSH2 0x11A5 JUMPI PUSH2 0x11A5 PUSH2 0x33FA JUMP JUMPDEST PUSH1 0x20 MUL PUSH1 0x20 ADD ADD DUP2 SWAP1 MSTORE POP POP DUP1 DUP1 PUSH2 0x11BC SWAP1 PUSH2 0x327A JUMP JUMPDEST SWAP2 POP POP PUSH2 0xF16 JUMP JUMPDEST POP JUMPDEST POP JUMPDEST SWAP1 JUMP JUMPDEST PUSH0 PUSH2 0x1214 DUP3 PUSH2 0x11EF PUSH1 0x7 SLOAD PUSH20 0xFFFFFFFFFFFFFFFFFFFFFFFFFFFFFFFFFFFFFFFF AND SWAP1 JUMP JUMPDEST PUSH1 0x2 SLOAD PUSH1 0x3 SLOAD PUSH20 0xFFFFFFFFFFFFFFFFFFFFFFFFFFFFFFFFFFFFFFFF SWAP2 DUP3 AND SWAP2 AND PUSH2 0x1E9C JUMP JUMPDEST SWAP3 SWAP2 POP POP JUMP JUMPDEST PUSH1 0x1 SLOAD PUSH20 0xFFFFFFFFFFFFFFFFFFFFFFFFFFFFFFFFFFFFFFFF AND CALLER EQ PUSH2 0x12A0 JUMPI PUSH1 0x40 MLOAD PUSH32 0x8C379A000000000000000000000000000000000000000000000000000000000 DUP2 MSTORE PUSH1 0x20 PUSH1 0x4 DUP3 ADD MSTORE PUSH1 0xA PUSH1 0x24 DUP3 ADD MSTORE PUSH32 0x4F6E6C79206F776E657200000000000000000000000000000000000000000000 PUSH1 0x44 DUP3 ADD MSTORE PUSH1 0x64 ADD JUMPDEST PUSH1 0x40 MLOAD DUP1 SWAP2 SUB SWAP1 REVERT JUMPDEST PUSH20 0xFFFFFFFFFFFFFFFFFFFFFFFFFFFFFFFFFFFFFFFF DUP2 AND PUSH2 0x131D JUMPI PUSH1 0x40 MLOAD PUSH32 0x8C379A000000000000000000000000000000000000000000000000000000000 DUP2 MSTORE PUSH1 0x20 PUSH1 0x4 DUP3 ADD MSTORE PUSH1 0xC PUSH1 0x24 DUP3 ADD MSTORE PUSH32 0x43616E74206265207A65726F0000000000000000000000000000000000000000 PUSH1 0x44 DUP3 ADD MSTORE PUSH1 0x64 ADD PUSH2 0x1297 JUMP JUMPDEST PUSH1 0x2 DUP1 SLOAD PUSH32 0xFFFFFFFFFFFFFFFFFFFFFFFF0000000000000000000000000000000000000000 AND PUSH20 0xFFFFFFFFFFFFFFFFFFFFFFFFFFFFFFFFFFFFFFFF SWAP3 SWAP1 SWAP3 AND SWAP2 SWAP1 SWAP2 OR SWAP1 SSTORE JUMP JUMPDEST PUSH0 PUSH2 0x1214 DUP3 PUSH2 0x1388 PUSH1 0x7 SLOAD PUSH20 0xFFFFFFFFFFFFFFFFFFFFFFFFFFFFFFFFFFFFFFFF AND SWAP1 JUMP JUMPDEST PUSH1 0x2 SLOAD PUSH1 0x4 SLOAD PUSH1 0x6 SLOAD PUSH20 0xFFFFFFFFFFFFFFFFFFFFFFFFFFFFFFFFFFFFFFFF SWAP3 DUP4 AND SWAP3 PUSH21 0x10000000000000000000000000000000000000000 SWAP1 SWAP3 DIV PUSH3 0xFFFFFF AND SWAP2 AND PUSH2 0x2152 JUMP JUMPDEST PUSH1 0x1 SLOAD PUSH20 0xFFFFFFFFFFFFFFFFFFFFFFFFFFFFFFFFFFFFFFFF AND CALLER EQ PUSH2 0x1450 JUMPI PUSH1 0x40 MLOAD PUSH32 0x8C379A000000000000000000000000000000000000000000000000000000000 DUP2 MSTORE PUSH1 0x20 PUSH1 0x4 DUP3 ADD MSTORE PUSH1 0xA PUSH1 0x24 DUP3 ADD MSTORE PUSH32 0x4F6E6C79206F776E657200000000000000000000000000000000000000000000 PUSH1 0x44 DUP3 ADD MSTORE PUSH1 0x64 ADD PUSH2 0x1297 JUMP JUMPDEST PUSH20 0xFFFFFFFFFFFFFFFFFFFFFFFFFFFFFFFFFFFFFFFF DUP2 AND PUSH0 SWAP1 DUP2 MSTORE PUSH1 0xA PUSH1 0x20 MSTORE PUSH1 0x40 SWAP1 KECCAK256 SLOAD PUSH1 0xFF AND PUSH2 0x1523 JUMPI PUSH1 0xC DUP1 SLOAD SWAP1 PUSH0 PUSH2 0x148B DUP4 PUSH2 0x327A JUMP JUMPDEST SWAP1 SWAP2 SSTORE POP POP PUSH1 0xC DUP1 SLOAD PUSH0 SWAP1 DUP2 MSTORE PUSH1 0x9 PUSH1 0x20 SWAP1 DUP2 MSTORE PUSH1 0x40 DUP1 DUP4 KECCAK256 DUP1 SLOAD PUSH32 0xFFFFFFFFFFFFFFFFFFFFFFFF0000000000000000000000000000000000000000 AND PUSH20 0xFFFFFFFFFFFFFFFFFFFFFFFFFFFFFFFFFFFFFFFF DUP8 AND SWAP1 DUP2 OR SWAP1 SWAP2 SSTORE DUP4 MSTORE PUSH1 0xA DUP3 MSTORE DUP1 DUP4 KECCAK256 DUP1 SLOAD PUSH32 0xFFFFFFFFFFFFFFFFFFFFFFFFFFFFFFFFFFFFFFFFFFFFFFFFFFFFFFFFFFFFFF00 AND PUSH1 0x1 OR SWAP1 SSTORE SWAP3 SLOAD PUSH1 0xB SWAP1 SWAP2 MSTORE SWAP2 SWAP1 KECCAK256 SSTORE JUMPDEST POP JUMP JUMPDEST PUSH1 0x1 SLOAD PUSH20 0xFFFFFFFFFFFFFFFFFFFFFFFFFFFFFFFFFFFFFFFF AND CALLER EQ PUSH2 0x15A7 JUMPI PUSH1 0x40 MLOAD PUSH32 0x8C379A000000000000000000000000000000000000000000000000000000000 DUP2 MSTORE PUSH1 0x20 PUSH1 0x4 DUP3 ADD MSTORE PUSH1 0xA PUSH1 0x24 DUP3 ADD MSTORE PUSH32 0x4F6E6C79206F776E657200000000000000000000000000000000000000000000 PUSH1 0x44 DUP3 ADD MSTORE PUSH1 0x64 ADD PUSH2 0x1297 JUMP JUMPDEST PUSH1 0x7 SLOAD PUSH21 0x10000000000000000000000000000000000000000 SWAP1 DIV PUSH1 0xFF AND ISZERO PUSH2 0x162C JUMPI PUSH1 0x40 MLOAD PUSH32 0x8C379A000000000000000000000000000000000000000000000000000000000 DUP2 MSTORE PUSH1 0x20 PUSH1 0x4 DUP3 ADD MSTORE PUSH1 0xE PUSH1 0x24 DUP3 ADD MSTORE PUSH32 0x416C726561647920696E69746564000000000000000000000000000000000000 PUSH1 0x44 DUP3 ADD MSTORE PUSH1 0x64 ADD PUSH2 0x1297 JUMP JUMPDEST PUSH20 0xFFFFFFFFFFFFFFFFFFFFFFFFFFFFFFFFFFFFFFFF DUP5 AND PUSH2 0x16A9 JUMPI PUSH1 0x40 MLOAD PUSH32 0x8C379A000000000000000000000000000000000000000000000000000000000 DUP2 MSTORE PUSH1 0x20 PUSH1 0x4 DUP3 ADD MSTORE PUSH1 0x17 PUSH1 0x24 DUP3 ADD MSTORE PUSH32 0x496E76616C696420777261707065642061646472657373000000000000000000 PUSH1 0x44 DUP3 ADD MSTORE PUSH1 0x64 ADD PUSH2 0x1297 JUMP JUMPDEST PUSH20 0xFFFFFFFFFFFFFFFFFFFFFFFFFFFFFFFFFFFFFFFF DUP4 AND PUSH2 0x1726 JUMPI PUSH1 0x40 MLOAD PUSH32 0x8C379A000000000000000000000000000000000000000000000000000000000 DUP2 MSTORE PUSH1 0x20 PUSH1 0x4 DUP3 ADD MSTORE PUSH1 0xD PUSH1 0x24 DUP3 ADD MSTORE PUSH32 0x496E76616C696420746F6B656E00000000000000000000000000000000000000 PUSH1 0x44 DUP3 ADD MSTORE PUSH1 0x64 ADD PUSH2 0x1297 JUMP JUMPDEST PUSH20 0xFFFFFFFFFFFFFFFFFFFFFFFFFFFFFFFFFFFFFFFF DUP3 AND PUSH2 0x17A3 JUMPI PUSH1 0x40 MLOAD PUSH32 0x8C379A000000000000000000000000000000000000000000000000000000000 DUP2 MSTORE PUSH1 0x20 PUSH1 0x4 DUP3 ADD MSTORE PUSH1 0x11 PUSH1 0x24 DUP3 ADD MSTORE PUSH32 0x496E76616C696420563220726F75746572000000000000000000000000000000 PUSH1 0x44 DUP3 ADD MSTORE PUSH1 0x64 ADD PUSH2 0x1297 JUMP JUMPDEST PUSH0 DUP2 GT PUSH2 0x180C JUMPI PUSH1 0x40 MLOAD PUSH32 0x8C379A000000000000000000000000000000000000000000000000000000000 DUP2 MSTORE PUSH1 0x20 PUSH1 0x4 DUP3 ADD MSTORE PUSH1 0x1A PUSH1 0x24 DUP3 ADD MSTORE PUSH32 0x4D696E20616D6F756E74206F7574206D757374206265203E2030000000000000 PUSH1 0x44 DUP3 ADD MSTORE PUSH1 0x64 ADD PUSH2 0x1297 JUMP JUMPDEST PUSH1 0x7 DUP1 SLOAD PUSH20 0xFFFFFFFFFFFFFFFFFFFFFFFFFFFFFFFFFFFFFFFF SWAP6 DUP7 AND PUSH32 0xFFFFFFFFFFFFFFFFFFFFFF000000000000000000000000000000000000000000 SWAP1 SWAP2 AND OR PUSH21 0x10000000000000000000000000000000000000000 OR SWAP1 SSTORE PUSH1 0x2 DUP1 SLOAD SWAP4 DUP6 AND PUSH32 0xFFFFFFFFFFFFFFFFFFFFFFFF0000000000000000000000000000000000000000 SWAP5 DUP6 AND OR SWAP1 SSTORE PUSH1 0x3 DUP1 SLOAD SWAP3 SWAP1 SWAP5 AND SWAP2 SWAP1 SWAP3 AND OR SWAP1 SWAP2 SSTORE PUSH1 0x5 SSTORE JUMP JUMPDEST PUSH1 0x1 SLOAD PUSH20 0xFFFFFFFFFFFFFFFFFFFFFFFFFFFFFFFFFFFFFFFF AND CALLER EQ PUSH2 0x192A JUMPI PUSH1 0x40 MLOAD PUSH32 0x8C379A000000000000000000000000000000000000000000000000000000000 DUP2 MSTORE PUSH1 0x20 PUSH1 0x4 DUP3 ADD MSTORE PUSH1 0xA PUSH1 0x24 DUP3 ADD MSTORE PUSH32 0x4F6E6C79206F776E657200000000000000000000000000000000000000000000 PUSH1 0x44 DUP3 ADD MSTORE PUSH1 0x64 ADD PUSH2 0x1297 JUMP JUMPDEST PUSH20 0xFFFFFFFFFFFFFFFFFFFFFFFFFFFFFFFFFFFFFFFF DUP2 AND PUSH0 SWAP1 DUP2 MSTORE PUSH1 0xA PUSH1 0x20 MSTORE PUSH1 0x40 SWAP1 KECCAK256 SLOAD PUSH1 0xFF AND ISZERO PUSH2 0x1523 JUMPI PUSH20 0xFFFFFFFFFFFFFFFFFFFFFFFFFFFFFFFFFFFFFFFF DUP1 DUP3 AND PUSH0 DUP2 DUP2 MSTORE PUSH1 0xB PUSH1 0x20 DUP2 DUP2 MSTORE PUSH1 0x40 DUP1 DUP5 KECCAK256 SLOAD PUSH1 0xC DUP1 SLOAD DUP7 MSTORE PUSH1 0x9 DUP1 DUP6 MSTORE DUP4 DUP8 KECCAK256 SLOAD DUP10 AND DUP8 MSTORE SWAP5 DUP5 MSTORE DUP3 DUP7 KECCAK256 DUP3 SWAP1 SSTORE DUP1 SLOAD DUP7 MSTORE SWAP4 DUP4 MSTORE DUP2 DUP6 KECCAK256 SLOAD DUP2 DUP7 MSTORE DUP3 DUP7 KECCAK256 DUP1 SLOAD PUSH32 0xFFFFFFFFFFFFFFFFFFFFFFFF0000000000000000000000000000000000000000 AND SWAP2 SWAP1 SWAP9 AND OR SWAP1 SWAP7 SSTORE SWAP4 DUP4 MSTORE PUSH1 0xA SWAP1 MSTORE SWAP2 DUP2 KECCAK256 DUP1 SLOAD PUSH32 0xFFFFFFFFFFFFFFFFFFFFFFFFFFFFFFFFFFFFFFFFFFFFFFFFFFFFFFFFFFFFFF00 AND SWAP1 SSTORE DUP2 SLOAD SWAP2 SWAP1 PUSH2 0x1A16 DUP4 PUSH2 0x3427 JUMP JUMPDEST SWAP2 SWAP1 POP SSTORE POP POP POP JUMP JUMPDEST PUSH1 0x1 SLOAD PUSH20 0xFFFFFFFFFFFFFFFFFFFFFFFFFFFFFFFFFFFFFFFF AND CALLER EQ PUSH2 0x1AA0 JUMPI PUSH1 0x40 MLOAD PUSH32 0x8C379A000000000000000000000000000000000000000000000000000000000 DUP2 MSTORE PUSH1 0x20 PUSH1 0x4 DUP3 ADD MSTORE PUSH1 0xA PUSH1 0x24 DUP3 ADD MSTORE PUSH32 0x4F6E6C79206F776E657200000000000000000000000000000000000000000000 PUSH1 0x44 DUP3 ADD MSTORE PUSH1 0x64 ADD PUSH2 0x1297 JUMP JUMPDEST PUSH20 0xFFFFFFFFFFFFFFFFFFFFFFFFFFFFFFFFFFFFFFFF DUP2 AND PUSH2 0x1B1D JUMPI PUSH1 0x40 MLOAD PUSH32 0x8C379A000000000000000000000000000000000000000000000000000000000 DUP2 MSTORE PUSH1 0x20 PUSH1 0x4 DUP3 ADD MSTORE PUSH1 0xC PUSH1 0x24 DUP3 ADD MSTORE PUSH32 0x43616E74206265207A65726F0000000000000000000000000000000000000000 PUSH1 0x44 DUP3 ADD MSTORE PUSH1 0x64 ADD PUSH2 0x1297 JUMP JUMPDEST PUSH1 0x3 DUP1 SLOAD PUSH32 0xFFFFFFFFFFFFFFFFFFFFFFFF0000000000000000000000000000000000000000 AND PUSH20 0xFFFFFFFFFFFFFFFFFFFFFFFFFFFFFFFFFFFFFFFF SWAP3 SWAP1 SWAP3 AND SWAP2 SWAP1 SWAP2 OR SWAP1 SSTORE JUMP JUMPDEST PUSH1 0x1 SLOAD PUSH20 0xFFFFFFFFFFFFFFFFFFFFFFFFFFFFFFFFFFFFFFFF AND CALLER EQ PUSH2 0x1BE5 JUMPI PUSH1 0x40 MLOAD PUSH32 0x8C379A000000000000000000000000000000000000000000000000000000000 DUP2 MSTORE PUSH1 0x20 PUSH1 0x4 DUP3 ADD MSTORE PUSH1 0xA PUSH1 0x24 DUP3 ADD MSTORE PUSH32 0x4F6E6C79206F776E657200000000000000000000000000000000000000000000 PUSH1 0x44 DUP3 ADD MSTORE PUSH1 0x64 ADD PUSH2 0x1297 JUMP JUMPDEST PUSH1 0x7 DUP1 SLOAD PUSH32 0xFFFFFFFFFFFFFFFFFFFFFFFF0000000000000000000000000000000000000000 AND PUSH20 0xFFFFFFFFFFFFFFFFFFFFFFFFFFFFFFFFFFFFFFFF SWAP3 SWAP1 SWAP3 AND SWAP2 SWAP1 SWAP2 OR SWAP1 SSTORE JUMP JUMPDEST PUSH2 0x1CBC PUSH1 0x40 DUP1 MLOAD PUSH2 0x1A0 DUP2 ADD DUP3 MSTORE PUSH0 DUP1 DUP3 MSTORE PUSH1 0x20 DUP3 ADD DUP2 SWAP1 MSTORE SWAP2 DUP2 ADD DUP3 SWAP1 MSTORE PUSH1 0x60 DUP2 ADD DUP3 SWAP1 MSTORE PUSH1 0x80 DUP2 ADD DUP3 SWAP1 MSTORE PUSH1 0xA0 DUP2 ADD DUP3 SWAP1 MSTORE SWAP1 PUSH1 0xC0 DUP3 ADD SWAP1 DUP2 MSTORE PUSH1 0x20 ADD PUSH0 DUP2 MSTORE PUSH1 0x20 ADD PUSH0 PUSH20 0xFFFFFFFFFFFFFFFFFFFFFFFFFFFFFFFFFFFFFFFF AND DUP2 MSTORE PUSH1 0x20 ADD PUSH0 PUSH20 0xFFFFFFFFFFFFFFFFFFFFFFFFFFFFFFFFFFFFFFFF AND DUP2 MSTORE PUSH1 0x20 ADD PUSH0 DUP2 MSTORE PUSH1 0x20 ADD PUSH0 DUP2 MSTORE PUSH1 0x20 ADD PUSH0 DUP2 MSTORE POP SWAP1 JUMP JUMPDEST PUSH1 0x40 DUP1 MLOAD PUSH2 0x1A0 DUP2 ADD DUP3 MSTORE PUSH1 0x7 SLOAD PUSH21 0x10000000000000000000000000000000000000000 SWAP1 DUP2 SWAP1 DIV PUSH1 0xFF SWAP1 DUP2 AND ISZERO ISZERO DUP4 MSTORE PUSH1 0x1 DUP1 SLOAD PUSH20 0xFFFFFFFFFFFFFFFFFFFFFFFFFFFFFFFFFFFFFFFF SWAP1 DUP2 AND PUSH1 0x20 DUP7 ADD MSTORE PUSH1 0x2 SLOAD DUP2 AND SWAP6 DUP6 ADD SWAP6 SWAP1 SWAP6 MSTORE PUSH1 0x3 SLOAD DUP6 AND PUSH1 0x60 DUP6 ADD MSTORE PUSH1 0x4 SLOAD SWAP5 DUP6 AND PUSH1 0x80 DUP6 ADD MSTORE SWAP2 DUP5 DIV PUSH3 0xFFFFFF AND PUSH1 0xA0 DUP5 ADD MSTORE SWAP2 SWAP3 PUSH1 0xC0 DUP5 ADD SWAP3 PUSH24 0x10000000000000000000000000000000000000000000000 SWAP1 SWAP2 DIV AND SWAP1 DUP2 GT ISZERO PUSH2 0x1D70 JUMPI PUSH2 0x1D70 PUSH2 0x2FC3 JUMP JUMPDEST DUP2 MSTORE PUSH1 0x5 SLOAD PUSH1 0x20 DUP3 ADD MSTORE PUSH1 0x6 SLOAD PUSH20 0xFFFFFFFFFFFFFFFFFFFFFFFFFFFFFFFFFFFFFFFF SWAP1 DUP2 AND PUSH1 0x40 DUP4 ADD MSTORE PUSH1 0x7 SLOAD AND PUSH1 0x60 DUP3 ADD MSTORE SELFBALANCE PUSH1 0x80 DUP3 ADD MSTORE PUSH1 0xD SLOAD PUSH1 0xA0 DUP3 ADD MSTORE PUSH1 0xE SLOAD PUSH1 0xC0 SWAP1 SWAP2 ADD MSTORE SWAP2 SWAP1 POP JUMP JUMPDEST PUSH1 0x1 SLOAD PUSH20 0xFFFFFFFFFFFFFFFFFFFFFFFFFFFFFFFFFFFFFFFF AND CALLER EQ PUSH2 0x1E40 JUMPI PUSH1 0x40 MLOAD PUSH32 0x8C379A000000000000000000000000000000000000000000000000000000000 DUP2 MSTORE PUSH1 0x20 PUSH1 0x4 DUP3 ADD MSTORE PUSH1 0xA PUSH1 0x24 DUP3 ADD MSTORE PUSH32 0x4F6E6C79206F776E657200000000000000000000000000000000000000000000 PUSH1 0x44 DUP3 ADD MSTORE PUSH1 0x64 ADD PUSH2 0x1297 JUMP JUMPDEST PUSH1 0x4 DUP1 SLOAD DUP3 SWAP2 SWAP1 PUSH32 0xFFFFFFFFFFFFFFFF00FFFFFFFFFFFFFFFFFFFFFFFFFFFFFFFFFFFFFFFFFFFFFF AND PUSH24 0x10000000000000000000000000000000000000000000000 DUP4 PUSH1 0x1 DUP2 GT ISZERO PUSH2 0x1E94 JUMPI PUSH2 0x1E94 PUSH2 0x2FC3 JUMP JUMPDEST MUL OR SWAP1 SSTORE POP POP JUMP JUMPDEST PUSH1 0x40 DUP1 MLOAD PUSH1 0x2 DUP1 DUP3 MSTORE PUSH1 0x60 DUP3 ADD DUP4 MSTORE PUSH0 SWAP3 DUP4 SWAP3 SWAP2 SWAP1 PUSH1 0x20 DUP4 ADD SWAP1 DUP1 CALLDATASIZE DUP4 CALLDATACOPY ADD SWAP1 POP POP SWAP1 POP DUP5 DUP2 PUSH0 DUP2 MLOAD DUP2 LT PUSH2 0x1ED3 JUMPI PUSH2 0x1ED3 PUSH2 0x33FA JUMP JUMPDEST PUSH1 0x20 MUL PUSH1 0x20 ADD ADD SWAP1 PUSH20 0xFFFFFFFFFFFFFFFFFFFFFFFFFFFFFFFFFFFFFFFF AND SWAP1 DUP2 PUSH20 0xFFFFFFFFFFFFFFFFFFFFFFFFFFFFFFFFFFFFFFFF AND DUP2 MSTORE POP POP DUP4 DUP2 PUSH1 0x1 DUP2 MLOAD DUP2 LT PUSH2 0x1F21 JUMPI PUSH2 0x1F21 PUSH2 0x33FA JUMP JUMPDEST PUSH20 0xFFFFFFFFFFFFFFFFFFFFFFFFFFFFFFFFFFFFFFFF SWAP3 DUP4 AND PUSH1 0x20 SWAP2 DUP3 MUL SWAP3 SWAP1 SWAP3 ADD ADD MSTORE PUSH1 0x40 MLOAD PUSH32 0xD06CA61F00000000000000000000000000000000000000000000000000000000 DUP2 MSTORE PUSH0 SWAP2 DUP6 AND SWAP1 PUSH4 0xD06CA61F SWAP1 PUSH2 0x1F85 SWAP1 DUP11 SWAP1 DUP7 SWAP1 PUSH1 0x4 ADD PUSH2 0x34AB JUMP JUMPDEST PUSH0 PUSH1 0x40 MLOAD DUP1 DUP4 SUB DUP2 DUP7 GAS STATICCALL ISZERO DUP1 ISZERO PUSH2 0x1F9F JUMPI RETURNDATASIZE PUSH0 DUP1 RETURNDATACOPY RETURNDATASIZE PUSH0 REVERT JUMPDEST POP POP POP POP PUSH1 0x40 MLOAD RETURNDATASIZE PUSH0 DUP3 RETURNDATACOPY PUSH1 0x1F RETURNDATASIZE SWAP1 DUP2 ADD PUSH32 0xFFFFFFFFFFFFFFFFFFFFFFFFFFFFFFFFFFFFFFFFFFFFFFFFFFFFFFFFFFFFFFE0 AND DUP3 ADD PUSH1 0x40 MSTORE PUSH2 0x1FE4 SWAP2 SWAP1 DUP2 ADD SWAP1 PUSH2 0x34CB JUMP JUMPDEST SWAP1 POP DUP1 PUSH1 0x1 DUP2 MLOAD DUP2 LT PUSH2 0x1FF9 JUMPI PUSH2 0x1FF9 PUSH2 0x33FA JUMP JUMPDEST PUSH1 0x20 MUL PUSH1 0x20 ADD ADD MLOAD SWAP3 POP POP POP SWAP5 SWAP4 POP POP POP POP JUMP JUMPDEST PUSH1 0x1 SLOAD PUSH20 0xFFFFFFFFFFFFFFFFFFFFFFFFFFFFFFFFFFFFFFFF AND CALLER EQ PUSH2 0x208E JUMPI PUSH1 0x40 MLOAD PUSH32 0x8C379A000000000000000000000000000000000000000000000000000000000 DUP2 MSTORE PUSH1 0x20 PUSH1 0x4 DUP3 ADD MSTORE PUSH1 0xA PUSH1 0x24 DUP3 ADD MSTORE PUSH32 0x4F6E6C79206F776E657200000000000000000000000000000000000000000000 PUSH1 0x44 DUP3 ADD MSTORE PUSH1 0x64 ADD PUSH2 0x1297 JUMP JUMPDEST PUSH20 0xFFFFFFFFFFFFFFFFFFFFFFFFFFFFFFFFFFFFFFFF DUP2 AND PUSH2 0x210B JUMPI PUSH1 0x40 MLOAD PUSH32 0x8C379A000000000000000000000000000000000000000000000000000000000 DUP2 MSTORE PUSH1 0x20 PUSH1 0x4 DUP3 ADD MSTORE PUSH1 0xC PUSH1 0x24 DUP3 ADD MSTORE PUSH32 0x43616E74206265207A65726F0000000000000000000000000000000000000000 PUSH1 0x44 DUP3 ADD MSTORE PUSH1 0x64 ADD PUSH2 0x1297 JUMP JUMPDEST PUSH1 0x8 DUP1 SLOAD PUSH32 0xFFFFFFFFFFFFFFFFFFFFFFFF0000000000000000000000000000000000000000 AND PUSH20 0xFFFFFFFFFFFFFFFFFFFFFFFFFFFFFFFFFFFFFFFF SWAP3 SWAP1 SWAP3 AND SWAP2 SWAP1 SWAP2 OR SWAP1 SSTORE JUMP JUMPDEST PUSH1 0x40 DUP1 MLOAD PUSH20 0xFFFFFFFFFFFFFFFFFFFFFFFFFFFFFFFFFFFFFFFF DUP7 DUP2 AND PUSH1 0x24 DUP4 ADD MSTORE DUP6 DUP2 AND PUSH1 0x44 DUP4 ADD MSTORE PUSH1 0x64 DUP3 ADD DUP9 SWAP1 MSTORE PUSH1 0x84 DUP3 ADD DUP6 SWAP1 MSTORE PUSH0 PUSH1 0xA4 DUP1 DUP5 ADD DUP3 SWAP1 MSTORE DUP5 MLOAD DUP1 DUP6 SUB SWAP1 SWAP2 ADD DUP2 MSTORE PUSH1 0xC4 SWAP1 SWAP4 ADD DUP5 MSTORE PUSH1 0x20 DUP4 ADD DUP1 MLOAD PUSH28 0xFFFFFFFFFFFFFFFFFFFFFFFFFFFFFFFFFFFFFFFFFFFFFFFFFFFFFFFF AND PUSH32 0x1296323F00000000000000000000000000000000000000000000000000000000 OR SWAP1 MSTORE SWAP3 MLOAD DUP4 SWAP3 DUP4 SWAP3 DUP7 AND SWAP2 PUSH2 0x21FE SWAP2 SWAP1 PUSH2 0x356C JUMP JUMPDEST PUSH0 PUSH1 0x40 MLOAD DUP1 DUP4 SUB DUP2 DUP6 GAS STATICCALL SWAP2 POP POP RETURNDATASIZE DUP1 PUSH0 DUP2 EQ PUSH2 0x2236 JUMPI PUSH1 0x40 MLOAD SWAP2 POP PUSH1 0x1F NOT PUSH1 0x3F RETURNDATASIZE ADD AND DUP3 ADD PUSH1 0x40 MSTORE RETURNDATASIZE DUP3 MSTORE RETURNDATASIZE PUSH0 PUSH1 0x20 DUP5 ADD RETURNDATACOPY PUSH2 0x223B JUMP JUMPDEST PUSH1 0x60 SWAP2 POP JUMPDEST POP SWAP2 POP SWAP2 POP DUP2 ISZERO PUSH2 0x2263 JUMPI DUP1 DUP1 PUSH1 0x20 ADD SWAP1 MLOAD DUP2 ADD SWAP1 PUSH2 0x225A SWAP2 SWAP1 PUSH2 0x3244 JUMP JUMPDEST SWAP3 POP POP POP PUSH2 0x2269 JUMP JUMPDEST PUSH0 SWAP3 POP POP POP JUMPDEST SWAP6 SWAP5 POP POP POP POP POP JUMP JUMPDEST PUSH1 0x1 SLOAD PUSH20 0xFFFFFFFFFFFFFFFFFFFFFFFFFFFFFFFFFFFFFFFF AND CALLER EQ PUSH2 0x22F3 JUMPI PUSH1 0x40 MLOAD PUSH32 0x8C379A000000000000000000000000000000000000000000000000000000000 DUP2 MSTORE PUSH1 0x20 PUSH1 0x4 DUP3 ADD MSTORE PUSH1 0xA PUSH1 0x24 DUP3 ADD MSTORE PUSH32 0x4F6E6C79206F776E657200000000000000000000000000000000000000000000 PUSH1 0x44 DUP3 ADD MSTORE PUSH1 0x64 ADD PUSH2 0x1297 JUMP JUMPDEST PUSH1 0x8 SLOAD PUSH1 0x40 MLOAD PUSH20 0xFFFFFFFFFFFFFFFFFFFFFFFFFFFFFFFFFFFFFFFF SWAP1 SWAP2 AND SWAP1 SELFBALANCE DUP1 ISZERO PUSH2 0x8FC MUL SWAP2 PUSH0 DUP2 DUP2 DUP2 DUP6 DUP9 DUP9 CALL SWAP4 POP POP POP POP ISZERO DUP1 ISZERO PUSH2 0x1523 JUMPI RETURNDATASIZE PUSH0 DUP1 RETURNDATACOPY RETURNDATASIZE PUSH0 REVERT JUMPDEST PUSH1 0x1 SLOAD PUSH20 0xFFFFFFFFFFFFFFFFFFFFFFFFFFFFFFFFFFFFFFFF AND CALLER EQ PUSH2 0x23B7 JUMPI PUSH1 0x40 MLOAD PUSH32 0x8C379A000000000000000000000000000000000000000000000000000000000 DUP2 MSTORE PUSH1 0x20 PUSH1 0x4 DUP3 ADD MSTORE PUSH1 0xA PUSH1 0x24 DUP3 ADD MSTORE PUSH32 0x4F6E6C79206F776E657200000000000000000000000000000000000000000000 PUSH1 0x44 DUP3 ADD MSTORE PUSH1 0x64 ADD PUSH2 0x1297 JUMP JUMPDEST PUSH20 0xFFFFFFFFFFFFFFFFFFFFFFFFFFFFFFFFFFFFFFFF DUP2 AND PUSH2 0x2434 JUMPI PUSH1 0x40 MLOAD PUSH32 0x8C379A000000000000000000000000000000000000000000000000000000000 DUP2 MSTORE PUSH1 0x20 PUSH1 0x4 DUP3 ADD MSTORE PUSH1 0xC PUSH1 0x24 DUP3 ADD MSTORE PUSH32 0x43616E74206265207A65726F0000000000000000000000000000000000000000 PUSH1 0x44 DUP3 ADD MSTORE PUSH1 0x64 ADD PUSH2 0x1297 JUMP JUMPDEST PUSH1 0x1 DUP1 SLOAD PUSH32 0xFFFFFFFFFFFFFFFFFFFFFFFF0000000000000000000000000000000000000000 AND PUSH20 0xFFFFFFFFFFFFFFFFFFFFFFFFFFFFFFFFFFFFFFFF SWAP3 SWAP1 SWAP3 AND SWAP2 SWAP1 SWAP2 OR SWAP1 SSTORE JUMP JUMPDEST PUSH1 0x1 SLOAD PUSH20 0xFFFFFFFFFFFFFFFFFFFFFFFFFFFFFFFFFFFFFFFF AND CALLER EQ PUSH2 0x24FC JUMPI PUSH1 0x40 MLOAD PUSH32 0x8C379A000000000000000000000000000000000000000000000000000000000 DUP2 MSTORE PUSH1 0x20 PUSH1 0x4 DUP3 ADD MSTORE PUSH1 0xA PUSH1 0x24 DUP3 ADD MSTORE PUSH32 0x4F6E6C79206F776E657200000000000000000000000000000000000000000000 PUSH1 0x44 DUP3 ADD MSTORE PUSH1 0x64 ADD PUSH2 0x1297 JUMP JUMPDEST PUSH1 0x5 SSTORE JUMP JUMPDEST PUSH1 0x1 SLOAD PUSH20 0xFFFFFFFFFFFFFFFFFFFFFFFFFFFFFFFFFFFFFFFF AND CALLER EQ PUSH2 0x2582 JUMPI PUSH1 0x40 MLOAD PUSH32 0x8C379A000000000000000000000000000000000000000000000000000000000 DUP2 MSTORE PUSH1 0x20 PUSH1 0x4 DUP3 ADD MSTORE PUSH1 0xA PUSH1 0x24 DUP3 ADD MSTORE PUSH32 0x4F6E6C79206F776E657200000000000000000000000000000000000000000000 PUSH1 0x44 DUP3 ADD MSTORE PUSH1 0x64 ADD PUSH2 0x1297 JUMP JUMPDEST PUSH1 0x2 SLOAD PUSH20 0xFFFFFFFFFFFFFFFFFFFFFFFFFFFFFFFFFFFFFFFF DUP3 DUP2 AND SWAP2 AND EQ DUP1 ISZERO SWAP1 PUSH2 0x25D2 JUMPI POP PUSH20 0xFFFFFFFFFFFFFFFFFFFFFFFFFFFFFFFFFFFFFFFF DUP2 AND PUSH0 SWAP1 DUP2 MSTORE PUSH1 0xA PUSH1 0x20 MSTORE PUSH1 0x40 SWAP1 KECCAK256 SLOAD PUSH1 0xFF AND ISZERO JUMPDEST PUSH2 0x265E JUMPI PUSH1 0x40 MLOAD PUSH32 0x8C379A000000000000000000000000000000000000000000000000000000000 DUP2 MSTORE PUSH1 0x20 PUSH1 0x4 DUP3 ADD MSTORE PUSH1 0x25 PUSH1 0x24 DUP3 ADD MSTORE PUSH32 0x43616E74207265636F7665727920746172676574206F7220616C6C6F77656420 PUSH1 0x44 DUP3 ADD MSTORE PUSH32 0x746F6B656E000000000000000000000000000000000000000000000000000000 PUSH1 0x64 DUP3 ADD MSTORE PUSH1 0x84 ADD PUSH2 0x1297 JUMP JUMPDEST PUSH1 0x40 MLOAD PUSH32 0x70A0823100000000000000000000000000000000000000000000000000000000 DUP2 MSTORE ADDRESS PUSH1 0x4 DUP3 ADD MSTORE DUP2 SWAP1 PUSH0 SWAP1 PUSH20 0xFFFFFFFFFFFFFFFFFFFFFFFFFFFFFFFFFFFFFFFF DUP4 AND SWAP1 PUSH4 0x70A08231 SWAP1 PUSH1 0x24 ADD PUSH1 0x20 PUSH1 0x40 MLOAD DUP1 DUP4 SUB DUP2 DUP7 GAS STATICCALL ISZERO DUP1 ISZERO PUSH2 0x26CA JUMPI RETURNDATASIZE PUSH0 DUP1 RETURNDATACOPY RETURNDATASIZE PUSH0 REVERT JUMPDEST POP POP POP POP PUSH1 0x40 MLOAD RETURNDATASIZE PUSH1 0x1F NOT PUSH1 0x1F DUP3 ADD AND DUP3 ADD DUP1 PUSH1 0x40 MSTORE POP DUP2 ADD SWAP1 PUSH2 0x26EE SWAP2 SWAP1 PUSH2 0x3244 JUMP JUMPDEST GT ISZERO PUSH2 0x2822 JUMPI PUSH1 0x1 SLOAD PUSH1 0x40 MLOAD PUSH32 0x70A0823100000000000000000000000000000000000000000000000000000000 DUP2 MSTORE ADDRESS PUSH1 0x4 DUP3 ADD MSTORE PUSH20 0xFFFFFFFFFFFFFFFFFFFFFFFFFFFFFFFFFFFFFFFF DUP4 DUP2 AND SWAP3 PUSH4 0xA9059CBB SWAP3 SWAP2 AND SWAP1 DUP4 SWAP1 PUSH4 0x70A08231 SWAP1 PUSH1 0x24 ADD PUSH1 0x20 PUSH1 0x40 MLOAD DUP1 DUP4 SUB DUP2 DUP7 GAS STATICCALL ISZERO DUP1 ISZERO PUSH2 0x276B JUMPI RETURNDATASIZE PUSH0 DUP1 RETURNDATACOPY RETURNDATASIZE PUSH0 REVERT JUMPDEST POP POP POP POP PUSH1 0x40 MLOAD RETURNDATASIZE PUSH1 0x1F NOT PUSH1 0x1F DUP3 ADD AND DUP3 ADD DUP1 PUSH1 0x40 MSTORE POP DUP2 ADD SWAP1 PUSH2 0x278F SWAP2 SWAP1 PUSH2 0x3244 JUMP JUMPDEST PUSH1 0x40 MLOAD PUSH32 0xFFFFFFFF00000000000000000000000000000000000000000000000000000000 PUSH1 0xE0 DUP6 SWAP1 SHL AND DUP2 MSTORE PUSH20 0xFFFFFFFFFFFFFFFFFFFFFFFFFFFFFFFFFFFFFFFF SWAP1 SWAP3 AND PUSH1 0x4 DUP4 ADD MSTORE PUSH1 0x24 DUP3 ADD MSTORE PUSH1 0x44 ADD PUSH1 0x20 PUSH1 0x40 MLOAD DUP1 DUP4 SUB DUP2 PUSH0 DUP8 GAS CALL ISZERO DUP1 ISZERO PUSH2 0x27FC JUMPI RETURNDATASIZE PUSH0 DUP1 RETURNDATACOPY RETURNDATASIZE PUSH0 REVERT JUMPDEST POP POP POP POP PUSH1 0x40 MLOAD RETURNDATASIZE PUSH1 0x1F NOT PUSH1 0x1F DUP3 ADD AND DUP3 ADD DUP1 PUSH1 0x40 MSTORE POP DUP2 ADD SWAP1 PUSH2 0x2820 SWAP2 SWAP1 PUSH2 0x325B JUMP JUMPDEST POP JUMPDEST POP POP JUMP JUMPDEST PUSH1 0x2 PUSH0 SLOAD SUB PUSH2 0x2891 JUMPI PUSH1 0x40 MLOAD PUSH32 0x8C379A000000000000000000000000000000000000000000000000000000000 DUP2 MSTORE PUSH1 0x20 PUSH1 0x4 DUP3 ADD MSTORE PUSH1 0x1F PUSH1 0x24 DUP3 ADD MSTORE PUSH32 0x5265656E7472616E637947756172643A207265656E7472616E742063616C6C00 PUSH1 0x44 DUP3 ADD MSTORE PUSH1 0x64 ADD PUSH2 0x1297 JUMP JUMPDEST PUSH1 0x2 PUSH0 SSTORE JUMP JUMPDEST PUSH0 DUP1 DUP3 GT PUSH2 0x2901 JUMPI PUSH1 0x40 MLOAD PUSH32 0x8C379A000000000000000000000000000000000000000000000000000000000 DUP2 MSTORE PUSH1 0x20 PUSH1 0x4 DUP3 ADD MSTORE PUSH1 0xE PUSH1 0x24 DUP3 ADD MSTORE PUSH32 0x4E6F2045544820746F2073776170000000000000000000000000000000000000 PUSH1 0x44 DUP3 ADD MSTORE PUSH1 0x64 ADD PUSH2 0x1297 JUMP JUMPDEST PUSH1 0x2 SLOAD PUSH1 0x40 MLOAD PUSH32 0x70A0823100000000000000000000000000000000000000000000000000000000 DUP2 MSTORE ADDRESS PUSH1 0x4 DUP3 ADD MSTORE PUSH0 SWAP2 PUSH20 0xFFFFFFFFFFFFFFFFFFFFFFFFFFFFFFFFFFFFFFFF AND SWAP1 PUSH4 0x70A08231 SWAP1 PUSH1 0x24 ADD PUSH1 0x20 PUSH1 0x40 MLOAD DUP1 DUP4 SUB DUP2 DUP7 GAS STATICCALL ISZERO DUP1 ISZERO PUSH2 0x296D JUMPI RETURNDATASIZE PUSH0 DUP1 RETURNDATACOPY RETURNDATASIZE PUSH0 REVERT JUMPDEST POP POP POP POP PUSH1 0x40 MLOAD RETURNDATASIZE PUSH1 0x1F NOT PUSH1 0x1F DUP3 ADD AND DUP3 ADD DUP1 PUSH1 0x40 MSTORE POP DUP2 ADD SWAP1 PUSH2 0x2991 SWAP2 SWAP1 PUSH2 0x3244 JUMP JUMPDEST SWAP1 POP PUSH0 PUSH1 0x4 SLOAD PUSH24 0x10000000000000000000000000000000000000000000000 SWAP1 DIV PUSH1 0xFF AND PUSH1 0x1 DUP2 GT ISZERO PUSH2 0x29C6 JUMPI PUSH2 0x29C6 PUSH2 0x2FC3 JUMP JUMPDEST SUB PUSH2 0x2B1D JUMPI PUSH1 0x40 DUP1 MLOAD PUSH1 0x2 DUP1 DUP3 MSTORE PUSH1 0x60 DUP3 ADD DUP4 MSTORE PUSH0 SWAP3 PUSH1 0x20 DUP4 ADD SWAP1 DUP1 CALLDATASIZE DUP4 CALLDATACOPY POP POP PUSH1 0x7 SLOAD SWAP2 SWAP3 POP POP PUSH20 0xFFFFFFFFFFFFFFFFFFFFFFFFFFFFFFFFFFFFFFFF AND DUP2 PUSH0 DUP2 MLOAD DUP2 LT PUSH2 0x2A16 JUMPI PUSH2 0x2A16 PUSH2 0x33FA JUMP JUMPDEST PUSH20 0xFFFFFFFFFFFFFFFFFFFFFFFFFFFFFFFFFFFFFFFF SWAP3 DUP4 AND PUSH1 0x20 SWAP2 DUP3 MUL SWAP3 SWAP1 SWAP3 ADD ADD MSTORE PUSH1 0x2 SLOAD DUP3 MLOAD SWAP2 AND SWAP1 DUP3 SWAP1 PUSH1 0x1 SWAP1 DUP2 LT PUSH2 0x2A54 JUMPI PUSH2 0x2A54 PUSH2 0x33FA JUMP JUMPDEST PUSH20 0xFFFFFFFFFFFFFFFFFFFFFFFFFFFFFFFFFFFFFFFF SWAP3 DUP4 AND PUSH1 0x20 SWAP2 DUP3 MUL SWAP3 SWAP1 SWAP3 ADD ADD MSTORE PUSH1 0x3 SLOAD PUSH1 0x5 SLOAD SWAP2 AND SWAP1 PUSH4 0x7FF36AB5 SWAP1 DUP7 SWAP1 DUP5 ADDRESS PUSH2 0x2A96 TIMESTAMP PUSH2 0x12C PUSH2 0x2DB7 JUMP JUMPDEST PUSH1 0x40 MLOAD DUP7 PUSH4 0xFFFFFFFF AND PUSH1 0xE0 SHL DUP2 MSTORE PUSH1 0x4 ADD PUSH2 0x2AB5 SWAP5 SWAP4 SWAP3 SWAP2 SWAP1 PUSH2 0x3587 JUMP JUMPDEST PUSH0 PUSH1 0x40 MLOAD DUP1 DUP4 SUB DUP2 DUP6 DUP9 GAS CALL ISZERO DUP1 ISZERO PUSH2 0x2AD0 JUMPI RETURNDATASIZE PUSH0 DUP1 RETURNDATACOPY RETURNDATASIZE PUSH0 REVERT JUMPDEST POP POP POP POP POP PUSH1 0x40 MLOAD RETURNDATASIZE PUSH0 DUP3 RETURNDATACOPY PUSH1 0x1F RETURNDATASIZE SWAP1 DUP2 ADD PUSH32 0xFFFFFFFFFFFFFFFFFFFFFFFFFFFFFFFFFFFFFFFFFFFFFFFFFFFFFFFFFFFFFFE0 AND DUP3 ADD PUSH1 0x40 MSTORE PUSH2 0x2B16 SWAP2 SWAP1 DUP2 ADD SWAP1 PUSH2 0x34CB JUMP JUMPDEST POP POP PUSH2 0x2CCC JUMP JUMPDEST PUSH1 0x4 SLOAD PUSH1 0x40 DUP1 MLOAD PUSH2 0x100 DUP2 ADD SWAP1 SWAP2 MSTORE PUSH20 0xFFFFFFFFFFFFFFFFFFFFFFFFFFFFFFFFFFFFFFFF SWAP1 SWAP2 AND SWAP1 PUSH4 0x414BF389 SWAP1 DUP6 SWAP1 DUP1 PUSH2 0x2B6D PUSH1 0x7 SLOAD PUSH20 0xFFFFFFFFFFFFFFFFFFFFFFFFFFFFFFFFFFFFFFFF AND SWAP1 JUMP JUMPDEST PUSH20 0xFFFFFFFFFFFFFFFFFFFFFFFFFFFFFFFFFFFFFFFF SWAP1 DUP2 AND DUP3 MSTORE PUSH1 0x2 SLOAD AND PUSH1 0x20 DUP3 ADD MSTORE PUSH1 0x4 SLOAD PUSH21 0x10000000000000000000000000000000000000000 SWAP1 DIV PUSH3 0xFFFFFF AND PUSH1 0x40 DUP3 ADD MSTORE ADDRESS PUSH1 0x60 DUP3 ADD MSTORE PUSH1 0x80 ADD PUSH2 0x2BCA TIMESTAMP PUSH2 0x12C PUSH2 0x2DB7 JUMP JUMPDEST DUP2 MSTORE PUSH1 0x20 ADD DUP8 DUP2 MSTORE PUSH1 0x20 ADD PUSH1 0x5 SLOAD DUP2 MSTORE PUSH1 0x20 ADD PUSH0 PUSH20 0xFFFFFFFFFFFFFFFFFFFFFFFFFFFFFFFFFFFFFFFF AND DUP2 MSTORE POP PUSH1 0x40 MLOAD DUP4 PUSH4 0xFFFFFFFF AND PUSH1 0xE0 SHL DUP2 MSTORE PUSH1 0x4 ADD PUSH2 0x2C89 SWAP2 SWAP1 PUSH0 PUSH2 0x100 DUP3 ADD SWAP1 POP PUSH20 0xFFFFFFFFFFFFFFFFFFFFFFFFFFFFFFFFFFFFFFFF DUP1 DUP5 MLOAD AND DUP4 MSTORE DUP1 PUSH1 0x20 DUP6 ADD MLOAD AND PUSH1 0x20 DUP5 ADD MSTORE PUSH3 0xFFFFFF PUSH1 0x40 DUP6 ADD MLOAD AND PUSH1 0x40 DUP5 ADD MSTORE DUP1 PUSH1 0x60 DUP6 ADD MLOAD AND PUSH1 0x60 DUP5 ADD MSTORE PUSH1 0x80 DUP5 ADD MLOAD PUSH1 0x80 DUP5 ADD MSTORE PUSH1 0xA0 DUP5 ADD MLOAD PUSH1 0xA0 DUP5 ADD MSTORE PUSH1 0xC0 DUP5 ADD MLOAD PUSH1 0xC0 DUP5 ADD MSTORE DUP1 PUSH1 0xE0 DUP6 ADD MLOAD AND PUSH1 0xE0 DUP5 ADD MSTORE POP SWAP3 SWAP2 POP POP JUMP JUMPDEST PUSH1 0x20 PUSH1 0x40 MLOAD DUP1 DUP4 SUB DUP2 DUP6 DUP9 GAS CALL ISZERO DUP1 ISZERO PUSH2 0x2CA5 JUMPI RETURNDATASIZE PUSH0 DUP1 RETURNDATACOPY RETURNDATASIZE PUSH0 REVERT JUMPDEST POP POP POP POP POP PUSH1 0x40 MLOAD RETURNDATASIZE PUSH1 0x1F NOT PUSH1 0x1F DUP3 ADD AND DUP3 ADD DUP1 PUSH1 0x40 MSTORE POP DUP2 ADD SWAP1 PUSH2 0x2CCA SWAP2 SWAP1 PUSH2 0x3244 JUMP JUMPDEST POP JUMPDEST PUSH1 0x2 SLOAD PUSH1 0x40 MLOAD PUSH32 0x70A0823100000000000000000000000000000000000000000000000000000000 DUP2 MSTORE ADDRESS PUSH1 0x4 DUP3 ADD MSTORE PUSH0 SWAP2 DUP4 SWAP2 PUSH20 0xFFFFFFFFFFFFFFFFFFFFFFFFFFFFFFFFFFFFFFFF SWAP1 SWAP2 AND SWAP1 PUSH4 0x70A08231 SWAP1 PUSH1 0x24 ADD PUSH1 0x20 PUSH1 0x40 MLOAD DUP1 DUP4 SUB DUP2 DUP7 GAS STATICCALL ISZERO DUP1 ISZERO PUSH2 0x2D3C JUMPI RETURNDATASIZE PUSH0 DUP1 RETURNDATACOPY RETURNDATASIZE PUSH0 REVERT JUMPDEST POP POP POP POP PUSH1 0x40 MLOAD RETURNDATASIZE PUSH1 0x1F NOT PUSH1 0x1F DUP3 ADD AND DUP3 ADD DUP1 PUSH1 0x40 MSTORE POP DUP2 ADD SWAP1 PUSH2 0x2D60 SWAP2 SWAP1 PUSH2 0x3244 JUMP JUMPDEST PUSH2 0x2D6A SWAP2 SWAP1 PUSH2 0x35C8 JUMP JUMPDEST SWAP1 POP DUP1 PUSH1 0xE PUSH0 DUP3 DUP3 SLOAD PUSH2 0x2D7D SWAP2 SWAP1 PUSH2 0x2DB7 JUMP JUMPDEST SWAP1 SWAP2 SSTORE POP SWAP1 SWAP5 SWAP4 POP POP POP POP JUMP JUMPDEST PUSH32 0x4E487B7100000000000000000000000000000000000000000000000000000000 PUSH0 MSTORE PUSH1 0x11 PUSH1 0x4 MSTORE PUSH1 0x24 PUSH0 REVERT JUMPDEST DUP1 DUP3 ADD DUP1 DUP3 GT ISZERO PUSH2 0x1214 JUMPI PUSH2 0x1214 PUSH2 0x2D8A JUMP JUMPDEST PUSH0 JUMPDEST DUP4 DUP2 LT ISZERO PUSH2 0x2DE4 JUMPI DUP2 DUP2 ADD MLOAD DUP4 DUP3 ADD MSTORE PUSH1 0x20 ADD PUSH2 0x2DCC JUMP JUMPDEST POP POP PUSH0 SWAP2 ADD MSTORE JUMP JUMPDEST PUSH0 DUP2 MLOAD DUP1 DUP5 MSTORE PUSH2 0x2E03 DUP2 PUSH1 0x20 DUP7 ADD PUSH1 0x20 DUP7 ADD PUSH2 0x2DCA JUMP JUMPDEST PUSH1 0x1F ADD PUSH32 0xFFFFFFFFFFFFFFFFFFFFFFFFFFFFFFFFFFFFFFFFFFFFFFFFFFFFFFFFFFFFFFE0 AND SWAP3 SWAP1 SWAP3 ADD PUSH1 0x20 ADD SWAP3 SWAP2 POP POP JUMP JUMPDEST PUSH0 PUSH1 0x20 DUP1 DUP4 ADD DUP2 DUP5 MSTORE DUP1 DUP6 MLOAD DUP1 DUP4 MSTORE PUSH1 0x40 SWAP3 POP PUSH1 0x40 DUP7 ADD SWAP2 POP PUSH1 0x40 DUP2 PUSH1 0x5 SHL DUP8 ADD ADD DUP5 DUP9 ADD PUSH0 JUMPDEST DUP4 DUP2 LT ISZERO PUSH2 0x2F0E JUMPI PUSH32 0xFFFFFFFFFFFFFFFFFFFFFFFFFFFFFFFFFFFFFFFFFFFFFFFFFFFFFFFFFFFFFFC0 DUP10 DUP5 SUB ADD DUP6 MSTORE DUP2 MLOAD PUSH1 0xC0 DUP2 MLOAD DUP6 MSTORE PUSH20 0xFFFFFFFFFFFFFFFFFFFFFFFFFFFFFFFFFFFFFFFF DUP10 DUP4 ADD MLOAD AND DUP10 DUP7 ADD MSTORE DUP8 DUP3 ADD MLOAD DUP2 DUP10 DUP8 ADD MSTORE PUSH2 0x2EC6 DUP3 DUP8 ADD DUP3 PUSH2 0x2DEC JUMP JUMPDEST SWAP2 POP POP PUSH1 0x60 DUP1 DUP4 ADD MLOAD DUP7 DUP4 SUB DUP3 DUP9 ADD MSTORE PUSH2 0x2EE0 DUP4 DUP3 PUSH2 0x2DEC JUMP JUMPDEST PUSH1 0x80 DUP6 DUP2 ADD MLOAD PUSH1 0xFF AND SWAP1 DUP10 ADD MSTORE PUSH1 0xA0 SWAP5 DUP6 ADD MLOAD SWAP5 SWAP1 SWAP8 ADD SWAP4 SWAP1 SWAP4 MSTORE POP POP POP SWAP4 DUP7 ADD SWAP4 SWAP1 DUP7 ADD SWAP1 PUSH1 0x1 ADD PUSH2 0x2E5C JUMP JUMPDEST POP SWAP1 SWAP9 SWAP8 POP POP POP POP POP POP POP POP JUMP JUMPDEST PUSH0 PUSH1 0x20 DUP3 DUP5 SUB SLT ISZERO PUSH2 0x2F2C JUMPI PUSH0 DUP1 REVERT JUMPDEST POP CALLDATALOAD SWAP2 SWAP1 POP JUMP JUMPDEST DUP1 CALLDATALOAD PUSH20 0xFFFFFFFFFFFFFFFFFFFFFFFFFFFFFFFFFFFFFFFF DUP2 AND DUP2 EQ PUSH2 0x2F56 JUMPI PUSH0 DUP1 REVERT JUMPDEST SWAP2 SWAP1 POP JUMP JUMPDEST PUSH0 PUSH1 0x20 DUP3 DUP5 SUB SLT ISZERO PUSH2 0x2F6B JUMPI PUSH0 DUP1 REVERT JUMPDEST PUSH2 0x2F74 DUP3 PUSH2 0x2F33 JUMP JUMPDEST SWAP4 SWAP3 POP POP POP JUMP JUMPDEST PUSH0 DUP1 PUSH0 DUP1 PUSH1 0x80 DUP6 DUP8 SUB SLT ISZERO PUSH2 0x2F8E JUMPI PUSH0 DUP1 REVERT JUMPDEST PUSH2 0x2F97 DUP6 PUSH2 0x2F33 JUMP JUMPDEST SWAP4 POP PUSH2 0x2FA5 PUSH1 0x20 DUP7 ADD PUSH2 0x2F33 JUMP JUMPDEST SWAP3 POP PUSH2 0x2FB3 PUSH1 0x40 DUP7 ADD PUSH2 0x2F33 JUMP JUMPDEST SWAP4 SWAP7 SWAP3 SWAP6 POP SWAP3 SWAP4 PUSH1 0x60 ADD CALLDATALOAD SWAP3 POP POP JUMP JUMPDEST PUSH32 0x4E487B7100000000000000000000000000000000000000000000000000000000 PUSH0 MSTORE PUSH1 0x21 PUSH1 0x4 MSTORE PUSH1 0x24 PUSH0 REVERT JUMPDEST PUSH1 0x2 DUP2 LT PUSH2 0x3025 JUMPI PUSH32 0x4E487B7100000000000000000000000000000000000000000000000000000000 PUSH0 MSTORE PUSH1 0x21 PUSH1 0x4 MSTORE PUSH1 0x24 PUSH0 REVERT JUMPDEST SWAP1 MSTORE JUMP JUMPDEST DUP2 MLOAD ISZERO ISZERO DUP2 MSTORE PUSH2 0x1A0 DUP2 ADD PUSH1 0x20 DUP4 ADD MLOAD PUSH2 0x305B PUSH1 0x20 DUP5 ADD DUP3 PUSH20 0xFFFFFFFFFFFFFFFFFFFFFFFFFFFFFFFFFFFFFFFF AND SWAP1 MSTORE JUMP JUMPDEST POP PUSH1 0x40 DUP4 ADD MLOAD PUSH2 0x3083 PUSH1 0x40 DUP5 ADD DUP3 PUSH20 0xFFFFFFFFFFFFFFFFFFFFFFFFFFFFFFFFFFFFFFFF AND SWAP1 MSTORE JUMP JUMPDEST POP PUSH1 0x60 DUP4 ADD MLOAD PUSH2 0x30AB PUSH1 0x60 DUP5 ADD DUP3 PUSH20 0xFFFFFFFFFFFFFFFFFFFFFFFFFFFFFFFFFFFFFFFF AND SWAP1 MSTORE JUMP JUMPDEST POP PUSH1 0x80 DUP4 ADD MLOAD PUSH2 0x30D3 PUSH1 0x80 DUP5 ADD DUP3 PUSH20 0xFFFFFFFFFFFFFFFFFFFFFFFFFFFFFFFFFFFFFFFF AND SWAP1 MSTORE JUMP JUMPDEST POP PUSH1 0xA0 DUP4 ADD MLOAD PUSH2 0x30EA PUSH1 0xA0 DUP5 ADD DUP3 PUSH3 0xFFFFFF AND SWAP1 MSTORE JUMP JUMPDEST POP PUSH1 0xC0 DUP4 ADD MLOAD PUSH2 0x30FD PUSH1 0xC0 DUP5 ADD DUP3 PUSH2 0x2FF0 JUMP JUMPDEST POP PUSH1 0xE0 DUP4 ADD MLOAD PUSH1 0xE0 DUP4 ADD MSTORE PUSH2 0x100 DUP1 DUP5 ADD MLOAD PUSH2 0x3130 DUP3 DUP6 ADD DUP3 PUSH20 0xFFFFFFFFFFFFFFFFFFFFFFFFFFFFFFFFFFFFFFFF AND SWAP1 MSTORE JUMP JUMPDEST POP POP PUSH2 0x120 DUP4 DUP2 ADD MLOAD PUSH20 0xFFFFFFFFFFFFFFFFFFFFFFFFFFFFFFFFFFFFFFFF AND SWAP1 DUP4 ADD MSTORE PUSH2 0x140 DUP1 DUP5 ADD MLOAD SWAP1 DUP4 ADD MSTORE PUSH2 0x160 DUP1 DUP5 ADD MLOAD SWAP1 DUP4 ADD MSTORE PUSH2 0x180 SWAP3 DUP4 ADD MLOAD SWAP3 SWAP1 SWAP2 ADD SWAP2 SWAP1 SWAP2 MSTORE SWAP1 JUMP JUMPDEST PUSH1 0x20 DUP2 ADD PUSH2 0x1214 DUP3 DUP5 PUSH2 0x2FF0 JUMP JUMPDEST PUSH0 PUSH1 0x20 DUP3 DUP5 SUB SLT ISZERO PUSH2 0x3199 JUMPI PUSH0 DUP1 REVERT JUMPDEST DUP2 CALLDATALOAD PUSH1 0x2 DUP2 LT PUSH2 0x2F74 JUMPI PUSH0 DUP1 REVERT JUMPDEST PUSH0 DUP1 PUSH0 DUP1 PUSH1 0x80 DUP6 DUP8 SUB SLT ISZERO PUSH2 0x31BA JUMPI PUSH0 DUP1 REVERT JUMPDEST DUP5 CALLDATALOAD SWAP4 POP PUSH2 0x31CA PUSH1 0x20 DUP7 ADD PUSH2 0x2F33 JUMP JUMPDEST SWAP3 POP PUSH2 0x31D8 PUSH1 0x40 DUP7 ADD PUSH2 0x2F33 JUMP JUMPDEST SWAP2 POP PUSH2 0x31E6 PUSH1 0x60 DUP7 ADD PUSH2 0x2F33 JUMP JUMPDEST SWAP1 POP SWAP3 SWAP6 SWAP2 SWAP5 POP SWAP3 POP JUMP JUMPDEST PUSH0 DUP1 PUSH0 DUP1 PUSH0 PUSH1 0xA0 DUP7 DUP9 SUB SLT ISZERO PUSH2 0x3205 JUMPI PUSH0 DUP1 REVERT JUMPDEST DUP6 CALLDATALOAD SWAP5 POP PUSH2 0x3215 PUSH1 0x20 DUP8 ADD PUSH2 0x2F33 JUMP JUMPDEST SWAP4 POP PUSH2 0x3223 PUSH1 0x40 DUP8 ADD PUSH2 0x2F33 JUMP JUMPDEST SWAP3 POP PUSH1 0x60 DUP7 ADD CALLDATALOAD SWAP2 POP PUSH2 0x3238 PUSH1 0x80 DUP8 ADD PUSH2 0x2F33 JUMP JUMPDEST SWAP1 POP SWAP3 SWAP6 POP SWAP3 SWAP6 SWAP1 SWAP4 POP JUMP JUMPDEST PUSH0 PUSH1 0x20 DUP3 DUP5 SUB SLT ISZERO PUSH2 0x3254 JUMPI PUSH0 DUP1 REVERT JUMPDEST POP MLOAD SWAP2 SWAP1 POP JUMP JUMPDEST PUSH0 PUSH1 0x20 DUP3 DUP5 SUB SLT ISZERO PUSH2 0x326B JUMPI PUSH0 DUP1 REVERT JUMPDEST DUP2 MLOAD DUP1 ISZERO ISZERO DUP2 EQ PUSH2 0x2F74 JUMPI PUSH0 DUP1 REVERT JUMPDEST PUSH0 PUSH32 0xFFFFFFFFFFFFFFFFFFFFFFFFFFFFFFFFFFFFFFFFFFFFFFFFFFFFFFFFFFFFFFFF DUP3 SUB PUSH2 0x32AA JUMPI PUSH2 0x32AA PUSH2 0x2D8A JUMP JUMPDEST POP PUSH1 0x1 ADD SWAP1 JUMP JUMPDEST PUSH32 0x4E487B7100000000000000000000000000000000000000000000000000000000 PUSH0 MSTORE PUSH1 0x41 PUSH1 0x4 MSTORE PUSH1 0x24 PUSH0 REVERT JUMPDEST PUSH1 0x40 MLOAD PUSH1 0x1F DUP3 ADD PUSH32 0xFFFFFFFFFFFFFFFFFFFFFFFFFFFFFFFFFFFFFFFFFFFFFFFFFFFFFFFFFFFFFFE0 AND DUP2 ADD PUSH8 0xFFFFFFFFFFFFFFFF DUP2 GT DUP3 DUP3 LT OR ISZERO PUSH2 0x3325 JUMPI PUSH2 0x3325 PUSH2 0x32B1 JUMP JUMPDEST PUSH1 0x40 MSTORE SWAP2 SWAP1 POP JUMP JUMPDEST PUSH0 PUSH1 0x20 DUP3 DUP5 SUB SLT ISZERO PUSH2 0x333D JUMPI PUSH0 DUP1 REVERT JUMPDEST DUP2 MLOAD PUSH8 0xFFFFFFFFFFFFFFFF DUP1 DUP3 GT ISZERO PUSH2 0x3354 JUMPI PUSH0 DUP1 REVERT JUMPDEST DUP2 DUP5 ADD SWAP2 POP DUP5 PUSH1 0x1F DUP4 ADD SLT PUSH2 0x3367 JUMPI PUSH0 DUP1 REVERT JUMPDEST DUP2 MLOAD DUP2 DUP2 GT ISZERO PUSH2 0x3379 JUMPI PUSH2 0x3379 PUSH2 0x32B1 JUMP JUMPDEST PUSH2 0x33AA PUSH1 0x20 PUSH32 0xFFFFFFFFFFFFFFFFFFFFFFFFFFFFFFFFFFFFFFFFFFFFFFFFFFFFFFFFFFFFFFE0 PUSH1 0x1F DUP5 ADD AND ADD PUSH2 0x32DE JUMP JUMPDEST SWAP2 POP DUP1 DUP3 MSTORE DUP6 PUSH1 0x20 DUP3 DUP6 ADD ADD GT ISZERO PUSH2 0x33C0 JUMPI PUSH0 DUP1 REVERT JUMPDEST PUSH2 0x33D1 DUP2 PUSH1 0x20 DUP5 ADD PUSH1 0x20 DUP7 ADD PUSH2 0x2DCA JUMP JUMPDEST POP SWAP5 SWAP4 POP POP POP POP JUMP JUMPDEST PUSH0 PUSH1 0x20 DUP3 DUP5 SUB SLT ISZERO PUSH2 0x33EA JUMPI PUSH0 DUP1 REVERT JUMPDEST DUP2 MLOAD PUSH1 0xFF DUP2 AND DUP2 EQ PUSH2 0x2F74 JUMPI PUSH0 DUP1 REVERT JUMPDEST PUSH32 0x4E487B7100000000000000000000000000000000000000000000000000000000 PUSH0 MSTORE PUSH1 0x32 PUSH1 0x4 MSTORE PUSH1 0x24 PUSH0 REVERT JUMPDEST PUSH0 DUP2 PUSH2 0x3435 JUMPI PUSH2 0x3435 PUSH2 0x2D8A JUMP JUMPDEST POP PUSH32 0xFFFFFFFFFFFFFFFFFFFFFFFFFFFFFFFFFFFFFFFFFFFFFFFFFFFFFFFFFFFFFFFF ADD SWAP1 JUMP JUMPDEST PUSH0 DUP2 MLOAD DUP1 DUP5 MSTORE PUSH1 0x20 DUP1 DUP6 ADD SWAP5 POP PUSH1 0x20 DUP5 ADD PUSH0 JUMPDEST DUP4 DUP2 LT ISZERO PUSH2 0x34A0 JUMPI DUP2 MLOAD PUSH20 0xFFFFFFFFFFFFFFFFFFFFFFFFFFFFFFFFFFFFFFFF AND DUP8 MSTORE SWAP6 DUP3 ADD SWAP6 SWAP1 DUP3 ADD SWAP1 PUSH1 0x1 ADD PUSH2 0x346E JUMP JUMPDEST POP SWAP5 SWAP6 SWAP5 POP POP POP POP POP JUMP JUMPDEST DUP3 DUP2 MSTORE PUSH1 0x40 PUSH1 0x20 DUP3 ADD MSTORE PUSH0 PUSH2 0x34C3 PUSH1 0x40 DUP4 ADD DUP5 PUSH2 0x345B JUMP JUMPDEST SWAP5 SWAP4 POP POP POP POP JUMP JUMPDEST PUSH0 PUSH1 0x20 DUP1 DUP4 DUP6 SUB SLT ISZERO PUSH2 0x34DC JUMPI PUSH0 DUP1 REVERT JUMPDEST DUP3 MLOAD PUSH8 0xFFFFFFFFFFFFFFFF DUP1 DUP3 GT ISZERO PUSH2 0x34F3 JUMPI PUSH0 DUP1 REVERT JUMPDEST DUP2 DUP6 ADD SWAP2 POP DUP6 PUSH1 0x1F DUP4 ADD SLT PUSH2 0x3506 JUMPI PUSH0 DUP1 REVERT JUMPDEST DUP2 MLOAD DUP2 DUP2 GT ISZERO PUSH2 0x3518 JUMPI PUSH2 0x3518 PUSH2 0x32B1 JUMP JUMPDEST DUP1 PUSH1 0x5 SHL SWAP2 POP PUSH2 0x3529 DUP5 DUP4 ADD PUSH2 0x32DE JUMP JUMPDEST DUP2 DUP2 MSTORE SWAP2 DUP4 ADD DUP5 ADD SWAP2 DUP5 DUP2 ADD SWAP1 DUP9 DUP5 GT ISZERO PUSH2 0x3542 JUMPI PUSH0 DUP1 REVERT JUMPDEST SWAP4 DUP6 ADD SWAP4 JUMPDEST DUP4 DUP6 LT ISZERO PUSH2 0x3560 JUMPI DUP5 MLOAD DUP3 MSTORE SWAP4 DUP6 ADD SWAP4 SWAP1 DUP6 ADD SWAP1 PUSH2 0x3547 JUMP JUMPDEST SWAP9 SWAP8 POP POP POP POP POP POP POP POP JUMP JUMPDEST PUSH0 DUP3 MLOAD PUSH2 0x357D DUP2 DUP5 PUSH1 0x20 DUP8 ADD PUSH2 0x2DCA JUMP JUMPDEST SWAP2 SWAP1 SWAP2 ADD SWAP3 SWAP2 POP POP JUMP JUMPDEST DUP5 DUP2 MSTORE PUSH1 0x80 PUSH1 0x20 DUP3 ADD MSTORE PUSH0 PUSH2 0x359F PUSH1 0x80 DUP4 ADD DUP7 PUSH2 0x345B JUMP JUMPDEST PUSH20 0xFFFFFFFFFFFFFFFFFFFFFFFFFFFFFFFFFFFFFFFF SWAP5 SWAP1 SWAP5 AND PUSH1 0x40 DUP4 ADD MSTORE POP PUSH1 0x60 ADD MSTORE SWAP3 SWAP2 POP POP JUMP JUMPDEST DUP2 DUP2 SUB DUP2 DUP2 GT ISZERO PUSH2 0x1214 JUMPI PUSH2 0x1214 PUSH2 0x2D8A JUMP INVALID LOG2 PUSH5 0x6970667358 0x22 SLT KECCAK256 0x25 JUMP PUSH27 0xC87C97589B0EAB5F89949FF39BB347B6632CFDFDFA2EA70703AEF0 EXTCODEHASH DUP9 PUSH5 0x736F6C6343 STOP ADDMOD XOR STOP CALLER "
				},
				"gasEstimates": {
					"creation": {
						"codeDepositCost": "2768200",
						"executionCost": "infinite",
						"totalCost": "infinite"
					},
					"external": {
						"QUOTER()": "2402",
						"WETH()": "2402",
						"_getWETH()": "2373",
						"_quoteV2(uint256)": "infinite",
						"_quoteV3(uint256)": "infinite",
						"addAllowedToken(address)": "103971",
						"allowedTokens(uint256)": "2561",
						"allowedTokensCount()": "2363",
						"allowedTokensExists(address)": "2607",
						"allowedTokensIds(address)": "2616",
						"delAllowedToken(address)": "110452",
						"dexVersion()": "2485",
						"getAllowedTokens()": "infinite",
						"getContractInfo()": "22598",
						"getQuoteV2(uint256,address,address,address)": "infinite",
						"getQuoteV3(uint256,address,address,uint256,address)": "infinite",
						"init(address,address,address,uint256)": "infinite",
						"inited()": "2389",
						"minAmountOut()": "2405",
						"owner()": "2380",
						"reciever()": "2378",
						"recoveryToken(address)": "infinite",
						"routerV2()": "2402",
						"routerV3()": "2379",
						"setDexVersion(uint8)": "26732",
						"setMinAmountOut(uint256)": "24538",
						"setReciever(address)": "26749",
						"setRouterV2(address)": "26748",
						"setTargetToken(address)": "26794",
						"setWETH(address)": "26747",
						"targetToken()": "2380",
						"totalEthIn()": "2340",
						"totalSwapOut()": "2362",
						"transferOwnership(address)": "26770",
						"v3PoolFee()": "2414",
						"version()": "262",
						"withdrawETH()": "infinite",
						"withdrawTokens()": "infinite"
					},
					"internal": {
						"_performSwap(uint256)": "infinite",
						"trySwapIfProfitable()": "infinite"
					}
				},
				"methodIdentifiers": {
					"QUOTER()": "8dae88c2",
					"WETH()": "ad5c4648",
					"_getWETH()": "91f59369",
					"_quoteV2(uint256)": "034f5423",
					"_quoteV3(uint256)": "3f79b667",
					"addAllowedToken(address)": "4178617f",
					"allowedTokens(uint256)": "5e5f2e26",
					"allowedTokensCount()": "20a05ff7",
					"allowedTokensExists(address)": "3024b233",
					"allowedTokensIds(address)": "54a3b27a",
					"delAllowedToken(address)": "55430892",
					"dexVersion()": "7de0dd79",
					"getAllowedTokens()": "024ece89",
					"getContractInfo()": "7cc1f867",
					"getQuoteV2(uint256,address,address,address)": "9ec7e5db",
					"getQuoteV3(uint256,address,address,uint256,address)": "d9d7438e",
					"init(address,address,address,uint256)": "46639dba",
					"inited()": "43c885ba",
					"minAmountOut()": "e5ee1d40",
					"owner()": "8da5cb5b",
					"reciever()": "f4b0b756",
					"recoveryToken(address)": "fa34a5fd",
					"routerV2()": "502f7446",
					"routerV3()": "f2b3b467",
					"setDexVersion(uint8)": "954b1fe4",
					"setMinAmountOut(uint256)": "f775cca7",
					"setReciever(address)": "a0db86f9",
					"setRouterV2(address)": "59accd05",
					"setTargetToken(address)": "1b66cb00",
					"setWETH(address)": "5b769f3c",
					"targetToken()": "327107f7",
					"totalEthIn()": "76776b9f",
					"totalSwapOut()": "4bce5afd",
					"transferOwnership(address)": "f2fde38b",
					"v3PoolFee()": "1727533f",
					"version()": "54fd4d50",
					"withdrawETH()": "e086e5ec",
					"withdrawTokens()": "8d8f2adb"
				}
			},
			"storageLayout": {
				"storage": [
					{
						"astId": 9,
						"contract": "TokenSwapper.sol:InoPay",
						"label": "_status",
						"offset": 0,
						"slot": "0",
						"type": "t_uint256"
					},
					{
						"astId": 202,
						"contract": "TokenSwapper.sol:InoPay",
						"label": "owner",
						"offset": 0,
						"slot": "1",
						"type": "t_address"
					},
					{
						"astId": 204,
						"contract": "TokenSwapper.sol:InoPay",
						"label": "targetToken",
						"offset": 0,
						"slot": "2",
						"type": "t_address"
					},
					{
						"astId": 206,
						"contract": "TokenSwapper.sol:InoPay",
						"label": "routerV2",
						"offset": 0,
						"slot": "3",
						"type": "t_address"
					},
					{
						"astId": 208,
						"contract": "TokenSwapper.sol:InoPay",
						"label": "routerV3",
						"offset": 0,
						"slot": "4",
						"type": "t_address"
					},
					{
						"astId": 210,
						"contract": "TokenSwapper.sol:InoPay",
						"label": "v3PoolFee",
						"offset": 20,
						"slot": "4",
						"type": "t_uint24"
					},
					{
						"astId": 215,
						"contract": "TokenSwapper.sol:InoPay",
						"label": "dexVersion",
						"offset": 23,
						"slot": "4",
						"type": "t_enum(DexVersion)197"
					},
					{
						"astId": 217,
						"contract": "TokenSwapper.sol:InoPay",
						"label": "minAmountOut",
						"offset": 0,
						"slot": "5",
						"type": "t_uint256"
					},
					{
						"astId": 219,
						"contract": "TokenSwapper.sol:InoPay",
						"label": "QUOTER",
						"offset": 0,
						"slot": "6",
						"type": "t_address"
					},
					{
						"astId": 221,
						"contract": "TokenSwapper.sol:InoPay",
						"label": "WETH",
						"offset": 0,
						"slot": "7",
						"type": "t_address"
					},
					{
						"astId": 224,
						"contract": "TokenSwapper.sol:InoPay",
						"label": "inited",
						"offset": 20,
						"slot": "7",
						"type": "t_bool"
					},
					{
						"astId": 226,
						"contract": "TokenSwapper.sol:InoPay",
						"label": "reciever",
						"offset": 0,
						"slot": "8",
						"type": "t_address"
					},
					{
						"astId": 230,
						"contract": "TokenSwapper.sol:InoPay",
						"label": "allowedTokens",
						"offset": 0,
						"slot": "9",
						"type": "t_mapping(t_uint256,t_address)"
					},
					{
						"astId": 234,
						"contract": "TokenSwapper.sol:InoPay",
						"label": "allowedTokensExists",
						"offset": 0,
						"slot": "10",
						"type": "t_mapping(t_address,t_bool)"
					},
					{
						"astId": 238,
						"contract": "TokenSwapper.sol:InoPay",
						"label": "allowedTokensIds",
						"offset": 0,
						"slot": "11",
						"type": "t_mapping(t_address,t_uint256)"
					},
					{
						"astId": 240,
						"contract": "TokenSwapper.sol:InoPay",
						"label": "allowedTokensCount",
						"offset": 0,
						"slot": "12",
						"type": "t_uint256"
					},
					{
						"astId": 243,
						"contract": "TokenSwapper.sol:InoPay",
						"label": "totalEthIn",
						"offset": 0,
						"slot": "13",
						"type": "t_uint256"
					},
					{
						"astId": 246,
						"contract": "TokenSwapper.sol:InoPay",
						"label": "totalSwapOut",
						"offset": 0,
						"slot": "14",
						"type": "t_uint256"
					}
				],
				"types": {
					"t_address": {
						"encoding": "inplace",
						"label": "address",
						"numberOfBytes": "20"
					},
					"t_bool": {
						"encoding": "inplace",
						"label": "bool",
						"numberOfBytes": "1"
					},
					"t_enum(DexVersion)197": {
						"encoding": "inplace",
						"label": "enum InoPay.DexVersion",
						"numberOfBytes": "1"
					},
					"t_mapping(t_address,t_bool)": {
						"encoding": "mapping",
						"key": "t_address",
						"label": "mapping(address => bool)",
						"numberOfBytes": "32",
						"value": "t_bool"
					},
					"t_mapping(t_address,t_uint256)": {
						"encoding": "mapping",
						"key": "t_address",
						"label": "mapping(address => uint256)",
						"numberOfBytes": "32",
						"value": "t_uint256"
					},
					"t_mapping(t_uint256,t_address)": {
						"encoding": "mapping",
						"key": "t_uint256",
						"label": "mapping(uint256 => address)",
						"numberOfBytes": "32",
						"value": "t_address"
					},
					"t_uint24": {
						"encoding": "inplace",
						"label": "uint24",
						"numberOfBytes": "3"
					},
					"t_uint256": {
						"encoding": "inplace",
						"label": "uint256",
						"numberOfBytes": "32"
					}
				}
			},
			"userdoc": {
				"kind": "user",
				"methods": {},
				"version": 1
			}
		}
	}
}