{
	"TokenSwapper.sol": {
		"InoPay": {
			"abi": [
				{
					"inputs": [
						{
							"internalType": "address",
							"name": "_owner",
							"type": "address"
						}
					],
					"stateMutability": "nonpayable",
					"type": "constructor"
				},
				{
					"inputs": [],
					"name": "QUOTER",
					"outputs": [
						{
							"internalType": "address",
							"name": "",
							"type": "address"
						}
					],
					"stateMutability": "view",
					"type": "function"
				},
				{
					"inputs": [],
					"name": "WETH",
					"outputs": [
						{
							"internalType": "address",
							"name": "",
							"type": "address"
						}
					],
					"stateMutability": "view",
					"type": "function"
				},
				{
					"inputs": [],
					"name": "_getWETH",
					"outputs": [
						{
							"internalType": "address",
							"name": "",
							"type": "address"
						}
					],
					"stateMutability": "view",
					"type": "function"
				},
				{
					"inputs": [
						{
							"internalType": "uint256",
							"name": "ethAmount",
							"type": "uint256"
						}
					],
					"name": "_quoteV2",
					"outputs": [
						{
							"internalType": "uint256",
							"name": "",
							"type": "uint256"
						}
					],
					"stateMutability": "view",
					"type": "function"
				},
				{
					"inputs": [
						{
							"internalType": "uint256",
							"name": "ethAmount",
							"type": "uint256"
						}
					],
					"name": "_quoteV3",
					"outputs": [
						{
							"internalType": "uint256",
							"name": "",
							"type": "uint256"
						}
					],
					"stateMutability": "view",
					"type": "function"
				},
				{
					"inputs": [
						{
							"internalType": "address",
							"name": "tokenAddress",
							"type": "address"
						}
					],
					"name": "addAllowedToken",
					"outputs": [],
					"stateMutability": "nonpayable",
					"type": "function"
				},
				{
					"inputs": [
						{
							"internalType": "uint256",
							"name": "",
							"type": "uint256"
						}
					],
					"name": "allowedTokens",
					"outputs": [
						{
							"internalType": "address",
							"name": "",
							"type": "address"
						}
					],
					"stateMutability": "view",
					"type": "function"
				},
				{
					"inputs": [],
					"name": "allowedTokensCount",
					"outputs": [
						{
							"internalType": "uint256",
							"name": "",
							"type": "uint256"
						}
					],
					"stateMutability": "view",
					"type": "function"
				},
				{
					"inputs": [
						{
							"internalType": "address",
							"name": "",
							"type": "address"
						}
					],
					"name": "allowedTokensExists",
					"outputs": [
						{
							"internalType": "bool",
							"name": "",
							"type": "bool"
						}
					],
					"stateMutability": "view",
					"type": "function"
				},
				{
					"inputs": [
						{
							"internalType": "address",
							"name": "",
							"type": "address"
						}
					],
					"name": "allowedTokensIds",
					"outputs": [
						{
							"internalType": "uint256",
							"name": "",
							"type": "uint256"
						}
					],
					"stateMutability": "view",
					"type": "function"
				},
				{
					"inputs": [
						{
							"internalType": "address",
							"name": "tokenAddress",
							"type": "address"
						}
					],
					"name": "delAllowedToken",
					"outputs": [],
					"stateMutability": "nonpayable",
					"type": "function"
				},
				{
					"inputs": [],
					"name": "dexVersion",
					"outputs": [
						{
							"internalType": "enum InoPay.DexVersion",
							"name": "",
							"type": "uint8"
						}
					],
					"stateMutability": "view",
					"type": "function"
				},
				{
					"inputs": [],
					"name": "getAllowedTokens",
					"outputs": [
						{
							"components": [
								{
									"internalType": "uint256",
									"name": "tokenId",
									"type": "uint256"
								},
								{
									"internalType": "address",
									"name": "tokenAddress",
									"type": "address"
								},
								{
									"internalType": "string",
									"name": "tokenSymbol",
									"type": "string"
								},
								{
									"internalType": "string",
									"name": "tokenName",
									"type": "string"
								},
								{
									"internalType": "uint8",
									"name": "tokenDecimals",
									"type": "uint8"
								},
								{
									"internalType": "uint256",
									"name": "balance",
									"type": "uint256"
								}
							],
							"internalType": "struct InoPay.TokenInfo[]",
							"name": "ret",
							"type": "tuple[]"
						}
					],
					"stateMutability": "view",
					"type": "function"
				},
				{
					"inputs": [],
					"name": "getContractInfo",
					"outputs": [
						{
							"components": [
								{
									"internalType": "bool",
									"name": "inited",
									"type": "bool"
								},
								{
									"internalType": "address",
									"name": "owner",
									"type": "address"
								},
								{
									"internalType": "address",
									"name": "targetToken",
									"type": "address"
								},
								{
									"internalType": "address",
									"name": "routerV2",
									"type": "address"
								},
								{
									"internalType": "address",
									"name": "routerV3",
									"type": "address"
								},
								{
									"internalType": "uint24",
									"name": "v3PoolFee",
									"type": "uint24"
								},
								{
									"internalType": "enum InoPay.DexVersion",
									"name": "dexVersion",
									"type": "uint8"
								},
								{
									"internalType": "uint256",
									"name": "minAmountOut",
									"type": "uint256"
								},
								{
									"internalType": "address",
									"name": "QUOTER",
									"type": "address"
								},
								{
									"internalType": "address",
									"name": "WETH",
									"type": "address"
								},
								{
									"internalType": "uint256",
									"name": "ethBalance",
									"type": "uint256"
								},
								{
									"internalType": "uint256",
									"name": "totalEthIn",
									"type": "uint256"
								},
								{
									"internalType": "uint256",
									"name": "totalSwapOut",
									"type": "uint256"
								}
							],
							"internalType": "struct InoPay.ContractInfo",
							"name": "",
							"type": "tuple"
						}
					],
					"stateMutability": "view",
					"type": "function"
				},
				{
					"inputs": [
						{
							"internalType": "uint256",
							"name": "_ethAmount",
							"type": "uint256"
						},
						{
							"internalType": "address",
							"name": "_weth",
							"type": "address"
						},
						{
							"internalType": "address",
							"name": "_targetToken",
							"type": "address"
						},
						{
							"internalType": "address",
							"name": "_routerV2",
							"type": "address"
						}
					],
					"name": "getQuoteV2",
					"outputs": [
						{
							"internalType": "uint256",
							"name": "",
							"type": "uint256"
						}
					],
					"stateMutability": "view",
					"type": "function"
				},
				{
					"inputs": [
						{
							"internalType": "uint256",
							"name": "_ethAmount",
							"type": "uint256"
						},
						{
							"internalType": "address",
							"name": "_weth",
							"type": "address"
						},
						{
							"internalType": "address",
							"name": "_targetToken",
							"type": "address"
						},
						{
							"internalType": "uint256",
							"name": "_v3PoolFee",
							"type": "uint256"
						},
						{
							"internalType": "address",
							"name": "_quoter",
							"type": "address"
						}
					],
					"name": "getQuoteV3",
					"outputs": [
						{
							"internalType": "uint256",
							"name": "",
							"type": "uint256"
						}
					],
					"stateMutability": "view",
					"type": "function"
				},
				{
					"inputs": [
						{
							"internalType": "address",
							"name": "_weth",
							"type": "address"
						},
						{
							"internalType": "address",
							"name": "_targetToken",
							"type": "address"
						},
						{
							"internalType": "address",
							"name": "_routerV2",
							"type": "address"
						},
						{
							"internalType": "uint256",
							"name": "_minAmountOut",
							"type": "uint256"
						}
					],
					"name": "init",
					"outputs": [],
					"stateMutability": "nonpayable",
					"type": "function"
				},
				{
					"inputs": [],
					"name": "inited",
					"outputs": [
						{
							"internalType": "bool",
							"name": "",
							"type": "bool"
						}
					],
					"stateMutability": "view",
					"type": "function"
				},
				{
					"inputs": [],
					"name": "minAmountOut",
					"outputs": [
						{
							"internalType": "uint256",
							"name": "",
							"type": "uint256"
						}
					],
					"stateMutability": "view",
					"type": "function"
				},
				{
					"inputs": [],
					"name": "owner",
					"outputs": [
						{
							"internalType": "address",
							"name": "",
							"type": "address"
						}
					],
					"stateMutability": "view",
					"type": "function"
				},
				{
					"inputs": [],
					"name": "reciever",
					"outputs": [
						{
							"internalType": "address",
							"name": "",
							"type": "address"
						}
					],
					"stateMutability": "view",
					"type": "function"
				},
				{
					"inputs": [
						{
							"internalType": "address",
							"name": "tokenAddress",
							"type": "address"
						}
					],
					"name": "recoveryToken",
					"outputs": [],
					"stateMutability": "nonpayable",
					"type": "function"
				},
				{
					"inputs": [],
					"name": "routerV2",
					"outputs": [
						{
							"internalType": "address",
							"name": "",
							"type": "address"
						}
					],
					"stateMutability": "view",
					"type": "function"
				},
				{
					"inputs": [],
					"name": "routerV3",
					"outputs": [
						{
							"internalType": "address",
							"name": "",
							"type": "address"
						}
					],
					"stateMutability": "view",
					"type": "function"
				},
				{
					"inputs": [
						{
							"internalType": "enum InoPay.DexVersion",
							"name": "_version",
							"type": "uint8"
						}
					],
					"name": "setDexVersion",
					"outputs": [],
					"stateMutability": "nonpayable",
					"type": "function"
				},
				{
					"inputs": [
						{
							"internalType": "uint256",
							"name": "_min",
							"type": "uint256"
						}
					],
					"name": "setMinAmountOut",
					"outputs": [],
					"stateMutability": "nonpayable",
					"type": "function"
				},
				{
					"inputs": [
						{
							"internalType": "address",
							"name": "newReciever",
							"type": "address"
						}
					],
					"name": "setReciever",
					"outputs": [],
					"stateMutability": "nonpayable",
					"type": "function"
				},
				{
					"inputs": [
						{
							"internalType": "address",
							"name": "newRouterV2",
							"type": "address"
						}
					],
					"name": "setRouterV2",
					"outputs": [],
					"stateMutability": "nonpayable",
					"type": "function"
				},
				{
					"inputs": [
						{
							"internalType": "address",
							"name": "newTargetToken",
							"type": "address"
						}
					],
					"name": "setTargetToken",
					"outputs": [],
					"stateMutability": "nonpayable",
					"type": "function"
				},
				{
					"inputs": [
						{
							"internalType": "address",
							"name": "newWETH",
							"type": "address"
						}
					],
					"name": "setWETH",
					"outputs": [],
					"stateMutability": "nonpayable",
					"type": "function"
				},
				{
					"inputs": [],
					"name": "targetToken",
					"outputs": [
						{
							"internalType": "address",
							"name": "",
							"type": "address"
						}
					],
					"stateMutability": "view",
					"type": "function"
				},
				{
					"inputs": [],
					"name": "totalEthIn",
					"outputs": [
						{
							"internalType": "uint256",
							"name": "",
							"type": "uint256"
						}
					],
					"stateMutability": "view",
					"type": "function"
				},
				{
					"inputs": [],
					"name": "totalSwapOut",
					"outputs": [
						{
							"internalType": "uint256",
							"name": "",
							"type": "uint256"
						}
					],
					"stateMutability": "view",
					"type": "function"
				},
				{
					"inputs": [
						{
							"internalType": "address",
							"name": "newOwner",
							"type": "address"
						}
					],
					"name": "transferOwnership",
					"outputs": [],
					"stateMutability": "nonpayable",
					"type": "function"
				},
				{
					"inputs": [],
					"name": "v3PoolFee",
					"outputs": [
						{
							"internalType": "uint24",
							"name": "",
							"type": "uint24"
						}
					],
					"stateMutability": "view",
					"type": "function"
				},
				{
					"inputs": [],
					"name": "withdrawETH",
					"outputs": [],
					"stateMutability": "nonpayable",
					"type": "function"
				},
				{
					"inputs": [],
					"name": "withdrawTokens",
					"outputs": [],
					"stateMutability": "nonpayable",
					"type": "function"
				},
				{
					"stateMutability": "payable",
					"type": "receive"
				}
			],
			"devdoc": {
				"kind": "dev",
				"methods": {},
				"version": 1
			},
			"evm": {
				"assembly": "    /* \"TokenSwapper.sol\":2636:12810  contract InoPay is ReentrancyGuard  {... */\n  mstore(0x40, 0x80)\n    /* \"TokenSwapper.sol\":2863:2907  DexVersion public dexVersion = DexVersion.V2 */\n  0x04\n  dup1\n  sload\n  not(shl(0xb8, 0xff))\n  and\n  swap1\n  sstore\n    /* \"TokenSwapper.sol\":3064:3090  bool public inited = false */\n  0x07\n  dup1\n  sload\n  not(shl(0xa0, 0xff))\n  and\n  swap1\n  sstore\n    /* \"TokenSwapper.sol\":2894:2907  DexVersion.V2 */\n  0x00\n    /* \"TokenSwapper.sol\":3350:3379  uint256 public totalEthIn = 0 */\n  0x0d\n  dup2\n  swap1\n  sstore\n    /* \"TokenSwapper.sol\":3386:3417  uint256 public totalSwapOut = 0 */\n  0x0e\n  sstore\n    /* \"TokenSwapper.sol\":3526:3615  constructor(address _owner) {... */\n  callvalue\n  dup1\n  iszero\n  tag_4\n  jumpi\n  0x00\n  dup1\n  revert\ntag_4:\n  pop\n  mload(0x40)\n  sub(codesize, bytecodeSize)\n  dup1\n  bytecodeSize\n  dup4\n  codecopy\n  dup2\n  add\n  0x40\n  dup2\n  swap1\n  mstore\n  tag_5\n  swap2\n  tag_6\n  jump\t// in\ntag_5:\n    /* \"TokenSwapper.sol\":142:143  1 */\n  0x01\n    /* \"TokenSwapper.sol\":253:260  _status */\n  0x00\n    /* \"TokenSwapper.sol\":253:275  _status = _NOT_ENTERED */\n  dup2\n  swap1\n  sstore\n    /* \"TokenSwapper.sol\":3565:3579  owner = _owner */\n  dup1\n  sload\n  sub(shl(0xa0, 0x01), 0x01)\n  swap1\n  swap3\n  and\n  not(sub(shl(0xa0, 0x01), 0x01))\n  swap3\n  dup4\n  and\n  dup2\n  or\n  swap1\n  swap2\n  sstore\n    /* \"TokenSwapper.sol\":3590:3598  reciever */\n  0x08\n    /* \"TokenSwapper.sol\":3590:3607  reciever = _owner */\n  dup1\n  sload\n  swap1\n  swap3\n  and\n  or\n  swap1\n  sstore\n    /* \"TokenSwapper.sol\":2636:12810  contract InoPay is ReentrancyGuard  {... */\n  jump(tag_12)\n    /* \"#utility.yul\":146:436   */\ntag_6:\n    /* \"#utility.yul\":216:222   */\n  0x00\n    /* \"#utility.yul\":269:271   */\n  0x20\n    /* \"#utility.yul\":257:266   */\n  dup3\n    /* \"#utility.yul\":248:255   */\n  dup5\n    /* \"#utility.yul\":244:267   */\n  sub\n    /* \"#utility.yul\":240:272   */\n  slt\n    /* \"#utility.yul\":237:289   */\n  iszero\n  tag_15\n  jumpi\n    /* \"#utility.yul\":285:286   */\n  0x00\n    /* \"#utility.yul\":282:283   */\n  dup1\n    /* \"#utility.yul\":275:287   */\n  revert\n    /* \"#utility.yul\":237:289   */\ntag_15:\n    /* \"#utility.yul\":311:327   */\n  dup2\n  mload\n  sub(shl(0xa0, 0x01), 0x01)\n    /* \"#utility.yul\":356:387   */\n  dup2\n  and\n    /* \"#utility.yul\":346:388   */\n  dup2\n  eq\n    /* \"#utility.yul\":336:406   */\n  tag_16\n  jumpi\n    /* \"#utility.yul\":402:403   */\n  0x00\n    /* \"#utility.yul\":399:400   */\n  dup1\n    /* \"#utility.yul\":392:404   */\n  revert\n    /* \"#utility.yul\":336:406   */\ntag_16:\n    /* \"#utility.yul\":425:430   */\n  swap4\n    /* \"#utility.yul\":146:436   */\n  swap3\n  pop\n  pop\n  pop\n  jump\t// out\ntag_12:\n    /* \"TokenSwapper.sol\":2636:12810  contract InoPay is ReentrancyGuard  {... */\n  dataSize(sub_0)\n  dup1\n  dataOffset(sub_0)\n  0x00\n  codecopy\n  0x00\n  return\nstop\n\nsub_0: assembly {\n        /* \"TokenSwapper.sol\":2636:12810  contract InoPay is ReentrancyGuard  {... */\n      mstore(0x40, 0x80)\n      jumpi(tag_1, lt(calldatasize, 0x04))\n      shr(0xe0, calldataload(0x00))\n      dup1\n      0x76776b9f\n      gt\n      tag_40\n      jumpi\n      dup1\n      0xa0db86f9\n      gt\n      tag_41\n      jumpi\n      dup1\n      0xf2b3b467\n      gt\n      tag_42\n      jumpi\n      dup1\n      0xf4b0b756\n      gt\n      tag_43\n      jumpi\n      dup1\n      0xf4b0b756\n      eq\n      tag_37\n      jumpi\n      dup1\n      0xf775cca7\n      eq\n      tag_38\n      jumpi\n      dup1\n      0xfa34a5fd\n      eq\n      tag_39\n      jumpi\n      0x00\n      dup1\n      revert\n    tag_43:\n      dup1\n      0xf2b3b467\n      eq\n      tag_35\n      jumpi\n      dup1\n      0xf2fde38b\n      eq\n      tag_36\n      jumpi\n      0x00\n      dup1\n      revert\n    tag_42:\n      dup1\n      0xd9d7438e\n      gt\n      tag_44\n      jumpi\n      dup1\n      0xd9d7438e\n      eq\n      tag_32\n      jumpi\n      dup1\n      0xe086e5ec\n      eq\n      tag_33\n      jumpi\n      dup1\n      0xe5ee1d40\n      eq\n      tag_34\n      jumpi\n      0x00\n      dup1\n      revert\n    tag_44:\n      dup1\n      0xa0db86f9\n      eq\n      tag_30\n      jumpi\n      dup1\n      0xad5c4648\n      eq\n      tag_31\n      jumpi\n      0x00\n      dup1\n      revert\n    tag_41:\n      dup1\n      0x8da5cb5b\n      gt\n      tag_45\n      jumpi\n      dup1\n      0x91f59369\n      gt\n      tag_46\n      jumpi\n      dup1\n      0x91f59369\n      eq\n      tag_27\n      jumpi\n      dup1\n      0x954b1fe4\n      eq\n      tag_28\n      jumpi\n      dup1\n      0x9ec7e5db\n      eq\n      tag_29\n      jumpi\n      0x00\n      dup1\n      revert\n    tag_46:\n      dup1\n      0x8da5cb5b\n      eq\n      tag_25\n      jumpi\n      dup1\n      0x8dae88c2\n      eq\n      tag_26\n      jumpi\n      0x00\n      dup1\n      revert\n    tag_45:\n      dup1\n      0x76776b9f\n      eq\n      tag_21\n      jumpi\n      dup1\n      0x7cc1f867\n      eq\n      tag_22\n      jumpi\n      dup1\n      0x7de0dd79\n      eq\n      tag_23\n      jumpi\n      dup1\n      0x8d8f2adb\n      eq\n      tag_24\n      jumpi\n      0x00\n      dup1\n      revert\n    tag_40:\n      dup1\n      0x43c885ba\n      gt\n      tag_47\n      jumpi\n      dup1\n      0x54a3b27a\n      gt\n      tag_48\n      jumpi\n      dup1\n      0x59accd05\n      gt\n      tag_49\n      jumpi\n      dup1\n      0x59accd05\n      eq\n      tag_18\n      jumpi\n      dup1\n      0x5b769f3c\n      eq\n      tag_19\n      jumpi\n      dup1\n      0x5e5f2e26\n      eq\n      tag_20\n      jumpi\n      0x00\n      dup1\n      revert\n    tag_49:\n      dup1\n      0x54a3b27a\n      eq\n      tag_16\n      jumpi\n      dup1\n      0x55430892\n      eq\n      tag_17\n      jumpi\n      0x00\n      dup1\n      revert\n    tag_48:\n      dup1\n      0x43c885ba\n      eq\n      tag_12\n      jumpi\n      dup1\n      0x46639dba\n      eq\n      tag_13\n      jumpi\n      dup1\n      0x4bce5afd\n      eq\n      tag_14\n      jumpi\n      dup1\n      0x502f7446\n      eq\n      tag_15\n      jumpi\n      0x00\n      dup1\n      revert\n    tag_47:\n      dup1\n      0x20a05ff7\n      gt\n      tag_50\n      jumpi\n      dup1\n      0x327107f7\n      gt\n      tag_51\n      jumpi\n      dup1\n      0x327107f7\n      eq\n      tag_9\n      jumpi\n      dup1\n      0x3f79b667\n      eq\n      tag_10\n      jumpi\n      dup1\n      0x4178617f\n      eq\n      tag_11\n      jumpi\n      0x00\n      dup1\n      revert\n    tag_51:\n      dup1\n      0x20a05ff7\n      eq\n      tag_7\n      jumpi\n      dup1\n      0x3024b233\n      eq\n      tag_8\n      jumpi\n      0x00\n      dup1\n      revert\n    tag_50:\n      dup1\n      0x024ece89\n      eq\n      tag_3\n      jumpi\n      dup1\n      0x034f5423\n      eq\n      tag_4\n      jumpi\n      dup1\n      0x1727533f\n      eq\n      tag_5\n      jumpi\n      dup1\n      0x1b66cb00\n      eq\n      tag_6\n      jumpi\n      0x00\n      dup1\n      revert\n    tag_1:\n      jumpi(tag_2, calldatasize)\n        /* \"TokenSwapper.sol\":4301:4307  inited */\n      sload(0x07)\n      0x010000000000000000000000000000000000000000\n      swap1\n      div\n      0xff\n      and\n        /* \"TokenSwapper.sol\":4297:4426  if (inited) {... */\n      iszero\n      tag_59\n      jumpi\n        /* \"TokenSwapper.sol\":4338:4347  msg.value */\n      callvalue\n        /* \"TokenSwapper.sol\":4324:4334  totalEthIn */\n      0x0d\n      0x00\n        /* \"TokenSwapper.sol\":4324:4347  totalEthIn += msg.value */\n      dup3\n      dup3\n      sload\n      tag_55\n      swap2\n      swap1\n      tag_56\n      jump\t// in\n    tag_55:\n      swap1\n      swap2\n      sstore\n      pop\n        /* \"TokenSwapper.sol\":4362:4383  trySwapIfProfitable() */\n      tag_57\n      swap1\n      pop\n        /* \"TokenSwapper.sol\":4362:4381  trySwapIfProfitable */\n      tag_58\n        /* \"TokenSwapper.sol\":4362:4383  trySwapIfProfitable() */\n      jump\t// in\n    tag_57:\n        /* \"TokenSwapper.sol\":4398:4414  withdrawTokens() */\n      tag_59\n        /* \"TokenSwapper.sol\":4398:4412  withdrawTokens */\n      tag_60\n        /* \"TokenSwapper.sol\":4398:4414  withdrawTokens() */\n      jump\t// in\n    tag_59:\n        /* \"TokenSwapper.sol\":2636:12810  contract InoPay is ReentrancyGuard  {... */\n      stop\n    tag_2:\n      0x00\n      dup1\n      revert\n        /* \"TokenSwapper.sol\":8244:9465  function getAllowedTokens() public view returns (TokenInfo[] memory ret) {... */\n    tag_3:\n      callvalue\n      dup1\n      iszero\n      tag_61\n      jumpi\n      0x00\n      dup1\n      revert\n    tag_61:\n      pop\n      tag_62\n      tag_63\n      jump\t// in\n    tag_62:\n      mload(0x40)\n      tag_64\n      swap2\n      swap1\n      tag_65\n      jump\t// in\n    tag_64:\n      mload(0x40)\n      dup1\n      swap2\n      sub\n      swap1\n      return\n        /* \"TokenSwapper.sol\":5430:5579  function _quoteV2(uint256 ethAmount) public view returns (uint256) {... */\n    tag_4:\n      callvalue\n      dup1\n      iszero\n      tag_66\n      jumpi\n      0x00\n      dup1\n      revert\n    tag_66:\n      pop\n      tag_67\n      tag_68\n      calldatasize\n      0x04\n      tag_69\n      jump\t// in\n    tag_68:\n      tag_70\n      jump\t// in\n    tag_67:\n      mload(0x40)\n        /* \"#utility.yul\":3026:3051   */\n      swap1\n      dup2\n      mstore\n        /* \"#utility.yul\":3014:3016   */\n      0x20\n        /* \"#utility.yul\":2999:3017   */\n      add\n        /* \"TokenSwapper.sol\":5430:5579  function _quoteV2(uint256 ethAmount) public view returns (uint256) {... */\n      tag_64\n        /* \"#utility.yul\":2880:3057   */\n      jump\n        /* \"TokenSwapper.sol\":2833:2856  uint24 public v3PoolFee */\n    tag_5:\n      callvalue\n      dup1\n      iszero\n      tag_73\n      jumpi\n      0x00\n      dup1\n      revert\n    tag_73:\n      pop\n      sload(0x04)\n      tag_74\n      swap1\n      0x010000000000000000000000000000000000000000\n      swap1\n      div\n      0xffffff\n      and\n      dup2\n      jump\n    tag_74:\n      mload(0x40)\n        /* \"#utility.yul\":3333:3341   */\n      0xffffff\n        /* \"#utility.yul\":3321:3342   */\n      swap1\n      swap2\n      and\n        /* \"#utility.yul\":3303:3343   */\n      dup2\n      mstore\n        /* \"#utility.yul\":3291:3293   */\n      0x20\n        /* \"#utility.yul\":3276:3294   */\n      add\n        /* \"TokenSwapper.sol\":2833:2856  uint24 public v3PoolFee */\n      tag_64\n        /* \"#utility.yul\":3159:3349   */\n      jump\n        /* \"TokenSwapper.sol\":10701:10879  function setTargetToken(address newTargetToken) external onlyOwner {... */\n    tag_6:\n      callvalue\n      dup1\n      iszero\n      tag_78\n      jumpi\n      0x00\n      dup1\n      revert\n    tag_78:\n      pop\n      tag_59\n      tag_80\n      calldatasize\n      0x04\n      tag_81\n      jump\t// in\n    tag_80:\n      tag_82\n      jump\t// in\n        /* \"TokenSwapper.sol\":3308:3341  uint256 public allowedTokensCount */\n    tag_7:\n      callvalue\n      dup1\n      iszero\n      tag_83\n      jumpi\n      0x00\n      dup1\n      revert\n    tag_83:\n      pop\n      tag_67\n      sload(0x0c)\n      dup2\n      jump\n        /* \"TokenSwapper.sol\":3190:3241  mapping(address => bool) public allowedTokensExists */\n    tag_8:\n      callvalue\n      dup1\n      iszero\n      tag_87\n      jumpi\n      0x00\n      dup1\n      revert\n    tag_87:\n      pop\n      tag_88\n      tag_89\n      calldatasize\n      0x04\n      tag_81\n      jump\t// in\n    tag_89:\n      mstore(0x20, 0x0a)\n      0x00\n      swap1\n      dup2\n      mstore\n      0x40\n      swap1\n      keccak256\n      sload\n      0xff\n      and\n      dup2\n      jump\n    tag_88:\n      mload(0x40)\n        /* \"#utility.yul\":4007:4021   */\n      swap1\n      iszero\n        /* \"#utility.yul\":4000:4022   */\n      iszero\n        /* \"#utility.yul\":3982:4023   */\n      dup2\n      mstore\n        /* \"#utility.yul\":3970:3972   */\n      0x20\n        /* \"#utility.yul\":3955:3973   */\n      add\n        /* \"TokenSwapper.sol\":3190:3241  mapping(address => bool) public allowedTokensExists */\n      tag_64\n        /* \"#utility.yul\":3842:4029   */\n      jump\n        /* \"TokenSwapper.sol\":2740:2766  address public targetToken */\n    tag_9:\n      callvalue\n      dup1\n      iszero\n      tag_93\n      jumpi\n      0x00\n      dup1\n      revert\n    tag_93:\n      pop\n      sload(0x02)\n      tag_94\n      swap1\n      0xffffffffffffffffffffffffffffffffffffffff\n      and\n      dup2\n      jump\n    tag_94:\n      mload(0x40)\n        /* \"#utility.yul\":4210:4252   */\n      0xffffffffffffffffffffffffffffffffffffffff\n        /* \"#utility.yul\":4198:4253   */\n      swap1\n      swap2\n      and\n        /* \"#utility.yul\":4180:4254   */\n      dup2\n      mstore\n        /* \"#utility.yul\":4168:4170   */\n      0x20\n        /* \"#utility.yul\":4153:4171   */\n      add\n        /* \"TokenSwapper.sol\":2740:2766  address public targetToken */\n      tag_64\n        /* \"#utility.yul\":4034:4260   */\n      jump\n        /* \"TokenSwapper.sol\":5960:6118  function _quoteV3(uint256 ethAmount) public view returns (uint256) {... */\n    tag_10:\n      callvalue\n      dup1\n      iszero\n      tag_98\n      jumpi\n      0x00\n      dup1\n      revert\n    tag_98:\n      pop\n      tag_67\n      tag_100\n      calldatasize\n      0x04\n      tag_69\n      jump\t// in\n    tag_100:\n      tag_101\n      jump\t// in\n        /* \"TokenSwapper.sol\":9471:9824  function addAllowedToken(address tokenAddress) public onlyOwner {... */\n    tag_11:\n      callvalue\n      dup1\n      iszero\n      tag_103\n      jumpi\n      0x00\n      dup1\n      revert\n    tag_103:\n      pop\n      tag_59\n      tag_105\n      calldatasize\n      0x04\n      tag_81\n      jump\t// in\n    tag_105:\n      tag_106\n      jump\t// in\n        /* \"TokenSwapper.sol\":3064:3090  bool public inited = false */\n    tag_12:\n      callvalue\n      dup1\n      iszero\n      tag_107\n      jumpi\n      0x00\n      dup1\n      revert\n    tag_107:\n      pop\n      sload(0x07)\n      tag_88\n      swap1\n      0x010000000000000000000000000000000000000000\n      swap1\n      div\n      0xff\n      and\n      dup2\n      jump\n        /* \"TokenSwapper.sol\":3623:4251  function init(... */\n    tag_13:\n      callvalue\n      dup1\n      iszero\n      tag_111\n      jumpi\n      0x00\n      dup1\n      revert\n    tag_111:\n      pop\n      tag_59\n      tag_113\n      calldatasize\n      0x04\n      tag_114\n      jump\t// in\n    tag_113:\n      tag_115\n      jump\t// in\n        /* \"TokenSwapper.sol\":3386:3417  uint256 public totalSwapOut = 0 */\n    tag_14:\n      callvalue\n      dup1\n      iszero\n      tag_116\n      jumpi\n      0x00\n      dup1\n      revert\n    tag_116:\n      pop\n      tag_67\n      sload(0x0e)\n      dup2\n      jump\n        /* \"TokenSwapper.sol\":2773:2796  address public routerV2 */\n    tag_15:\n      callvalue\n      dup1\n      iszero\n      tag_120\n      jumpi\n      0x00\n      dup1\n      revert\n    tag_120:\n      pop\n      sload(0x03)\n      tag_94\n      swap1\n      0xffffffffffffffffffffffffffffffffffffffff\n      and\n      dup2\n      jump\n        /* \"TokenSwapper.sol\":3248:3299  mapping(address => uint256) public allowedTokensIds */\n    tag_16:\n      callvalue\n      dup1\n      iszero\n      tag_124\n      jumpi\n      0x00\n      dup1\n      revert\n    tag_124:\n      pop\n      tag_67\n      tag_126\n      calldatasize\n      0x04\n      tag_81\n      jump\t// in\n    tag_126:\n      mstore(0x20, 0x0b)\n      0x00\n      swap1\n      dup2\n      mstore\n      0x40\n      swap1\n      keccak256\n      sload\n      dup2\n      jump\n        /* \"TokenSwapper.sol\":9830:10298  function delAllowedToken(address tokenAddress) public onlyOwner {... */\n    tag_17:\n      callvalue\n      dup1\n      iszero\n      tag_129\n      jumpi\n      0x00\n      dup1\n      revert\n    tag_129:\n      pop\n      tag_59\n      tag_131\n      calldatasize\n      0x04\n      tag_81\n      jump\t// in\n    tag_131:\n      tag_132\n      jump\t// in\n        /* \"TokenSwapper.sol\":10885:11048  function setRouterV2(address newRouterV2) external onlyOwner {... */\n    tag_18:\n      callvalue\n      dup1\n      iszero\n      tag_133\n      jumpi\n      0x00\n      dup1\n      revert\n    tag_133:\n      pop\n      tag_59\n      tag_135\n      calldatasize\n      0x04\n      tag_81\n      jump\t// in\n    tag_135:\n      tag_136\n      jump\t// in\n        /* \"TokenSwapper.sol\":10609:10695  function setWETH(address newWETH) external onlyOwner {... */\n    tag_19:\n      callvalue\n      dup1\n      iszero\n      tag_137\n      jumpi\n      0x00\n      dup1\n      revert\n    tag_137:\n      pop\n      tag_59\n      tag_139\n      calldatasize\n      0x04\n      tag_81\n      jump\t// in\n    tag_139:\n      tag_140\n      jump\t// in\n        /* \"TokenSwapper.sol\":3135:3183  mapping(uint256 => address) public allowedTokens */\n    tag_20:\n      callvalue\n      dup1\n      iszero\n      tag_141\n      jumpi\n      0x00\n      dup1\n      revert\n    tag_141:\n      pop\n      tag_94\n      tag_143\n      calldatasize\n      0x04\n      tag_69\n      jump\t// in\n    tag_143:\n      mstore(0x20, 0x09)\n      0x00\n      swap1\n      dup2\n      mstore\n      0x40\n      swap1\n      keccak256\n      sload\n      0xffffffffffffffffffffffffffffffffffffffff\n      and\n      dup2\n      jump\n        /* \"TokenSwapper.sol\":3350:3379  uint256 public totalEthIn = 0 */\n    tag_21:\n      callvalue\n      dup1\n      iszero\n      tag_146\n      jumpi\n      0x00\n      dup1\n      revert\n    tag_146:\n      pop\n      tag_67\n      sload(0x0d)\n      dup2\n      jump\n        /* \"TokenSwapper.sol\":12229:12807  function getContractInfo() public view returns (ContractInfo memory) {... */\n    tag_22:\n      callvalue\n      dup1\n      iszero\n      tag_150\n      jumpi\n      0x00\n      dup1\n      revert\n    tag_150:\n      pop\n      tag_151\n      tag_152\n      jump\t// in\n    tag_151:\n      mload(0x40)\n      tag_64\n      swap2\n      swap1\n      tag_154\n      jump\t// in\n        /* \"TokenSwapper.sol\":2863:2907  DexVersion public dexVersion = DexVersion.V2 */\n    tag_23:\n      callvalue\n      dup1\n      iszero\n      tag_155\n      jumpi\n      0x00\n      dup1\n      revert\n    tag_155:\n      pop\n      sload(0x04)\n      tag_156\n      swap1\n      0x010000000000000000000000000000000000000000000000\n      swap1\n      div\n      0xff\n      and\n      dup2\n      jump\n    tag_156:\n      mload(0x40)\n      tag_64\n      swap2\n      swap1\n      tag_159\n      jump\t// in\n        /* \"TokenSwapper.sol\":4822:5422  function withdrawTokens() public nonReentrant {... */\n    tag_24:\n      callvalue\n      dup1\n      iszero\n      tag_160\n      jumpi\n      0x00\n      dup1\n      revert\n    tag_160:\n      pop\n      tag_59\n      tag_60\n      jump\t// in\n        /* \"TokenSwapper.sol\":2713:2733  address public owner */\n    tag_25:\n      callvalue\n      dup1\n      iszero\n      tag_162\n      jumpi\n      0x00\n      dup1\n      revert\n    tag_162:\n      pop\n      sload(0x01)\n      tag_94\n      swap1\n      0xffffffffffffffffffffffffffffffffffffffff\n      and\n      dup2\n      jump\n        /* \"TokenSwapper.sol\":3008:3029  address public QUOTER */\n    tag_26:\n      callvalue\n      dup1\n      iszero\n      tag_166\n      jumpi\n      0x00\n      dup1\n      revert\n    tag_166:\n      pop\n      sload(0x06)\n      tag_94\n      swap1\n      0xffffffffffffffffffffffffffffffffffffffff\n      and\n      dup2\n      jump\n        /* \"TokenSwapper.sol\":7952:8032  function _getWETH() public view returns (address) {... */\n    tag_27:\n      callvalue\n      dup1\n      iszero\n      tag_170\n      jumpi\n      0x00\n      dup1\n      revert\n    tag_170:\n      pop\n        /* \"TokenSwapper.sol\":8020:8024  WETH */\n      and(0xffffffffffffffffffffffffffffffffffffffff, sload(0x07))\n        /* \"TokenSwapper.sol\":7952:8032  function _getWETH() public view returns (address) {... */\n      jump(tag_94)\n        /* \"TokenSwapper.sol\":11054:11157  function setDexVersion(DexVersion _version) external onlyOwner {... */\n    tag_28:\n      callvalue\n      dup1\n      iszero\n      tag_174\n      jumpi\n      0x00\n      dup1\n      revert\n    tag_174:\n      pop\n      tag_59\n      tag_176\n      calldatasize\n      0x04\n      tag_177\n      jump\t// in\n    tag_176:\n      tag_178\n      jump\t// in\n        /* \"TokenSwapper.sol\":5585:5954  function getQuoteV2(uint256 _ethAmount, address _weth, address _targetToken, address _routerV2) public view returns (uint256) {... */\n    tag_29:\n      callvalue\n      dup1\n      iszero\n      tag_179\n      jumpi\n      0x00\n      dup1\n      revert\n    tag_179:\n      pop\n      tag_67\n      tag_181\n      calldatasize\n      0x04\n      tag_182\n      jump\t// in\n    tag_181:\n      tag_183\n      jump\t// in\n        /* \"TokenSwapper.sol\":10338:10501  function setReciever(address newReciever) external onlyOwner {... */\n    tag_30:\n      callvalue\n      dup1\n      iszero\n      tag_185\n      jumpi\n      0x00\n      dup1\n      revert\n    tag_185:\n      pop\n      tag_59\n      tag_187\n      calldatasize\n      0x04\n      tag_81\n      jump\t// in\n    tag_187:\n      tag_188\n      jump\t// in\n        /* \"TokenSwapper.sol\":3036:3055  address public WETH */\n    tag_31:\n      callvalue\n      dup1\n      iszero\n      tag_189\n      jumpi\n      0x00\n      dup1\n      revert\n    tag_189:\n      pop\n      sload(0x07)\n      tag_94\n      swap1\n      0xffffffffffffffffffffffffffffffffffffffff\n      and\n      dup2\n      jump\n        /* \"TokenSwapper.sol\":6124:6717  function getQuoteV3(uint256 _ethAmount, address _weth, address _targetToken, uint256 _v3PoolFee, address _quoter) public view returns (uint256) {... */\n    tag_32:\n      callvalue\n      dup1\n      iszero\n      tag_193\n      jumpi\n      0x00\n      dup1\n      revert\n    tag_193:\n      pop\n      tag_67\n      tag_195\n      calldatasize\n      0x04\n      tag_196\n      jump\t// in\n    tag_195:\n      tag_197\n      jump\t// in\n        /* \"TokenSwapper.sol\":11163:11273  function withdrawETH() external onlyOwner {... */\n    tag_33:\n      callvalue\n      dup1\n      iszero\n      tag_199\n      jumpi\n      0x00\n      dup1\n      revert\n    tag_199:\n      pop\n      tag_59\n      tag_201\n      jump\t// in\n        /* \"TokenSwapper.sol\":2916:2943  uint256 public minAmountOut */\n    tag_34:\n      callvalue\n      dup1\n      iszero\n      tag_202\n      jumpi\n      0x00\n      dup1\n      revert\n    tag_202:\n      pop\n      tag_67\n      sload(0x05)\n      dup2\n      jump\n        /* \"TokenSwapper.sol\":2803:2826  address public routerV3 */\n    tag_35:\n      callvalue\n      dup1\n      iszero\n      tag_206\n      jumpi\n      0x00\n      dup1\n      revert\n    tag_206:\n      pop\n      sload(0x04)\n      tag_94\n      swap1\n      0xffffffffffffffffffffffffffffffffffffffff\n      and\n      dup2\n      jump\n        /* \"TokenSwapper.sol\":11279:11434  function transferOwnership(address newOwner) public onlyOwner {... */\n    tag_36:\n      callvalue\n      dup1\n      iszero\n      tag_210\n      jumpi\n      0x00\n      dup1\n      revert\n    tag_210:\n      pop\n      tag_59\n      tag_212\n      calldatasize\n      0x04\n      tag_81\n      jump\t// in\n    tag_212:\n      tag_213\n      jump\t// in\n        /* \"TokenSwapper.sol\":3099:3122  address public reciever */\n    tag_37:\n      callvalue\n      dup1\n      iszero\n      tag_214\n      jumpi\n      0x00\n      dup1\n      revert\n    tag_214:\n      pop\n      sload(0x08)\n      tag_94\n      swap1\n      0xffffffffffffffffffffffffffffffffffffffff\n      and\n      dup2\n      jump\n        /* \"TokenSwapper.sol\":10507:10603  function setMinAmountOut(uint256 _min) external onlyOwner {... */\n    tag_38:\n      callvalue\n      dup1\n      iszero\n      tag_218\n      jumpi\n      0x00\n      dup1\n      revert\n    tag_218:\n      pop\n      tag_59\n      tag_220\n      calldatasize\n      0x04\n      tag_69\n      jump\t// in\n    tag_220:\n      tag_221\n      jump\t// in\n        /* \"TokenSwapper.sol\":11440:11828  function recoveryToken(address tokenAddress) public onlyOwner {... */\n    tag_39:\n      callvalue\n      dup1\n      iszero\n      tag_222\n      jumpi\n      0x00\n      dup1\n      revert\n    tag_222:\n      pop\n      tag_59\n      tag_224\n      calldatasize\n      0x04\n      tag_81\n      jump\t// in\n    tag_224:\n      tag_225\n      jump\t// in\n        /* \"TokenSwapper.sol\":4441:4814  function trySwapIfProfitable() private nonReentrant {... */\n    tag_58:\n        /* \"TokenSwapper.sol\":324:345  _nonReentrantBefore() */\n      tag_227\n        /* \"TokenSwapper.sol\":324:343  _nonReentrantBefore */\n      tag_228\n        /* \"TokenSwapper.sol\":324:345  _nonReentrantBefore() */\n      jump\t// in\n    tag_227:\n        /* \"TokenSwapper.sol\":4523:4544  address(this).balance */\n      selfbalance\n        /* \"TokenSwapper.sol\":4504:4520  uint256 ethToUse */\n      0x00\n        /* \"TokenSwapper.sol\":4559:4572  ethToUse == 0 */\n      dup2\n      swap1\n      sub\n        /* \"TokenSwapper.sol\":4555:4581  if (ethToUse == 0) return; */\n      tag_230\n      jumpi\n        /* \"TokenSwapper.sol\":4574:4581  return; */\n      pop\n      jump(tag_229)\n        /* \"TokenSwapper.sol\":4555:4581  if (ethToUse == 0) return; */\n    tag_230:\n        /* \"TokenSwapper.sol\":4593:4613  uint256 estimatedOut */\n      0x00\n      dup1\n        /* \"TokenSwapper.sol\":4616:4626  dexVersion */\n      sload(0x04)\n      0x010000000000000000000000000000000000000000000000\n      swap1\n      div\n      0xff\n      and\n        /* \"TokenSwapper.sol\":4616:4643  dexVersion == DexVersion.V2 */\n      0x01\n      dup2\n      gt\n      iszero\n      tag_235\n      jumpi\n      tag_235\n      tag_233\n      jump\t// in\n    tag_235:\n      eq\n        /* \"TokenSwapper.sol\":4616:4711  dexVersion == DexVersion.V2... */\n      tag_236\n      jumpi\n        /* \"TokenSwapper.sol\":4693:4711  _quoteV3(ethToUse) */\n      tag_237\n        /* \"TokenSwapper.sol\":4702:4710  ethToUse */\n      dup3\n        /* \"TokenSwapper.sol\":4693:4701  _quoteV3 */\n      tag_101\n        /* \"TokenSwapper.sol\":4693:4711  _quoteV3(ethToUse) */\n      jump\t// in\n    tag_237:\n        /* \"TokenSwapper.sol\":4616:4711  dexVersion == DexVersion.V2... */\n      jump(tag_239)\n    tag_236:\n        /* \"TokenSwapper.sol\":4659:4677  _quoteV2(ethToUse) */\n      tag_239\n        /* \"TokenSwapper.sol\":4668:4676  ethToUse */\n      dup3\n        /* \"TokenSwapper.sol\":4659:4667  _quoteV2 */\n      tag_70\n        /* \"TokenSwapper.sol\":4659:4677  _quoteV2(ethToUse) */\n      jump\t// in\n    tag_239:\n        /* \"TokenSwapper.sol\":4593:4711  uint256 estimatedOut = dexVersion == DexVersion.V2... */\n      swap1\n      pop\n        /* \"TokenSwapper.sol\":4744:4756  minAmountOut */\n      sload(0x05)\n        /* \"TokenSwapper.sol\":4728:4740  estimatedOut */\n      dup2\n        /* \"TokenSwapper.sol\":4728:4756  estimatedOut >= minAmountOut */\n      lt\n        /* \"TokenSwapper.sol\":4724:4807  if (estimatedOut >= minAmountOut) {... */\n      tag_240\n      jumpi\n        /* \"TokenSwapper.sol\":4773:4795  _performSwap(ethToUse) */\n      tag_241\n        /* \"TokenSwapper.sol\":4786:4794  ethToUse */\n      dup3\n        /* \"TokenSwapper.sol\":4773:4785  _performSwap */\n      tag_242\n        /* \"TokenSwapper.sol\":4773:4795  _performSwap(ethToUse) */\n      jump\t// in\n    tag_241:\n      pop\n        /* \"TokenSwapper.sol\":4724:4807  if (estimatedOut >= minAmountOut) {... */\n    tag_240:\n        /* \"TokenSwapper.sol\":4493:4814  {... */\n      pop\n      pop\n        /* \"TokenSwapper.sol\":356:357  _ */\n    tag_229:\n        /* \"TokenSwapper.sol\":368:388  _nonReentrantAfter() */\n      tag_243\n        /* \"TokenSwapper.sol\":142:143  1 */\n      0x01\n        /* \"TokenSwapper.sol\":607:614  _status */\n      0x00\n        /* \"TokenSwapper.sol\":607:629  _status = _NOT_ENTERED */\n      sstore\n        /* \"TokenSwapper.sol\":558:637  function _nonReentrantAfter() private {... */\n      jump\n        /* \"TokenSwapper.sol\":368:388  _nonReentrantAfter() */\n    tag_243:\n        /* \"TokenSwapper.sol\":4441:4814  function trySwapIfProfitable() private nonReentrant {... */\n      jump\t// out\n        /* \"TokenSwapper.sol\":4822:5422  function withdrawTokens() public nonReentrant {... */\n    tag_60:\n        /* \"TokenSwapper.sol\":324:345  _nonReentrantBefore() */\n      tag_246\n        /* \"TokenSwapper.sol\":324:343  _nonReentrantBefore */\n      tag_228\n        /* \"TokenSwapper.sol\":324:345  _nonReentrantBefore() */\n      jump\t// in\n    tag_246:\n        /* \"TokenSwapper.sol\":4909:4920  targetToken */\n      sload(0x02)\n        /* \"TokenSwapper.sol\":4902:4946  IERC20(targetToken).balanceOf(address(this)) */\n      mload(0x40)\n      0x70a0823100000000000000000000000000000000000000000000000000000000\n      dup2\n      mstore\n        /* \"TokenSwapper.sol\":4940:4944  this */\n      address\n        /* \"TokenSwapper.sol\":4902:4946  IERC20(targetToken).balanceOf(address(this)) */\n      0x04\n      dup3\n      add\n        /* \"#utility.yul\":4180:4254   */\n      mstore\n        /* \"TokenSwapper.sol\":4879:4899  uint256 tokenBalance */\n      0x00\n      swap2\n        /* \"TokenSwapper.sol\":4909:4920  targetToken */\n      0xffffffffffffffffffffffffffffffffffffffff\n      and\n      swap1\n        /* \"TokenSwapper.sol\":4902:4931  IERC20(targetToken).balanceOf */\n      0x70a08231\n      swap1\n        /* \"#utility.yul\":4153:4171   */\n      0x24\n      add\n        /* \"TokenSwapper.sol\":4902:4946  IERC20(targetToken).balanceOf(address(this)) */\n      0x20\n      mload(0x40)\n      dup1\n      dup4\n      sub\n      dup2\n      dup7\n      gas\n      staticcall\n      iszero\n      dup1\n      iszero\n      tag_250\n      jumpi\n      returndatasize\n      0x00\n      dup1\n      returndatacopy\n      revert(0x00, returndatasize)\n    tag_250:\n      pop\n      pop\n      pop\n      pop\n      mload(0x40)\n      returndatasize\n      not(0x1f)\n      0x1f\n      dup3\n      add\n      and\n      dup3\n      add\n      dup1\n      0x40\n      mstore\n      pop\n      dup2\n      add\n      swap1\n      tag_251\n      swap2\n      swap1\n      tag_252\n      jump\t// in\n    tag_251:\n        /* \"TokenSwapper.sol\":4879:4946  uint256 tokenBalance = IERC20(targetToken).balanceOf(address(this)) */\n      swap1\n      pop\n        /* \"TokenSwapper.sol\":4961:4977  tokenBalance > 0 */\n      dup1\n      iszero\n        /* \"TokenSwapper.sol\":4957:5031  if (tokenBalance > 0) IERC20(targetToken).transfer(reciever, tokenBalance) */\n      tag_253\n      jumpi\n        /* \"TokenSwapper.sol\":4986:4997  targetToken */\n      sload(0x02)\n        /* \"TokenSwapper.sol\":5008:5016  reciever */\n      sload(0x08)\n        /* \"TokenSwapper.sol\":4979:5031  IERC20(targetToken).transfer(reciever, tokenBalance) */\n      mload(0x40)\n      0xa9059cbb00000000000000000000000000000000000000000000000000000000\n      dup2\n      mstore\n        /* \"TokenSwapper.sol\":4986:4997  targetToken */\n      0xffffffffffffffffffffffffffffffffffffffff\n        /* \"TokenSwapper.sol\":5008:5016  reciever */\n      swap2\n      dup3\n      and\n        /* \"TokenSwapper.sol\":4979:5031  IERC20(targetToken).transfer(reciever, tokenBalance) */\n      0x04\n      dup3\n      add\n        /* \"#utility.yul\":8478:8552   */\n      mstore\n        /* \"#utility.yul\":8568:8586   */\n      0x24\n      dup2\n      add\n        /* \"#utility.yul\":8561:8595   */\n      dup5\n      swap1\n      mstore\n        /* \"TokenSwapper.sol\":4986:4997  targetToken */\n      swap2\n      and\n      swap1\n        /* \"TokenSwapper.sol\":4979:5007  IERC20(targetToken).transfer */\n      0xa9059cbb\n      swap1\n        /* \"#utility.yul\":8451:8469   */\n      0x44\n      add\n        /* \"TokenSwapper.sol\":4979:5031  IERC20(targetToken).transfer(reciever, tokenBalance) */\n      0x20\n      mload(0x40)\n      dup1\n      dup4\n      sub\n      dup2\n      0x00\n      dup8\n      gas\n      call\n      iszero\n      dup1\n      iszero\n      tag_257\n      jumpi\n      returndatasize\n      0x00\n      dup1\n      returndatacopy\n      revert(0x00, returndatasize)\n    tag_257:\n      pop\n      pop\n      pop\n      pop\n      mload(0x40)\n      returndatasize\n      not(0x1f)\n      0x1f\n      dup3\n      add\n      and\n      dup3\n      add\n      dup1\n      0x40\n      mstore\n      pop\n      dup2\n      add\n      swap1\n      tag_258\n      swap2\n      swap1\n      tag_259\n      jump\t// in\n    tag_258:\n      pop\n        /* \"TokenSwapper.sol\":4957:5031  if (tokenBalance > 0) IERC20(targetToken).transfer(reciever, tokenBalance) */\n    tag_253:\n        /* \"TokenSwapper.sol\":5046:5064  allowedTokensCount */\n      sload(0x0c)\n        /* \"TokenSwapper.sol\":5046:5068  allowedTokensCount > 0 */\n      iszero\n        /* \"TokenSwapper.sol\":5042:5415  if (allowedTokensCount > 0) {... */\n      tag_260\n      jumpi\n        /* \"TokenSwapper.sol\":5108:5109  1 */\n      0x01\n        /* \"TokenSwapper.sol\":5085:5404  for (uint256 tokenId = 1; tokenId <= allowedTokensCount; tokenId++) {... */\n    tag_261:\n        /* \"TokenSwapper.sol\":5122:5140  allowedTokensCount */\n      sload(0x0c)\n        /* \"TokenSwapper.sol\":5111:5118  tokenId */\n      dup2\n        /* \"TokenSwapper.sol\":5111:5140  tokenId <= allowedTokensCount */\n      gt\n        /* \"TokenSwapper.sol\":5085:5404  for (uint256 tokenId = 1; tokenId <= allowedTokensCount; tokenId++) {... */\n      tag_240\n      jumpi\n        /* \"TokenSwapper.sol\":5194:5216  allowedTokens[tokenId] */\n      0x00\n      dup2\n      dup2\n      mstore\n        /* \"TokenSwapper.sol\":5194:5207  allowedTokens */\n      0x09\n        /* \"TokenSwapper.sol\":5194:5216  allowedTokens[tokenId] */\n      0x20\n      mstore\n      0x40\n      swap1\n      dup2\n      swap1\n      keccak256\n      sload\n        /* \"TokenSwapper.sol\":5187:5242  IERC20(allowedTokens[tokenId]).balanceOf(address(this)) */\n      swap1\n      mload\n      0x70a0823100000000000000000000000000000000000000000000000000000000\n      dup2\n      mstore\n        /* \"TokenSwapper.sol\":5236:5240  this */\n      address\n        /* \"TokenSwapper.sol\":5187:5242  IERC20(allowedTokens[tokenId]).balanceOf(address(this)) */\n      0x04\n      dup3\n      add\n        /* \"#utility.yul\":4180:4254   */\n      mstore\n        /* \"TokenSwapper.sol\":5194:5216  allowedTokens[tokenId] */\n      0xffffffffffffffffffffffffffffffffffffffff\n      swap1\n      swap2\n      and\n      swap1\n        /* \"TokenSwapper.sol\":5187:5227  IERC20(allowedTokens[tokenId]).balanceOf */\n      0x70a08231\n      swap1\n        /* \"#utility.yul\":4153:4171   */\n      0x24\n      add\n        /* \"TokenSwapper.sol\":5187:5242  IERC20(allowedTokens[tokenId]).balanceOf(address(this)) */\n      0x20\n      mload(0x40)\n      dup1\n      dup4\n      sub\n      dup2\n      dup7\n      gas\n      staticcall\n      iszero\n      dup1\n      iszero\n      tag_266\n      jumpi\n      returndatasize\n      0x00\n      dup1\n      returndatacopy\n      revert(0x00, returndatasize)\n    tag_266:\n      pop\n      pop\n      pop\n      pop\n      mload(0x40)\n      returndatasize\n      not(0x1f)\n      0x1f\n      dup3\n      add\n      and\n      dup3\n      add\n      dup1\n      0x40\n      mstore\n      pop\n      dup2\n      add\n      swap1\n      tag_267\n      swap2\n      swap1\n      tag_252\n      jump\t// in\n    tag_267:\n        /* \"TokenSwapper.sol\":5172:5242  tokenBalance = IERC20(allowedTokens[tokenId]).balanceOf(address(this)) */\n      swap2\n      pop\n        /* \"TokenSwapper.sol\":5265:5281  tokenBalance > 0 */\n      dup2\n      iszero\n        /* \"TokenSwapper.sol\":5261:5389  if (tokenBalance > 0) {... */\n      tag_268\n      jumpi\n        /* \"TokenSwapper.sol\":5313:5335  allowedTokens[tokenId] */\n      0x00\n      dup2\n      dup2\n      mstore\n        /* \"TokenSwapper.sol\":5313:5326  allowedTokens */\n      0x09\n        /* \"TokenSwapper.sol\":5313:5335  allowedTokens[tokenId] */\n      0x20\n      mstore\n      0x40\n      swap1\n      dup2\n      swap1\n      keccak256\n      sload\n        /* \"TokenSwapper.sol\":5346:5354  reciever */\n      sload(0x08)\n        /* \"TokenSwapper.sol\":5306:5369  IERC20(allowedTokens[tokenId]).transfer(reciever, tokenBalance) */\n      swap2\n      mload\n      0xa9059cbb00000000000000000000000000000000000000000000000000000000\n      dup2\n      mstore\n        /* \"TokenSwapper.sol\":5313:5335  allowedTokens[tokenId] */\n      0xffffffffffffffffffffffffffffffffffffffff\n        /* \"TokenSwapper.sol\":5346:5354  reciever */\n      swap3\n      dup4\n      and\n        /* \"TokenSwapper.sol\":5306:5369  IERC20(allowedTokens[tokenId]).transfer(reciever, tokenBalance) */\n      0x04\n      dup3\n      add\n        /* \"#utility.yul\":8478:8552   */\n      mstore\n        /* \"#utility.yul\":8568:8586   */\n      0x24\n      dup2\n      add\n        /* \"#utility.yul\":8561:8595   */\n      dup6\n      swap1\n      mstore\n        /* \"TokenSwapper.sol\":5313:5335  allowedTokens[tokenId] */\n      swap2\n      and\n      swap1\n        /* \"TokenSwapper.sol\":5306:5345  IERC20(allowedTokens[tokenId]).transfer */\n      0xa9059cbb\n      swap1\n        /* \"#utility.yul\":8451:8469   */\n      0x44\n      add\n        /* \"TokenSwapper.sol\":5306:5369  IERC20(allowedTokens[tokenId]).transfer(reciever, tokenBalance) */\n      0x20\n      mload(0x40)\n      dup1\n      dup4\n      sub\n      dup2\n      0x00\n      dup8\n      gas\n      call\n      iszero\n      dup1\n      iszero\n      tag_271\n      jumpi\n      returndatasize\n      0x00\n      dup1\n      returndatacopy\n      revert(0x00, returndatasize)\n    tag_271:\n      pop\n      pop\n      pop\n      pop\n      mload(0x40)\n      returndatasize\n      not(0x1f)\n      0x1f\n      dup3\n      add\n      and\n      dup3\n      add\n      dup1\n      0x40\n      mstore\n      pop\n      dup2\n      add\n      swap1\n      tag_272\n      swap2\n      swap1\n      tag_259\n      jump\t// in\n    tag_272:\n      pop\n        /* \"TokenSwapper.sol\":5261:5389  if (tokenBalance > 0) {... */\n    tag_268:\n        /* \"TokenSwapper.sol\":5142:5151  tokenId++ */\n      dup1\n      tag_273\n      dup2\n      tag_274\n      jump\t// in\n    tag_273:\n      swap2\n      pop\n      pop\n        /* \"TokenSwapper.sol\":5085:5404  for (uint256 tokenId = 1; tokenId <= allowedTokensCount; tokenId++) {... */\n      jump(tag_261)\n        /* \"TokenSwapper.sol\":5042:5415  if (allowedTokensCount > 0) {... */\n    tag_260:\n        /* \"TokenSwapper.sol\":4868:5422  {... */\n      pop\n        /* \"TokenSwapper.sol\":368:388  _nonReentrantAfter() */\n      tag_243\n        /* \"TokenSwapper.sol\":142:143  1 */\n      0x01\n        /* \"TokenSwapper.sol\":607:614  _status */\n      0x00\n        /* \"TokenSwapper.sol\":607:629  _status = _NOT_ENTERED */\n      sstore\n        /* \"TokenSwapper.sol\":558:637  function _nonReentrantAfter() private {... */\n      jump\n        /* \"TokenSwapper.sol\":8244:9465  function getAllowedTokens() public view returns (TokenInfo[] memory ret) {... */\n    tag_63:\n        /* \"TokenSwapper.sol\":8332:8338  inited */\n      sload(0x07)\n        /* \"TokenSwapper.sol\":8293:8315  TokenInfo[] memory ret */\n      0x60\n      swap1\n        /* \"TokenSwapper.sol\":8332:8338  inited */\n      0x010000000000000000000000000000000000000000\n      swap1\n      div\n      0xff\n      and\n        /* \"TokenSwapper.sol\":8328:9458  if (inited) {... */\n      iszero\n      tag_277\n      jumpi\n        /* \"TokenSwapper.sol\":8377:8395  allowedTokensCount */\n      sload(0x0c)\n        /* \"TokenSwapper.sol\":8377:8399  allowedTokensCount + 1 */\n      tag_278\n      swap1\n        /* \"TokenSwapper.sol\":8398:8399  1 */\n      0x01\n        /* \"TokenSwapper.sol\":8377:8399  allowedTokensCount + 1 */\n      tag_56\n      jump\t// in\n    tag_278:\n        /* \"TokenSwapper.sol\":8361:8400  new TokenInfo[](allowedTokensCount + 1) */\n      0xffffffffffffffff\n      dup2\n      gt\n      iszero\n      tag_280\n      jumpi\n      tag_280\n      tag_281\n      jump\t// in\n    tag_280:\n      mload(0x40)\n      swap1\n      dup1\n      dup3\n      mstore\n      dup1\n      0x20\n      mul\n      0x20\n      add\n      dup3\n      add\n      0x40\n      mstore\n      dup1\n      iszero\n      tag_282\n      jumpi\n      dup2\n      0x20\n      add\n    tag_283:\n      tag_284\n      mload(0x40)\n      dup1\n      0xc0\n      add\n      0x40\n      mstore\n      dup1\n      0x00\n      dup2\n      mstore\n      0x20\n      add\n      and(0xffffffffffffffffffffffffffffffffffffffff, 0x00)\n      dup2\n      mstore\n      0x20\n      add\n      0x60\n      dup2\n      mstore\n      0x20\n      add\n      0x60\n      dup2\n      mstore\n      0x20\n      add\n      and(0xff, 0x00)\n      dup2\n      mstore\n      0x20\n      add\n      0x00\n      dup2\n      mstore\n      pop\n      swap1\n      jump\n    tag_284:\n      dup2\n      mstore\n      0x20\n      add\n      swap1\n      0x01\n      swap1\n      sub\n      swap1\n      dup2\n      tag_283\n      jumpi\n      swap1\n      pop\n    tag_282:\n      pop\n        /* \"TokenSwapper.sol\":8441:8452  targetToken */\n      sload(0x02)\n        /* \"TokenSwapper.sol\":8477:8788  TokenInfo({... */\n      0x40\n      dup1\n      mload\n      0xc0\n      dup2\n      add\n      dup3\n      mstore\n        /* \"TokenSwapper.sol\":8415:8431  IERC20 baseToken */\n      0x00\n        /* \"TokenSwapper.sol\":8477:8788  TokenInfo({... */\n      dup1\n      dup3\n      mstore\n        /* \"TokenSwapper.sol\":8441:8452  targetToken */\n      0xffffffffffffffffffffffffffffffffffffffff\n      swap1\n      swap4\n      and\n        /* \"TokenSwapper.sol\":8477:8788  TokenInfo({... */\n      0x20\n      dup3\n      add\n      dup2\n      swap1\n      mstore\n        /* \"TokenSwapper.sol\":8592:8610  baseToken.symbol() */\n      dup3\n      mload\n      0x95d89b4100000000000000000000000000000000000000000000000000000000\n      dup2\n      mstore\n      dup4\n      mload\n        /* \"TokenSwapper.sol\":8355:8400  ret = new TokenInfo[](allowedTokensCount + 1) */\n      swap6\n      swap7\n      pop\n        /* \"TokenSwapper.sol\":8441:8452  targetToken */\n      swap1\n      swap5\n        /* \"TokenSwapper.sol\":8477:8788  TokenInfo({... */\n      swap2\n      swap4\n      swap3\n      dup5\n      add\n      swap3\n        /* \"TokenSwapper.sol\":8441:8452  targetToken */\n      dup6\n      swap3\n        /* \"TokenSwapper.sol\":8592:8608  baseToken.symbol */\n      0x95d89b41\n      swap3\n        /* \"TokenSwapper.sol\":8592:8610  baseToken.symbol() */\n      0x04\n      dup1\n      dup3\n      add\n      swap4\n        /* \"TokenSwapper.sol\":8415:8431  IERC20 baseToken */\n      swap3\n        /* \"TokenSwapper.sol\":8592:8610  baseToken.symbol() */\n      swap2\n      dup3\n      swap1\n      sub\n      add\n      dup2\n        /* \"TokenSwapper.sol\":8441:8452  targetToken */\n      dup7\n        /* \"TokenSwapper.sol\":8592:8610  baseToken.symbol() */\n      gas\n      staticcall\n      iszero\n      dup1\n      iszero\n      tag_287\n      jumpi\n      returndatasize\n      0x00\n      dup1\n      returndatacopy\n      revert(0x00, returndatasize)\n    tag_287:\n      pop\n      pop\n      pop\n      pop\n      mload(0x40)\n      returndatasize\n      0x00\n      dup3\n      returndatacopy\n      0x1f\n      returndatasize\n      swap1\n      dup2\n      add\n      0xffffffffffffffffffffffffffffffffffffffffffffffffffffffffffffffe0\n      and\n      dup3\n      add\n      0x40\n      mstore\n      tag_288\n      swap2\n      swap1\n      dup2\n      add\n      swap1\n      tag_289\n      jump\t// in\n    tag_288:\n        /* \"TokenSwapper.sol\":8477:8788  TokenInfo({... */\n      dup2\n      mstore\n      0x20\n      add\n        /* \"TokenSwapper.sol\":8640:8649  baseToken */\n      dup3\n        /* \"TokenSwapper.sol\":8640:8654  baseToken.name */\n      0xffffffffffffffffffffffffffffffffffffffff\n      and\n      0x06fdde03\n        /* \"TokenSwapper.sol\":8640:8656  baseToken.name() */\n      mload(0x40)\n      dup2\n      0xffffffff\n      and\n      0xe0\n      shl\n      dup2\n      mstore\n      0x04\n      add\n      0x00\n      mload(0x40)\n      dup1\n      dup4\n      sub\n      dup2\n      dup7\n      gas\n      staticcall\n      iszero\n      dup1\n      iszero\n      tag_291\n      jumpi\n      returndatasize\n      0x00\n      dup1\n      returndatacopy\n      revert(0x00, returndatasize)\n    tag_291:\n      pop\n      pop\n      pop\n      pop\n      mload(0x40)\n      returndatasize\n      0x00\n      dup3\n      returndatacopy\n      0x1f\n      returndatasize\n      swap1\n      dup2\n      add\n      0xffffffffffffffffffffffffffffffffffffffffffffffffffffffffffffffe0\n      and\n      dup3\n      add\n      0x40\n      mstore\n      tag_292\n      swap2\n      swap1\n      dup2\n      add\n      swap1\n      tag_289\n      jump\t// in\n    tag_292:\n        /* \"TokenSwapper.sol\":8477:8788  TokenInfo({... */\n      dup2\n      mstore\n      0x20\n      add\n        /* \"TokenSwapper.sol\":8690:8699  baseToken */\n      dup3\n        /* \"TokenSwapper.sol\":8690:8708  baseToken.decimals */\n      0xffffffffffffffffffffffffffffffffffffffff\n      and\n      0x313ce567\n        /* \"TokenSwapper.sol\":8690:8710  baseToken.decimals() */\n      mload(0x40)\n      dup2\n      0xffffffff\n      and\n      0xe0\n      shl\n      dup2\n      mstore\n      0x04\n      add\n      0x20\n      mload(0x40)\n      dup1\n      dup4\n      sub\n      dup2\n      dup7\n      gas\n      staticcall\n      iszero\n      dup1\n      iszero\n      tag_294\n      jumpi\n      returndatasize\n      0x00\n      dup1\n      returndatacopy\n      revert(0x00, returndatasize)\n    tag_294:\n      pop\n      pop\n      pop\n      pop\n      mload(0x40)\n      returndatasize\n      not(0x1f)\n      0x1f\n      dup3\n      add\n      and\n      dup3\n      add\n      dup1\n      0x40\n      mstore\n      pop\n      dup2\n      add\n      swap1\n      tag_295\n      swap2\n      swap1\n      tag_296\n      jump\t// in\n    tag_295:\n        /* \"TokenSwapper.sol\":8477:8788  TokenInfo({... */\n      0xff\n      and\n      dup2\n      mstore\n        /* \"TokenSwapper.sol\":8738:8772  baseToken.balanceOf(address(this)) */\n      mload(0x40)\n      0x70a0823100000000000000000000000000000000000000000000000000000000\n      dup2\n      mstore\n        /* \"TokenSwapper.sol\":8766:8770  this */\n      address\n        /* \"TokenSwapper.sol\":8738:8772  baseToken.balanceOf(address(this)) */\n      0x04\n      dup3\n      add\n        /* \"#utility.yul\":4180:4254   */\n      mstore\n        /* \"TokenSwapper.sol\":8477:8788  TokenInfo({... */\n      0x20\n      swap1\n      swap2\n      add\n      swap1\n        /* \"TokenSwapper.sol\":8738:8757  baseToken.balanceOf */\n      0xffffffffffffffffffffffffffffffffffffffff\n      dup5\n      and\n      swap1\n      0x70a08231\n      swap1\n        /* \"#utility.yul\":4153:4171   */\n      0x24\n      add\n        /* \"TokenSwapper.sol\":8738:8772  baseToken.balanceOf(address(this)) */\n      0x20\n      mload(0x40)\n      dup1\n      dup4\n      sub\n      dup2\n      dup7\n      gas\n      staticcall\n      iszero\n      dup1\n      iszero\n      tag_299\n      jumpi\n      returndatasize\n      0x00\n      dup1\n      returndatacopy\n      revert(0x00, returndatasize)\n    tag_299:\n      pop\n      pop\n      pop\n      pop\n      mload(0x40)\n      returndatasize\n      not(0x1f)\n      0x1f\n      dup3\n      add\n      and\n      dup3\n      add\n      dup1\n      0x40\n      mstore\n      pop\n      dup2\n      add\n      swap1\n      tag_300\n      swap2\n      swap1\n      tag_252\n      jump\t// in\n    tag_300:\n        /* \"TokenSwapper.sol\":8477:8788  TokenInfo({... */\n      dup2\n      mstore\n      pop\n        /* \"TokenSwapper.sol\":8468:8471  ret */\n      dup3\n        /* \"TokenSwapper.sol\":8472:8473  0 */\n      0x00\n        /* \"TokenSwapper.sol\":8468:8474  ret[0] */\n      dup2\n      mload\n      dup2\n      lt\n      tag_302\n      jumpi\n      tag_302\n      tag_303\n      jump\t// in\n    tag_302:\n      0x20\n      swap1\n      dup2\n      mul\n      swap2\n      swap1\n      swap2\n      add\n      add\n        /* \"TokenSwapper.sol\":8468:8788  ret[0] = TokenInfo({... */\n      mstore\n        /* \"TokenSwapper.sol\":8807:8825  allowedTokensCount */\n      sload(0x0c)\n        /* \"TokenSwapper.sol\":8807:8829  allowedTokensCount > 0 */\n      iszero\n        /* \"TokenSwapper.sol\":8803:9447  if (allowedTokensCount > 0) {... */\n      tag_304\n      jumpi\n        /* \"TokenSwapper.sol\":8873:8874  1 */\n      0x01\n        /* \"TokenSwapper.sol\":8850:9432  for (uint256 tokenId = 1; tokenId <= allowedTokensCount; tokenId++) {... */\n    tag_305:\n        /* \"TokenSwapper.sol\":8887:8905  allowedTokensCount */\n      sload(0x0c)\n        /* \"TokenSwapper.sol\":8876:8883  tokenId */\n      dup2\n        /* \"TokenSwapper.sol\":8876:8905  tokenId <= allowedTokensCount */\n      gt\n        /* \"TokenSwapper.sol\":8850:9432  for (uint256 tokenId = 1; tokenId <= allowedTokensCount; tokenId++) {... */\n      tag_306\n      jumpi\n        /* \"TokenSwapper.sol\":8941:8957  IERC20 tokenInfo */\n      0x00\n        /* \"TokenSwapper.sol\":8967:8989  allowedTokens[tokenId] */\n      dup2\n      dup2\n      mstore\n        /* \"TokenSwapper.sol\":8967:8980  allowedTokens */\n      0x09\n        /* \"TokenSwapper.sol\":8967:8989  allowedTokens[tokenId] */\n      0x20\n      dup2\n      dup2\n      mstore\n      0x40\n      dup1\n      dup5\n      keccak256\n      sload\n        /* \"TokenSwapper.sol\":9028:9412  TokenInfo({... */\n      dup2\n      mload\n      0xc0\n      dup2\n      add\n      dup4\n      mstore\n      dup7\n      dup2\n      mstore\n        /* \"TokenSwapper.sol\":9122:9144  allowedTokens[tokenId] */\n      dup7\n      dup7\n      mstore\n      swap4\n      dup4\n      mstore\n        /* \"TokenSwapper.sol\":8967:8989  allowedTokens[tokenId] */\n      0xffffffffffffffffffffffffffffffffffffffff\n      and\n        /* \"TokenSwapper.sol\":9028:9412  TokenInfo({... */\n      swap2\n      dup4\n      add\n      dup3\n      swap1\n      mstore\n        /* \"TokenSwapper.sol\":9184:9202  tokenInfo.symbol() */\n      dup1\n      mload\n      0x95d89b4100000000000000000000000000000000000000000000000000000000\n      dup2\n      mstore\n      dup2\n      mload\n        /* \"TokenSwapper.sol\":8967:8989  allowedTokens[tokenId] */\n      swap3\n      swap5\n        /* \"TokenSwapper.sol\":9028:9412  TokenInfo({... */\n      swap2\n      dup5\n      add\n      swap3\n        /* \"TokenSwapper.sol\":8967:8989  allowedTokens[tokenId] */\n      dup6\n      swap3\n        /* \"TokenSwapper.sol\":9184:9200  tokenInfo.symbol */\n      0x95d89b41\n      swap3\n        /* \"TokenSwapper.sol\":9184:9202  tokenInfo.symbol() */\n      0x04\n      dup1\n      dup3\n      add\n      swap4\n      swap2\n      dup3\n      swap1\n      sub\n      add\n      dup2\n        /* \"TokenSwapper.sol\":8967:8989  allowedTokens[tokenId] */\n      dup7\n        /* \"TokenSwapper.sol\":9184:9202  tokenInfo.symbol() */\n      gas\n      staticcall\n      iszero\n      dup1\n      iszero\n      tag_309\n      jumpi\n      returndatasize\n      0x00\n      dup1\n      returndatacopy\n      revert(0x00, returndatasize)\n    tag_309:\n      pop\n      pop\n      pop\n      pop\n      mload(0x40)\n      returndatasize\n      0x00\n      dup3\n      returndatacopy\n      0x1f\n      returndatasize\n      swap1\n      dup2\n      add\n      0xffffffffffffffffffffffffffffffffffffffffffffffffffffffffffffffe0\n      and\n      dup3\n      add\n      0x40\n      mstore\n      tag_310\n      swap2\n      swap1\n      dup2\n      add\n      swap1\n      tag_289\n      jump\t// in\n    tag_310:\n        /* \"TokenSwapper.sol\":9028:9412  TokenInfo({... */\n      dup2\n      mstore\n      0x20\n      add\n        /* \"TokenSwapper.sol\":9240:9249  tokenInfo */\n      dup3\n        /* \"TokenSwapper.sol\":9240:9254  tokenInfo.name */\n      0xffffffffffffffffffffffffffffffffffffffff\n      and\n      0x06fdde03\n        /* \"TokenSwapper.sol\":9240:9256  tokenInfo.name() */\n      mload(0x40)\n      dup2\n      0xffffffff\n      and\n      0xe0\n      shl\n      dup2\n      mstore\n      0x04\n      add\n      0x00\n      mload(0x40)\n      dup1\n      dup4\n      sub\n      dup2\n      dup7\n      gas\n      staticcall\n      iszero\n      dup1\n      iszero\n      tag_312\n      jumpi\n      returndatasize\n      0x00\n      dup1\n      returndatacopy\n      revert(0x00, returndatasize)\n    tag_312:\n      pop\n      pop\n      pop\n      pop\n      mload(0x40)\n      returndatasize\n      0x00\n      dup3\n      returndatacopy\n      0x1f\n      returndatasize\n      swap1\n      dup2\n      add\n      0xffffffffffffffffffffffffffffffffffffffffffffffffffffffffffffffe0\n      and\n      dup3\n      add\n      0x40\n      mstore\n      tag_313\n      swap2\n      swap1\n      dup2\n      add\n      swap1\n      tag_289\n      jump\t// in\n    tag_313:\n        /* \"TokenSwapper.sol\":9028:9412  TokenInfo({... */\n      dup2\n      mstore\n      0x20\n      add\n        /* \"TokenSwapper.sol\":9298:9307  tokenInfo */\n      dup3\n        /* \"TokenSwapper.sol\":9298:9316  tokenInfo.decimals */\n      0xffffffffffffffffffffffffffffffffffffffff\n      and\n      0x313ce567\n        /* \"TokenSwapper.sol\":9298:9318  tokenInfo.decimals() */\n      mload(0x40)\n      dup2\n      0xffffffff\n      and\n      0xe0\n      shl\n      dup2\n      mstore\n      0x04\n      add\n      0x20\n      mload(0x40)\n      dup1\n      dup4\n      sub\n      dup2\n      dup7\n      gas\n      staticcall\n      iszero\n      dup1\n      iszero\n      tag_315\n      jumpi\n      returndatasize\n      0x00\n      dup1\n      returndatacopy\n      revert(0x00, returndatasize)\n    tag_315:\n      pop\n      pop\n      pop\n      pop\n      mload(0x40)\n      returndatasize\n      not(0x1f)\n      0x1f\n      dup3\n      add\n      and\n      dup3\n      add\n      dup1\n      0x40\n      mstore\n      pop\n      dup2\n      add\n      swap1\n      tag_316\n      swap2\n      swap1\n      tag_296\n      jump\t// in\n    tag_316:\n        /* \"TokenSwapper.sol\":9028:9412  TokenInfo({... */\n      0xff\n      and\n      dup2\n      mstore\n        /* \"TokenSwapper.sol\":9354:9388  tokenInfo.balanceOf(address(this)) */\n      mload(0x40)\n      0x70a0823100000000000000000000000000000000000000000000000000000000\n      dup2\n      mstore\n        /* \"TokenSwapper.sol\":9382:9386  this */\n      address\n        /* \"TokenSwapper.sol\":9354:9388  tokenInfo.balanceOf(address(this)) */\n      0x04\n      dup3\n      add\n        /* \"#utility.yul\":4180:4254   */\n      mstore\n        /* \"TokenSwapper.sol\":9028:9412  TokenInfo({... */\n      0x20\n      swap1\n      swap2\n      add\n      swap1\n        /* \"TokenSwapper.sol\":9354:9373  tokenInfo.balanceOf */\n      0xffffffffffffffffffffffffffffffffffffffff\n      dup5\n      and\n      swap1\n      0x70a08231\n      swap1\n        /* \"#utility.yul\":4153:4171   */\n      0x24\n      add\n        /* \"TokenSwapper.sol\":9354:9388  tokenInfo.balanceOf(address(this)) */\n      0x20\n      mload(0x40)\n      dup1\n      dup4\n      sub\n      dup2\n      dup7\n      gas\n      staticcall\n      iszero\n      dup1\n      iszero\n      tag_319\n      jumpi\n      returndatasize\n      0x00\n      dup1\n      returndatacopy\n      revert(0x00, returndatasize)\n    tag_319:\n      pop\n      pop\n      pop\n      pop\n      mload(0x40)\n      returndatasize\n      not(0x1f)\n      0x1f\n      dup3\n      add\n      and\n      dup3\n      add\n      dup1\n      0x40\n      mstore\n      pop\n      dup2\n      add\n      swap1\n      tag_320\n      swap2\n      swap1\n      tag_252\n      jump\t// in\n    tag_320:\n        /* \"TokenSwapper.sol\":9028:9412  TokenInfo({... */\n      dup2\n      mstore\n      pop\n        /* \"TokenSwapper.sol\":9013:9016  ret */\n      dup5\n        /* \"TokenSwapper.sol\":9017:9024  tokenId */\n      dup4\n        /* \"TokenSwapper.sol\":9013:9025  ret[tokenId] */\n      dup2\n      mload\n      dup2\n      lt\n      tag_322\n      jumpi\n      tag_322\n      tag_303\n      jump\t// in\n    tag_322:\n      0x20\n      mul\n      0x20\n      add\n      add\n        /* \"TokenSwapper.sol\":9013:9412  ret[tokenId] = TokenInfo({... */\n      dup2\n      swap1\n      mstore\n      pop\n        /* \"TokenSwapper.sol\":8918:9432  {... */\n      pop\n        /* \"TokenSwapper.sol\":8907:8916  tokenId++ */\n      dup1\n      dup1\n      tag_323\n      swap1\n      tag_274\n      jump\t// in\n    tag_323:\n      swap2\n      pop\n      pop\n        /* \"TokenSwapper.sol\":8850:9432  for (uint256 tokenId = 1; tokenId <= allowedTokensCount; tokenId++) {... */\n      jump(tag_305)\n    tag_306:\n      pop\n        /* \"TokenSwapper.sol\":8803:9447  if (allowedTokensCount > 0) {... */\n    tag_304:\n        /* \"TokenSwapper.sol\":8340:9458  {... */\n      pop\n        /* \"TokenSwapper.sol\":8328:9458  if (inited) {... */\n    tag_277:\n        /* \"TokenSwapper.sol\":8244:9465  function getAllowedTokens() public view returns (TokenInfo[] memory ret) {... */\n      swap1\n      jump\t// out\n        /* \"TokenSwapper.sol\":5430:5579  function _quoteV2(uint256 ethAmount) public view returns (uint256) {... */\n    tag_70:\n        /* \"TokenSwapper.sol\":5488:5495  uint256 */\n      0x00\n        /* \"TokenSwapper.sol\":5515:5571  getQuoteV2(ethAmount, _getWETH(), targetToken, routerV2) */\n      tag_325\n        /* \"TokenSwapper.sol\":5526:5535  ethAmount */\n      dup3\n        /* \"TokenSwapper.sol\":5537:5547  _getWETH() */\n      tag_326\n        /* \"TokenSwapper.sol\":8020:8024  WETH */\n      and(0xffffffffffffffffffffffffffffffffffffffff, sload(0x07))\n      swap1\n        /* \"TokenSwapper.sol\":7952:8032  function _getWETH() public view returns (address) {... */\n      jump\n        /* \"TokenSwapper.sol\":5537:5547  _getWETH() */\n    tag_326:\n        /* \"TokenSwapper.sol\":5549:5560  targetToken */\n      sload(0x02)\n        /* \"TokenSwapper.sol\":5562:5570  routerV2 */\n      sload(0x03)\n        /* \"TokenSwapper.sol\":5549:5560  targetToken */\n      0xffffffffffffffffffffffffffffffffffffffff\n      swap2\n      dup3\n      and\n      swap2\n        /* \"TokenSwapper.sol\":5562:5570  routerV2 */\n      and\n        /* \"TokenSwapper.sol\":5515:5525  getQuoteV2 */\n      tag_183\n        /* \"TokenSwapper.sol\":5515:5571  getQuoteV2(ethAmount, _getWETH(), targetToken, routerV2) */\n      jump\t// in\n    tag_325:\n        /* \"TokenSwapper.sol\":5508:5571  return getQuoteV2(ethAmount, _getWETH(), targetToken, routerV2) */\n      swap3\n        /* \"TokenSwapper.sol\":5430:5579  function _quoteV2(uint256 ethAmount) public view returns (uint256) {... */\n      swap2\n      pop\n      pop\n      jump\t// out\n        /* \"TokenSwapper.sol\":10701:10879  function setTargetToken(address newTargetToken) external onlyOwner {... */\n    tag_82:\n        /* \"TokenSwapper.sol\":3480:3485  owner */\n      and(0xffffffffffffffffffffffffffffffffffffffff, sload(0x01))\n        /* \"TokenSwapper.sol\":3466:3476  msg.sender */\n      caller\n        /* \"TokenSwapper.sol\":3466:3485  msg.sender == owner */\n      eq\n        /* \"TokenSwapper.sol\":3458:3500  require(msg.sender == owner, \"Only owner\") */\n      tag_328\n      jumpi\n      mload(0x40)\n      0x08c379a000000000000000000000000000000000000000000000000000000000\n      dup2\n      mstore\n        /* \"#utility.yul\":11068:11070   */\n      0x20\n        /* \"TokenSwapper.sol\":3458:3500  require(msg.sender == owner, \"Only owner\") */\n      0x04\n      dup3\n      add\n        /* \"#utility.yul\":11050:11071   */\n      mstore\n        /* \"#utility.yul\":11107:11109   */\n      0x0a\n        /* \"#utility.yul\":11087:11105   */\n      0x24\n      dup3\n      add\n        /* \"#utility.yul\":11080:11110   */\n      mstore\n        /* \"#utility.yul\":11146:11158   */\n      0x4f6e6c79206f776e657200000000000000000000000000000000000000000000\n        /* \"#utility.yul\":11126:11144   */\n      0x44\n      dup3\n      add\n        /* \"#utility.yul\":11119:11159   */\n      mstore\n        /* \"#utility.yul\":11176:11194   */\n      0x64\n      add\n        /* \"TokenSwapper.sol\":3458:3500  require(msg.sender == owner, \"Only owner\") */\n    tag_329:\n      mload(0x40)\n      dup1\n      swap2\n      sub\n      swap1\n      revert\n    tag_328:\n        /* \"TokenSwapper.sol\":10787:10815  newTargetToken != address(0) */\n      0xffffffffffffffffffffffffffffffffffffffff\n      dup2\n      and\n        /* \"TokenSwapper.sol\":10779:10832  require(newTargetToken != address(0), \"Cant be zero\") */\n      tag_332\n      jumpi\n      mload(0x40)\n      0x08c379a000000000000000000000000000000000000000000000000000000000\n      dup2\n      mstore\n        /* \"#utility.yul\":11407:11409   */\n      0x20\n        /* \"TokenSwapper.sol\":10779:10832  require(newTargetToken != address(0), \"Cant be zero\") */\n      0x04\n      dup3\n      add\n        /* \"#utility.yul\":11389:11410   */\n      mstore\n        /* \"#utility.yul\":11446:11448   */\n      0x0c\n        /* \"#utility.yul\":11426:11444   */\n      0x24\n      dup3\n      add\n        /* \"#utility.yul\":11419:11449   */\n      mstore\n        /* \"#utility.yul\":11485:11499   */\n      0x43616e74206265207a65726f0000000000000000000000000000000000000000\n        /* \"#utility.yul\":11465:11483   */\n      0x44\n      dup3\n      add\n        /* \"#utility.yul\":11458:11500   */\n      mstore\n        /* \"#utility.yul\":11517:11535   */\n      0x64\n      add\n        /* \"TokenSwapper.sol\":10779:10832  require(newTargetToken != address(0), \"Cant be zero\") */\n      tag_329\n        /* \"#utility.yul\":11205:11541   */\n      jump\n        /* \"TokenSwapper.sol\":10779:10832  require(newTargetToken != address(0), \"Cant be zero\") */\n    tag_332:\n        /* \"TokenSwapper.sol\":10843:10854  targetToken */\n      0x02\n        /* \"TokenSwapper.sol\":10843:10871  targetToken = newTargetToken */\n      dup1\n      sload\n      0xffffffffffffffffffffffff0000000000000000000000000000000000000000\n      and\n      0xffffffffffffffffffffffffffffffffffffffff\n      swap3\n      swap1\n      swap3\n      and\n      swap2\n      swap1\n      swap2\n      or\n      swap1\n      sstore\n        /* \"TokenSwapper.sol\":10701:10879  function setTargetToken(address newTargetToken) external onlyOwner {... */\n      jump\t// out\n        /* \"TokenSwapper.sol\":5960:6118  function _quoteV3(uint256 ethAmount) public view returns (uint256) {... */\n    tag_101:\n        /* \"TokenSwapper.sol\":6018:6025  uint256 */\n      0x00\n        /* \"TokenSwapper.sol\":6045:6110  getQuoteV3(ethAmount, _getWETH(), targetToken, v3PoolFee, QUOTER) */\n      tag_325\n        /* \"TokenSwapper.sol\":6056:6065  ethAmount */\n      dup3\n        /* \"TokenSwapper.sol\":6067:6077  _getWETH() */\n      tag_337\n        /* \"TokenSwapper.sol\":8020:8024  WETH */\n      and(0xffffffffffffffffffffffffffffffffffffffff, sload(0x07))\n      swap1\n        /* \"TokenSwapper.sol\":7952:8032  function _getWETH() public view returns (address) {... */\n      jump\n        /* \"TokenSwapper.sol\":6067:6077  _getWETH() */\n    tag_337:\n        /* \"TokenSwapper.sol\":6079:6090  targetToken */\n      sload(0x02)\n        /* \"TokenSwapper.sol\":6092:6101  v3PoolFee */\n      sload(0x04)\n        /* \"TokenSwapper.sol\":6103:6109  QUOTER */\n      sload(0x06)\n        /* \"TokenSwapper.sol\":6079:6090  targetToken */\n      0xffffffffffffffffffffffffffffffffffffffff\n      swap3\n      dup4\n      and\n      swap3\n        /* \"TokenSwapper.sol\":6092:6101  v3PoolFee */\n      0x010000000000000000000000000000000000000000\n      swap1\n      swap3\n      div\n      0xffffff\n      and\n      swap2\n        /* \"TokenSwapper.sol\":6103:6109  QUOTER */\n      and\n        /* \"TokenSwapper.sol\":6045:6055  getQuoteV3 */\n      tag_197\n        /* \"TokenSwapper.sol\":6045:6110  getQuoteV3(ethAmount, _getWETH(), targetToken, v3PoolFee, QUOTER) */\n      jump\t// in\n        /* \"TokenSwapper.sol\":9471:9824  function addAllowedToken(address tokenAddress) public onlyOwner {... */\n    tag_106:\n        /* \"TokenSwapper.sol\":3480:3485  owner */\n      and(0xffffffffffffffffffffffffffffffffffffffff, sload(0x01))\n        /* \"TokenSwapper.sol\":3466:3476  msg.sender */\n      caller\n        /* \"TokenSwapper.sol\":3466:3485  msg.sender == owner */\n      eq\n        /* \"TokenSwapper.sol\":3458:3500  require(msg.sender == owner, \"Only owner\") */\n      tag_339\n      jumpi\n      mload(0x40)\n      0x08c379a000000000000000000000000000000000000000000000000000000000\n      dup2\n      mstore\n        /* \"#utility.yul\":11068:11070   */\n      0x20\n        /* \"TokenSwapper.sol\":3458:3500  require(msg.sender == owner, \"Only owner\") */\n      0x04\n      dup3\n      add\n        /* \"#utility.yul\":11050:11071   */\n      mstore\n        /* \"#utility.yul\":11107:11109   */\n      0x0a\n        /* \"#utility.yul\":11087:11105   */\n      0x24\n      dup3\n      add\n        /* \"#utility.yul\":11080:11110   */\n      mstore\n        /* \"#utility.yul\":11146:11158   */\n      0x4f6e6c79206f776e657200000000000000000000000000000000000000000000\n        /* \"#utility.yul\":11126:11144   */\n      0x44\n      dup3\n      add\n        /* \"#utility.yul\":11119:11159   */\n      mstore\n        /* \"#utility.yul\":11176:11194   */\n      0x64\n      add\n        /* \"TokenSwapper.sol\":3458:3500  require(msg.sender == owner, \"Only owner\") */\n      tag_329\n        /* \"#utility.yul\":10866:11200   */\n      jump\n        /* \"TokenSwapper.sol\":3458:3500  require(msg.sender == owner, \"Only owner\") */\n    tag_339:\n        /* \"TokenSwapper.sol\":9551:9584  allowedTokensExists[tokenAddress] */\n      0xffffffffffffffffffffffffffffffffffffffff\n      dup2\n      and\n      0x00\n      swap1\n      dup2\n      mstore\n        /* \"TokenSwapper.sol\":9551:9570  allowedTokensExists */\n      0x0a\n        /* \"TokenSwapper.sol\":9551:9584  allowedTokensExists[tokenAddress] */\n      0x20\n      mstore\n      0x40\n      swap1\n      keccak256\n      sload\n      0xff\n      and\n        /* \"TokenSwapper.sol\":9546:9817  if (!allowedTokensExists[tokenAddress]) {... */\n      tag_342\n      jumpi\n        /* \"TokenSwapper.sol\":9601:9619  allowedTokensCount */\n      0x0c\n        /* \"TokenSwapper.sol\":9601:9621  allowedTokensCount++ */\n      dup1\n      sload\n      swap1\n        /* \"TokenSwapper.sol\":9601:9619  allowedTokensCount */\n      0x00\n        /* \"TokenSwapper.sol\":9601:9621  allowedTokensCount++ */\n      tag_343\n      dup4\n      tag_274\n      jump\t// in\n    tag_343:\n      swap1\n      swap2\n      sstore\n      pop\n      pop\n        /* \"TokenSwapper.sol\":9650:9668  allowedTokensCount */\n      0x0c\n      dup1\n      sload\n        /* \"TokenSwapper.sol\":9636:9669  allowedTokens[allowedTokensCount] */\n      0x00\n      swap1\n      dup2\n      mstore\n        /* \"TokenSwapper.sol\":9636:9649  allowedTokens */\n      0x09\n        /* \"TokenSwapper.sol\":9636:9669  allowedTokens[allowedTokensCount] */\n      0x20\n      swap1\n      dup2\n      mstore\n      0x40\n      dup1\n      dup4\n      keccak256\n        /* \"TokenSwapper.sol\":9636:9684  allowedTokens[allowedTokensCount] = tokenAddress */\n      dup1\n      sload\n      0xffffffffffffffffffffffff0000000000000000000000000000000000000000\n      and\n      0xffffffffffffffffffffffffffffffffffffffff\n      dup8\n      and\n      swap1\n      dup2\n      or\n      swap1\n      swap2\n      sstore\n        /* \"TokenSwapper.sol\":9699:9732  allowedTokensExists[tokenAddress] */\n      dup4\n      mstore\n        /* \"TokenSwapper.sol\":9699:9718  allowedTokensExists */\n      0x0a\n        /* \"TokenSwapper.sol\":9699:9732  allowedTokensExists[tokenAddress] */\n      dup3\n      mstore\n      dup1\n      dup4\n      keccak256\n        /* \"TokenSwapper.sol\":9699:9739  allowedTokensExists[tokenAddress] = true */\n      dup1\n      sload\n      0xffffffffffffffffffffffffffffffffffffffffffffffffffffffffffffff00\n      and\n      0x01\n      or\n      swap1\n      sstore\n        /* \"TokenSwapper.sol\":9787:9805  allowedTokensCount */\n      swap3\n      sload\n        /* \"TokenSwapper.sol\":9754:9770  allowedTokensIds */\n      0x0b\n        /* \"TokenSwapper.sol\":9754:9784  allowedTokensIds[tokenAddress] */\n      swap1\n      swap2\n      mstore\n      swap2\n      swap1\n      keccak256\n        /* \"TokenSwapper.sol\":9754:9805  allowedTokensIds[tokenAddress] = allowedTokensCount */\n      sstore\n        /* \"TokenSwapper.sol\":9546:9817  if (!allowedTokensExists[tokenAddress]) {... */\n    tag_342:\n        /* \"TokenSwapper.sol\":9471:9824  function addAllowedToken(address tokenAddress) public onlyOwner {... */\n      pop\n      jump\t// out\n        /* \"TokenSwapper.sol\":3623:4251  function init(... */\n    tag_115:\n        /* \"TokenSwapper.sol\":3480:3485  owner */\n      and(0xffffffffffffffffffffffffffffffffffffffff, sload(0x01))\n        /* \"TokenSwapper.sol\":3466:3476  msg.sender */\n      caller\n        /* \"TokenSwapper.sol\":3466:3485  msg.sender == owner */\n      eq\n        /* \"TokenSwapper.sol\":3458:3500  require(msg.sender == owner, \"Only owner\") */\n      tag_345\n      jumpi\n      mload(0x40)\n      0x08c379a000000000000000000000000000000000000000000000000000000000\n      dup2\n      mstore\n        /* \"#utility.yul\":11068:11070   */\n      0x20\n        /* \"TokenSwapper.sol\":3458:3500  require(msg.sender == owner, \"Only owner\") */\n      0x04\n      dup3\n      add\n        /* \"#utility.yul\":11050:11071   */\n      mstore\n        /* \"#utility.yul\":11107:11109   */\n      0x0a\n        /* \"#utility.yul\":11087:11105   */\n      0x24\n      dup3\n      add\n        /* \"#utility.yul\":11080:11110   */\n      mstore\n        /* \"#utility.yul\":11146:11158   */\n      0x4f6e6c79206f776e657200000000000000000000000000000000000000000000\n        /* \"#utility.yul\":11126:11144   */\n      0x44\n      dup3\n      add\n        /* \"#utility.yul\":11119:11159   */\n      mstore\n        /* \"#utility.yul\":11176:11194   */\n      0x64\n      add\n        /* \"TokenSwapper.sol\":3458:3500  require(msg.sender == owner, \"Only owner\") */\n      tag_329\n        /* \"#utility.yul\":10866:11200   */\n      jump\n        /* \"TokenSwapper.sol\":3458:3500  require(msg.sender == owner, \"Only owner\") */\n    tag_345:\n        /* \"TokenSwapper.sol\":3795:3801  inited */\n      sload(0x07)\n      0x010000000000000000000000000000000000000000\n      swap1\n      div\n      0xff\n      and\n        /* \"TokenSwapper.sol\":3795:3810  inited == false */\n      iszero\n        /* \"TokenSwapper.sol\":3787:3829  require(inited == false, \"Already inited\") */\n      tag_348\n      jumpi\n      mload(0x40)\n      0x08c379a000000000000000000000000000000000000000000000000000000000\n      dup2\n      mstore\n        /* \"#utility.yul\":11748:11750   */\n      0x20\n        /* \"TokenSwapper.sol\":3787:3829  require(inited == false, \"Already inited\") */\n      0x04\n      dup3\n      add\n        /* \"#utility.yul\":11730:11751   */\n      mstore\n        /* \"#utility.yul\":11787:11789   */\n      0x0e\n        /* \"#utility.yul\":11767:11785   */\n      0x24\n      dup3\n      add\n        /* \"#utility.yul\":11760:11790   */\n      mstore\n        /* \"#utility.yul\":11826:11842   */\n      0x416c726561647920696e69746564000000000000000000000000000000000000\n        /* \"#utility.yul\":11806:11824   */\n      0x44\n      dup3\n      add\n        /* \"#utility.yul\":11799:11843   */\n      mstore\n        /* \"#utility.yul\":11860:11878   */\n      0x64\n      add\n        /* \"TokenSwapper.sol\":3787:3829  require(inited == false, \"Already inited\") */\n      tag_329\n        /* \"#utility.yul\":11546:11884   */\n      jump\n        /* \"TokenSwapper.sol\":3787:3829  require(inited == false, \"Already inited\") */\n    tag_348:\n        /* \"TokenSwapper.sol\":3848:3867  _weth != address(0) */\n      0xffffffffffffffffffffffffffffffffffffffff\n      dup5\n      and\n        /* \"TokenSwapper.sol\":3840:3895  require(_weth != address(0), \"Invalid wrapped address\") */\n      tag_351\n      jumpi\n      mload(0x40)\n      0x08c379a000000000000000000000000000000000000000000000000000000000\n      dup2\n      mstore\n        /* \"#utility.yul\":12091:12093   */\n      0x20\n        /* \"TokenSwapper.sol\":3840:3895  require(_weth != address(0), \"Invalid wrapped address\") */\n      0x04\n      dup3\n      add\n        /* \"#utility.yul\":12073:12094   */\n      mstore\n        /* \"#utility.yul\":12130:12132   */\n      0x17\n        /* \"#utility.yul\":12110:12128   */\n      0x24\n      dup3\n      add\n        /* \"#utility.yul\":12103:12133   */\n      mstore\n        /* \"#utility.yul\":12169:12194   */\n      0x496e76616c696420777261707065642061646472657373000000000000000000\n        /* \"#utility.yul\":12149:12167   */\n      0x44\n      dup3\n      add\n        /* \"#utility.yul\":12142:12195   */\n      mstore\n        /* \"#utility.yul\":12212:12230   */\n      0x64\n      add\n        /* \"TokenSwapper.sol\":3840:3895  require(_weth != address(0), \"Invalid wrapped address\") */\n      tag_329\n        /* \"#utility.yul\":11889:12236   */\n      jump\n        /* \"TokenSwapper.sol\":3840:3895  require(_weth != address(0), \"Invalid wrapped address\") */\n    tag_351:\n        /* \"TokenSwapper.sol\":3914:3940  _targetToken != address(0) */\n      0xffffffffffffffffffffffffffffffffffffffff\n      dup4\n      and\n        /* \"TokenSwapper.sol\":3906:3958  require(_targetToken != address(0), \"Invalid token\") */\n      tag_354\n      jumpi\n      mload(0x40)\n      0x08c379a000000000000000000000000000000000000000000000000000000000\n      dup2\n      mstore\n        /* \"#utility.yul\":12443:12445   */\n      0x20\n        /* \"TokenSwapper.sol\":3906:3958  require(_targetToken != address(0), \"Invalid token\") */\n      0x04\n      dup3\n      add\n        /* \"#utility.yul\":12425:12446   */\n      mstore\n        /* \"#utility.yul\":12482:12484   */\n      0x0d\n        /* \"#utility.yul\":12462:12480   */\n      0x24\n      dup3\n      add\n        /* \"#utility.yul\":12455:12485   */\n      mstore\n        /* \"#utility.yul\":12521:12536   */\n      0x496e76616c696420746f6b656e00000000000000000000000000000000000000\n        /* \"#utility.yul\":12501:12519   */\n      0x44\n      dup3\n      add\n        /* \"#utility.yul\":12494:12537   */\n      mstore\n        /* \"#utility.yul\":12554:12572   */\n      0x64\n      add\n        /* \"TokenSwapper.sol\":3906:3958  require(_targetToken != address(0), \"Invalid token\") */\n      tag_329\n        /* \"#utility.yul\":12241:12578   */\n      jump\n        /* \"TokenSwapper.sol\":3906:3958  require(_targetToken != address(0), \"Invalid token\") */\n    tag_354:\n        /* \"TokenSwapper.sol\":3977:4000  _routerV2 != address(0) */\n      0xffffffffffffffffffffffffffffffffffffffff\n      dup3\n      and\n        /* \"TokenSwapper.sol\":3969:4022  require(_routerV2 != address(0), \"Invalid V2 router\") */\n      tag_357\n      jumpi\n      mload(0x40)\n      0x08c379a000000000000000000000000000000000000000000000000000000000\n      dup2\n      mstore\n        /* \"#utility.yul\":12785:12787   */\n      0x20\n        /* \"TokenSwapper.sol\":3969:4022  require(_routerV2 != address(0), \"Invalid V2 router\") */\n      0x04\n      dup3\n      add\n        /* \"#utility.yul\":12767:12788   */\n      mstore\n        /* \"#utility.yul\":12824:12826   */\n      0x11\n        /* \"#utility.yul\":12804:12822   */\n      0x24\n      dup3\n      add\n        /* \"#utility.yul\":12797:12827   */\n      mstore\n        /* \"#utility.yul\":12863:12882   */\n      0x496e76616c696420563220726f75746572000000000000000000000000000000\n        /* \"#utility.yul\":12843:12861   */\n      0x44\n      dup3\n      add\n        /* \"#utility.yul\":12836:12883   */\n      mstore\n        /* \"#utility.yul\":12900:12918   */\n      0x64\n      add\n        /* \"TokenSwapper.sol\":3969:4022  require(_routerV2 != address(0), \"Invalid V2 router\") */\n      tag_329\n        /* \"#utility.yul\":12583:12924   */\n      jump\n        /* \"TokenSwapper.sol\":3969:4022  require(_routerV2 != address(0), \"Invalid V2 router\") */\n    tag_357:\n        /* \"TokenSwapper.sol\":4057:4058  0 */\n      0x00\n        /* \"TokenSwapper.sol\":4041:4054  _minAmountOut */\n      dup2\n        /* \"TokenSwapper.sol\":4041:4058  _minAmountOut > 0 */\n      gt\n        /* \"TokenSwapper.sol\":4033:4089  require(_minAmountOut > 0, \"Min amount out must be > 0\") */\n      tag_360\n      jumpi\n      mload(0x40)\n      0x08c379a000000000000000000000000000000000000000000000000000000000\n      dup2\n      mstore\n        /* \"#utility.yul\":13131:13133   */\n      0x20\n        /* \"TokenSwapper.sol\":4033:4089  require(_minAmountOut > 0, \"Min amount out must be > 0\") */\n      0x04\n      dup3\n      add\n        /* \"#utility.yul\":13113:13134   */\n      mstore\n        /* \"#utility.yul\":13170:13172   */\n      0x1a\n        /* \"#utility.yul\":13150:13168   */\n      0x24\n      dup3\n      add\n        /* \"#utility.yul\":13143:13173   */\n      mstore\n        /* \"#utility.yul\":13209:13237   */\n      0x4d696e20616d6f756e74206f7574206d757374206265203e2030000000000000\n        /* \"#utility.yul\":13189:13207   */\n      0x44\n      dup3\n      add\n        /* \"#utility.yul\":13182:13238   */\n      mstore\n        /* \"#utility.yul\":13255:13273   */\n      0x64\n      add\n        /* \"TokenSwapper.sol\":4033:4089  require(_minAmountOut > 0, \"Min amount out must be > 0\") */\n      tag_329\n        /* \"#utility.yul\":12929:13279   */\n      jump\n        /* \"TokenSwapper.sol\":4033:4089  require(_minAmountOut > 0, \"Min amount out must be > 0\") */\n    tag_360:\n        /* \"TokenSwapper.sol\":4100:4106  inited */\n      0x07\n        /* \"TokenSwapper.sol\":4100:4113  inited = true */\n      dup1\n      sload\n        /* \"TokenSwapper.sol\":4124:4136  WETH = _weth */\n      0xffffffffffffffffffffffffffffffffffffffff\n      swap6\n      dup7\n      and\n      0xffffffffffffffffffffff000000000000000000000000000000000000000000\n      swap1\n      swap2\n      and\n      or\n        /* \"TokenSwapper.sol\":4100:4113  inited = true */\n      0x010000000000000000000000000000000000000000\n        /* \"TokenSwapper.sol\":4124:4136  WETH = _weth */\n      or\n      swap1\n      sstore\n        /* \"TokenSwapper.sol\":4147:4158  targetToken */\n      0x02\n        /* \"TokenSwapper.sol\":4147:4173  targetToken = _targetToken */\n      dup1\n      sload\n      swap4\n      dup6\n      and\n        /* \"TokenSwapper.sol\":4124:4136  WETH = _weth */\n      0xffffffffffffffffffffffff0000000000000000000000000000000000000000\n        /* \"TokenSwapper.sol\":4147:4173  targetToken = _targetToken */\n      swap5\n      dup6\n      and\n      or\n      swap1\n      sstore\n        /* \"TokenSwapper.sol\":4184:4192  routerV2 */\n      0x03\n        /* \"TokenSwapper.sol\":4184:4204  routerV2 = _routerV2 */\n      dup1\n      sload\n      swap3\n      swap1\n      swap5\n      and\n      swap2\n      swap1\n      swap3\n      and\n      or\n      swap1\n      swap2\n      sstore\n      0x05\n        /* \"TokenSwapper.sol\":4215:4243  minAmountOut = _minAmountOut */\n      sstore\n        /* \"TokenSwapper.sol\":3623:4251  function init(... */\n      jump\t// out\n        /* \"TokenSwapper.sol\":9830:10298  function delAllowedToken(address tokenAddress) public onlyOwner {... */\n    tag_132:\n        /* \"TokenSwapper.sol\":3480:3485  owner */\n      and(0xffffffffffffffffffffffffffffffffffffffff, sload(0x01))\n        /* \"TokenSwapper.sol\":3466:3476  msg.sender */\n      caller\n        /* \"TokenSwapper.sol\":3466:3485  msg.sender == owner */\n      eq\n        /* \"TokenSwapper.sol\":3458:3500  require(msg.sender == owner, \"Only owner\") */\n      tag_364\n      jumpi\n      mload(0x40)\n      0x08c379a000000000000000000000000000000000000000000000000000000000\n      dup2\n      mstore\n        /* \"#utility.yul\":11068:11070   */\n      0x20\n        /* \"TokenSwapper.sol\":3458:3500  require(msg.sender == owner, \"Only owner\") */\n      0x04\n      dup3\n      add\n        /* \"#utility.yul\":11050:11071   */\n      mstore\n        /* \"#utility.yul\":11107:11109   */\n      0x0a\n        /* \"#utility.yul\":11087:11105   */\n      0x24\n      dup3\n      add\n        /* \"#utility.yul\":11080:11110   */\n      mstore\n        /* \"#utility.yul\":11146:11158   */\n      0x4f6e6c79206f776e657200000000000000000000000000000000000000000000\n        /* \"#utility.yul\":11126:11144   */\n      0x44\n      dup3\n      add\n        /* \"#utility.yul\":11119:11159   */\n      mstore\n        /* \"#utility.yul\":11176:11194   */\n      0x64\n      add\n        /* \"TokenSwapper.sol\":3458:3500  require(msg.sender == owner, \"Only owner\") */\n      tag_329\n        /* \"#utility.yul\":10866:11200   */\n      jump\n        /* \"TokenSwapper.sol\":3458:3500  require(msg.sender == owner, \"Only owner\") */\n    tag_364:\n        /* \"TokenSwapper.sol\":9909:9942  allowedTokensExists[tokenAddress] */\n      0xffffffffffffffffffffffffffffffffffffffff\n      dup2\n      and\n      0x00\n      swap1\n      dup2\n      mstore\n        /* \"TokenSwapper.sol\":9909:9928  allowedTokensExists */\n      0x0a\n        /* \"TokenSwapper.sol\":9909:9942  allowedTokensExists[tokenAddress] */\n      0x20\n      mstore\n      0x40\n      swap1\n      keccak256\n      sload\n      0xff\n      and\n        /* \"TokenSwapper.sol\":9905:10291  if (allowedTokensExists[tokenAddress]) {... */\n      iszero\n      tag_342\n      jumpi\n        /* \"TokenSwapper.sol\":9977:10007  allowedTokensIds[tokenAddress] */\n      0xffffffffffffffffffffffffffffffffffffffff\n      dup1\n      dup3\n      and\n        /* \"TokenSwapper.sol\":9959:9974  uint256 tokenId */\n      0x00\n        /* \"TokenSwapper.sol\":9977:10007  allowedTokensIds[tokenAddress] */\n      dup2\n      dup2\n      mstore\n        /* \"TokenSwapper.sol\":9977:9993  allowedTokensIds */\n      0x0b\n        /* \"TokenSwapper.sol\":9977:10007  allowedTokensIds[tokenAddress] */\n      0x20\n      dup2\n      dup2\n      mstore\n      0x40\n      dup1\n      dup5\n      keccak256\n      sload\n        /* \"TokenSwapper.sol\":10071:10089  allowedTokensCount */\n      0x0c\n      dup1\n      sload\n        /* \"TokenSwapper.sol\":10057:10090  allowedTokens[allowedTokensCount] */\n      dup7\n      mstore\n        /* \"TokenSwapper.sol\":10057:10070  allowedTokens */\n      0x09\n        /* \"TokenSwapper.sol\":10057:10090  allowedTokens[allowedTokensCount] */\n      dup1\n      dup6\n      mstore\n      dup4\n      dup8\n      keccak256\n      sload\n      dup10\n      and\n        /* \"TokenSwapper.sol\":10022:10105  allowedTokensIds[... */\n      dup8\n      mstore\n      swap5\n      dup5\n      mstore\n      dup3\n      dup7\n      keccak256\n        /* \"TokenSwapper.sol\":10022:10115  allowedTokensIds[... */\n      dup3\n      swap1\n      sstore\n        /* \"TokenSwapper.sol\":10169:10187  allowedTokensCount */\n      dup1\n      sload\n        /* \"TokenSwapper.sol\":10155:10188  allowedTokens[allowedTokensCount] */\n      dup7\n      mstore\n      swap4\n      dup4\n      mstore\n      dup2\n      dup6\n      keccak256\n      sload\n        /* \"TokenSwapper.sol\":10130:10152  allowedTokens[tokenId] */\n      dup2\n      dup7\n      mstore\n      dup3\n      dup7\n      keccak256\n        /* \"TokenSwapper.sol\":10130:10188  allowedTokens[tokenId] = allowedTokens[allowedTokensCount] */\n      dup1\n      sload\n      0xffffffffffffffffffffffff0000000000000000000000000000000000000000\n      and\n        /* \"TokenSwapper.sol\":10155:10188  allowedTokens[allowedTokensCount] */\n      swap2\n      swap1\n      swap9\n      and\n        /* \"TokenSwapper.sol\":10130:10188  allowedTokens[tokenId] = allowedTokens[allowedTokensCount] */\n      or\n      swap1\n      swap7\n      sstore\n        /* \"TokenSwapper.sol\":10203:10236  allowedTokensExists[tokenAddress] */\n      swap4\n      dup4\n      mstore\n        /* \"TokenSwapper.sol\":10203:10222  allowedTokensExists */\n      0x0a\n        /* \"TokenSwapper.sol\":10203:10236  allowedTokensExists[tokenAddress] */\n      swap1\n      mstore\n      swap2\n      dup2\n      keccak256\n        /* \"TokenSwapper.sol\":10203:10244  allowedTokensExists[tokenAddress] = false */\n      dup1\n      sload\n      0xffffffffffffffffffffffffffffffffffffffffffffffffffffffffffffff00\n      and\n      swap1\n      sstore\n        /* \"TokenSwapper.sol\":10259:10279  allowedTokensCount-- */\n      dup2\n      sload\n      swap2\n        /* \"TokenSwapper.sol\":10071:10089  allowedTokensCount */\n      swap1\n        /* \"TokenSwapper.sol\":10259:10279  allowedTokensCount-- */\n      tag_368\n      dup4\n      tag_369\n      jump\t// in\n    tag_368:\n      swap2\n      swap1\n      pop\n      sstore\n      pop\n        /* \"TokenSwapper.sol\":9944:10291  {... */\n      pop\n        /* \"TokenSwapper.sol\":9830:10298  function delAllowedToken(address tokenAddress) public onlyOwner {... */\n      pop\n      jump\t// out\n        /* \"TokenSwapper.sol\":10885:11048  function setRouterV2(address newRouterV2) external onlyOwner {... */\n    tag_136:\n        /* \"TokenSwapper.sol\":3480:3485  owner */\n      and(0xffffffffffffffffffffffffffffffffffffffff, sload(0x01))\n        /* \"TokenSwapper.sol\":3466:3476  msg.sender */\n      caller\n        /* \"TokenSwapper.sol\":3466:3485  msg.sender == owner */\n      eq\n        /* \"TokenSwapper.sol\":3458:3500  require(msg.sender == owner, \"Only owner\") */\n      tag_371\n      jumpi\n      mload(0x40)\n      0x08c379a000000000000000000000000000000000000000000000000000000000\n      dup2\n      mstore\n        /* \"#utility.yul\":11068:11070   */\n      0x20\n        /* \"TokenSwapper.sol\":3458:3500  require(msg.sender == owner, \"Only owner\") */\n      0x04\n      dup3\n      add\n        /* \"#utility.yul\":11050:11071   */\n      mstore\n        /* \"#utility.yul\":11107:11109   */\n      0x0a\n        /* \"#utility.yul\":11087:11105   */\n      0x24\n      dup3\n      add\n        /* \"#utility.yul\":11080:11110   */\n      mstore\n        /* \"#utility.yul\":11146:11158   */\n      0x4f6e6c79206f776e657200000000000000000000000000000000000000000000\n        /* \"#utility.yul\":11126:11144   */\n      0x44\n      dup3\n      add\n        /* \"#utility.yul\":11119:11159   */\n      mstore\n        /* \"#utility.yul\":11176:11194   */\n      0x64\n      add\n        /* \"TokenSwapper.sol\":3458:3500  require(msg.sender == owner, \"Only owner\") */\n      tag_329\n        /* \"#utility.yul\":10866:11200   */\n      jump\n        /* \"TokenSwapper.sol\":3458:3500  require(msg.sender == owner, \"Only owner\") */\n    tag_371:\n        /* \"TokenSwapper.sol\":10965:10990  newRouterV2 != address(0) */\n      0xffffffffffffffffffffffffffffffffffffffff\n      dup2\n      and\n        /* \"TokenSwapper.sol\":10957:11007  require(newRouterV2 != address(0), \"Cant be zero\") */\n      tag_374\n      jumpi\n      mload(0x40)\n      0x08c379a000000000000000000000000000000000000000000000000000000000\n      dup2\n      mstore\n        /* \"#utility.yul\":11407:11409   */\n      0x20\n        /* \"TokenSwapper.sol\":10957:11007  require(newRouterV2 != address(0), \"Cant be zero\") */\n      0x04\n      dup3\n      add\n        /* \"#utility.yul\":11389:11410   */\n      mstore\n        /* \"#utility.yul\":11446:11448   */\n      0x0c\n        /* \"#utility.yul\":11426:11444   */\n      0x24\n      dup3\n      add\n        /* \"#utility.yul\":11419:11449   */\n      mstore\n        /* \"#utility.yul\":11485:11499   */\n      0x43616e74206265207a65726f0000000000000000000000000000000000000000\n        /* \"#utility.yul\":11465:11483   */\n      0x44\n      dup3\n      add\n        /* \"#utility.yul\":11458:11500   */\n      mstore\n        /* \"#utility.yul\":11517:11535   */\n      0x64\n      add\n        /* \"TokenSwapper.sol\":10957:11007  require(newRouterV2 != address(0), \"Cant be zero\") */\n      tag_329\n        /* \"#utility.yul\":11205:11541   */\n      jump\n        /* \"TokenSwapper.sol\":10957:11007  require(newRouterV2 != address(0), \"Cant be zero\") */\n    tag_374:\n        /* \"TokenSwapper.sol\":11018:11026  routerV2 */\n      0x03\n        /* \"TokenSwapper.sol\":11018:11040  routerV2 = newRouterV2 */\n      dup1\n      sload\n      0xffffffffffffffffffffffff0000000000000000000000000000000000000000\n      and\n      0xffffffffffffffffffffffffffffffffffffffff\n      swap3\n      swap1\n      swap3\n      and\n      swap2\n      swap1\n      swap2\n      or\n      swap1\n      sstore\n        /* \"TokenSwapper.sol\":10885:11048  function setRouterV2(address newRouterV2) external onlyOwner {... */\n      jump\t// out\n        /* \"TokenSwapper.sol\":10609:10695  function setWETH(address newWETH) external onlyOwner {... */\n    tag_140:\n        /* \"TokenSwapper.sol\":3480:3485  owner */\n      and(0xffffffffffffffffffffffffffffffffffffffff, sload(0x01))\n        /* \"TokenSwapper.sol\":3466:3476  msg.sender */\n      caller\n        /* \"TokenSwapper.sol\":3466:3485  msg.sender == owner */\n      eq\n        /* \"TokenSwapper.sol\":3458:3500  require(msg.sender == owner, \"Only owner\") */\n      tag_377\n      jumpi\n      mload(0x40)\n      0x08c379a000000000000000000000000000000000000000000000000000000000\n      dup2\n      mstore\n        /* \"#utility.yul\":11068:11070   */\n      0x20\n        /* \"TokenSwapper.sol\":3458:3500  require(msg.sender == owner, \"Only owner\") */\n      0x04\n      dup3\n      add\n        /* \"#utility.yul\":11050:11071   */\n      mstore\n        /* \"#utility.yul\":11107:11109   */\n      0x0a\n        /* \"#utility.yul\":11087:11105   */\n      0x24\n      dup3\n      add\n        /* \"#utility.yul\":11080:11110   */\n      mstore\n        /* \"#utility.yul\":11146:11158   */\n      0x4f6e6c79206f776e657200000000000000000000000000000000000000000000\n        /* \"#utility.yul\":11126:11144   */\n      0x44\n      dup3\n      add\n        /* \"#utility.yul\":11119:11159   */\n      mstore\n        /* \"#utility.yul\":11176:11194   */\n      0x64\n      add\n        /* \"TokenSwapper.sol\":3458:3500  require(msg.sender == owner, \"Only owner\") */\n      tag_329\n        /* \"#utility.yul\":10866:11200   */\n      jump\n        /* \"TokenSwapper.sol\":3458:3500  require(msg.sender == owner, \"Only owner\") */\n    tag_377:\n        /* \"TokenSwapper.sol\":10673:10677  WETH */\n      0x07\n        /* \"TokenSwapper.sol\":10673:10687  WETH = newWETH */\n      dup1\n      sload\n      0xffffffffffffffffffffffff0000000000000000000000000000000000000000\n      and\n      0xffffffffffffffffffffffffffffffffffffffff\n      swap3\n      swap1\n      swap3\n      and\n      swap2\n      swap1\n      swap2\n      or\n      swap1\n      sstore\n        /* \"TokenSwapper.sol\":10609:10695  function setWETH(address newWETH) external onlyOwner {... */\n      jump\t// out\n        /* \"TokenSwapper.sol\":12229:12807  function getContractInfo() public view returns (ContractInfo memory) {... */\n    tag_152:\n        /* \"TokenSwapper.sol\":12277:12296  ContractInfo memory */\n      tag_380\n      0x40\n      dup1\n      mload\n      0x01a0\n      dup2\n      add\n      dup3\n      mstore\n      0x00\n      dup1\n      dup3\n      mstore\n      0x20\n      dup3\n      add\n      dup2\n      swap1\n      mstore\n      swap2\n      dup2\n      add\n      dup3\n      swap1\n      mstore\n      0x60\n      dup2\n      add\n      dup3\n      swap1\n      mstore\n      0x80\n      dup2\n      add\n      dup3\n      swap1\n      mstore\n      0xa0\n      dup2\n      add\n      dup3\n      swap1\n      mstore\n      swap1\n      0xc0\n      dup3\n      add\n      swap1\n      dup2\n      mstore\n      0x20\n      add\n      0x00\n      dup2\n      mstore\n      0x20\n      add\n      and(0xffffffffffffffffffffffffffffffffffffffff, 0x00)\n      dup2\n      mstore\n      0x20\n      add\n      and(0xffffffffffffffffffffffffffffffffffffffff, 0x00)\n      dup2\n      mstore\n      0x20\n      add\n      0x00\n      dup2\n      mstore\n      0x20\n      add\n      0x00\n      dup2\n      mstore\n      0x20\n      add\n      0x00\n      dup2\n      mstore\n      pop\n      swap1\n      jump\n    tag_380:\n        /* \"TokenSwapper.sol\":12316:12799  ContractInfo({... */\n      0x40\n      dup1\n      mload\n      0x01a0\n      dup2\n      add\n      dup3\n      mstore\n        /* \"TokenSwapper.sol\":12352:12358  inited */\n      sload(0x07)\n      0x010000000000000000000000000000000000000000\n      swap1\n      dup2\n      swap1\n      div\n      0xff\n      swap1\n      dup2\n      and\n        /* \"TokenSwapper.sol\":12316:12799  ContractInfo({... */\n      iszero\n      iszero\n      dup4\n      mstore\n        /* \"TokenSwapper.sol\":12380:12385  owner */\n      0x01\n      dup1\n      sload\n      0xffffffffffffffffffffffffffffffffffffffff\n      swap1\n      dup2\n      and\n        /* \"TokenSwapper.sol\":12316:12799  ContractInfo({... */\n      0x20\n      dup7\n      add\n      mstore\n        /* \"TokenSwapper.sol\":12413:12424  targetToken */\n      sload(0x02)\n      dup2\n      and\n        /* \"TokenSwapper.sol\":12316:12799  ContractInfo({... */\n      swap6\n      dup6\n      add\n      swap6\n      swap1\n      swap6\n      mstore\n        /* \"TokenSwapper.sol\":12449:12457  routerV2 */\n      sload(0x03)\n      dup6\n      and\n        /* \"TokenSwapper.sol\":12316:12799  ContractInfo({... */\n      0x60\n      dup6\n      add\n      mstore\n        /* \"TokenSwapper.sol\":12482:12490  routerV3 */\n      sload(0x04)\n      swap5\n      dup6\n      and\n        /* \"TokenSwapper.sol\":12316:12799  ContractInfo({... */\n      0x80\n      dup6\n      add\n      mstore\n        /* \"TokenSwapper.sol\":12516:12525  v3PoolFee */\n      swap2\n      dup5\n      div\n      0xffffff\n      and\n        /* \"TokenSwapper.sol\":12316:12799  ContractInfo({... */\n      0xa0\n      dup5\n      add\n      mstore\n      swap2\n      swap3\n      0xc0\n      dup5\n      add\n      swap3\n        /* \"TokenSwapper.sol\":12552:12562  dexVersion */\n      0x010000000000000000000000000000000000000000000000\n      swap1\n      swap2\n      div\n      and\n      swap1\n        /* \"TokenSwapper.sol\":12316:12799  ContractInfo({... */\n      dup2\n      gt\n      iszero\n      tag_384\n      jumpi\n      tag_384\n      tag_233\n      jump\t// in\n    tag_384:\n      dup2\n      mstore\n        /* \"TokenSwapper.sol\":12593:12605  minAmountOut */\n      sload(0x05)\n        /* \"TokenSwapper.sol\":12316:12799  ContractInfo({... */\n      0x20\n      dup3\n      add\n      mstore\n        /* \"TokenSwapper.sol\":12628:12634  QUOTER */\n      sload(0x06)\n      0xffffffffffffffffffffffffffffffffffffffff\n      swap1\n      dup2\n      and\n        /* \"TokenSwapper.sol\":12316:12799  ContractInfo({... */\n      0x40\n      dup4\n      add\n      mstore\n        /* \"TokenSwapper.sol\":12655:12659  WETH */\n      sload(0x07)\n      and\n        /* \"TokenSwapper.sol\":12316:12799  ContractInfo({... */\n      0x60\n      dup3\n      add\n      mstore\n        /* \"TokenSwapper.sol\":12688:12709  address(this).balance */\n      selfbalance\n        /* \"TokenSwapper.sol\":12316:12799  ContractInfo({... */\n      0x80\n      dup3\n      add\n      mstore\n        /* \"TokenSwapper.sol\":12736:12746  totalEthIn */\n      sload(0x0d)\n        /* \"TokenSwapper.sol\":12316:12799  ContractInfo({... */\n      0xa0\n      dup3\n      add\n      mstore\n        /* \"TokenSwapper.sol\":12775:12787  totalSwapOut */\n      sload(0x0e)\n        /* \"TokenSwapper.sol\":12316:12799  ContractInfo({... */\n      0xc0\n      swap1\n      swap2\n      add\n      mstore\n        /* \"TokenSwapper.sol\":12309:12799  return ContractInfo({... */\n      swap2\n        /* \"TokenSwapper.sol\":12229:12807  function getContractInfo() public view returns (ContractInfo memory) {... */\n      swap1\n      pop\n      jump\t// out\n        /* \"TokenSwapper.sol\":11054:11157  function setDexVersion(DexVersion _version) external onlyOwner {... */\n    tag_178:\n        /* \"TokenSwapper.sol\":3480:3485  owner */\n      and(0xffffffffffffffffffffffffffffffffffffffff, sload(0x01))\n        /* \"TokenSwapper.sol\":3466:3476  msg.sender */\n      caller\n        /* \"TokenSwapper.sol\":3466:3485  msg.sender == owner */\n      eq\n        /* \"TokenSwapper.sol\":3458:3500  require(msg.sender == owner, \"Only owner\") */\n      tag_387\n      jumpi\n      mload(0x40)\n      0x08c379a000000000000000000000000000000000000000000000000000000000\n      dup2\n      mstore\n        /* \"#utility.yul\":11068:11070   */\n      0x20\n        /* \"TokenSwapper.sol\":3458:3500  require(msg.sender == owner, \"Only owner\") */\n      0x04\n      dup3\n      add\n        /* \"#utility.yul\":11050:11071   */\n      mstore\n        /* \"#utility.yul\":11107:11109   */\n      0x0a\n        /* \"#utility.yul\":11087:11105   */\n      0x24\n      dup3\n      add\n        /* \"#utility.yul\":11080:11110   */\n      mstore\n        /* \"#utility.yul\":11146:11158   */\n      0x4f6e6c79206f776e657200000000000000000000000000000000000000000000\n        /* \"#utility.yul\":11126:11144   */\n      0x44\n      dup3\n      add\n        /* \"#utility.yul\":11119:11159   */\n      mstore\n        /* \"#utility.yul\":11176:11194   */\n      0x64\n      add\n        /* \"TokenSwapper.sol\":3458:3500  require(msg.sender == owner, \"Only owner\") */\n      tag_329\n        /* \"#utility.yul\":10866:11200   */\n      jump\n        /* \"TokenSwapper.sol\":3458:3500  require(msg.sender == owner, \"Only owner\") */\n    tag_387:\n        /* \"TokenSwapper.sol\":11128:11138  dexVersion */\n      0x04\n        /* \"TokenSwapper.sol\":11128:11149  dexVersion = _version */\n      dup1\n      sload\n        /* \"TokenSwapper.sol\":11141:11149  _version */\n      dup3\n      swap2\n        /* \"TokenSwapper.sol\":11128:11138  dexVersion */\n      swap1\n        /* \"TokenSwapper.sol\":11128:11149  dexVersion = _version */\n      0xffffffffffffffff00ffffffffffffffffffffffffffffffffffffffffffffff\n      and\n      0x010000000000000000000000000000000000000000000000\n        /* \"TokenSwapper.sol\":11141:11149  _version */\n      dup4\n        /* \"TokenSwapper.sol\":11128:11149  dexVersion = _version */\n      0x01\n      dup2\n      gt\n      iszero\n      tag_391\n      jumpi\n      tag_391\n      tag_233\n      jump\t// in\n    tag_391:\n      mul\n      or\n      swap1\n      sstore\n      pop\n        /* \"TokenSwapper.sol\":11054:11157  function setDexVersion(DexVersion _version) external onlyOwner {... */\n      pop\n      jump\t// out\n        /* \"TokenSwapper.sol\":5585:5954  function getQuoteV2(uint256 _ethAmount, address _weth, address _targetToken, address _routerV2) public view returns (uint256) {... */\n    tag_183:\n        /* \"TokenSwapper.sol\":5746:5762  new address[](2) */\n      0x40\n      dup1\n      mload\n        /* \"TokenSwapper.sol\":5760:5761  2 */\n      0x02\n        /* \"TokenSwapper.sol\":5746:5762  new address[](2) */\n      dup1\n      dup3\n      mstore\n      0x60\n      dup3\n      add\n      dup4\n      mstore\n        /* \"TokenSwapper.sol\":5702:5709  uint256 */\n      0x00\n      swap3\n      dup4\n      swap3\n        /* \"TokenSwapper.sol\":5746:5762  new address[](2) */\n      swap2\n        /* \"TokenSwapper.sol\":5760:5761  2 */\n      swap1\n        /* \"TokenSwapper.sol\":5746:5762  new address[](2) */\n      0x20\n      dup4\n      add\n      swap1\n      dup1\n      calldatasize\n      dup4\n      calldatacopy\n      add\n      swap1\n      pop\n      pop\n        /* \"TokenSwapper.sol\":5722:5762  address[] memory path = new address[](2) */\n      swap1\n      pop\n        /* \"TokenSwapper.sol\":5783:5788  _weth */\n      dup5\n        /* \"TokenSwapper.sol\":5773:5777  path */\n      dup2\n        /* \"TokenSwapper.sol\":5778:5779  0 */\n      0x00\n        /* \"TokenSwapper.sol\":5773:5780  path[0] */\n      dup2\n      mload\n      dup2\n      lt\n      tag_397\n      jumpi\n      tag_397\n      tag_303\n      jump\t// in\n    tag_397:\n      0x20\n      mul\n      0x20\n      add\n      add\n        /* \"TokenSwapper.sol\":5773:5788  path[0] = _weth */\n      swap1\n      0xffffffffffffffffffffffffffffffffffffffff\n      and\n      swap1\n      dup2\n      0xffffffffffffffffffffffffffffffffffffffff\n      and\n      dup2\n      mstore\n      pop\n      pop\n        /* \"TokenSwapper.sol\":5809:5821  _targetToken */\n      dup4\n        /* \"TokenSwapper.sol\":5799:5803  path */\n      dup2\n        /* \"TokenSwapper.sol\":5804:5805  1 */\n      0x01\n        /* \"TokenSwapper.sol\":5799:5806  path[1] */\n      dup2\n      mload\n      dup2\n      lt\n      tag_399\n      jumpi\n      tag_399\n      tag_303\n      jump\t// in\n    tag_399:\n        /* \"TokenSwapper.sol\":5799:5821  path[1] = _targetToken */\n      0xffffffffffffffffffffffffffffffffffffffff\n      swap3\n      dup4\n      and\n        /* \"TokenSwapper.sol\":5799:5806  path[1] */\n      0x20\n      swap2\n      dup3\n      mul\n      swap3\n      swap1\n      swap3\n      add\n      add\n        /* \"TokenSwapper.sol\":5799:5821  path[1] = _targetToken */\n      mstore\n        /* \"TokenSwapper.sol\":5859:5918  IUniswapV2Router(_routerV2).getAmountsOut(_ethAmount, path) */\n      mload(0x40)\n      0xd06ca61f00000000000000000000000000000000000000000000000000000000\n      dup2\n      mstore\n        /* \"TokenSwapper.sol\":5832:5856  uint256[] memory amounts */\n      0x00\n      swap2\n        /* \"TokenSwapper.sol\":5859:5900  IUniswapV2Router(_routerV2).getAmountsOut */\n      dup6\n      and\n      swap1\n      0xd06ca61f\n      swap1\n        /* \"TokenSwapper.sol\":5859:5918  IUniswapV2Router(_routerV2).getAmountsOut(_ethAmount, path) */\n      tag_400\n      swap1\n        /* \"TokenSwapper.sol\":5901:5911  _ethAmount */\n      dup11\n      swap1\n        /* \"TokenSwapper.sol\":5913:5917  path */\n      dup7\n      swap1\n        /* \"TokenSwapper.sol\":5859:5918  IUniswapV2Router(_routerV2).getAmountsOut(_ethAmount, path) */\n      0x04\n      add\n      tag_401\n      jump\t// in\n    tag_400:\n      0x00\n      mload(0x40)\n      dup1\n      dup4\n      sub\n      dup2\n      dup7\n      gas\n      staticcall\n      iszero\n      dup1\n      iszero\n      tag_403\n      jumpi\n      returndatasize\n      0x00\n      dup1\n      returndatacopy\n      revert(0x00, returndatasize)\n    tag_403:\n      pop\n      pop\n      pop\n      pop\n      mload(0x40)\n      returndatasize\n      0x00\n      dup3\n      returndatacopy\n      0x1f\n      returndatasize\n      swap1\n      dup2\n      add\n      0xffffffffffffffffffffffffffffffffffffffffffffffffffffffffffffffe0\n      and\n      dup3\n      add\n      0x40\n      mstore\n      tag_404\n      swap2\n      swap1\n      dup2\n      add\n      swap1\n      tag_405\n      jump\t// in\n    tag_404:\n        /* \"TokenSwapper.sol\":5832:5918  uint256[] memory amounts = IUniswapV2Router(_routerV2).getAmountsOut(_ethAmount, path) */\n      swap1\n      pop\n        /* \"TokenSwapper.sol\":5936:5943  amounts */\n      dup1\n        /* \"TokenSwapper.sol\":5944:5945  1 */\n      0x01\n        /* \"TokenSwapper.sol\":5936:5946  amounts[1] */\n      dup2\n      mload\n      dup2\n      lt\n      tag_407\n      jumpi\n      tag_407\n      tag_303\n      jump\t// in\n    tag_407:\n      0x20\n      mul\n      0x20\n      add\n      add\n      mload\n        /* \"TokenSwapper.sol\":5929:5946  return amounts[1] */\n      swap3\n      pop\n      pop\n      pop\n        /* \"TokenSwapper.sol\":5585:5954  function getQuoteV2(uint256 _ethAmount, address _weth, address _targetToken, address _routerV2) public view returns (uint256) {... */\n      swap5\n      swap4\n      pop\n      pop\n      pop\n      pop\n      jump\t// out\n        /* \"TokenSwapper.sol\":10338:10501  function setReciever(address newReciever) external onlyOwner {... */\n    tag_188:\n        /* \"TokenSwapper.sol\":3480:3485  owner */\n      and(0xffffffffffffffffffffffffffffffffffffffff, sload(0x01))\n        /* \"TokenSwapper.sol\":3466:3476  msg.sender */\n      caller\n        /* \"TokenSwapper.sol\":3466:3485  msg.sender == owner */\n      eq\n        /* \"TokenSwapper.sol\":3458:3500  require(msg.sender == owner, \"Only owner\") */\n      tag_409\n      jumpi\n      mload(0x40)\n      0x08c379a000000000000000000000000000000000000000000000000000000000\n      dup2\n      mstore\n        /* \"#utility.yul\":11068:11070   */\n      0x20\n        /* \"TokenSwapper.sol\":3458:3500  require(msg.sender == owner, \"Only owner\") */\n      0x04\n      dup3\n      add\n        /* \"#utility.yul\":11050:11071   */\n      mstore\n        /* \"#utility.yul\":11107:11109   */\n      0x0a\n        /* \"#utility.yul\":11087:11105   */\n      0x24\n      dup3\n      add\n        /* \"#utility.yul\":11080:11110   */\n      mstore\n        /* \"#utility.yul\":11146:11158   */\n      0x4f6e6c79206f776e657200000000000000000000000000000000000000000000\n        /* \"#utility.yul\":11126:11144   */\n      0x44\n      dup3\n      add\n        /* \"#utility.yul\":11119:11159   */\n      mstore\n        /* \"#utility.yul\":11176:11194   */\n      0x64\n      add\n        /* \"TokenSwapper.sol\":3458:3500  require(msg.sender == owner, \"Only owner\") */\n      tag_329\n        /* \"#utility.yul\":10866:11200   */\n      jump\n        /* \"TokenSwapper.sol\":3458:3500  require(msg.sender == owner, \"Only owner\") */\n    tag_409:\n        /* \"TokenSwapper.sol\":10418:10443  newReciever != address(0) */\n      0xffffffffffffffffffffffffffffffffffffffff\n      dup2\n      and\n        /* \"TokenSwapper.sol\":10410:10460  require(newReciever != address(0), \"Cant be zero\") */\n      tag_412\n      jumpi\n      mload(0x40)\n      0x08c379a000000000000000000000000000000000000000000000000000000000\n      dup2\n      mstore\n        /* \"#utility.yul\":11407:11409   */\n      0x20\n        /* \"TokenSwapper.sol\":10410:10460  require(newReciever != address(0), \"Cant be zero\") */\n      0x04\n      dup3\n      add\n        /* \"#utility.yul\":11389:11410   */\n      mstore\n        /* \"#utility.yul\":11446:11448   */\n      0x0c\n        /* \"#utility.yul\":11426:11444   */\n      0x24\n      dup3\n      add\n        /* \"#utility.yul\":11419:11449   */\n      mstore\n        /* \"#utility.yul\":11485:11499   */\n      0x43616e74206265207a65726f0000000000000000000000000000000000000000\n        /* \"#utility.yul\":11465:11483   */\n      0x44\n      dup3\n      add\n        /* \"#utility.yul\":11458:11500   */\n      mstore\n        /* \"#utility.yul\":11517:11535   */\n      0x64\n      add\n        /* \"TokenSwapper.sol\":10410:10460  require(newReciever != address(0), \"Cant be zero\") */\n      tag_329\n        /* \"#utility.yul\":11205:11541   */\n      jump\n        /* \"TokenSwapper.sol\":10410:10460  require(newReciever != address(0), \"Cant be zero\") */\n    tag_412:\n        /* \"TokenSwapper.sol\":10471:10479  reciever */\n      0x08\n        /* \"TokenSwapper.sol\":10471:10493  reciever = newReciever */\n      dup1\n      sload\n      0xffffffffffffffffffffffff0000000000000000000000000000000000000000\n      and\n      0xffffffffffffffffffffffffffffffffffffffff\n      swap3\n      swap1\n      swap3\n      and\n      swap2\n      swap1\n      swap2\n      or\n      swap1\n      sstore\n        /* \"TokenSwapper.sol\":10338:10501  function setReciever(address newReciever) external onlyOwner {... */\n      jump\t// out\n        /* \"TokenSwapper.sol\":6124:6717  function getQuoteV3(uint256 _ethAmount, address _weth, address _targetToken, uint256 _v3PoolFee, address _quoter) public view returns (uint256) {... */\n    tag_197:\n        /* \"TokenSwapper.sol\":6348:6593  abi.encodeWithSelector(... */\n      0x40\n      dup1\n      mload\n        /* \"TokenSwapper.sol\":6315:6333  _quoter.staticcall */\n      0xffffffffffffffffffffffffffffffffffffffff\n        /* \"#utility.yul\":15594:15609   */\n      dup7\n      dup2\n      and\n        /* \"TokenSwapper.sol\":6348:6593  abi.encodeWithSelector(... */\n      0x24\n      dup4\n      add\n        /* \"#utility.yul\":15576:15610   */\n      mstore\n        /* \"#utility.yul\":15646:15661   */\n      dup6\n      dup2\n      and\n        /* \"#utility.yul\":15626:15644   */\n      0x44\n      dup4\n      add\n        /* \"#utility.yul\":15619:15662   */\n      mstore\n        /* \"#utility.yul\":15678:15696   */\n      0x64\n      dup3\n      add\n        /* \"#utility.yul\":15671:15705   */\n      dup9\n      swap1\n      mstore\n        /* \"#utility.yul\":15721:15739   */\n      0x84\n      dup3\n      add\n        /* \"#utility.yul\":15714:15748   */\n      dup6\n      swap1\n      mstore\n      0x00\n        /* \"#utility.yul\":15764:15783   */\n      0xa4\n      dup1\n      dup5\n      add\n        /* \"#utility.yul\":15757:15801   */\n      dup3\n      swap1\n      mstore\n        /* \"TokenSwapper.sol\":6348:6593  abi.encodeWithSelector(... */\n      dup5\n      mload\n      dup1\n      dup6\n      sub\n      swap1\n      swap2\n      add\n      dup2\n      mstore\n        /* \"#utility.yul\":15487:15506   */\n      0xc4\n      swap1\n      swap4\n      add\n        /* \"TokenSwapper.sol\":6348:6593  abi.encodeWithSelector(... */\n      dup5\n      mstore\n      0x20\n      dup4\n      add\n      dup1\n      mload\n      0xffffffffffffffffffffffffffffffffffffffffffffffffffffffff\n      and\n        /* \"TokenSwapper.sol\":6389:6436  IUniswapV3Quoter.quoteExactInputSingle.selector */\n      0x1296323f00000000000000000000000000000000000000000000000000000000\n        /* \"TokenSwapper.sol\":6348:6593  abi.encodeWithSelector(... */\n      or\n      swap1\n      mstore\n        /* \"TokenSwapper.sol\":6315:6604  _quoter.staticcall(... */\n      swap3\n      mload\n      dup4\n      swap3\n      dup4\n      swap3\n        /* \"TokenSwapper.sol\":6315:6333  _quoter.staticcall */\n      dup7\n      and\n      swap2\n        /* \"TokenSwapper.sol\":6315:6604  _quoter.staticcall(... */\n      tag_417\n      swap2\n        /* \"TokenSwapper.sol\":6348:6593  abi.encodeWithSelector(... */\n      swap1\n        /* \"TokenSwapper.sol\":6315:6604  _quoter.staticcall(... */\n      tag_418\n      jump\t// in\n    tag_417:\n      0x00\n      mload(0x40)\n      dup1\n      dup4\n      sub\n      dup2\n      dup6\n      gas\n      staticcall\n      swap2\n      pop\n      pop\n      returndatasize\n      dup1\n      0x00\n      dup2\n      eq\n      tag_421\n      jumpi\n      mload(0x40)\n      swap2\n      pop\n      and(add(returndatasize, 0x3f), not(0x1f))\n      dup3\n      add\n      0x40\n      mstore\n      returndatasize\n      dup3\n      mstore\n      returndatasize\n      0x00\n      0x20\n      dup5\n      add\n      returndatacopy\n      jump(tag_420)\n    tag_421:\n      0x60\n      swap2\n      pop\n    tag_420:\n      pop\n        /* \"TokenSwapper.sol\":6279:6604  (bool success, bytes memory data) = _quoter.staticcall(... */\n      swap2\n      pop\n      swap2\n      pop\n        /* \"TokenSwapper.sol\":6621:6628  success */\n      dup2\n        /* \"TokenSwapper.sol\":6617:6691  if (success) {... */\n      iszero\n      tag_422\n      jumpi\n        /* \"TokenSwapper.sol\":6663:6667  data */\n      dup1\n        /* \"TokenSwapper.sol\":6652:6679  abi.decode(data, (uint256)) */\n      dup1\n      0x20\n      add\n      swap1\n      mload\n      dup2\n      add\n      swap1\n      tag_423\n      swap2\n      swap1\n      tag_252\n      jump\t// in\n    tag_423:\n        /* \"TokenSwapper.sol\":6645:6679  return abi.decode(data, (uint256)) */\n      swap3\n      pop\n      pop\n      pop\n      jump(tag_414)\n        /* \"TokenSwapper.sol\":6617:6691  if (success) {... */\n    tag_422:\n        /* \"TokenSwapper.sol\":6708:6709  0 */\n      0x00\n        /* \"TokenSwapper.sol\":6701:6709  return 0 */\n      swap3\n      pop\n      pop\n      pop\n        /* \"TokenSwapper.sol\":6124:6717  function getQuoteV3(uint256 _ethAmount, address _weth, address _targetToken, uint256 _v3PoolFee, address _quoter) public view returns (uint256) {... */\n    tag_414:\n      swap6\n      swap5\n      pop\n      pop\n      pop\n      pop\n      pop\n      jump\t// out\n        /* \"TokenSwapper.sol\":11163:11273  function withdrawETH() external onlyOwner {... */\n    tag_201:\n        /* \"TokenSwapper.sol\":3480:3485  owner */\n      and(0xffffffffffffffffffffffffffffffffffffffff, sload(0x01))\n        /* \"TokenSwapper.sol\":3466:3476  msg.sender */\n      caller\n        /* \"TokenSwapper.sol\":3466:3485  msg.sender == owner */\n      eq\n        /* \"TokenSwapper.sol\":3458:3500  require(msg.sender == owner, \"Only owner\") */\n      tag_425\n      jumpi\n      mload(0x40)\n      0x08c379a000000000000000000000000000000000000000000000000000000000\n      dup2\n      mstore\n        /* \"#utility.yul\":11068:11070   */\n      0x20\n        /* \"TokenSwapper.sol\":3458:3500  require(msg.sender == owner, \"Only owner\") */\n      0x04\n      dup3\n      add\n        /* \"#utility.yul\":11050:11071   */\n      mstore\n        /* \"#utility.yul\":11107:11109   */\n      0x0a\n        /* \"#utility.yul\":11087:11105   */\n      0x24\n      dup3\n      add\n        /* \"#utility.yul\":11080:11110   */\n      mstore\n        /* \"#utility.yul\":11146:11158   */\n      0x4f6e6c79206f776e657200000000000000000000000000000000000000000000\n        /* \"#utility.yul\":11126:11144   */\n      0x44\n      dup3\n      add\n        /* \"#utility.yul\":11119:11159   */\n      mstore\n        /* \"#utility.yul\":11176:11194   */\n      0x64\n      add\n        /* \"TokenSwapper.sol\":3458:3500  require(msg.sender == owner, \"Only owner\") */\n      tag_329\n        /* \"#utility.yul\":10866:11200   */\n      jump\n        /* \"TokenSwapper.sol\":3458:3500  require(msg.sender == owner, \"Only owner\") */\n    tag_425:\n        /* \"TokenSwapper.sol\":11224:11232  reciever */\n      sload(0x08)\n        /* \"TokenSwapper.sol\":11216:11265  payable(reciever).transfer(address(this).balance) */\n      mload(0x40)\n        /* \"TokenSwapper.sol\":11224:11232  reciever */\n      0xffffffffffffffffffffffffffffffffffffffff\n      swap1\n      swap2\n      and\n      swap1\n        /* \"TokenSwapper.sol\":11243:11264  address(this).balance */\n      selfbalance\n        /* \"TokenSwapper.sol\":11216:11265  payable(reciever).transfer(address(this).balance) */\n      dup1\n      iszero\n      0x08fc\n      mul\n      swap2\n        /* \"TokenSwapper.sol\":11224:11232  reciever */\n      0x00\n        /* \"TokenSwapper.sol\":11216:11265  payable(reciever).transfer(address(this).balance) */\n      dup2\n        /* \"TokenSwapper.sol\":11224:11232  reciever */\n      dup2\n        /* \"TokenSwapper.sol\":11216:11265  payable(reciever).transfer(address(this).balance) */\n      dup2\n        /* \"TokenSwapper.sol\":11243:11264  address(this).balance */\n      dup6\n        /* \"TokenSwapper.sol\":11224:11232  reciever */\n      dup9\n        /* \"TokenSwapper.sol\":11216:11265  payable(reciever).transfer(address(this).balance) */\n      dup9\n      call\n      swap4\n      pop\n      pop\n      pop\n      pop\n      iszero\n      dup1\n      iszero\n      tag_342\n      jumpi\n      returndatasize\n      0x00\n      dup1\n      returndatacopy\n      revert(0x00, returndatasize)\n        /* \"TokenSwapper.sol\":11279:11434  function transferOwnership(address newOwner) public onlyOwner {... */\n    tag_213:\n        /* \"TokenSwapper.sol\":3480:3485  owner */\n      and(0xffffffffffffffffffffffffffffffffffffffff, sload(0x01))\n        /* \"TokenSwapper.sol\":3466:3476  msg.sender */\n      caller\n        /* \"TokenSwapper.sol\":3466:3485  msg.sender == owner */\n      eq\n        /* \"TokenSwapper.sol\":3458:3500  require(msg.sender == owner, \"Only owner\") */\n      tag_431\n      jumpi\n      mload(0x40)\n      0x08c379a000000000000000000000000000000000000000000000000000000000\n      dup2\n      mstore\n        /* \"#utility.yul\":11068:11070   */\n      0x20\n        /* \"TokenSwapper.sol\":3458:3500  require(msg.sender == owner, \"Only owner\") */\n      0x04\n      dup3\n      add\n        /* \"#utility.yul\":11050:11071   */\n      mstore\n        /* \"#utility.yul\":11107:11109   */\n      0x0a\n        /* \"#utility.yul\":11087:11105   */\n      0x24\n      dup3\n      add\n        /* \"#utility.yul\":11080:11110   */\n      mstore\n        /* \"#utility.yul\":11146:11158   */\n      0x4f6e6c79206f776e657200000000000000000000000000000000000000000000\n        /* \"#utility.yul\":11126:11144   */\n      0x44\n      dup3\n      add\n        /* \"#utility.yul\":11119:11159   */\n      mstore\n        /* \"#utility.yul\":11176:11194   */\n      0x64\n      add\n        /* \"TokenSwapper.sol\":3458:3500  require(msg.sender == owner, \"Only owner\") */\n      tag_329\n        /* \"#utility.yul\":10866:11200   */\n      jump\n        /* \"TokenSwapper.sol\":3458:3500  require(msg.sender == owner, \"Only owner\") */\n    tag_431:\n        /* \"TokenSwapper.sol\":11360:11382  newOwner != address(0) */\n      0xffffffffffffffffffffffffffffffffffffffff\n      dup2\n      and\n        /* \"TokenSwapper.sol\":11352:11399  require(newOwner != address(0), \"Cant be zero\") */\n      tag_434\n      jumpi\n      mload(0x40)\n      0x08c379a000000000000000000000000000000000000000000000000000000000\n      dup2\n      mstore\n        /* \"#utility.yul\":11407:11409   */\n      0x20\n        /* \"TokenSwapper.sol\":11352:11399  require(newOwner != address(0), \"Cant be zero\") */\n      0x04\n      dup3\n      add\n        /* \"#utility.yul\":11389:11410   */\n      mstore\n        /* \"#utility.yul\":11446:11448   */\n      0x0c\n        /* \"#utility.yul\":11426:11444   */\n      0x24\n      dup3\n      add\n        /* \"#utility.yul\":11419:11449   */\n      mstore\n        /* \"#utility.yul\":11485:11499   */\n      0x43616e74206265207a65726f0000000000000000000000000000000000000000\n        /* \"#utility.yul\":11465:11483   */\n      0x44\n      dup3\n      add\n        /* \"#utility.yul\":11458:11500   */\n      mstore\n        /* \"#utility.yul\":11517:11535   */\n      0x64\n      add\n        /* \"TokenSwapper.sol\":11352:11399  require(newOwner != address(0), \"Cant be zero\") */\n      tag_329\n        /* \"#utility.yul\":11205:11541   */\n      jump\n        /* \"TokenSwapper.sol\":11352:11399  require(newOwner != address(0), \"Cant be zero\") */\n    tag_434:\n        /* \"TokenSwapper.sol\":11410:11415  owner */\n      0x01\n        /* \"TokenSwapper.sol\":11410:11426  owner = newOwner */\n      dup1\n      sload\n      0xffffffffffffffffffffffff0000000000000000000000000000000000000000\n      and\n      0xffffffffffffffffffffffffffffffffffffffff\n      swap3\n      swap1\n      swap3\n      and\n      swap2\n      swap1\n      swap2\n      or\n      swap1\n      sstore\n        /* \"TokenSwapper.sol\":11279:11434  function transferOwnership(address newOwner) public onlyOwner {... */\n      jump\t// out\n        /* \"TokenSwapper.sol\":10507:10603  function setMinAmountOut(uint256 _min) external onlyOwner {... */\n    tag_221:\n        /* \"TokenSwapper.sol\":3480:3485  owner */\n      and(0xffffffffffffffffffffffffffffffffffffffff, sload(0x01))\n        /* \"TokenSwapper.sol\":3466:3476  msg.sender */\n      caller\n        /* \"TokenSwapper.sol\":3466:3485  msg.sender == owner */\n      eq\n        /* \"TokenSwapper.sol\":3458:3500  require(msg.sender == owner, \"Only owner\") */\n      tag_437\n      jumpi\n      mload(0x40)\n      0x08c379a000000000000000000000000000000000000000000000000000000000\n      dup2\n      mstore\n        /* \"#utility.yul\":11068:11070   */\n      0x20\n        /* \"TokenSwapper.sol\":3458:3500  require(msg.sender == owner, \"Only owner\") */\n      0x04\n      dup3\n      add\n        /* \"#utility.yul\":11050:11071   */\n      mstore\n        /* \"#utility.yul\":11107:11109   */\n      0x0a\n        /* \"#utility.yul\":11087:11105   */\n      0x24\n      dup3\n      add\n        /* \"#utility.yul\":11080:11110   */\n      mstore\n        /* \"#utility.yul\":11146:11158   */\n      0x4f6e6c79206f776e657200000000000000000000000000000000000000000000\n        /* \"#utility.yul\":11126:11144   */\n      0x44\n      dup3\n      add\n        /* \"#utility.yul\":11119:11159   */\n      mstore\n        /* \"#utility.yul\":11176:11194   */\n      0x64\n      add\n        /* \"TokenSwapper.sol\":3458:3500  require(msg.sender == owner, \"Only owner\") */\n      tag_329\n        /* \"#utility.yul\":10866:11200   */\n      jump\n        /* \"TokenSwapper.sol\":3458:3500  require(msg.sender == owner, \"Only owner\") */\n    tag_437:\n        /* \"TokenSwapper.sol\":10576:10588  minAmountOut */\n      0x05\n        /* \"TokenSwapper.sol\":10576:10595  minAmountOut = _min */\n      sstore\n        /* \"TokenSwapper.sol\":10507:10603  function setMinAmountOut(uint256 _min) external onlyOwner {... */\n      jump\t// out\n        /* \"TokenSwapper.sol\":11440:11828  function recoveryToken(address tokenAddress) public onlyOwner {... */\n    tag_225:\n        /* \"TokenSwapper.sol\":3480:3485  owner */\n      and(0xffffffffffffffffffffffffffffffffffffffff, sload(0x01))\n        /* \"TokenSwapper.sol\":3466:3476  msg.sender */\n      caller\n        /* \"TokenSwapper.sol\":3466:3485  msg.sender == owner */\n      eq\n        /* \"TokenSwapper.sol\":3458:3500  require(msg.sender == owner, \"Only owner\") */\n      tag_441\n      jumpi\n      mload(0x40)\n      0x08c379a000000000000000000000000000000000000000000000000000000000\n      dup2\n      mstore\n        /* \"#utility.yul\":11068:11070   */\n      0x20\n        /* \"TokenSwapper.sol\":3458:3500  require(msg.sender == owner, \"Only owner\") */\n      0x04\n      dup3\n      add\n        /* \"#utility.yul\":11050:11071   */\n      mstore\n        /* \"#utility.yul\":11107:11109   */\n      0x0a\n        /* \"#utility.yul\":11087:11105   */\n      0x24\n      dup3\n      add\n        /* \"#utility.yul\":11080:11110   */\n      mstore\n        /* \"#utility.yul\":11146:11158   */\n      0x4f6e6c79206f776e657200000000000000000000000000000000000000000000\n        /* \"#utility.yul\":11126:11144   */\n      0x44\n      dup3\n      add\n        /* \"#utility.yul\":11119:11159   */\n      mstore\n        /* \"#utility.yul\":11176:11194   */\n      0x64\n      add\n        /* \"TokenSwapper.sol\":3458:3500  require(msg.sender == owner, \"Only owner\") */\n      tag_329\n        /* \"#utility.yul\":10866:11200   */\n      jump\n        /* \"TokenSwapper.sol\":3458:3500  require(msg.sender == owner, \"Only owner\") */\n    tag_441:\n        /* \"TokenSwapper.sol\":11537:11548  targetToken */\n      sload(0x02)\n      0xffffffffffffffffffffffffffffffffffffffff\n        /* \"TokenSwapper.sol\":11521:11548  tokenAddress != targetToken */\n      dup3\n      dup2\n      and\n        /* \"TokenSwapper.sol\":11537:11548  targetToken */\n      swap2\n      and\n        /* \"TokenSwapper.sol\":11521:11548  tokenAddress != targetToken */\n      eq\n      dup1\n      iszero\n      swap1\n        /* \"TokenSwapper.sol\":11521:11586  tokenAddress != targetToken && !allowedTokensExists[tokenAddress] */\n      tag_444\n      jumpi\n      pop\n        /* \"TokenSwapper.sol\":11553:11586  allowedTokensExists[tokenAddress] */\n      0xffffffffffffffffffffffffffffffffffffffff\n      dup2\n      and\n      0x00\n      swap1\n      dup2\n      mstore\n        /* \"TokenSwapper.sol\":11553:11572  allowedTokensExists */\n      0x0a\n        /* \"TokenSwapper.sol\":11553:11586  allowedTokensExists[tokenAddress] */\n      0x20\n      mstore\n      0x40\n      swap1\n      keccak256\n      sload\n      0xff\n      and\n        /* \"TokenSwapper.sol\":11552:11586  !allowedTokensExists[tokenAddress] */\n      iszero\n        /* \"TokenSwapper.sol\":11521:11586  tokenAddress != targetToken && !allowedTokensExists[tokenAddress] */\n    tag_444:\n        /* \"TokenSwapper.sol\":11513:11628  require(tokenAddress != targetToken && !allowedTokensExists[tokenAddress], \"Cant recovery target or allowed token\") */\n      tag_445\n      jumpi\n      mload(0x40)\n      0x08c379a000000000000000000000000000000000000000000000000000000000\n      dup2\n      mstore\n        /* \"#utility.yul\":16306:16308   */\n      0x20\n        /* \"TokenSwapper.sol\":11513:11628  require(tokenAddress != targetToken && !allowedTokensExists[tokenAddress], \"Cant recovery target or allowed token\") */\n      0x04\n      dup3\n      add\n        /* \"#utility.yul\":16288:16309   */\n      mstore\n        /* \"#utility.yul\":16345:16347   */\n      0x25\n        /* \"#utility.yul\":16325:16343   */\n      0x24\n      dup3\n      add\n        /* \"#utility.yul\":16318:16348   */\n      mstore\n        /* \"#utility.yul\":16384:16418   */\n      0x43616e74207265636f7665727920746172676574206f7220616c6c6f77656420\n        /* \"#utility.yul\":16364:16382   */\n      0x44\n      dup3\n      add\n        /* \"#utility.yul\":16357:16419   */\n      mstore\n        /* \"#utility.yul\":16455:16462   */\n      0x746f6b656e000000000000000000000000000000000000000000000000000000\n        /* \"#utility.yul\":16435:16453   */\n      0x64\n      dup3\n      add\n        /* \"#utility.yul\":16428:16463   */\n      mstore\n        /* \"#utility.yul\":16480:16499   */\n      0x84\n      add\n        /* \"TokenSwapper.sol\":11513:11628  require(tokenAddress != targetToken && !allowedTokensExists[tokenAddress], \"Cant recovery target or allowed token\") */\n      tag_329\n        /* \"#utility.yul\":16104:16505   */\n      jump\n        /* \"TokenSwapper.sol\":11513:11628  require(tokenAddress != targetToken && !allowedTokensExists[tokenAddress], \"Cant recovery target or allowed token\") */\n    tag_445:\n        /* \"TokenSwapper.sol\":11693:11727  tokenInfo.balanceOf(address(this)) */\n      mload(0x40)\n      0x70a0823100000000000000000000000000000000000000000000000000000000\n      dup2\n      mstore\n        /* \"TokenSwapper.sol\":11721:11725  this */\n      address\n        /* \"TokenSwapper.sol\":11693:11727  tokenInfo.balanceOf(address(this)) */\n      0x04\n      dup3\n      add\n        /* \"#utility.yul\":4180:4254   */\n      mstore\n        /* \"TokenSwapper.sol\":11665:11677  tokenAddress */\n      dup2\n      swap1\n        /* \"TokenSwapper.sol\":11639:11655  IERC20 tokenInfo */\n      0x00\n      swap1\n        /* \"TokenSwapper.sol\":11693:11712  tokenInfo.balanceOf */\n      0xffffffffffffffffffffffffffffffffffffffff\n      dup4\n      and\n      swap1\n      0x70a08231\n      swap1\n        /* \"#utility.yul\":4153:4171   */\n      0x24\n      add\n        /* \"TokenSwapper.sol\":11693:11727  tokenInfo.balanceOf(address(this)) */\n      0x20\n      mload(0x40)\n      dup1\n      dup4\n      sub\n      dup2\n      dup7\n      gas\n      staticcall\n      iszero\n      dup1\n      iszero\n      tag_450\n      jumpi\n      returndatasize\n      0x00\n      dup1\n      returndatacopy\n      revert(0x00, returndatasize)\n    tag_450:\n      pop\n      pop\n      pop\n      pop\n      mload(0x40)\n      returndatasize\n      not(0x1f)\n      0x1f\n      dup3\n      add\n      and\n      dup3\n      add\n      dup1\n      0x40\n      mstore\n      pop\n      dup2\n      add\n      swap1\n      tag_451\n      swap2\n      swap1\n      tag_252\n      jump\t// in\n    tag_451:\n        /* \"TokenSwapper.sol\":11693:11731  tokenInfo.balanceOf(address(this)) > 0 */\n      gt\n        /* \"TokenSwapper.sol\":11689:11821  if (tokenInfo.balanceOf(address(this)) > 0) {... */\n      iszero\n      tag_452\n      jumpi\n        /* \"TokenSwapper.sol\":11767:11772  owner */\n      sload(0x01)\n        /* \"TokenSwapper.sol\":11774:11808  tokenInfo.balanceOf(address(this)) */\n      mload(0x40)\n      0x70a0823100000000000000000000000000000000000000000000000000000000\n      dup2\n      mstore\n        /* \"TokenSwapper.sol\":11802:11806  this */\n      address\n        /* \"TokenSwapper.sol\":11774:11808  tokenInfo.balanceOf(address(this)) */\n      0x04\n      dup3\n      add\n        /* \"#utility.yul\":4180:4254   */\n      mstore\n        /* \"TokenSwapper.sol\":11748:11766  tokenInfo.transfer */\n      0xffffffffffffffffffffffffffffffffffffffff\n      dup4\n      dup2\n      and\n      swap3\n      0xa9059cbb\n      swap3\n        /* \"TokenSwapper.sol\":11767:11772  owner */\n      swap2\n      and\n      swap1\n        /* \"TokenSwapper.sol\":11748:11766  tokenInfo.transfer */\n      dup4\n      swap1\n        /* \"TokenSwapper.sol\":11774:11793  tokenInfo.balanceOf */\n      0x70a08231\n      swap1\n        /* \"#utility.yul\":4153:4171   */\n      0x24\n      add\n        /* \"TokenSwapper.sol\":11774:11808  tokenInfo.balanceOf(address(this)) */\n      0x20\n      mload(0x40)\n      dup1\n      dup4\n      sub\n      dup2\n      dup7\n      gas\n      staticcall\n      iszero\n      dup1\n      iszero\n      tag_455\n      jumpi\n      returndatasize\n      0x00\n      dup1\n      returndatacopy\n      revert(0x00, returndatasize)\n    tag_455:\n      pop\n      pop\n      pop\n      pop\n      mload(0x40)\n      returndatasize\n      not(0x1f)\n      0x1f\n      dup3\n      add\n      and\n      dup3\n      add\n      dup1\n      0x40\n      mstore\n      pop\n      dup2\n      add\n      swap1\n      tag_456\n      swap2\n      swap1\n      tag_252\n      jump\t// in\n    tag_456:\n        /* \"TokenSwapper.sol\":11748:11809  tokenInfo.transfer(owner, tokenInfo.balanceOf(address(this))) */\n      mload(0x40)\n      0xffffffff00000000000000000000000000000000000000000000000000000000\n      0xe0\n      dup6\n      swap1\n      shl\n      and\n      dup2\n      mstore\n        /* \"#utility.yul\":8508:8550   */\n      0xffffffffffffffffffffffffffffffffffffffff\n        /* \"#utility.yul\":8496:8551   */\n      swap1\n      swap3\n      and\n        /* \"TokenSwapper.sol\":11748:11809  tokenInfo.transfer(owner, tokenInfo.balanceOf(address(this))) */\n      0x04\n      dup4\n      add\n        /* \"#utility.yul\":8478:8552   */\n      mstore\n        /* \"#utility.yul\":8568:8586   */\n      0x24\n      dup3\n      add\n        /* \"#utility.yul\":8561:8595   */\n      mstore\n        /* \"#utility.yul\":8451:8469   */\n      0x44\n      add\n        /* \"TokenSwapper.sol\":11748:11809  tokenInfo.transfer(owner, tokenInfo.balanceOf(address(this))) */\n      0x20\n      mload(0x40)\n      dup1\n      dup4\n      sub\n      dup2\n      0x00\n      dup8\n      gas\n      call\n      iszero\n      dup1\n      iszero\n      tag_459\n      jumpi\n      returndatasize\n      0x00\n      dup1\n      returndatacopy\n      revert(0x00, returndatasize)\n    tag_459:\n      pop\n      pop\n      pop\n      pop\n      mload(0x40)\n      returndatasize\n      not(0x1f)\n      0x1f\n      dup3\n      add\n      and\n      dup3\n      add\n      dup1\n      0x40\n      mstore\n      pop\n      dup2\n      add\n      swap1\n      tag_460\n      swap2\n      swap1\n      tag_259\n      jump\t// in\n    tag_460:\n      pop\n        /* \"TokenSwapper.sol\":11689:11821  if (tokenInfo.balanceOf(address(this)) > 0) {... */\n    tag_452:\n        /* \"TokenSwapper.sol\":11502:11828  {... */\n      pop\n        /* \"TokenSwapper.sol\":11440:11828  function recoveryToken(address tokenAddress) public onlyOwner {... */\n      pop\n      jump\t// out\n        /* \"TokenSwapper.sol\":402:552  function _nonReentrantBefore() private {... */\n    tag_228:\n        /* \"TokenSwapper.sol\":186:187  2 */\n      0x02\n        /* \"TokenSwapper.sol\":460:467  _status */\n      sload(0x00)\n        /* \"TokenSwapper.sol\":460:479  _status != _ENTERED */\n      sub\n        /* \"TokenSwapper.sol\":452:515  require(_status != _ENTERED, \"ReentrancyGuard: reentrant call\") */\n      tag_462\n      jumpi\n      mload(0x40)\n      0x08c379a000000000000000000000000000000000000000000000000000000000\n      dup2\n      mstore\n        /* \"#utility.yul\":16712:16714   */\n      0x20\n        /* \"TokenSwapper.sol\":452:515  require(_status != _ENTERED, \"ReentrancyGuard: reentrant call\") */\n      0x04\n      dup3\n      add\n        /* \"#utility.yul\":16694:16715   */\n      mstore\n        /* \"#utility.yul\":16751:16753   */\n      0x1f\n        /* \"#utility.yul\":16731:16749   */\n      0x24\n      dup3\n      add\n        /* \"#utility.yul\":16724:16754   */\n      mstore\n        /* \"#utility.yul\":16790:16823   */\n      0x5265656e7472616e637947756172643a207265656e7472616e742063616c6c00\n        /* \"#utility.yul\":16770:16788   */\n      0x44\n      dup3\n      add\n        /* \"#utility.yul\":16763:16824   */\n      mstore\n        /* \"#utility.yul\":16841:16859   */\n      0x64\n      add\n        /* \"TokenSwapper.sol\":452:515  require(_status != _ENTERED, \"ReentrancyGuard: reentrant call\") */\n      tag_329\n        /* \"#utility.yul\":16510:16865   */\n      jump\n        /* \"TokenSwapper.sol\":452:515  require(_status != _ENTERED, \"ReentrancyGuard: reentrant call\") */\n    tag_462:\n        /* \"TokenSwapper.sol\":186:187  2 */\n      0x02\n        /* \"TokenSwapper.sol\":526:533  _status */\n      0x00\n        /* \"TokenSwapper.sol\":526:544  _status = _ENTERED */\n      sstore\n        /* \"TokenSwapper.sol\":402:552  function _nonReentrantBefore() private {... */\n      jump\t// out\n        /* \"TokenSwapper.sol\":6723:7944  function _performSwap(uint256 ethAmount) internal returns (uint256) {... */\n    tag_242:\n        /* \"TokenSwapper.sol\":6782:6789  uint256 */\n      0x00\n        /* \"TokenSwapper.sol\":6822:6823  0 */\n      dup1\n        /* \"TokenSwapper.sol\":6810:6819  ethAmount */\n      dup3\n        /* \"TokenSwapper.sol\":6810:6823  ethAmount > 0 */\n      gt\n        /* \"TokenSwapper.sol\":6802:6842  require(ethAmount > 0, \"No ETH to swap\") */\n      tag_466\n      jumpi\n      mload(0x40)\n      0x08c379a000000000000000000000000000000000000000000000000000000000\n      dup2\n      mstore\n        /* \"#utility.yul\":17072:17074   */\n      0x20\n        /* \"TokenSwapper.sol\":6802:6842  require(ethAmount > 0, \"No ETH to swap\") */\n      0x04\n      dup3\n      add\n        /* \"#utility.yul\":17054:17075   */\n      mstore\n        /* \"#utility.yul\":17111:17113   */\n      0x0e\n        /* \"#utility.yul\":17091:17109   */\n      0x24\n      dup3\n      add\n        /* \"#utility.yul\":17084:17114   */\n      mstore\n        /* \"#utility.yul\":17150:17166   */\n      0x4e6f2045544820746f2073776170000000000000000000000000000000000000\n        /* \"#utility.yul\":17130:17148   */\n      0x44\n      dup3\n      add\n        /* \"#utility.yul\":17123:17167   */\n      mstore\n        /* \"#utility.yul\":17184:17202   */\n      0x64\n      add\n        /* \"TokenSwapper.sol\":6802:6842  require(ethAmount > 0, \"No ETH to swap\") */\n      tag_329\n        /* \"#utility.yul\":16870:17208   */\n      jump\n        /* \"TokenSwapper.sol\":6802:6842  require(ethAmount > 0, \"No ETH to swap\") */\n    tag_466:\n        /* \"TokenSwapper.sol\":6884:6895  targetToken */\n      sload(0x02)\n        /* \"TokenSwapper.sol\":6877:6921  IERC20(targetToken).balanceOf(address(this)) */\n      mload(0x40)\n      0x70a0823100000000000000000000000000000000000000000000000000000000\n      dup2\n      mstore\n        /* \"TokenSwapper.sol\":6915:6919  this */\n      address\n        /* \"TokenSwapper.sol\":6877:6921  IERC20(targetToken).balanceOf(address(this)) */\n      0x04\n      dup3\n      add\n        /* \"#utility.yul\":4180:4254   */\n      mstore\n        /* \"TokenSwapper.sol\":6853:6874  uint256 balanceBefore */\n      0x00\n      swap2\n        /* \"TokenSwapper.sol\":6884:6895  targetToken */\n      0xffffffffffffffffffffffffffffffffffffffff\n      and\n      swap1\n        /* \"TokenSwapper.sol\":6877:6906  IERC20(targetToken).balanceOf */\n      0x70a08231\n      swap1\n        /* \"#utility.yul\":4153:4171   */\n      0x24\n      add\n        /* \"TokenSwapper.sol\":6877:6921  IERC20(targetToken).balanceOf(address(this)) */\n      0x20\n      mload(0x40)\n      dup1\n      dup4\n      sub\n      dup2\n      dup7\n      gas\n      staticcall\n      iszero\n      dup1\n      iszero\n      tag_471\n      jumpi\n      returndatasize\n      0x00\n      dup1\n      returndatacopy\n      revert(0x00, returndatasize)\n    tag_471:\n      pop\n      pop\n      pop\n      pop\n      mload(0x40)\n      returndatasize\n      not(0x1f)\n      0x1f\n      dup3\n      add\n      and\n      dup3\n      add\n      dup1\n      0x40\n      mstore\n      pop\n      dup2\n      add\n      swap1\n      tag_472\n      swap2\n      swap1\n      tag_252\n      jump\t// in\n    tag_472:\n        /* \"TokenSwapper.sol\":6853:6921  uint256 balanceBefore = IERC20(targetToken).balanceOf(address(this)) */\n      swap1\n      pop\n        /* \"TokenSwapper.sol\":6952:6965  DexVersion.V2 */\n      0x00\n        /* \"TokenSwapper.sol\":6938:6948  dexVersion */\n      sload(0x04)\n      0x010000000000000000000000000000000000000000000000\n      swap1\n      div\n      0xff\n      and\n        /* \"TokenSwapper.sol\":6938:6965  dexVersion == DexVersion.V2 */\n      0x01\n      dup2\n      gt\n      iszero\n      tag_476\n      jumpi\n      tag_476\n      tag_233\n      jump\t// in\n    tag_476:\n      sub\n        /* \"TokenSwapper.sol\":6934:7775  if (dexVersion == DexVersion.V2) {... */\n      tag_477\n      jumpi\n        /* \"TokenSwapper.sol\":7006:7022  new address[](2) */\n      0x40\n      dup1\n      mload\n        /* \"TokenSwapper.sol\":7020:7021  2 */\n      0x02\n        /* \"TokenSwapper.sol\":7006:7022  new address[](2) */\n      dup1\n      dup3\n      mstore\n      0x60\n      dup3\n      add\n      dup4\n      mstore\n        /* \"TokenSwapper.sol\":6982:7003  address[] memory path */\n      0x00\n      swap3\n        /* \"TokenSwapper.sol\":7006:7022  new address[](2) */\n      0x20\n      dup4\n      add\n      swap1\n      dup1\n      calldatasize\n      dup4\n      calldatacopy\n      pop\n      pop\n        /* \"TokenSwapper.sol\":8020:8024  WETH */\n      sload(0x07)\n        /* \"TokenSwapper.sol\":6982:7022  address[] memory path = new address[](2) */\n      swap2\n      swap3\n      pop\n      pop\n        /* \"TokenSwapper.sol\":8020:8024  WETH */\n      0xffffffffffffffffffffffffffffffffffffffff\n      and\n        /* \"TokenSwapper.sol\":7037:7041  path */\n      dup2\n        /* \"TokenSwapper.sol\":7042:7043  0 */\n      0x00\n        /* \"TokenSwapper.sol\":7037:7044  path[0] */\n      dup2\n      mload\n      dup2\n      lt\n      tag_483\n      jumpi\n      tag_483\n      tag_303\n      jump\t// in\n    tag_483:\n        /* \"TokenSwapper.sol\":7037:7057  path[0] = _getWETH() */\n      0xffffffffffffffffffffffffffffffffffffffff\n      swap3\n      dup4\n      and\n        /* \"TokenSwapper.sol\":7037:7044  path[0] */\n      0x20\n      swap2\n      dup3\n      mul\n      swap3\n      swap1\n      swap3\n      add\n      add\n        /* \"TokenSwapper.sol\":7037:7057  path[0] = _getWETH() */\n      mstore\n        /* \"TokenSwapper.sol\":7082:7093  targetToken */\n      sload(0x02)\n        /* \"TokenSwapper.sol\":7072:7079  path[1] */\n      dup3\n      mload\n        /* \"TokenSwapper.sol\":7082:7093  targetToken */\n      swap2\n      and\n      swap1\n        /* \"TokenSwapper.sol\":7072:7076  path */\n      dup3\n      swap1\n        /* \"TokenSwapper.sol\":7082:7093  targetToken */\n      0x01\n      swap1\n        /* \"TokenSwapper.sol\":7072:7079  path[1] */\n      dup2\n      lt\n      tag_485\n      jumpi\n      tag_485\n      tag_303\n      jump\t// in\n    tag_485:\n        /* \"TokenSwapper.sol\":7072:7093  path[1] = targetToken */\n      0xffffffffffffffffffffffffffffffffffffffff\n      swap3\n      dup4\n      and\n        /* \"TokenSwapper.sol\":7072:7079  path[1] */\n      0x20\n      swap2\n      dup3\n      mul\n      swap3\n      swap1\n      swap3\n      add\n      add\n        /* \"TokenSwapper.sol\":7072:7093  path[1] = targetToken */\n      mstore\n        /* \"TokenSwapper.sol\":7127:7135  routerV2 */\n      sload(0x03)\n        /* \"TokenSwapper.sol\":7195:7207  minAmountOut */\n      sload(0x05)\n        /* \"TokenSwapper.sol\":7127:7135  routerV2 */\n      swap2\n      and\n      swap1\n        /* \"TokenSwapper.sol\":7110:7158  IUniswapV2Router(routerV2).swapExactETHForTokens */\n      0x7ff36ab5\n      swap1\n        /* \"TokenSwapper.sol\":7166:7175  ethAmount */\n      dup7\n      swap1\n        /* \"TokenSwapper.sol\":7226:7230  path */\n      dup5\n        /* \"TokenSwapper.sol\":7257:7261  this */\n      address\n        /* \"TokenSwapper.sol\":7281:7302  block.timestamp + 300 */\n      tag_486\n        /* \"TokenSwapper.sol\":7281:7296  block.timestamp */\n      timestamp\n        /* \"TokenSwapper.sol\":7299:7302  300 */\n      0x012c\n        /* \"TokenSwapper.sol\":7281:7302  block.timestamp + 300 */\n      tag_56\n      jump\t// in\n    tag_486:\n        /* \"TokenSwapper.sol\":7110:7317  IUniswapV2Router(routerV2).swapExactETHForTokens{value: ethAmount}(... */\n      mload(0x40)\n      dup7\n      0xffffffff\n      and\n      0xe0\n      shl\n      dup2\n      mstore\n      0x04\n      add\n      tag_487\n      swap5\n      swap4\n      swap3\n      swap2\n      swap1\n      tag_488\n      jump\t// in\n    tag_487:\n      0x00\n      mload(0x40)\n      dup1\n      dup4\n      sub\n      dup2\n      dup6\n      dup9\n      gas\n      call\n      iszero\n      dup1\n      iszero\n      tag_490\n      jumpi\n      returndatasize\n      0x00\n      dup1\n      returndatacopy\n      revert(0x00, returndatasize)\n    tag_490:\n      pop\n      pop\n      pop\n      pop\n      pop\n      mload(0x40)\n      returndatasize\n      0x00\n      dup3\n      returndatacopy\n      0x1f\n      returndatasize\n      swap1\n      dup2\n      add\n      0xffffffffffffffffffffffffffffffffffffffffffffffffffffffffffffffe0\n      and\n      dup3\n      add\n      0x40\n      mstore\n      tag_491\n      swap2\n      swap1\n      dup2\n      add\n      swap1\n      tag_405\n      jump\t// in\n    tag_491:\n      pop\n        /* \"TokenSwapper.sol\":6967:7329  {... */\n      pop\n        /* \"TokenSwapper.sol\":6934:7775  if (dexVersion == DexVersion.V2) {... */\n      jump(tag_492)\n    tag_477:\n        /* \"TokenSwapper.sol\":7362:7370  routerV3 */\n      sload(0x04)\n        /* \"TokenSwapper.sol\":7425:7748  ISwapRouter.ExactInputSingleParams(... */\n      0x40\n      dup1\n      mload\n        /* \"TokenSwapper.sol\":7362:7370  routerV3 */\n      0x0100\n        /* \"TokenSwapper.sol\":7425:7748  ISwapRouter.ExactInputSingleParams(... */\n      dup2\n      add\n      swap1\n      swap2\n      mstore\n        /* \"TokenSwapper.sol\":7362:7370  routerV3 */\n      0xffffffffffffffffffffffffffffffffffffffff\n      swap1\n      swap2\n      and\n      swap1\n        /* \"TokenSwapper.sol\":7350:7388  ISwapRouter(routerV3).exactInputSingle */\n      0x414bf389\n      swap1\n        /* \"TokenSwapper.sol\":7396:7405  ethAmount */\n      dup6\n      swap1\n        /* \"TokenSwapper.sol\":7425:7748  ISwapRouter.ExactInputSingleParams(... */\n      dup1\n        /* \"TokenSwapper.sol\":7482:7492  _getWETH() */\n      tag_493\n        /* \"TokenSwapper.sol\":8020:8024  WETH */\n      and(0xffffffffffffffffffffffffffffffffffffffff, sload(0x07))\n      swap1\n        /* \"TokenSwapper.sol\":7952:8032  function _getWETH() public view returns (address) {... */\n      jump\n        /* \"TokenSwapper.sol\":7482:7492  _getWETH() */\n    tag_493:\n        /* \"TokenSwapper.sol\":7425:7748  ISwapRouter.ExactInputSingleParams(... */\n      0xffffffffffffffffffffffffffffffffffffffff\n      swap1\n      dup2\n      and\n      dup3\n      mstore\n        /* \"TokenSwapper.sol\":7515:7526  targetToken */\n      sload(0x02)\n      and\n        /* \"TokenSwapper.sol\":7425:7748  ISwapRouter.ExactInputSingleParams(... */\n      0x20\n      dup3\n      add\n      mstore\n        /* \"TokenSwapper.sol\":7549:7558  v3PoolFee */\n      sload(0x04)\n      0x010000000000000000000000000000000000000000\n      swap1\n      div\n      0xffffff\n      and\n        /* \"TokenSwapper.sol\":7425:7748  ISwapRouter.ExactInputSingleParams(... */\n      0x40\n      dup3\n      add\n      mstore\n        /* \"TokenSwapper.sol\":7589:7593  this */\n      address\n        /* \"TokenSwapper.sol\":7425:7748  ISwapRouter.ExactInputSingleParams(... */\n      0x60\n      dup3\n      add\n      mstore\n      0x80\n      add\n        /* \"TokenSwapper.sol\":7617:7638  block.timestamp + 300 */\n      tag_494\n        /* \"TokenSwapper.sol\":7617:7632  block.timestamp */\n      timestamp\n        /* \"TokenSwapper.sol\":7635:7638  300 */\n      0x012c\n        /* \"TokenSwapper.sol\":7617:7638  block.timestamp + 300 */\n      tag_56\n      jump\t// in\n    tag_494:\n        /* \"TokenSwapper.sol\":7425:7748  ISwapRouter.ExactInputSingleParams(... */\n      dup2\n      mstore\n      0x20\n      add\n        /* \"TokenSwapper.sol\":7661:7670  ethAmount */\n      dup8\n        /* \"TokenSwapper.sol\":7425:7748  ISwapRouter.ExactInputSingleParams(... */\n      dup2\n      mstore\n      0x20\n      add\n        /* \"TokenSwapper.sol\":7693:7705  minAmountOut */\n      sload(0x05)\n        /* \"TokenSwapper.sol\":7425:7748  ISwapRouter.ExactInputSingleParams(... */\n      dup2\n      mstore\n      0x20\n      add\n        /* \"TokenSwapper.sol\":7728:7729  0 */\n      0x00\n        /* \"TokenSwapper.sol\":7425:7748  ISwapRouter.ExactInputSingleParams(... */\n      0xffffffffffffffffffffffffffffffffffffffff\n      and\n      dup2\n      mstore\n      pop\n        /* \"TokenSwapper.sol\":7350:7763  ISwapRouter(routerV3).exactInputSingle{value: ethAmount}(... */\n      mload(0x40)\n      dup4\n      0xffffffff\n      and\n      0xe0\n      shl\n      dup2\n      mstore\n      0x04\n      add\n      tag_495\n      swap2\n      swap1\n        /* \"#utility.yul\":17913:17917   */\n      0x00\n        /* \"#utility.yul\":17955:17958   */\n      0x0100\n        /* \"#utility.yul\":17944:17953   */\n      dup3\n        /* \"#utility.yul\":17940:17959   */\n      add\n        /* \"#utility.yul\":17932:17959   */\n      swap1\n      pop\n        /* \"#utility.yul\":17978:18020   */\n      0xffffffffffffffffffffffffffffffffffffffff\n        /* \"#utility.yul\":18066:18068   */\n      dup1\n        /* \"#utility.yul\":18057:18063   */\n      dup5\n        /* \"#utility.yul\":18051:18064   */\n      mload\n        /* \"#utility.yul\":18047:18069   */\n      and\n        /* \"#utility.yul\":18036:18045   */\n      dup4\n        /* \"#utility.yul\":18029:18070   */\n      mstore\n        /* \"#utility.yul\":18138:18140   */\n      dup1\n        /* \"#utility.yul\":18130:18134   */\n      0x20\n        /* \"#utility.yul\":18122:18128   */\n      dup6\n        /* \"#utility.yul\":18118:18135   */\n      add\n        /* \"#utility.yul\":18112:18136   */\n      mload\n        /* \"#utility.yul\":18108:18141   */\n      and\n        /* \"#utility.yul\":18101:18105   */\n      0x20\n        /* \"#utility.yul\":18090:18099   */\n      dup5\n        /* \"#utility.yul\":18086:18106   */\n      add\n        /* \"#utility.yul\":18079:18142   */\n      mstore\n        /* \"#utility.yul\":18210:18218   */\n      0xffffff\n        /* \"#utility.yul\":18202:18206   */\n      0x40\n        /* \"#utility.yul\":18194:18200   */\n      dup6\n        /* \"#utility.yul\":18190:18207   */\n      add\n        /* \"#utility.yul\":18184:18208   */\n      mload\n        /* \"#utility.yul\":18180:18219   */\n      and\n        /* \"#utility.yul\":18173:18177   */\n      0x40\n        /* \"#utility.yul\":18162:18171   */\n      dup5\n        /* \"#utility.yul\":18158:18178   */\n      add\n        /* \"#utility.yul\":18151:18220   */\n      mstore\n        /* \"#utility.yul\":18288:18290   */\n      dup1\n        /* \"#utility.yul\":18280:18284   */\n      0x60\n        /* \"#utility.yul\":18272:18278   */\n      dup6\n        /* \"#utility.yul\":18268:18285   */\n      add\n        /* \"#utility.yul\":18262:18286   */\n      mload\n        /* \"#utility.yul\":18258:18291   */\n      and\n        /* \"#utility.yul\":18251:18255   */\n      0x60\n        /* \"#utility.yul\":18240:18249   */\n      dup5\n        /* \"#utility.yul\":18236:18256   */\n      add\n        /* \"#utility.yul\":18229:18292   */\n      mstore\n        /* \"#utility.yul\":18348:18352   */\n      0x80\n        /* \"#utility.yul\":18340:18346   */\n      dup5\n        /* \"#utility.yul\":18336:18353   */\n      add\n        /* \"#utility.yul\":18330:18354   */\n      mload\n        /* \"#utility.yul\":18323:18327   */\n      0x80\n        /* \"#utility.yul\":18312:18321   */\n      dup5\n        /* \"#utility.yul\":18308:18328   */\n      add\n        /* \"#utility.yul\":18301:18355   */\n      mstore\n        /* \"#utility.yul\":18411:18415   */\n      0xa0\n        /* \"#utility.yul\":18403:18409   */\n      dup5\n        /* \"#utility.yul\":18399:18416   */\n      add\n        /* \"#utility.yul\":18393:18417   */\n      mload\n        /* \"#utility.yul\":18386:18390   */\n      0xa0\n        /* \"#utility.yul\":18375:18384   */\n      dup5\n        /* \"#utility.yul\":18371:18391   */\n      add\n        /* \"#utility.yul\":18364:18418   */\n      mstore\n        /* \"#utility.yul\":18474:18478   */\n      0xc0\n        /* \"#utility.yul\":18466:18472   */\n      dup5\n        /* \"#utility.yul\":18462:18479   */\n      add\n        /* \"#utility.yul\":18456:18480   */\n      mload\n        /* \"#utility.yul\":18449:18453   */\n      0xc0\n        /* \"#utility.yul\":18438:18447   */\n      dup5\n        /* \"#utility.yul\":18434:18454   */\n      add\n        /* \"#utility.yul\":18427:18481   */\n      mstore\n        /* \"#utility.yul\":18549:18551   */\n      dup1\n        /* \"#utility.yul\":18541:18545   */\n      0xe0\n        /* \"#utility.yul\":18533:18539   */\n      dup6\n        /* \"#utility.yul\":18529:18546   */\n      add\n        /* \"#utility.yul\":18523:18547   */\n      mload\n        /* \"#utility.yul\":18519:18552   */\n      and\n        /* \"#utility.yul\":18512:18516   */\n      0xe0\n        /* \"#utility.yul\":18501:18510   */\n      dup5\n        /* \"#utility.yul\":18497:18517   */\n      add\n        /* \"#utility.yul\":18490:18553   */\n      mstore\n      pop\n        /* \"#utility.yul\":17743:18559   */\n      swap3\n      swap2\n      pop\n      pop\n      jump\n        /* \"TokenSwapper.sol\":7350:7763  ISwapRouter(routerV3).exactInputSingle{value: ethAmount}(... */\n    tag_495:\n      0x20\n      mload(0x40)\n      dup1\n      dup4\n      sub\n      dup2\n      dup6\n      dup9\n      gas\n      call\n      iszero\n      dup1\n      iszero\n      tag_498\n      jumpi\n      returndatasize\n      0x00\n      dup1\n      returndatacopy\n      revert(0x00, returndatasize)\n    tag_498:\n      pop\n      pop\n      pop\n      pop\n      pop\n      mload(0x40)\n      returndatasize\n      not(0x1f)\n      0x1f\n      dup3\n      add\n      and\n      dup3\n      add\n      dup1\n      0x40\n      mstore\n      pop\n      dup2\n      add\n      swap1\n      tag_499\n      swap2\n      swap1\n      tag_252\n      jump\t// in\n    tag_499:\n      pop\n        /* \"TokenSwapper.sol\":6934:7775  if (dexVersion == DexVersion.V2) {... */\n    tag_492:\n        /* \"TokenSwapper.sol\":7816:7827  targetToken */\n      sload(0x02)\n        /* \"TokenSwapper.sol\":7809:7853  IERC20(targetToken).balanceOf(address(this)) */\n      mload(0x40)\n      0x70a0823100000000000000000000000000000000000000000000000000000000\n      dup2\n      mstore\n        /* \"TokenSwapper.sol\":7847:7851  this */\n      address\n        /* \"TokenSwapper.sol\":7809:7853  IERC20(targetToken).balanceOf(address(this)) */\n      0x04\n      dup3\n      add\n        /* \"#utility.yul\":4180:4254   */\n      mstore\n        /* \"TokenSwapper.sol\":7787:7806  uint256 tokenAmount */\n      0x00\n      swap2\n        /* \"TokenSwapper.sol\":7856:7869  balanceBefore */\n      dup4\n      swap2\n        /* \"TokenSwapper.sol\":7816:7827  targetToken */\n      0xffffffffffffffffffffffffffffffffffffffff\n      swap1\n      swap2\n      and\n      swap1\n        /* \"TokenSwapper.sol\":7809:7838  IERC20(targetToken).balanceOf */\n      0x70a08231\n      swap1\n        /* \"#utility.yul\":4153:4171   */\n      0x24\n      add\n        /* \"TokenSwapper.sol\":7809:7853  IERC20(targetToken).balanceOf(address(this)) */\n      0x20\n      mload(0x40)\n      dup1\n      dup4\n      sub\n      dup2\n      dup7\n      gas\n      staticcall\n      iszero\n      dup1\n      iszero\n      tag_502\n      jumpi\n      returndatasize\n      0x00\n      dup1\n      returndatacopy\n      revert(0x00, returndatasize)\n    tag_502:\n      pop\n      pop\n      pop\n      pop\n      mload(0x40)\n      returndatasize\n      not(0x1f)\n      0x1f\n      dup3\n      add\n      and\n      dup3\n      add\n      dup1\n      0x40\n      mstore\n      pop\n      dup2\n      add\n      swap1\n      tag_503\n      swap2\n      swap1\n      tag_252\n      jump\t// in\n    tag_503:\n        /* \"TokenSwapper.sol\":7809:7869  IERC20(targetToken).balanceOf(address(this)) - balanceBefore */\n      tag_504\n      swap2\n      swap1\n      tag_505\n      jump\t// in\n    tag_504:\n        /* \"TokenSwapper.sol\":7787:7869  uint256 tokenAmount = IERC20(targetToken).balanceOf(address(this)) - balanceBefore */\n      swap1\n      pop\n        /* \"TokenSwapper.sol\":7896:7907  tokenAmount */\n      dup1\n        /* \"TokenSwapper.sol\":7880:7892  totalSwapOut */\n      0x0e\n      0x00\n        /* \"TokenSwapper.sol\":7880:7907  totalSwapOut += tokenAmount */\n      dup3\n      dup3\n      sload\n      tag_506\n      swap2\n      swap1\n      tag_56\n      jump\t// in\n    tag_506:\n      swap1\n      swap2\n      sstore\n      pop\n        /* \"TokenSwapper.sol\":7925:7936  tokenAmount */\n      swap1\n      swap5\n        /* \"TokenSwapper.sol\":6723:7944  function _performSwap(uint256 ethAmount) internal returns (uint256) {... */\n      swap4\n      pop\n      pop\n      pop\n      pop\n      jump\t// out\n        /* \"#utility.yul\":14:198   */\n    tag_510:\n        /* \"#utility.yul\":66:143   */\n      0x4e487b7100000000000000000000000000000000000000000000000000000000\n        /* \"#utility.yul\":63:64   */\n      0x00\n        /* \"#utility.yul\":56:144   */\n      mstore\n        /* \"#utility.yul\":163:167   */\n      0x11\n        /* \"#utility.yul\":160:161   */\n      0x04\n        /* \"#utility.yul\":153:168   */\n      mstore\n        /* \"#utility.yul\":187:191   */\n      0x24\n        /* \"#utility.yul\":184:185   */\n      0x00\n        /* \"#utility.yul\":177:192   */\n      revert\n        /* \"#utility.yul\":203:328   */\n    tag_56:\n        /* \"#utility.yul\":268:277   */\n      dup1\n      dup3\n      add\n        /* \"#utility.yul\":289:299   */\n      dup1\n      dup3\n      gt\n        /* \"#utility.yul\":286:322   */\n      iszero\n      tag_325\n      jumpi\n        /* \"#utility.yul\":302:320   */\n      tag_325\n      tag_510\n      jump\t// in\n        /* \"#utility.yul\":465:715   */\n    tag_512:\n        /* \"#utility.yul\":550:551   */\n      0x00\n        /* \"#utility.yul\":560:673   */\n    tag_527:\n        /* \"#utility.yul\":574:580   */\n      dup4\n        /* \"#utility.yul\":571:572   */\n      dup2\n        /* \"#utility.yul\":568:581   */\n      lt\n        /* \"#utility.yul\":560:673   */\n      iszero\n      tag_529\n      jumpi\n        /* \"#utility.yul\":650:661   */\n      dup2\n      dup2\n      add\n        /* \"#utility.yul\":644:662   */\n      mload\n        /* \"#utility.yul\":631:642   */\n      dup4\n      dup3\n      add\n        /* \"#utility.yul\":624:663   */\n      mstore\n        /* \"#utility.yul\":596:598   */\n      0x20\n        /* \"#utility.yul\":589:599   */\n      add\n        /* \"#utility.yul\":560:673   */\n      jump(tag_527)\n    tag_529:\n      pop\n      pop\n        /* \"#utility.yul\":707:708   */\n      0x00\n        /* \"#utility.yul\":689:705   */\n      swap2\n      add\n        /* \"#utility.yul\":682:709   */\n      mstore\n        /* \"#utility.yul\":465:715   */\n      jump\t// out\n        /* \"#utility.yul\":720:1050   */\n    tag_513:\n        /* \"#utility.yul\":762:765   */\n      0x00\n        /* \"#utility.yul\":800:805   */\n      dup2\n        /* \"#utility.yul\":794:806   */\n      mload\n        /* \"#utility.yul\":827:833   */\n      dup1\n        /* \"#utility.yul\":822:825   */\n      dup5\n        /* \"#utility.yul\":815:834   */\n      mstore\n        /* \"#utility.yul\":843:919   */\n      tag_531\n        /* \"#utility.yul\":912:918   */\n      dup2\n        /* \"#utility.yul\":905:909   */\n      0x20\n        /* \"#utility.yul\":900:903   */\n      dup7\n        /* \"#utility.yul\":896:910   */\n      add\n        /* \"#utility.yul\":889:893   */\n      0x20\n        /* \"#utility.yul\":882:887   */\n      dup7\n        /* \"#utility.yul\":878:894   */\n      add\n        /* \"#utility.yul\":843:919   */\n      tag_512\n      jump\t// in\n    tag_531:\n        /* \"#utility.yul\":964:966   */\n      0x1f\n        /* \"#utility.yul\":952:967   */\n      add\n        /* \"#utility.yul\":969:1035   */\n      0xffffffffffffffffffffffffffffffffffffffffffffffffffffffffffffffe0\n        /* \"#utility.yul\":948:1036   */\n      and\n        /* \"#utility.yul\":939:1037   */\n      swap3\n      swap1\n      swap3\n      add\n        /* \"#utility.yul\":1039:1043   */\n      0x20\n        /* \"#utility.yul\":935:1044   */\n      add\n      swap3\n        /* \"#utility.yul\":720:1050   */\n      swap2\n      pop\n      pop\n      jump\t// out\n        /* \"#utility.yul\":1055:2690   */\n    tag_65:\n        /* \"#utility.yul\":1249:1253   */\n      0x00\n        /* \"#utility.yul\":1278:1280   */\n      0x20\n        /* \"#utility.yul\":1318:1320   */\n      dup1\n        /* \"#utility.yul\":1307:1316   */\n      dup4\n        /* \"#utility.yul\":1303:1321   */\n      add\n        /* \"#utility.yul\":1348:1350   */\n      dup2\n        /* \"#utility.yul\":1337:1346   */\n      dup5\n        /* \"#utility.yul\":1330:1351   */\n      mstore\n        /* \"#utility.yul\":1371:1377   */\n      dup1\n        /* \"#utility.yul\":1406:1412   */\n      dup6\n        /* \"#utility.yul\":1400:1413   */\n      mload\n        /* \"#utility.yul\":1437:1443   */\n      dup1\n        /* \"#utility.yul\":1429:1435   */\n      dup4\n        /* \"#utility.yul\":1422:1444   */\n      mstore\n        /* \"#utility.yul\":1463:1465   */\n      0x40\n        /* \"#utility.yul\":1453:1465   */\n      swap3\n      pop\n        /* \"#utility.yul\":1496:1498   */\n      0x40\n        /* \"#utility.yul\":1485:1494   */\n      dup7\n        /* \"#utility.yul\":1481:1499   */\n      add\n        /* \"#utility.yul\":1474:1499   */\n      swap2\n      pop\n        /* \"#utility.yul\":1558:1560   */\n      0x40\n        /* \"#utility.yul\":1548:1554   */\n      dup2\n        /* \"#utility.yul\":1545:1546   */\n      0x05\n        /* \"#utility.yul\":1541:1555   */\n      shl\n        /* \"#utility.yul\":1530:1539   */\n      dup8\n        /* \"#utility.yul\":1526:1556   */\n      add\n        /* \"#utility.yul\":1522:1561   */\n      add\n        /* \"#utility.yul\":1596:1598   */\n      dup5\n        /* \"#utility.yul\":1588:1594   */\n      dup9\n        /* \"#utility.yul\":1584:1599   */\n      add\n        /* \"#utility.yul\":1617:1618   */\n      0x00\n        /* \"#utility.yul\":1627:2661   */\n    tag_533:\n        /* \"#utility.yul\":1641:1647   */\n      dup4\n        /* \"#utility.yul\":1638:1639   */\n      dup2\n        /* \"#utility.yul\":1635:1648   */\n      lt\n        /* \"#utility.yul\":1627:2661   */\n      iszero\n      tag_535\n      jumpi\n        /* \"#utility.yul\":1730:1796   */\n      0xffffffffffffffffffffffffffffffffffffffffffffffffffffffffffffffc0\n        /* \"#utility.yul\":1718:1727   */\n      dup10\n        /* \"#utility.yul\":1710:1716   */\n      dup5\n        /* \"#utility.yul\":1706:1728   */\n      sub\n        /* \"#utility.yul\":1702:1797   */\n      add\n        /* \"#utility.yul\":1697:1700   */\n      dup6\n        /* \"#utility.yul\":1690:1798   */\n      mstore\n        /* \"#utility.yul\":1827:1833   */\n      dup2\n        /* \"#utility.yul\":1821:1834   */\n      mload\n        /* \"#utility.yul\":1857:1861   */\n      0xc0\n        /* \"#utility.yul\":1895:1897   */\n      dup2\n        /* \"#utility.yul\":1889:1898   */\n      mload\n        /* \"#utility.yul\":1881:1887   */\n      dup6\n        /* \"#utility.yul\":1874:1899   */\n      mstore\n        /* \"#utility.yul\":1960:2002   */\n      0xffffffffffffffffffffffffffffffffffffffff\n        /* \"#utility.yul\":1954:1956   */\n      dup10\n        /* \"#utility.yul\":1950:1952   */\n      dup4\n        /* \"#utility.yul\":1946:1957   */\n      add\n        /* \"#utility.yul\":1940:1958   */\n      mload\n        /* \"#utility.yul\":1936:2003   */\n      and\n        /* \"#utility.yul\":1931:1933   */\n      dup10\n        /* \"#utility.yul\":1923:1929   */\n      dup7\n        /* \"#utility.yul\":1919:1934   */\n      add\n        /* \"#utility.yul\":1912:2004   */\n      mstore\n        /* \"#utility.yul\":2051:2053   */\n      dup8\n        /* \"#utility.yul\":2047:2049   */\n      dup3\n        /* \"#utility.yul\":2043:2054   */\n      add\n        /* \"#utility.yul\":2037:2055   */\n      mload\n        /* \"#utility.yul\":2092:2094   */\n      dup2\n        /* \"#utility.yul\":2087:2089   */\n      dup10\n        /* \"#utility.yul\":2079:2085   */\n      dup8\n        /* \"#utility.yul\":2075:2090   */\n      add\n        /* \"#utility.yul\":2068:2095   */\n      mstore\n        /* \"#utility.yul\":2122:2170   */\n      tag_536\n        /* \"#utility.yul\":2166:2168   */\n      dup3\n        /* \"#utility.yul\":2158:2164   */\n      dup8\n        /* \"#utility.yul\":2154:2169   */\n      add\n        /* \"#utility.yul\":2140:2152   */\n      dup3\n        /* \"#utility.yul\":2122:2170   */\n      tag_513\n      jump\t// in\n    tag_536:\n        /* \"#utility.yul\":2108:2170   */\n      swap2\n      pop\n      pop\n        /* \"#utility.yul\":2193:2197   */\n      0x60\n        /* \"#utility.yul\":2246:2248   */\n      dup1\n        /* \"#utility.yul\":2242:2244   */\n      dup4\n        /* \"#utility.yul\":2238:2249   */\n      add\n        /* \"#utility.yul\":2232:2250   */\n      mload\n        /* \"#utility.yul\":2299:2305   */\n      dup7\n        /* \"#utility.yul\":2291:2297   */\n      dup4\n        /* \"#utility.yul\":2287:2306   */\n      sub\n        /* \"#utility.yul\":2282:2284   */\n      dup3\n        /* \"#utility.yul\":2274:2280   */\n      dup9\n        /* \"#utility.yul\":2270:2285   */\n      add\n        /* \"#utility.yul\":2263:2307   */\n      mstore\n        /* \"#utility.yul\":2334:2375   */\n      tag_537\n        /* \"#utility.yul\":2368:2374   */\n      dup4\n        /* \"#utility.yul\":2352:2366   */\n      dup3\n        /* \"#utility.yul\":2334:2375   */\n      tag_513\n      jump\t// in\n    tag_537:\n        /* \"#utility.yul\":2398:2402   */\n      0x80\n        /* \"#utility.yul\":2449:2460   */\n      dup6\n      dup2\n      add\n        /* \"#utility.yul\":2443:2461   */\n      mload\n        /* \"#utility.yul\":2463:2467   */\n      0xff\n        /* \"#utility.yul\":2439:2468   */\n      and\n        /* \"#utility.yul\":2422:2437   */\n      swap1\n      dup10\n      add\n        /* \"#utility.yul\":2415:2469   */\n      mstore\n        /* \"#utility.yul\":2492:2496   */\n      0xa0\n        /* \"#utility.yul\":2539:2550   */\n      swap5\n      dup6\n      add\n        /* \"#utility.yul\":2533:2551   */\n      mload\n        /* \"#utility.yul\":2516:2531   */\n      swap5\n      swap1\n      swap8\n      add\n        /* \"#utility.yul\":2509:2552   */\n      swap4\n      swap1\n      swap4\n      mstore\n      pop\n      pop\n      pop\n        /* \"#utility.yul\":2639:2651   */\n      swap4\n      dup7\n      add\n      swap4\n        /* \"#utility.yul\":2604:2619   */\n      swap1\n      dup7\n      add\n      swap1\n        /* \"#utility.yul\":1663:1664   */\n      0x01\n        /* \"#utility.yul\":1656:1665   */\n      add\n        /* \"#utility.yul\":1627:2661   */\n      jump(tag_533)\n    tag_535:\n      pop\n        /* \"#utility.yul\":2678:2684   */\n      swap1\n      swap9\n        /* \"#utility.yul\":1055:2690   */\n      swap8\n      pop\n      pop\n      pop\n      pop\n      pop\n      pop\n      pop\n      pop\n      jump\t// out\n        /* \"#utility.yul\":2695:2875   */\n    tag_69:\n        /* \"#utility.yul\":2754:2760   */\n      0x00\n        /* \"#utility.yul\":2807:2809   */\n      0x20\n        /* \"#utility.yul\":2795:2804   */\n      dup3\n        /* \"#utility.yul\":2786:2793   */\n      dup5\n        /* \"#utility.yul\":2782:2805   */\n      sub\n        /* \"#utility.yul\":2778:2810   */\n      slt\n        /* \"#utility.yul\":2775:2827   */\n      iszero\n      tag_539\n      jumpi\n        /* \"#utility.yul\":2823:2824   */\n      0x00\n        /* \"#utility.yul\":2820:2821   */\n      dup1\n        /* \"#utility.yul\":2813:2825   */\n      revert\n        /* \"#utility.yul\":2775:2827   */\n    tag_539:\n      pop\n        /* \"#utility.yul\":2846:2869   */\n      calldataload\n      swap2\n        /* \"#utility.yul\":2695:2875   */\n      swap1\n      pop\n      jump\t// out\n        /* \"#utility.yul\":3354:3550   */\n    tag_515:\n        /* \"#utility.yul\":3422:3442   */\n      dup1\n      calldataload\n        /* \"#utility.yul\":3482:3524   */\n      0xffffffffffffffffffffffffffffffffffffffff\n        /* \"#utility.yul\":3471:3525   */\n      dup2\n      and\n        /* \"#utility.yul\":3461:3526   */\n      dup2\n      eq\n        /* \"#utility.yul\":3451:3544   */\n      tag_544\n      jumpi\n        /* \"#utility.yul\":3540:3541   */\n      0x00\n        /* \"#utility.yul\":3537:3538   */\n      dup1\n        /* \"#utility.yul\":3530:3542   */\n      revert\n        /* \"#utility.yul\":3451:3544   */\n    tag_544:\n        /* \"#utility.yul\":3354:3550   */\n      swap2\n      swap1\n      pop\n      jump\t// out\n        /* \"#utility.yul\":3555:3741   */\n    tag_81:\n        /* \"#utility.yul\":3614:3620   */\n      0x00\n        /* \"#utility.yul\":3667:3669   */\n      0x20\n        /* \"#utility.yul\":3655:3664   */\n      dup3\n        /* \"#utility.yul\":3646:3653   */\n      dup5\n        /* \"#utility.yul\":3642:3665   */\n      sub\n        /* \"#utility.yul\":3638:3670   */\n      slt\n        /* \"#utility.yul\":3635:3687   */\n      iszero\n      tag_546\n      jumpi\n        /* \"#utility.yul\":3683:3684   */\n      0x00\n        /* \"#utility.yul\":3680:3681   */\n      dup1\n        /* \"#utility.yul\":3673:3685   */\n      revert\n        /* \"#utility.yul\":3635:3687   */\n    tag_546:\n        /* \"#utility.yul\":3706:3735   */\n      tag_547\n        /* \"#utility.yul\":3725:3734   */\n      dup3\n        /* \"#utility.yul\":3706:3735   */\n      tag_515\n      jump\t// in\n    tag_547:\n        /* \"#utility.yul\":3696:3735   */\n      swap4\n        /* \"#utility.yul\":3555:3741   */\n      swap3\n      pop\n      pop\n      pop\n      jump\t// out\n        /* \"#utility.yul\":4265:4668   */\n    tag_114:\n        /* \"#utility.yul\":4351:4357   */\n      0x00\n        /* \"#utility.yul\":4359:4365   */\n      dup1\n        /* \"#utility.yul\":4367:4373   */\n      0x00\n        /* \"#utility.yul\":4375:4381   */\n      dup1\n        /* \"#utility.yul\":4428:4431   */\n      0x80\n        /* \"#utility.yul\":4416:4425   */\n      dup6\n        /* \"#utility.yul\":4407:4414   */\n      dup8\n        /* \"#utility.yul\":4403:4426   */\n      sub\n        /* \"#utility.yul\":4399:4432   */\n      slt\n        /* \"#utility.yul\":4396:4449   */\n      iszero\n      tag_552\n      jumpi\n        /* \"#utility.yul\":4445:4446   */\n      0x00\n        /* \"#utility.yul\":4442:4443   */\n      dup1\n        /* \"#utility.yul\":4435:4447   */\n      revert\n        /* \"#utility.yul\":4396:4449   */\n    tag_552:\n        /* \"#utility.yul\":4468:4497   */\n      tag_553\n        /* \"#utility.yul\":4487:4496   */\n      dup6\n        /* \"#utility.yul\":4468:4497   */\n      tag_515\n      jump\t// in\n    tag_553:\n        /* \"#utility.yul\":4458:4497   */\n      swap4\n      pop\n        /* \"#utility.yul\":4516:4554   */\n      tag_554\n        /* \"#utility.yul\":4550:4552   */\n      0x20\n        /* \"#utility.yul\":4539:4548   */\n      dup7\n        /* \"#utility.yul\":4535:4553   */\n      add\n        /* \"#utility.yul\":4516:4554   */\n      tag_515\n      jump\t// in\n    tag_554:\n        /* \"#utility.yul\":4506:4554   */\n      swap3\n      pop\n        /* \"#utility.yul\":4573:4611   */\n      tag_555\n        /* \"#utility.yul\":4607:4609   */\n      0x40\n        /* \"#utility.yul\":4596:4605   */\n      dup7\n        /* \"#utility.yul\":4592:4610   */\n      add\n        /* \"#utility.yul\":4573:4611   */\n      tag_515\n      jump\t// in\n    tag_555:\n        /* \"#utility.yul\":4265:4668   */\n      swap4\n      swap7\n      swap3\n      swap6\n      pop\n        /* \"#utility.yul\":4563:4611   */\n      swap3\n      swap4\n        /* \"#utility.yul\":4658:4660   */\n      0x60\n        /* \"#utility.yul\":4643:4661   */\n      add\n        /* \"#utility.yul\":4630:4662   */\n      calldataload\n      swap3\n      pop\n      pop\n        /* \"#utility.yul\":4265:4668   */\n      jump\t// out\n        /* \"#utility.yul\":4673:4857   */\n    tag_233:\n        /* \"#utility.yul\":4725:4802   */\n      0x4e487b7100000000000000000000000000000000000000000000000000000000\n        /* \"#utility.yul\":4722:4723   */\n      0x00\n        /* \"#utility.yul\":4715:4803   */\n      mstore\n        /* \"#utility.yul\":4822:4826   */\n      0x21\n        /* \"#utility.yul\":4819:4820   */\n      0x04\n        /* \"#utility.yul\":4812:4827   */\n      mstore\n        /* \"#utility.yul\":4846:4850   */\n      0x24\n        /* \"#utility.yul\":4843:4844   */\n      0x00\n        /* \"#utility.yul\":4836:4851   */\n      revert\n        /* \"#utility.yul\":4862:5157   */\n    tag_517:\n        /* \"#utility.yul\":4944:4945   */\n      0x02\n        /* \"#utility.yul\":4937:4942   */\n      dup2\n        /* \"#utility.yul\":4934:4946   */\n      lt\n        /* \"#utility.yul\":4924:5124   */\n      tag_558\n      jumpi\n        /* \"#utility.yul\":4980:5057   */\n      0x4e487b7100000000000000000000000000000000000000000000000000000000\n        /* \"#utility.yul\":4977:4978   */\n      0x00\n        /* \"#utility.yul\":4970:5058   */\n      mstore\n        /* \"#utility.yul\":5081:5085   */\n      0x21\n        /* \"#utility.yul\":5078:5079   */\n      0x04\n        /* \"#utility.yul\":5071:5086   */\n      mstore\n        /* \"#utility.yul\":5109:5113   */\n      0x24\n        /* \"#utility.yul\":5106:5107   */\n      0x00\n        /* \"#utility.yul\":5099:5114   */\n      revert\n        /* \"#utility.yul\":4924:5124   */\n    tag_558:\n        /* \"#utility.yul\":5133:5151   */\n      swap1\n      mstore\n        /* \"#utility.yul\":4862:5157   */\n      jump\t// out\n        /* \"#utility.yul\":5162:6736   */\n    tag_154:\n        /* \"#utility.yul\":5385:5398   */\n      dup2\n      mload\n        /* \"#utility.yul\":3816:3829   */\n      iszero\n        /* \"#utility.yul\":3809:3830   */\n      iszero\n        /* \"#utility.yul\":3797:3831   */\n      dup2\n      mstore\n        /* \"#utility.yul\":5356:5359   */\n      0x01a0\n        /* \"#utility.yul\":5341:5360   */\n      dup2\n      add\n        /* \"#utility.yul\":5457:5461   */\n      0x20\n        /* \"#utility.yul\":5449:5455   */\n      dup4\n        /* \"#utility.yul\":5445:5462   */\n      add\n        /* \"#utility.yul\":5439:5463   */\n      mload\n        /* \"#utility.yul\":5472:5526   */\n      tag_561\n        /* \"#utility.yul\":5520:5524   */\n      0x20\n        /* \"#utility.yul\":5509:5518   */\n      dup5\n        /* \"#utility.yul\":5505:5525   */\n      add\n        /* \"#utility.yul\":5491:5503   */\n      dup3\n        /* \"#utility.yul\":410:452   */\n      0xffffffffffffffffffffffffffffffffffffffff\n        /* \"#utility.yul\":399:453   */\n      and\n        /* \"#utility.yul\":387:454   */\n      swap1\n      mstore\n        /* \"#utility.yul\":333:460   */\n      jump\n        /* \"#utility.yul\":5472:5526   */\n    tag_561:\n      pop\n        /* \"#utility.yul\":5575:5579   */\n      0x40\n        /* \"#utility.yul\":5567:5573   */\n      dup4\n        /* \"#utility.yul\":5563:5580   */\n      add\n        /* \"#utility.yul\":5557:5581   */\n      mload\n        /* \"#utility.yul\":5590:5646   */\n      tag_562\n        /* \"#utility.yul\":5640:5644   */\n      0x40\n        /* \"#utility.yul\":5629:5638   */\n      dup5\n        /* \"#utility.yul\":5625:5645   */\n      add\n        /* \"#utility.yul\":5609:5623   */\n      dup3\n        /* \"#utility.yul\":410:452   */\n      0xffffffffffffffffffffffffffffffffffffffff\n        /* \"#utility.yul\":399:453   */\n      and\n        /* \"#utility.yul\":387:454   */\n      swap1\n      mstore\n        /* \"#utility.yul\":333:460   */\n      jump\n        /* \"#utility.yul\":5590:5646   */\n    tag_562:\n      pop\n        /* \"#utility.yul\":5695:5699   */\n      0x60\n        /* \"#utility.yul\":5687:5693   */\n      dup4\n        /* \"#utility.yul\":5683:5700   */\n      add\n        /* \"#utility.yul\":5677:5701   */\n      mload\n        /* \"#utility.yul\":5710:5766   */\n      tag_563\n        /* \"#utility.yul\":5760:5764   */\n      0x60\n        /* \"#utility.yul\":5749:5758   */\n      dup5\n        /* \"#utility.yul\":5745:5765   */\n      add\n        /* \"#utility.yul\":5729:5743   */\n      dup3\n        /* \"#utility.yul\":410:452   */\n      0xffffffffffffffffffffffffffffffffffffffff\n        /* \"#utility.yul\":399:453   */\n      and\n        /* \"#utility.yul\":387:454   */\n      swap1\n      mstore\n        /* \"#utility.yul\":333:460   */\n      jump\n        /* \"#utility.yul\":5710:5766   */\n    tag_563:\n      pop\n        /* \"#utility.yul\":5815:5819   */\n      0x80\n        /* \"#utility.yul\":5807:5813   */\n      dup4\n        /* \"#utility.yul\":5803:5820   */\n      add\n        /* \"#utility.yul\":5797:5821   */\n      mload\n        /* \"#utility.yul\":5830:5886   */\n      tag_564\n        /* \"#utility.yul\":5880:5884   */\n      0x80\n        /* \"#utility.yul\":5869:5878   */\n      dup5\n        /* \"#utility.yul\":5865:5885   */\n      add\n        /* \"#utility.yul\":5849:5863   */\n      dup3\n        /* \"#utility.yul\":410:452   */\n      0xffffffffffffffffffffffffffffffffffffffff\n        /* \"#utility.yul\":399:453   */\n      and\n        /* \"#utility.yul\":387:454   */\n      swap1\n      mstore\n        /* \"#utility.yul\":333:460   */\n      jump\n        /* \"#utility.yul\":5830:5886   */\n    tag_564:\n      pop\n        /* \"#utility.yul\":5935:5939   */\n      0xa0\n        /* \"#utility.yul\":5927:5933   */\n      dup4\n        /* \"#utility.yul\":5923:5940   */\n      add\n        /* \"#utility.yul\":5917:5941   */\n      mload\n        /* \"#utility.yul\":5950:6005   */\n      tag_565\n        /* \"#utility.yul\":5999:6003   */\n      0xa0\n        /* \"#utility.yul\":5988:5997   */\n      dup5\n        /* \"#utility.yul\":5984:6004   */\n      add\n        /* \"#utility.yul\":5968:5982   */\n      dup3\n        /* \"#utility.yul\":3138:3146   */\n      0xffffff\n        /* \"#utility.yul\":3127:3147   */\n      and\n        /* \"#utility.yul\":3115:3148   */\n      swap1\n      mstore\n        /* \"#utility.yul\":3062:3154   */\n      jump\n        /* \"#utility.yul\":5950:6005   */\n    tag_565:\n      pop\n        /* \"#utility.yul\":6054:6058   */\n      0xc0\n        /* \"#utility.yul\":6046:6052   */\n      dup4\n        /* \"#utility.yul\":6042:6059   */\n      add\n        /* \"#utility.yul\":6036:6060   */\n      mload\n        /* \"#utility.yul\":6069:6133   */\n      tag_566\n        /* \"#utility.yul\":6127:6131   */\n      0xc0\n        /* \"#utility.yul\":6116:6125   */\n      dup5\n        /* \"#utility.yul\":6112:6132   */\n      add\n        /* \"#utility.yul\":6096:6110   */\n      dup3\n        /* \"#utility.yul\":6069:6133   */\n      tag_517\n      jump\t// in\n    tag_566:\n      pop\n        /* \"#utility.yul\":6189:6193   */\n      0xe0\n        /* \"#utility.yul\":6181:6187   */\n      dup4\n        /* \"#utility.yul\":6177:6194   */\n      add\n        /* \"#utility.yul\":6171:6195   */\n      mload\n        /* \"#utility.yul\":6164:6168   */\n      0xe0\n        /* \"#utility.yul\":6153:6162   */\n      dup4\n        /* \"#utility.yul\":6149:6169   */\n      add\n        /* \"#utility.yul\":6142:6196   */\n      mstore\n        /* \"#utility.yul\":6215:6221   */\n      0x0100\n        /* \"#utility.yul\":6270:6272   */\n      dup1\n        /* \"#utility.yul\":6262:6268   */\n      dup5\n        /* \"#utility.yul\":6258:6273   */\n      add\n        /* \"#utility.yul\":6252:6274   */\n      mload\n        /* \"#utility.yul\":6283:6337   */\n      tag_567\n        /* \"#utility.yul\":6333:6335   */\n      dup3\n        /* \"#utility.yul\":6322:6331   */\n      dup6\n        /* \"#utility.yul\":6318:6336   */\n      add\n        /* \"#utility.yul\":6302:6316   */\n      dup3\n        /* \"#utility.yul\":410:452   */\n      0xffffffffffffffffffffffffffffffffffffffff\n        /* \"#utility.yul\":399:453   */\n      and\n        /* \"#utility.yul\":387:454   */\n      swap1\n      mstore\n        /* \"#utility.yul\":333:460   */\n      jump\n        /* \"#utility.yul\":6283:6337   */\n    tag_567:\n      pop\n      pop\n        /* \"#utility.yul\":6356:6362   */\n      0x0120\n        /* \"#utility.yul\":6399:6414   */\n      dup4\n      dup2\n      add\n        /* \"#utility.yul\":6393:6415   */\n      mload\n        /* \"#utility.yul\":410:452   */\n      0xffffffffffffffffffffffffffffffffffffffff\n        /* \"#utility.yul\":399:453   */\n      and\n        /* \"#utility.yul\":6459:6477   */\n      swap1\n      dup4\n      add\n        /* \"#utility.yul\":387:454   */\n      mstore\n        /* \"#utility.yul\":6497:6503   */\n      0x0140\n        /* \"#utility.yul\":6545:6560   */\n      dup1\n      dup5\n      add\n        /* \"#utility.yul\":6539:6561   */\n      mload\n        /* \"#utility.yul\":6519:6537   */\n      swap1\n      dup4\n      add\n        /* \"#utility.yul\":6512:6562   */\n      mstore\n        /* \"#utility.yul\":6581:6587   */\n      0x0160\n        /* \"#utility.yul\":6629:6644   */\n      dup1\n      dup5\n      add\n        /* \"#utility.yul\":6623:6645   */\n      mload\n        /* \"#utility.yul\":6603:6621   */\n      swap1\n      dup4\n      add\n        /* \"#utility.yul\":6596:6646   */\n      mstore\n        /* \"#utility.yul\":6665:6671   */\n      0x0180\n        /* \"#utility.yul\":6713:6728   */\n      swap3\n      dup4\n      add\n        /* \"#utility.yul\":6707:6729   */\n      mload\n        /* \"#utility.yul\":6687:6705   */\n      swap3\n      swap1\n      swap2\n      add\n        /* \"#utility.yul\":6680:6730   */\n      swap2\n      swap1\n      swap2\n      mstore\n        /* \"#utility.yul\":6687:6705   */\n      swap1\n        /* \"#utility.yul\":5162:6736   */\n      jump\t// out\n        /* \"#utility.yul\":6741:6950   */\n    tag_159:\n        /* \"#utility.yul\":6887:6889   */\n      0x20\n        /* \"#utility.yul\":6872:6890   */\n      dup2\n      add\n        /* \"#utility.yul\":6899:6944   */\n      tag_325\n        /* \"#utility.yul\":6876:6885   */\n      dup3\n        /* \"#utility.yul\":6926:6932   */\n      dup5\n        /* \"#utility.yul\":6899:6944   */\n      tag_517\n      jump\t// in\n        /* \"#utility.yul\":6955:7225   */\n    tag_177:\n        /* \"#utility.yul\":7028:7034   */\n      0x00\n        /* \"#utility.yul\":7081:7083   */\n      0x20\n        /* \"#utility.yul\":7069:7078   */\n      dup3\n        /* \"#utility.yul\":7060:7067   */\n      dup5\n        /* \"#utility.yul\":7056:7079   */\n      sub\n        /* \"#utility.yul\":7052:7084   */\n      slt\n        /* \"#utility.yul\":7049:7101   */\n      iszero\n      tag_572\n      jumpi\n        /* \"#utility.yul\":7097:7098   */\n      0x00\n        /* \"#utility.yul\":7094:7095   */\n      dup1\n        /* \"#utility.yul\":7087:7099   */\n      revert\n        /* \"#utility.yul\":7049:7101   */\n    tag_572:\n        /* \"#utility.yul\":7136:7145   */\n      dup2\n        /* \"#utility.yul\":7123:7146   */\n      calldataload\n        /* \"#utility.yul\":7175:7176   */\n      0x02\n        /* \"#utility.yul\":7168:7173   */\n      dup2\n        /* \"#utility.yul\":7165:7177   */\n      lt\n        /* \"#utility.yul\":7155:7195   */\n      tag_547\n      jumpi\n        /* \"#utility.yul\":7191:7192   */\n      0x00\n        /* \"#utility.yul\":7188:7189   */\n      dup1\n        /* \"#utility.yul\":7181:7193   */\n      revert\n        /* \"#utility.yul\":7230:7633   */\n    tag_182:\n        /* \"#utility.yul\":7316:7322   */\n      0x00\n        /* \"#utility.yul\":7324:7330   */\n      dup1\n        /* \"#utility.yul\":7332:7338   */\n      0x00\n        /* \"#utility.yul\":7340:7346   */\n      dup1\n        /* \"#utility.yul\":7393:7396   */\n      0x80\n        /* \"#utility.yul\":7381:7390   */\n      dup6\n        /* \"#utility.yul\":7372:7379   */\n      dup8\n        /* \"#utility.yul\":7368:7391   */\n      sub\n        /* \"#utility.yul\":7364:7397   */\n      slt\n        /* \"#utility.yul\":7361:7414   */\n      iszero\n      tag_575\n      jumpi\n        /* \"#utility.yul\":7410:7411   */\n      0x00\n        /* \"#utility.yul\":7407:7408   */\n      dup1\n        /* \"#utility.yul\":7400:7412   */\n      revert\n        /* \"#utility.yul\":7361:7414   */\n    tag_575:\n        /* \"#utility.yul\":7446:7455   */\n      dup5\n        /* \"#utility.yul\":7433:7456   */\n      calldataload\n        /* \"#utility.yul\":7423:7456   */\n      swap4\n      pop\n        /* \"#utility.yul\":7475:7513   */\n      tag_576\n        /* \"#utility.yul\":7509:7511   */\n      0x20\n        /* \"#utility.yul\":7498:7507   */\n      dup7\n        /* \"#utility.yul\":7494:7512   */\n      add\n        /* \"#utility.yul\":7475:7513   */\n      tag_515\n      jump\t// in\n    tag_576:\n        /* \"#utility.yul\":7465:7513   */\n      swap3\n      pop\n        /* \"#utility.yul\":7532:7570   */\n      tag_577\n        /* \"#utility.yul\":7566:7568   */\n      0x40\n        /* \"#utility.yul\":7555:7564   */\n      dup7\n        /* \"#utility.yul\":7551:7569   */\n      add\n        /* \"#utility.yul\":7532:7570   */\n      tag_515\n      jump\t// in\n    tag_577:\n        /* \"#utility.yul\":7522:7570   */\n      swap2\n      pop\n        /* \"#utility.yul\":7589:7627   */\n      tag_578\n        /* \"#utility.yul\":7623:7625   */\n      0x60\n        /* \"#utility.yul\":7612:7621   */\n      dup7\n        /* \"#utility.yul\":7608:7626   */\n      add\n        /* \"#utility.yul\":7589:7627   */\n      tag_515\n      jump\t// in\n    tag_578:\n        /* \"#utility.yul\":7579:7627   */\n      swap1\n      pop\n        /* \"#utility.yul\":7230:7633   */\n      swap3\n      swap6\n      swap2\n      swap5\n      pop\n      swap3\n      pop\n      jump\t// out\n        /* \"#utility.yul\":7638:8110   */\n    tag_196:\n        /* \"#utility.yul\":7733:7739   */\n      0x00\n        /* \"#utility.yul\":7741:7747   */\n      dup1\n        /* \"#utility.yul\":7749:7755   */\n      0x00\n        /* \"#utility.yul\":7757:7763   */\n      dup1\n        /* \"#utility.yul\":7765:7771   */\n      0x00\n        /* \"#utility.yul\":7818:7821   */\n      0xa0\n        /* \"#utility.yul\":7806:7815   */\n      dup7\n        /* \"#utility.yul\":7797:7804   */\n      dup9\n        /* \"#utility.yul\":7793:7816   */\n      sub\n        /* \"#utility.yul\":7789:7822   */\n      slt\n        /* \"#utility.yul\":7786:7839   */\n      iszero\n      tag_580\n      jumpi\n        /* \"#utility.yul\":7835:7836   */\n      0x00\n        /* \"#utility.yul\":7832:7833   */\n      dup1\n        /* \"#utility.yul\":7825:7837   */\n      revert\n        /* \"#utility.yul\":7786:7839   */\n    tag_580:\n        /* \"#utility.yul\":7871:7880   */\n      dup6\n        /* \"#utility.yul\":7858:7881   */\n      calldataload\n        /* \"#utility.yul\":7848:7881   */\n      swap5\n      pop\n        /* \"#utility.yul\":7900:7938   */\n      tag_581\n        /* \"#utility.yul\":7934:7936   */\n      0x20\n        /* \"#utility.yul\":7923:7932   */\n      dup8\n        /* \"#utility.yul\":7919:7937   */\n      add\n        /* \"#utility.yul\":7900:7938   */\n      tag_515\n      jump\t// in\n    tag_581:\n        /* \"#utility.yul\":7890:7938   */\n      swap4\n      pop\n        /* \"#utility.yul\":7957:7995   */\n      tag_582\n        /* \"#utility.yul\":7991:7993   */\n      0x40\n        /* \"#utility.yul\":7980:7989   */\n      dup8\n        /* \"#utility.yul\":7976:7994   */\n      add\n        /* \"#utility.yul\":7957:7995   */\n      tag_515\n      jump\t// in\n    tag_582:\n        /* \"#utility.yul\":7947:7995   */\n      swap3\n      pop\n        /* \"#utility.yul\":8042:8044   */\n      0x60\n        /* \"#utility.yul\":8031:8040   */\n      dup7\n        /* \"#utility.yul\":8027:8045   */\n      add\n        /* \"#utility.yul\":8014:8046   */\n      calldataload\n        /* \"#utility.yul\":8004:8046   */\n      swap2\n      pop\n        /* \"#utility.yul\":8065:8104   */\n      tag_583\n        /* \"#utility.yul\":8099:8102   */\n      0x80\n        /* \"#utility.yul\":8088:8097   */\n      dup8\n        /* \"#utility.yul\":8084:8103   */\n      add\n        /* \"#utility.yul\":8065:8104   */\n      tag_515\n      jump\t// in\n    tag_583:\n        /* \"#utility.yul\":8055:8104   */\n      swap1\n      pop\n        /* \"#utility.yul\":7638:8110   */\n      swap3\n      swap6\n      pop\n      swap3\n      swap6\n      swap1\n      swap4\n      pop\n      jump\t// out\n        /* \"#utility.yul\":8115:8299   */\n    tag_252:\n        /* \"#utility.yul\":8185:8191   */\n      0x00\n        /* \"#utility.yul\":8238:8240   */\n      0x20\n        /* \"#utility.yul\":8226:8235   */\n      dup3\n        /* \"#utility.yul\":8217:8224   */\n      dup5\n        /* \"#utility.yul\":8213:8236   */\n      sub\n        /* \"#utility.yul\":8209:8241   */\n      slt\n        /* \"#utility.yul\":8206:8258   */\n      iszero\n      tag_585\n      jumpi\n        /* \"#utility.yul\":8254:8255   */\n      0x00\n        /* \"#utility.yul\":8251:8252   */\n      dup1\n        /* \"#utility.yul\":8244:8256   */\n      revert\n        /* \"#utility.yul\":8206:8258   */\n    tag_585:\n      pop\n        /* \"#utility.yul\":8277:8293   */\n      mload\n      swap2\n        /* \"#utility.yul\":8115:8299   */\n      swap1\n      pop\n      jump\t// out\n        /* \"#utility.yul\":8606:8883   */\n    tag_259:\n        /* \"#utility.yul\":8673:8679   */\n      0x00\n        /* \"#utility.yul\":8726:8728   */\n      0x20\n        /* \"#utility.yul\":8714:8723   */\n      dup3\n        /* \"#utility.yul\":8705:8712   */\n      dup5\n        /* \"#utility.yul\":8701:8724   */\n      sub\n        /* \"#utility.yul\":8697:8729   */\n      slt\n        /* \"#utility.yul\":8694:8746   */\n      iszero\n      tag_588\n      jumpi\n        /* \"#utility.yul\":8742:8743   */\n      0x00\n        /* \"#utility.yul\":8739:8740   */\n      dup1\n        /* \"#utility.yul\":8732:8744   */\n      revert\n        /* \"#utility.yul\":8694:8746   */\n    tag_588:\n        /* \"#utility.yul\":8774:8783   */\n      dup2\n        /* \"#utility.yul\":8768:8784   */\n      mload\n        /* \"#utility.yul\":8827:8832   */\n      dup1\n        /* \"#utility.yul\":8820:8833   */\n      iszero\n        /* \"#utility.yul\":8813:8834   */\n      iszero\n        /* \"#utility.yul\":8806:8811   */\n      dup2\n        /* \"#utility.yul\":8803:8835   */\n      eq\n        /* \"#utility.yul\":8793:8853   */\n      tag_547\n      jumpi\n        /* \"#utility.yul\":8849:8850   */\n      0x00\n        /* \"#utility.yul\":8846:8847   */\n      dup1\n        /* \"#utility.yul\":8839:8851   */\n      revert\n        /* \"#utility.yul\":8888:9083   */\n    tag_274:\n        /* \"#utility.yul\":8927:8930   */\n      0x00\n        /* \"#utility.yul\":8958:9024   */\n      0xffffffffffffffffffffffffffffffffffffffffffffffffffffffffffffffff\n        /* \"#utility.yul\":8951:8956   */\n      dup3\n        /* \"#utility.yul\":8948:9025   */\n      sub\n        /* \"#utility.yul\":8945:9048   */\n      tag_592\n      jumpi\n        /* \"#utility.yul\":9028:9046   */\n      tag_592\n      tag_510\n      jump\t// in\n    tag_592:\n      pop\n        /* \"#utility.yul\":9075:9076   */\n      0x01\n        /* \"#utility.yul\":9064:9077   */\n      add\n      swap1\n        /* \"#utility.yul\":8888:9083   */\n      jump\t// out\n        /* \"#utility.yul\":9088:9272   */\n    tag_281:\n        /* \"#utility.yul\":9140:9217   */\n      0x4e487b7100000000000000000000000000000000000000000000000000000000\n        /* \"#utility.yul\":9137:9138   */\n      0x00\n        /* \"#utility.yul\":9130:9218   */\n      mstore\n        /* \"#utility.yul\":9237:9241   */\n      0x41\n        /* \"#utility.yul\":9234:9235   */\n      0x04\n        /* \"#utility.yul\":9227:9242   */\n      mstore\n        /* \"#utility.yul\":9261:9265   */\n      0x24\n        /* \"#utility.yul\":9258:9259   */\n      0x00\n        /* \"#utility.yul\":9251:9266   */\n      revert\n        /* \"#utility.yul\":9277:9611   */\n    tag_518:\n        /* \"#utility.yul\":9348:9350   */\n      0x40\n        /* \"#utility.yul\":9342:9351   */\n      mload\n        /* \"#utility.yul\":9404:9406   */\n      0x1f\n        /* \"#utility.yul\":9394:9407   */\n      dup3\n      add\n        /* \"#utility.yul\":9409:9475   */\n      0xffffffffffffffffffffffffffffffffffffffffffffffffffffffffffffffe0\n        /* \"#utility.yul\":9390:9476   */\n      and\n        /* \"#utility.yul\":9378:9477   */\n      dup2\n      add\n        /* \"#utility.yul\":9507:9525   */\n      0xffffffffffffffff\n        /* \"#utility.yul\":9492:9526   */\n      dup2\n      gt\n        /* \"#utility.yul\":9528:9550   */\n      dup3\n      dup3\n      lt\n        /* \"#utility.yul\":9489:9551   */\n      or\n        /* \"#utility.yul\":9486:9574   */\n      iszero\n      tag_596\n      jumpi\n        /* \"#utility.yul\":9554:9572   */\n      tag_596\n      tag_281\n      jump\t// in\n    tag_596:\n        /* \"#utility.yul\":9590:9592   */\n      0x40\n        /* \"#utility.yul\":9583:9605   */\n      mstore\n        /* \"#utility.yul\":9277:9611   */\n      swap2\n      swap1\n      pop\n      jump\t// out\n        /* \"#utility.yul\":9616:10394   */\n    tag_289:\n        /* \"#utility.yul\":9696:9702   */\n      0x00\n        /* \"#utility.yul\":9749:9751   */\n      0x20\n        /* \"#utility.yul\":9737:9746   */\n      dup3\n        /* \"#utility.yul\":9728:9735   */\n      dup5\n        /* \"#utility.yul\":9724:9747   */\n      sub\n        /* \"#utility.yul\":9720:9752   */\n      slt\n        /* \"#utility.yul\":9717:9769   */\n      iszero\n      tag_598\n      jumpi\n        /* \"#utility.yul\":9765:9766   */\n      0x00\n        /* \"#utility.yul\":9762:9763   */\n      dup1\n        /* \"#utility.yul\":9755:9767   */\n      revert\n        /* \"#utility.yul\":9717:9769   */\n    tag_598:\n        /* \"#utility.yul\":9798:9807   */\n      dup2\n        /* \"#utility.yul\":9792:9808   */\n      mload\n        /* \"#utility.yul\":9827:9845   */\n      0xffffffffffffffff\n        /* \"#utility.yul\":9868:9870   */\n      dup1\n        /* \"#utility.yul\":9860:9866   */\n      dup3\n        /* \"#utility.yul\":9857:9871   */\n      gt\n        /* \"#utility.yul\":9854:9888   */\n      iszero\n      tag_599\n      jumpi\n        /* \"#utility.yul\":9884:9885   */\n      0x00\n        /* \"#utility.yul\":9881:9882   */\n      dup1\n        /* \"#utility.yul\":9874:9886   */\n      revert\n        /* \"#utility.yul\":9854:9888   */\n    tag_599:\n        /* \"#utility.yul\":9922:9928   */\n      dup2\n        /* \"#utility.yul\":9911:9920   */\n      dup5\n        /* \"#utility.yul\":9907:9929   */\n      add\n        /* \"#utility.yul\":9897:9929   */\n      swap2\n      pop\n        /* \"#utility.yul\":9967:9974   */\n      dup5\n        /* \"#utility.yul\":9960:9964   */\n      0x1f\n        /* \"#utility.yul\":9956:9958   */\n      dup4\n        /* \"#utility.yul\":9952:9965   */\n      add\n        /* \"#utility.yul\":9948:9975   */\n      slt\n        /* \"#utility.yul\":9938:9993   */\n      tag_600\n      jumpi\n        /* \"#utility.yul\":9989:9990   */\n      0x00\n        /* \"#utility.yul\":9986:9987   */\n      dup1\n        /* \"#utility.yul\":9979:9991   */\n      revert\n        /* \"#utility.yul\":9938:9993   */\n    tag_600:\n        /* \"#utility.yul\":10018:10020   */\n      dup2\n        /* \"#utility.yul\":10012:10021   */\n      mload\n        /* \"#utility.yul\":10040:10042   */\n      dup2\n        /* \"#utility.yul\":10036:10038   */\n      dup2\n        /* \"#utility.yul\":10033:10043   */\n      gt\n        /* \"#utility.yul\":10030:10066   */\n      iszero\n      tag_602\n      jumpi\n        /* \"#utility.yul\":10046:10064   */\n      tag_602\n      tag_281\n      jump\t// in\n    tag_602:\n        /* \"#utility.yul\":10088:10200   */\n      tag_603\n        /* \"#utility.yul\":10196:10198   */\n      0x20\n        /* \"#utility.yul\":10127:10193   */\n      0xffffffffffffffffffffffffffffffffffffffffffffffffffffffffffffffe0\n        /* \"#utility.yul\":10120:10124   */\n      0x1f\n        /* \"#utility.yul\":10116:10118   */\n      dup5\n        /* \"#utility.yul\":10112:10125   */\n      add\n        /* \"#utility.yul\":10108:10194   */\n      and\n        /* \"#utility.yul\":10104:10199   */\n      add\n        /* \"#utility.yul\":10088:10200   */\n      tag_518\n      jump\t// in\n    tag_603:\n        /* \"#utility.yul\":10075:10200   */\n      swap2\n      pop\n        /* \"#utility.yul\":10223:10225   */\n      dup1\n        /* \"#utility.yul\":10216:10221   */\n      dup3\n        /* \"#utility.yul\":10209:10226   */\n      mstore\n        /* \"#utility.yul\":10263:10270   */\n      dup6\n        /* \"#utility.yul\":10258:10260   */\n      0x20\n        /* \"#utility.yul\":10253:10255   */\n      dup3\n        /* \"#utility.yul\":10249:10251   */\n      dup6\n        /* \"#utility.yul\":10245:10256   */\n      add\n        /* \"#utility.yul\":10241:10261   */\n      add\n        /* \"#utility.yul\":10238:10271   */\n      gt\n        /* \"#utility.yul\":10235:10288   */\n      iszero\n      tag_604\n      jumpi\n        /* \"#utility.yul\":10284:10285   */\n      0x00\n        /* \"#utility.yul\":10281:10282   */\n      dup1\n        /* \"#utility.yul\":10274:10286   */\n      revert\n        /* \"#utility.yul\":10235:10288   */\n    tag_604:\n        /* \"#utility.yul\":10297:10364   */\n      tag_605\n        /* \"#utility.yul\":10361:10363   */\n      dup2\n        /* \"#utility.yul\":10356:10358   */\n      0x20\n        /* \"#utility.yul\":10349:10354   */\n      dup5\n        /* \"#utility.yul\":10345:10359   */\n      add\n        /* \"#utility.yul\":10340:10342   */\n      0x20\n        /* \"#utility.yul\":10336:10338   */\n      dup7\n        /* \"#utility.yul\":10332:10343   */\n      add\n        /* \"#utility.yul\":10297:10364   */\n      tag_512\n      jump\t// in\n    tag_605:\n      pop\n        /* \"#utility.yul\":10383:10388   */\n      swap5\n        /* \"#utility.yul\":9616:10394   */\n      swap4\n      pop\n      pop\n      pop\n      pop\n      jump\t// out\n        /* \"#utility.yul\":10399:10672   */\n    tag_296:\n        /* \"#utility.yul\":10467:10473   */\n      0x00\n        /* \"#utility.yul\":10520:10522   */\n      0x20\n        /* \"#utility.yul\":10508:10517   */\n      dup3\n        /* \"#utility.yul\":10499:10506   */\n      dup5\n        /* \"#utility.yul\":10495:10518   */\n      sub\n        /* \"#utility.yul\":10491:10523   */\n      slt\n        /* \"#utility.yul\":10488:10540   */\n      iszero\n      tag_607\n      jumpi\n        /* \"#utility.yul\":10536:10537   */\n      0x00\n        /* \"#utility.yul\":10533:10534   */\n      dup1\n        /* \"#utility.yul\":10526:10538   */\n      revert\n        /* \"#utility.yul\":10488:10540   */\n    tag_607:\n        /* \"#utility.yul\":10568:10577   */\n      dup2\n        /* \"#utility.yul\":10562:10578   */\n      mload\n        /* \"#utility.yul\":10618:10622   */\n      0xff\n        /* \"#utility.yul\":10611:10616   */\n      dup2\n        /* \"#utility.yul\":10607:10623   */\n      and\n        /* \"#utility.yul\":10600:10605   */\n      dup2\n        /* \"#utility.yul\":10597:10624   */\n      eq\n        /* \"#utility.yul\":10587:10642   */\n      tag_547\n      jumpi\n        /* \"#utility.yul\":10638:10639   */\n      0x00\n        /* \"#utility.yul\":10635:10636   */\n      dup1\n        /* \"#utility.yul\":10628:10640   */\n      revert\n        /* \"#utility.yul\":10677:10861   */\n    tag_303:\n        /* \"#utility.yul\":10729:10806   */\n      0x4e487b7100000000000000000000000000000000000000000000000000000000\n        /* \"#utility.yul\":10726:10727   */\n      0x00\n        /* \"#utility.yul\":10719:10807   */\n      mstore\n        /* \"#utility.yul\":10826:10830   */\n      0x32\n        /* \"#utility.yul\":10823:10824   */\n      0x04\n        /* \"#utility.yul\":10816:10831   */\n      mstore\n        /* \"#utility.yul\":10850:10854   */\n      0x24\n        /* \"#utility.yul\":10847:10848   */\n      0x00\n        /* \"#utility.yul\":10840:10855   */\n      revert\n        /* \"#utility.yul\":13284:13480   */\n    tag_369:\n        /* \"#utility.yul\":13323:13326   */\n      0x00\n        /* \"#utility.yul\":13351:13356   */\n      dup2\n        /* \"#utility.yul\":13341:13380   */\n      tag_619\n      jumpi\n        /* \"#utility.yul\":13360:13378   */\n      tag_619\n      tag_510\n      jump\t// in\n    tag_619:\n      pop\n        /* \"#utility.yul\":13407:13473   */\n      0xffffffffffffffffffffffffffffffffffffffffffffffffffffffffffffffff\n        /* \"#utility.yul\":13396:13474   */\n      add\n      swap1\n        /* \"#utility.yul\":13284:13480   */\n      jump\t// out\n        /* \"#utility.yul\":13485:13973   */\n    tag_519:\n        /* \"#utility.yul\":13538:13541   */\n      0x00\n        /* \"#utility.yul\":13576:13581   */\n      dup2\n        /* \"#utility.yul\":13570:13582   */\n      mload\n        /* \"#utility.yul\":13603:13609   */\n      dup1\n        /* \"#utility.yul\":13598:13601   */\n      dup5\n        /* \"#utility.yul\":13591:13610   */\n      mstore\n        /* \"#utility.yul\":13629:13633   */\n      0x20\n        /* \"#utility.yul\":13658:13662   */\n      dup1\n        /* \"#utility.yul\":13653:13656   */\n      dup6\n        /* \"#utility.yul\":13649:13663   */\n      add\n        /* \"#utility.yul\":13642:13663   */\n      swap5\n      pop\n        /* \"#utility.yul\":13697:13701   */\n      0x20\n        /* \"#utility.yul\":13690:13695   */\n      dup5\n        /* \"#utility.yul\":13686:13702   */\n      add\n        /* \"#utility.yul\":13720:13721   */\n      0x00\n        /* \"#utility.yul\":13730:13948   */\n    tag_621:\n        /* \"#utility.yul\":13744:13750   */\n      dup4\n        /* \"#utility.yul\":13741:13742   */\n      dup2\n        /* \"#utility.yul\":13738:13751   */\n      lt\n        /* \"#utility.yul\":13730:13948   */\n      iszero\n      tag_623\n      jumpi\n        /* \"#utility.yul\":13809:13822   */\n      dup2\n      mload\n        /* \"#utility.yul\":13824:13866   */\n      0xffffffffffffffffffffffffffffffffffffffff\n        /* \"#utility.yul\":13805:13867   */\n      and\n        /* \"#utility.yul\":13793:13868   */\n      dup8\n      mstore\n        /* \"#utility.yul\":13888:13900   */\n      swap6\n      dup3\n      add\n      swap6\n        /* \"#utility.yul\":13923:13938   */\n      swap1\n      dup3\n      add\n      swap1\n        /* \"#utility.yul\":13766:13767   */\n      0x01\n        /* \"#utility.yul\":13759:13768   */\n      add\n        /* \"#utility.yul\":13730:13948   */\n      jump(tag_621)\n    tag_623:\n      pop\n        /* \"#utility.yul\":13964:13967   */\n      swap5\n      swap6\n        /* \"#utility.yul\":13485:13973   */\n      swap5\n      pop\n      pop\n      pop\n      pop\n      pop\n      jump\t// out\n        /* \"#utility.yul\":13978:14310   */\n    tag_401:\n        /* \"#utility.yul\":14185:14191   */\n      dup3\n        /* \"#utility.yul\":14174:14183   */\n      dup2\n        /* \"#utility.yul\":14167:14192   */\n      mstore\n        /* \"#utility.yul\":14228:14230   */\n      0x40\n        /* \"#utility.yul\":14223:14225   */\n      0x20\n        /* \"#utility.yul\":14212:14221   */\n      dup3\n        /* \"#utility.yul\":14208:14226   */\n      add\n        /* \"#utility.yul\":14201:14231   */\n      mstore\n        /* \"#utility.yul\":14148:14152   */\n      0x00\n        /* \"#utility.yul\":14248:14304   */\n      tag_625\n        /* \"#utility.yul\":14300:14302   */\n      0x40\n        /* \"#utility.yul\":14289:14298   */\n      dup4\n        /* \"#utility.yul\":14285:14303   */\n      add\n        /* \"#utility.yul\":14277:14283   */\n      dup5\n        /* \"#utility.yul\":14248:14304   */\n      tag_519\n      jump\t// in\n    tag_625:\n        /* \"#utility.yul\":14240:14304   */\n      swap5\n        /* \"#utility.yul\":13978:14310   */\n      swap4\n      pop\n      pop\n      pop\n      pop\n      jump\t// out\n        /* \"#utility.yul\":14315:15251   */\n    tag_405:\n        /* \"#utility.yul\":14410:14416   */\n      0x00\n        /* \"#utility.yul\":14441:14443   */\n      0x20\n        /* \"#utility.yul\":14484:14486   */\n      dup1\n        /* \"#utility.yul\":14472:14481   */\n      dup4\n        /* \"#utility.yul\":14463:14470   */\n      dup6\n        /* \"#utility.yul\":14459:14482   */\n      sub\n        /* \"#utility.yul\":14455:14487   */\n      slt\n        /* \"#utility.yul\":14452:14504   */\n      iszero\n      tag_627\n      jumpi\n        /* \"#utility.yul\":14500:14501   */\n      0x00\n        /* \"#utility.yul\":14497:14498   */\n      dup1\n        /* \"#utility.yul\":14490:14502   */\n      revert\n        /* \"#utility.yul\":14452:14504   */\n    tag_627:\n        /* \"#utility.yul\":14533:14542   */\n      dup3\n        /* \"#utility.yul\":14527:14543   */\n      mload\n        /* \"#utility.yul\":14562:14580   */\n      0xffffffffffffffff\n        /* \"#utility.yul\":14603:14605   */\n      dup1\n        /* \"#utility.yul\":14595:14601   */\n      dup3\n        /* \"#utility.yul\":14592:14606   */\n      gt\n        /* \"#utility.yul\":14589:14623   */\n      iszero\n      tag_628\n      jumpi\n        /* \"#utility.yul\":14619:14620   */\n      0x00\n        /* \"#utility.yul\":14616:14617   */\n      dup1\n        /* \"#utility.yul\":14609:14621   */\n      revert\n        /* \"#utility.yul\":14589:14623   */\n    tag_628:\n        /* \"#utility.yul\":14657:14663   */\n      dup2\n        /* \"#utility.yul\":14646:14655   */\n      dup6\n        /* \"#utility.yul\":14642:14664   */\n      add\n        /* \"#utility.yul\":14632:14664   */\n      swap2\n      pop\n        /* \"#utility.yul\":14702:14709   */\n      dup6\n        /* \"#utility.yul\":14695:14699   */\n      0x1f\n        /* \"#utility.yul\":14691:14693   */\n      dup4\n        /* \"#utility.yul\":14687:14700   */\n      add\n        /* \"#utility.yul\":14683:14710   */\n      slt\n        /* \"#utility.yul\":14673:14728   */\n      tag_629\n      jumpi\n        /* \"#utility.yul\":14724:14725   */\n      0x00\n        /* \"#utility.yul\":14721:14722   */\n      dup1\n        /* \"#utility.yul\":14714:14726   */\n      revert\n        /* \"#utility.yul\":14673:14728   */\n    tag_629:\n        /* \"#utility.yul\":14753:14755   */\n      dup2\n        /* \"#utility.yul\":14747:14756   */\n      mload\n        /* \"#utility.yul\":14775:14777   */\n      dup2\n        /* \"#utility.yul\":14771:14773   */\n      dup2\n        /* \"#utility.yul\":14768:14778   */\n      gt\n        /* \"#utility.yul\":14765:14801   */\n      iszero\n      tag_631\n      jumpi\n        /* \"#utility.yul\":14781:14799   */\n      tag_631\n      tag_281\n      jump\t// in\n    tag_631:\n        /* \"#utility.yul\":14827:14829   */\n      dup1\n        /* \"#utility.yul\":14824:14825   */\n      0x05\n        /* \"#utility.yul\":14820:14830   */\n      shl\n        /* \"#utility.yul\":14810:14830   */\n      swap2\n      pop\n        /* \"#utility.yul\":14850:14878   */\n      tag_632\n        /* \"#utility.yul\":14874:14876   */\n      dup5\n        /* \"#utility.yul\":14870:14872   */\n      dup4\n        /* \"#utility.yul\":14866:14877   */\n      add\n        /* \"#utility.yul\":14850:14878   */\n      tag_518\n      jump\t// in\n    tag_632:\n        /* \"#utility.yul\":14912:14927   */\n      dup2\n      dup2\n      mstore\n        /* \"#utility.yul\":14982:14993   */\n      swap2\n      dup4\n      add\n        /* \"#utility.yul\":14978:14998   */\n      dup5\n      add\n      swap2\n        /* \"#utility.yul\":14943:14955   */\n      dup5\n      dup2\n      add\n      swap1\n        /* \"#utility.yul\":15010:15029   */\n      dup9\n      dup5\n      gt\n        /* \"#utility.yul\":15007:15046   */\n      iszero\n      tag_633\n      jumpi\n        /* \"#utility.yul\":15042:15043   */\n      0x00\n        /* \"#utility.yul\":15039:15040   */\n      dup1\n        /* \"#utility.yul\":15032:15044   */\n      revert\n        /* \"#utility.yul\":15007:15046   */\n    tag_633:\n        /* \"#utility.yul\":15066:15077   */\n      swap4\n      dup6\n      add\n      swap4\n        /* \"#utility.yul\":15086:15221   */\n    tag_634:\n        /* \"#utility.yul\":15102:15108   */\n      dup4\n        /* \"#utility.yul\":15097:15100   */\n      dup6\n        /* \"#utility.yul\":15094:15109   */\n      lt\n        /* \"#utility.yul\":15086:15221   */\n      iszero\n      tag_636\n      jumpi\n        /* \"#utility.yul\":15168:15178   */\n      dup5\n      mload\n        /* \"#utility.yul\":15156:15179   */\n      dup3\n      mstore\n        /* \"#utility.yul\":15119:15131   */\n      swap4\n      dup6\n      add\n      swap4\n        /* \"#utility.yul\":15199:15211   */\n      swap1\n      dup6\n      add\n      swap1\n        /* \"#utility.yul\":15086:15221   */\n      jump(tag_634)\n    tag_636:\n        /* \"#utility.yul\":15240:15245   */\n      swap9\n        /* \"#utility.yul\":14315:15251   */\n      swap8\n      pop\n      pop\n      pop\n      pop\n      pop\n      pop\n      pop\n      pop\n      jump\t// out\n        /* \"#utility.yul\":15812:16099   */\n    tag_418:\n        /* \"#utility.yul\":15941:15944   */\n      0x00\n        /* \"#utility.yul\":15979:15985   */\n      dup3\n        /* \"#utility.yul\":15973:15986   */\n      mload\n        /* \"#utility.yul\":15995:16061   */\n      tag_639\n        /* \"#utility.yul\":16054:16060   */\n      dup2\n        /* \"#utility.yul\":16049:16052   */\n      dup5\n        /* \"#utility.yul\":16042:16046   */\n      0x20\n        /* \"#utility.yul\":16034:16040   */\n      dup8\n        /* \"#utility.yul\":16030:16047   */\n      add\n        /* \"#utility.yul\":15995:16061   */\n      tag_512\n      jump\t// in\n    tag_639:\n        /* \"#utility.yul\":16077:16093   */\n      swap2\n      swap1\n      swap2\n      add\n      swap3\n        /* \"#utility.yul\":15812:16099   */\n      swap2\n      pop\n      pop\n      jump\t// out\n        /* \"#utility.yul\":17213:17738   */\n    tag_488:\n        /* \"#utility.yul\":17476:17482   */\n      dup5\n        /* \"#utility.yul\":17465:17474   */\n      dup2\n        /* \"#utility.yul\":17458:17483   */\n      mstore\n        /* \"#utility.yul\":17519:17522   */\n      0x80\n        /* \"#utility.yul\":17514:17516   */\n      0x20\n        /* \"#utility.yul\":17503:17512   */\n      dup3\n        /* \"#utility.yul\":17499:17517   */\n      add\n        /* \"#utility.yul\":17492:17523   */\n      mstore\n        /* \"#utility.yul\":17439:17443   */\n      0x00\n        /* \"#utility.yul\":17540:17597   */\n      tag_644\n        /* \"#utility.yul\":17592:17595   */\n      0x80\n        /* \"#utility.yul\":17581:17590   */\n      dup4\n        /* \"#utility.yul\":17577:17596   */\n      add\n        /* \"#utility.yul\":17569:17575   */\n      dup7\n        /* \"#utility.yul\":17540:17597   */\n      tag_519\n      jump\t// in\n    tag_644:\n        /* \"#utility.yul\":17645:17687   */\n      0xffffffffffffffffffffffffffffffffffffffff\n        /* \"#utility.yul\":17633:17688   */\n      swap5\n      swap1\n      swap5\n      and\n        /* \"#utility.yul\":17628:17630   */\n      0x40\n        /* \"#utility.yul\":17613:17631   */\n      dup4\n      add\n        /* \"#utility.yul\":17606:17689   */\n      mstore\n      pop\n        /* \"#utility.yul\":17720:17722   */\n      0x60\n        /* \"#utility.yul\":17705:17723   */\n      add\n        /* \"#utility.yul\":17698:17732   */\n      mstore\n        /* \"#utility.yul\":17532:17597   */\n      swap3\n        /* \"#utility.yul\":17213:17738   */\n      swap2\n      pop\n      pop\n      jump\t// out\n        /* \"#utility.yul\":18564:18692   */\n    tag_505:\n        /* \"#utility.yul\":18631:18640   */\n      dup2\n      dup2\n      sub\n        /* \"#utility.yul\":18652:18663   */\n      dup2\n      dup2\n      gt\n        /* \"#utility.yul\":18649:18686   */\n      iszero\n      tag_325\n      jumpi\n        /* \"#utility.yul\":18666:18684   */\n      tag_325\n      tag_510\n      jump\t// in\n\n    auxdata: 0xa2646970667358221220c8f883dbe8b93885edce31c89e6dd24915b90b21dde92ac7627f9e69d7a4d9f664736f6c63430008180033\n}\n",
				"bytecode": {
					"linkReferences": {},
					"object": "60806040526004805460ff60b81b191690556007805460ff60a01b191690555f600d819055600e5534801562000033575f80fd5b50604051620036aa380380620036aa83398101604081905262000056916200008a565b60015f81905580546001600160a01b039092166001600160a01b0319928316811790915560088054909216179055620000b9565b5f602082840312156200009b575f80fd5b81516001600160a01b0381168114620000b2575f80fd5b9392505050565b6135e380620000c75f395ff3fe608060405260043610610260575f3560e01c806376776b9f1161014b578063a0db86f9116100c6578063f2b3b4671161007c578063f4b0b75611610062578063f4b0b756146107d7578063f775cca714610803578063fa34a5fd14610822575f80fd5b8063f2b3b4671461078c578063f2fde38b146107b8575f80fd5b8063d9d7438e116100ac578063d9d7438e14610744578063e086e5ec14610763578063e5ee1d4014610777575f80fd5b8063a0db86f9146106f9578063ad5c464814610718575f80fd5b80638da5cb5b1161011b57806391f593691161010157806391f5936914610691578063954b1fe4146106bb5780639ec7e5db146106da575f80fd5b80638da5cb5b146106395780638dae88c214610665575f80fd5b806376776b9f146105ae5780637cc1f867146105c35780637de0dd79146105e45780638d8f2adb14610625575f80fd5b806343c885ba116101db57806354a3b27a116101ab57806359accd051161019157806359accd051461052f5780635b769f3c1461054e5780635e5f2e261461056d575f80fd5b806354a3b27a146104e55780635543089214610510575f80fd5b806343c885ba1461045457806346639dba146104855780634bce5afd146104a4578063502f7446146104b9575f80fd5b806320a05ff711610230578063327107f711610216578063327107f7146103c55780633f79b667146104165780634178617f14610435575f80fd5b806320a05ff7146103725780633024b23314610387575f80fd5b8063024ece89146102b5578063034f5423146102df5780631727533f1461030c5780631b66cb0014610353575f80fd5b366102b15760075474010000000000000000000000000000000000000000900460ff16156102af5734600d5f8282546102999190612d89565b909155506102a79050610841565b6102af6108cc565b005b5f80fd5b3480156102c0575f80fd5b506102c9610b88565b6040516102d69190612e07565b60405180910390f35b3480156102ea575f80fd5b506102fe6102f9366004612eee565b61119d565b6040519081526020016102d6565b348015610317575f80fd5b5060045461033f9074010000000000000000000000000000000000000000900462ffffff1681565b60405162ffffff90911681526020016102d6565b34801561035e575f80fd5b506102af61036d366004612f2d565b6111ec565b34801561037d575f80fd5b506102fe600c5481565b348015610392575f80fd5b506103b56103a1366004612f2d565b600a6020525f908152604090205460ff1681565b60405190151581526020016102d6565b3480156103d0575f80fd5b506002546103f19073ffffffffffffffffffffffffffffffffffffffff1681565b60405173ffffffffffffffffffffffffffffffffffffffff90911681526020016102d6565b348015610421575f80fd5b506102fe610430366004612eee565b611336565b348015610440575f80fd5b506102af61044f366004612f2d565b6113a1565b34801561045f575f80fd5b506007546103b59074010000000000000000000000000000000000000000900460ff1681565b348015610490575f80fd5b506102af61049f366004612f4d565b6114f8565b3480156104af575f80fd5b506102fe600e5481565b3480156104c4575f80fd5b506003546103f19073ffffffffffffffffffffffffffffffffffffffff1681565b3480156104f0575f80fd5b506102fe6104ff366004612f2d565b600b6020525f908152604090205481565b34801561051b575f80fd5b506102af61052a366004612f2d565b61187b565b34801561053a575f80fd5b506102af610549366004612f2d565b6119f1565b348015610559575f80fd5b506102af610568366004612f2d565b611b36565b348015610578575f80fd5b506103f1610587366004612eee565b60096020525f908152604090205473ffffffffffffffffffffffffffffffffffffffff1681565b3480156105b9575f80fd5b506102fe600d5481565b3480156105ce575f80fd5b506105d7611bfe565b6040516102d69190612ffb565b3480156105ef575f80fd5b506004546106189077010000000000000000000000000000000000000000000000900460ff1681565b6040516102d6919061314d565b348015610630575f80fd5b506102af6108cc565b348015610644575f80fd5b506001546103f19073ffffffffffffffffffffffffffffffffffffffff1681565b348015610670575f80fd5b506006546103f19073ffffffffffffffffffffffffffffffffffffffff1681565b34801561069c575f80fd5b5060075473ffffffffffffffffffffffffffffffffffffffff166103f1565b3480156106c6575f80fd5b506102af6106d536600461315b565b611d91565b3480156106e5575f80fd5b506102fe6106f4366004613179565b611e6e565b348015610704575f80fd5b506102af610713366004612f2d565b611fdf565b348015610723575f80fd5b506007546103f19073ffffffffffffffffffffffffffffffffffffffff1681565b34801561074f575f80fd5b506102fe61075e3660046131c3565b612124565b34801561076e575f80fd5b506102af612244565b348015610782575f80fd5b506102fe60055481565b348015610797575f80fd5b506004546103f19073ffffffffffffffffffffffffffffffffffffffff1681565b3480156107c3575f80fd5b506102af6107d2366004612f2d565b612308565b3480156107e2575f80fd5b506008546103f19073ffffffffffffffffffffffffffffffffffffffff1681565b34801561080e575f80fd5b506102af61081d366004612eee565b61244d565b34801561082d575f80fd5b506102af61083c366004612f2d565b6124d3565b6108496127f8565b475f81900361085857506108c1565b5f8060045477010000000000000000000000000000000000000000000000900460ff16600181111561088c5761088c612f95565b1461089f5761089a82611336565b6108a8565b6108a88261119d565b905060055481106108be576108bc82612869565b505b50505b6108ca60015f55565b565b6108d46127f8565b6002546040517f70a082310000000000000000000000000000000000000000000000000000000081523060048201525f9173ffffffffffffffffffffffffffffffffffffffff16906370a0823190602401602060405180830381865afa158015610940573d5f803e3d5ffd5b505050506040513d601f19601f820116820180604052508101906109649190613216565b90508015610a0a576002546008546040517fa9059cbb00000000000000000000000000000000000000000000000000000000815273ffffffffffffffffffffffffffffffffffffffff91821660048201526024810184905291169063a9059cbb906044016020604051808303815f875af11580156109e4573d5f803e3d5ffd5b505050506040513d601f19601f82011682018060405250810190610a08919061322d565b505b600c5415610b7e5760015b600c5481116108be575f81815260096020526040908190205490517f70a0823100000000000000000000000000000000000000000000000000000000815230600482015273ffffffffffffffffffffffffffffffffffffffff909116906370a0823190602401602060405180830381865afa158015610a96573d5f803e3d5ffd5b505050506040513d601f19601f82011682018060405250810190610aba9190613216565b91508115610b6c575f81815260096020526040908190205460085491517fa9059cbb00000000000000000000000000000000000000000000000000000000815273ffffffffffffffffffffffffffffffffffffffff92831660048201526024810185905291169063a9059cbb906044016020604051808303815f875af1158015610b46573d5f803e3d5ffd5b505050506040513d601f19601f82011682018060405250810190610b6a919061322d565b505b80610b768161324c565b915050610a15565b506108ca60015f55565b60075460609074010000000000000000000000000000000000000000900460ff161561119a57600c54610bbc906001612d89565b67ffffffffffffffff811115610bd457610bd4613283565b604051908082528060200260200182016040528015610c5357816020015b610c406040518060c001604052805f81526020015f73ffffffffffffffffffffffffffffffffffffffff16815260200160608152602001606081526020015f60ff1681526020015f81525090565b815260200190600190039081610bf25790505b506002546040805160c0810182525f80825273ffffffffffffffffffffffffffffffffffffffff9093166020820181905282517f95d89b410000000000000000000000000000000000000000000000000000000081528351959650909491939284019285926395d89b419260048082019392918290030181865afa158015610cdd573d5f803e3d5ffd5b505050506040513d5f823e601f3d9081017fffffffffffffffffffffffffffffffffffffffffffffffffffffffffffffffe0168201604052610d2291908101906132ff565b81526020018273ffffffffffffffffffffffffffffffffffffffff166306fdde036040518163ffffffff1660e01b81526004015f60405180830381865afa158015610d6f573d5f803e3d5ffd5b505050506040513d5f823e601f3d9081017fffffffffffffffffffffffffffffffffffffffffffffffffffffffffffffffe0168201604052610db491908101906132ff565b81526020018273ffffffffffffffffffffffffffffffffffffffff1663313ce5676040518163ffffffff1660e01b8152600401602060405180830381865afa158015610e02573d5f803e3d5ffd5b505050506040513d601f19601f82011682018060405250810190610e2691906133ac565b60ff1681526040517f70a0823100000000000000000000000000000000000000000000000000000000815230600482015260209091019073ffffffffffffffffffffffffffffffffffffffff8416906370a0823190602401602060405180830381865afa158015610e99573d5f803e3d5ffd5b505050506040513d601f19601f82011682018060405250810190610ebd9190613216565b815250825f81518110610ed257610ed26133cc565b6020908102919091010152600c54156111985760015b600c548111611196575f81815260096020818152604080842054815160c08101835286815286865293835273ffffffffffffffffffffffffffffffffffffffff1691830182905280517f95d89b41000000000000000000000000000000000000000000000000000000008152815192949184019285926395d89b4192600480820193918290030181865afa158015610f82573d5f803e3d5ffd5b505050506040513d5f823e601f3d9081017fffffffffffffffffffffffffffffffffffffffffffffffffffffffffffffffe0168201604052610fc791908101906132ff565b81526020018273ffffffffffffffffffffffffffffffffffffffff166306fdde036040518163ffffffff1660e01b81526004015f60405180830381865afa158015611014573d5f803e3d5ffd5b505050506040513d5f823e601f3d9081017fffffffffffffffffffffffffffffffffffffffffffffffffffffffffffffffe016820160405261105991908101906132ff565b81526020018273ffffffffffffffffffffffffffffffffffffffff1663313ce5676040518163ffffffff1660e01b8152600401602060405180830381865afa1580156110a7573d5f803e3d5ffd5b505050506040513d601f19601f820116820180604052508101906110cb91906133ac565b60ff1681526040517f70a0823100000000000000000000000000000000000000000000000000000000815230600482015260209091019073ffffffffffffffffffffffffffffffffffffffff8416906370a0823190602401602060405180830381865afa15801561113e573d5f803e3d5ffd5b505050506040513d601f19601f820116820180604052508101906111629190613216565b815250848381518110611177576111776133cc565b602002602001018190525050808061118e9061324c565b915050610ee8565b505b505b90565b5f6111e6826111c160075473ffffffffffffffffffffffffffffffffffffffff1690565b60025460035473ffffffffffffffffffffffffffffffffffffffff9182169116611e6e565b92915050565b60015473ffffffffffffffffffffffffffffffffffffffff163314611272576040517f08c379a000000000000000000000000000000000000000000000000000000000815260206004820152600a60248201527f4f6e6c79206f776e65720000000000000000000000000000000000000000000060448201526064015b60405180910390fd5b73ffffffffffffffffffffffffffffffffffffffff81166112ef576040517f08c379a000000000000000000000000000000000000000000000000000000000815260206004820152600c60248201527f43616e74206265207a65726f00000000000000000000000000000000000000006044820152606401611269565b600280547fffffffffffffffffffffffff00000000000000000000000000000000000000001673ffffffffffffffffffffffffffffffffffffffff92909216919091179055565b5f6111e68261135a60075473ffffffffffffffffffffffffffffffffffffffff1690565b60025460045460065473ffffffffffffffffffffffffffffffffffffffff928316927401000000000000000000000000000000000000000090920462ffffff169116612124565b60015473ffffffffffffffffffffffffffffffffffffffff163314611422576040517f08c379a000000000000000000000000000000000000000000000000000000000815260206004820152600a60248201527f4f6e6c79206f776e6572000000000000000000000000000000000000000000006044820152606401611269565b73ffffffffffffffffffffffffffffffffffffffff81165f908152600a602052604090205460ff166114f557600c8054905f61145d8361324c565b9091555050600c80545f90815260096020908152604080832080547fffffffffffffffffffffffff00000000000000000000000000000000000000001673ffffffffffffffffffffffffffffffffffffffff87169081179091558352600a825280832080547fffffffffffffffffffffffffffffffffffffffffffffffffffffffffffffff001660011790559254600b909152919020555b50565b60015473ffffffffffffffffffffffffffffffffffffffff163314611579576040517f08c379a000000000000000000000000000000000000000000000000000000000815260206004820152600a60248201527f4f6e6c79206f776e6572000000000000000000000000000000000000000000006044820152606401611269565b60075474010000000000000000000000000000000000000000900460ff16156115fe576040517f08c379a000000000000000000000000000000000000000000000000000000000815260206004820152600e60248201527f416c726561647920696e697465640000000000000000000000000000000000006044820152606401611269565b73ffffffffffffffffffffffffffffffffffffffff841661167b576040517f08c379a000000000000000000000000000000000000000000000000000000000815260206004820152601760248201527f496e76616c6964207772617070656420616464726573730000000000000000006044820152606401611269565b73ffffffffffffffffffffffffffffffffffffffff83166116f8576040517f08c379a000000000000000000000000000000000000000000000000000000000815260206004820152600d60248201527f496e76616c696420746f6b656e000000000000000000000000000000000000006044820152606401611269565b73ffffffffffffffffffffffffffffffffffffffff8216611775576040517f08c379a000000000000000000000000000000000000000000000000000000000815260206004820152601160248201527f496e76616c696420563220726f757465720000000000000000000000000000006044820152606401611269565b5f81116117de576040517f08c379a000000000000000000000000000000000000000000000000000000000815260206004820152601a60248201527f4d696e20616d6f756e74206f7574206d757374206265203e20300000000000006044820152606401611269565b6007805473ffffffffffffffffffffffffffffffffffffffff9586167fffffffffffffffffffffff0000000000000000000000000000000000000000009091161774010000000000000000000000000000000000000000179055600280549385167fffffffffffffffffffffffff000000000000000000000000000000000000000094851617905560038054929094169190921617909155600555565b60015473ffffffffffffffffffffffffffffffffffffffff1633146118fc576040517f08c379a000000000000000000000000000000000000000000000000000000000815260206004820152600a60248201527f4f6e6c79206f776e6572000000000000000000000000000000000000000000006044820152606401611269565b73ffffffffffffffffffffffffffffffffffffffff81165f908152600a602052604090205460ff16156114f55773ffffffffffffffffffffffffffffffffffffffff8082165f818152600b6020818152604080842054600c8054865260098085528387205489168752948452828620829055805486529383528185205481865282862080547fffffffffffffffffffffffff0000000000000000000000000000000000000000169190981617909655938352600a905291812080547fffffffffffffffffffffffffffffffffffffffffffffffffffffffffffffff00169055815491906119e8836133f9565b91905055505050565b60015473ffffffffffffffffffffffffffffffffffffffff163314611a72576040517f08c379a000000000000000000000000000000000000000000000000000000000815260206004820152600a60248201527f4f6e6c79206f776e6572000000000000000000000000000000000000000000006044820152606401611269565b73ffffffffffffffffffffffffffffffffffffffff8116611aef576040517f08c379a000000000000000000000000000000000000000000000000000000000815260206004820152600c60248201527f43616e74206265207a65726f00000000000000000000000000000000000000006044820152606401611269565b600380547fffffffffffffffffffffffff00000000000000000000000000000000000000001673ffffffffffffffffffffffffffffffffffffffff92909216919091179055565b60015473ffffffffffffffffffffffffffffffffffffffff163314611bb7576040517f08c379a000000000000000000000000000000000000000000000000000000000815260206004820152600a60248201527f4f6e6c79206f776e6572000000000000000000000000000000000000000000006044820152606401611269565b600780547fffffffffffffffffffffffff00000000000000000000000000000000000000001673ffffffffffffffffffffffffffffffffffffffff92909216919091179055565b611c8e604080516101a0810182525f80825260208201819052918101829052606081018290526080810182905260a081018290529060c082019081526020015f81526020015f73ffffffffffffffffffffffffffffffffffffffff1681526020015f73ffffffffffffffffffffffffffffffffffffffff1681526020015f81526020015f81526020015f81525090565b604080516101a081018252600754740100000000000000000000000000000000000000009081900460ff908116151583526001805473ffffffffffffffffffffffffffffffffffffffff908116602086015260025481169585019590955260035485166060850152600454948516608085015291840462ffffff1660a0840152919260c0840192770100000000000000000000000000000000000000000000009091041690811115611d4257611d42612f95565b8152600554602082015260065473ffffffffffffffffffffffffffffffffffffffff9081166040830152600754166060820152476080820152600d5460a0820152600e5460c090910152919050565b60015473ffffffffffffffffffffffffffffffffffffffff163314611e12576040517f08c379a000000000000000000000000000000000000000000000000000000000815260206004820152600a60248201527f4f6e6c79206f776e6572000000000000000000000000000000000000000000006044820152606401611269565b600480548291907fffffffffffffffff00ffffffffffffffffffffffffffffffffffffffffffffff1677010000000000000000000000000000000000000000000000836001811115611e6657611e66612f95565b021790555050565b6040805160028082526060820183525f928392919060208301908036833701905050905084815f81518110611ea557611ea56133cc565b602002602001019073ffffffffffffffffffffffffffffffffffffffff16908173ffffffffffffffffffffffffffffffffffffffff16815250508381600181518110611ef357611ef36133cc565b73ffffffffffffffffffffffffffffffffffffffff92831660209182029290920101526040517fd06ca61f0000000000000000000000000000000000000000000000000000000081525f9185169063d06ca61f90611f57908a90869060040161347d565b5f60405180830381865afa158015611f71573d5f803e3d5ffd5b505050506040513d5f823e601f3d9081017fffffffffffffffffffffffffffffffffffffffffffffffffffffffffffffffe0168201604052611fb6919081019061349d565b905080600181518110611fcb57611fcb6133cc565b602002602001015192505050949350505050565b60015473ffffffffffffffffffffffffffffffffffffffff163314612060576040517f08c379a000000000000000000000000000000000000000000000000000000000815260206004820152600a60248201527f4f6e6c79206f776e6572000000000000000000000000000000000000000000006044820152606401611269565b73ffffffffffffffffffffffffffffffffffffffff81166120dd576040517f08c379a000000000000000000000000000000000000000000000000000000000815260206004820152600c60248201527f43616e74206265207a65726f00000000000000000000000000000000000000006044820152606401611269565b600880547fffffffffffffffffffffffff00000000000000000000000000000000000000001673ffffffffffffffffffffffffffffffffffffffff92909216919091179055565b6040805173ffffffffffffffffffffffffffffffffffffffff8681166024830152858116604483015260648201889052608482018590525f60a48084018290528451808503909101815260c490930184526020830180517bffffffffffffffffffffffffffffffffffffffffffffffffffffffff167f1296323f000000000000000000000000000000000000000000000000000000001790529251839283928616916121d0919061353e565b5f60405180830381855afa9150503d805f8114612208576040519150601f19603f3d011682016040523d82523d5f602084013e61220d565b606091505b50915091508115612235578080602001905181019061222c9190613216565b9250505061223b565b5f925050505b95945050505050565b60015473ffffffffffffffffffffffffffffffffffffffff1633146122c5576040517f08c379a000000000000000000000000000000000000000000000000000000000815260206004820152600a60248201527f4f6e6c79206f776e6572000000000000000000000000000000000000000000006044820152606401611269565b60085460405173ffffffffffffffffffffffffffffffffffffffff909116904780156108fc02915f818181858888f193505050501580156114f5573d5f803e3d5ffd5b60015473ffffffffffffffffffffffffffffffffffffffff163314612389576040517f08c379a000000000000000000000000000000000000000000000000000000000815260206004820152600a60248201527f4f6e6c79206f776e6572000000000000000000000000000000000000000000006044820152606401611269565b73ffffffffffffffffffffffffffffffffffffffff8116612406576040517f08c379a000000000000000000000000000000000000000000000000000000000815260206004820152600c60248201527f43616e74206265207a65726f00000000000000000000000000000000000000006044820152606401611269565b600180547fffffffffffffffffffffffff00000000000000000000000000000000000000001673ffffffffffffffffffffffffffffffffffffffff92909216919091179055565b60015473ffffffffffffffffffffffffffffffffffffffff1633146124ce576040517f08c379a000000000000000000000000000000000000000000000000000000000815260206004820152600a60248201527f4f6e6c79206f776e6572000000000000000000000000000000000000000000006044820152606401611269565b600555565b60015473ffffffffffffffffffffffffffffffffffffffff163314612554576040517f08c379a000000000000000000000000000000000000000000000000000000000815260206004820152600a60248201527f4f6e6c79206f776e6572000000000000000000000000000000000000000000006044820152606401611269565b60025473ffffffffffffffffffffffffffffffffffffffff8281169116148015906125a4575073ffffffffffffffffffffffffffffffffffffffff81165f908152600a602052604090205460ff16155b612630576040517f08c379a000000000000000000000000000000000000000000000000000000000815260206004820152602560248201527f43616e74207265636f7665727920746172676574206f7220616c6c6f7765642060448201527f746f6b656e0000000000000000000000000000000000000000000000000000006064820152608401611269565b6040517f70a0823100000000000000000000000000000000000000000000000000000000815230600482015281905f9073ffffffffffffffffffffffffffffffffffffffff8316906370a0823190602401602060405180830381865afa15801561269c573d5f803e3d5ffd5b505050506040513d601f19601f820116820180604052508101906126c09190613216565b11156127f4576001546040517f70a0823100000000000000000000000000000000000000000000000000000000815230600482015273ffffffffffffffffffffffffffffffffffffffff8381169263a9059cbb9291169083906370a0823190602401602060405180830381865afa15801561273d573d5f803e3d5ffd5b505050506040513d601f19601f820116820180604052508101906127619190613216565b6040517fffffffff0000000000000000000000000000000000000000000000000000000060e085901b16815273ffffffffffffffffffffffffffffffffffffffff909216600483015260248201526044016020604051808303815f875af11580156127ce573d5f803e3d5ffd5b505050506040513d601f19601f820116820180604052508101906127f2919061322d565b505b5050565b60025f5403612863576040517f08c379a000000000000000000000000000000000000000000000000000000000815260206004820152601f60248201527f5265656e7472616e637947756172643a207265656e7472616e742063616c6c006044820152606401611269565b60025f55565b5f8082116128d3576040517f08c379a000000000000000000000000000000000000000000000000000000000815260206004820152600e60248201527f4e6f2045544820746f20737761700000000000000000000000000000000000006044820152606401611269565b6002546040517f70a082310000000000000000000000000000000000000000000000000000000081523060048201525f9173ffffffffffffffffffffffffffffffffffffffff16906370a0823190602401602060405180830381865afa15801561293f573d5f803e3d5ffd5b505050506040513d601f19601f820116820180604052508101906129639190613216565b90505f60045477010000000000000000000000000000000000000000000000900460ff16600181111561299857612998612f95565b03612aef576040805160028082526060820183525f9260208301908036833750506007549192505073ffffffffffffffffffffffffffffffffffffffff16815f815181106129e8576129e86133cc565b73ffffffffffffffffffffffffffffffffffffffff9283166020918202929092010152600254825191169082906001908110612a2657612a266133cc565b73ffffffffffffffffffffffffffffffffffffffff9283166020918202929092010152600354600554911690637ff36ab59086908430612a684261012c612d89565b6040518663ffffffff1660e01b8152600401612a879493929190613559565b5f6040518083038185885af1158015612aa2573d5f803e3d5ffd5b50505050506040513d5f823e601f3d9081017fffffffffffffffffffffffffffffffffffffffffffffffffffffffffffffffe0168201604052612ae8919081019061349d565b5050612c9e565b60045460408051610100810190915273ffffffffffffffffffffffffffffffffffffffff9091169063414bf38990859080612b3f60075473ffffffffffffffffffffffffffffffffffffffff1690565b73ffffffffffffffffffffffffffffffffffffffff908116825260025416602082015260045474010000000000000000000000000000000000000000900462ffffff166040820152306060820152608001612b9c4261012c612d89565b815260200187815260200160055481526020015f73ffffffffffffffffffffffffffffffffffffffff168152506040518363ffffffff1660e01b8152600401612c5b91905f6101008201905073ffffffffffffffffffffffffffffffffffffffff80845116835280602085015116602084015262ffffff60408501511660408401528060608501511660608401526080840151608084015260a084015160a084015260c084015160c08401528060e08501511660e08401525092915050565b60206040518083038185885af1158015612c77573d5f803e3d5ffd5b50505050506040513d601f19601f82011682018060405250810190612c9c9190613216565b505b6002546040517f70a082310000000000000000000000000000000000000000000000000000000081523060048201525f91839173ffffffffffffffffffffffffffffffffffffffff909116906370a0823190602401602060405180830381865afa158015612d0e573d5f803e3d5ffd5b505050506040513d601f19601f82011682018060405250810190612d329190613216565b612d3c919061359a565b905080600e5f828254612d4f9190612d89565b9091555090949350505050565b7f4e487b71000000000000000000000000000000000000000000000000000000005f52601160045260245ffd5b808201808211156111e6576111e6612d5c565b5f5b83811015612db6578181015183820152602001612d9e565b50505f910152565b5f8151808452612dd5816020860160208601612d9c565b601f017fffffffffffffffffffffffffffffffffffffffffffffffffffffffffffffffe0169290920160200192915050565b5f60208083018184528085518083526040925060408601915060408160051b8701018488015f5b83811015612ee0577fffffffffffffffffffffffffffffffffffffffffffffffffffffffffffffffc0898403018552815160c08151855273ffffffffffffffffffffffffffffffffffffffff898301511689860152878201518189870152612e9882870182612dbe565b91505060608083015186830382880152612eb28382612dbe565b60808581015160ff169089015260a09485015194909701939093525050509386019390860190600101612e2e565b509098975050505050505050565b5f60208284031215612efe575f80fd5b5035919050565b803573ffffffffffffffffffffffffffffffffffffffff81168114612f28575f80fd5b919050565b5f60208284031215612f3d575f80fd5b612f4682612f05565b9392505050565b5f805f8060808587031215612f60575f80fd5b612f6985612f05565b9350612f7760208601612f05565b9250612f8560408601612f05565b9396929550929360600135925050565b7f4e487b71000000000000000000000000000000000000000000000000000000005f52602160045260245ffd5b60028110612ff7577f4e487b71000000000000000000000000000000000000000000000000000000005f52602160045260245ffd5b9052565b8151151581526101a08101602083015161302d602084018273ffffffffffffffffffffffffffffffffffffffff169052565b506040830151613055604084018273ffffffffffffffffffffffffffffffffffffffff169052565b50606083015161307d606084018273ffffffffffffffffffffffffffffffffffffffff169052565b5060808301516130a5608084018273ffffffffffffffffffffffffffffffffffffffff169052565b5060a08301516130bc60a084018262ffffff169052565b5060c08301516130cf60c0840182612fc2565b5060e083015160e0830152610100808401516131028285018273ffffffffffffffffffffffffffffffffffffffff169052565b50506101208381015173ffffffffffffffffffffffffffffffffffffffff16908301526101408084015190830152610160808401519083015261018092830151929091019190915290565b602081016111e68284612fc2565b5f6020828403121561316b575f80fd5b813560028110612f46575f80fd5b5f805f806080858703121561318c575f80fd5b8435935061319c60208601612f05565b92506131aa60408601612f05565b91506131b860608601612f05565b905092959194509250565b5f805f805f60a086880312156131d7575f80fd5b853594506131e760208701612f05565b93506131f560408701612f05565b92506060860135915061320a60808701612f05565b90509295509295909350565b5f60208284031215613226575f80fd5b5051919050565b5f6020828403121561323d575f80fd5b81518015158114612f46575f80fd5b5f7fffffffffffffffffffffffffffffffffffffffffffffffffffffffffffffffff820361327c5761327c612d5c565b5060010190565b7f4e487b71000000000000000000000000000000000000000000000000000000005f52604160045260245ffd5b604051601f82017fffffffffffffffffffffffffffffffffffffffffffffffffffffffffffffffe016810167ffffffffffffffff811182821017156132f7576132f7613283565b604052919050565b5f6020828403121561330f575f80fd5b815167ffffffffffffffff80821115613326575f80fd5b818401915084601f830112613339575f80fd5b81518181111561334b5761334b613283565b61337c60207fffffffffffffffffffffffffffffffffffffffffffffffffffffffffffffffe0601f840116016132b0565b9150808252856020828501011115613392575f80fd5b6133a3816020840160208601612d9c565b50949350505050565b5f602082840312156133bc575f80fd5b815160ff81168114612f46575f80fd5b7f4e487b71000000000000000000000000000000000000000000000000000000005f52603260045260245ffd5b5f8161340757613407612d5c565b507fffffffffffffffffffffffffffffffffffffffffffffffffffffffffffffffff0190565b5f815180845260208085019450602084015f5b8381101561347257815173ffffffffffffffffffffffffffffffffffffffff1687529582019590820190600101613440565b509495945050505050565b828152604060208201525f613495604083018461342d565b949350505050565b5f60208083850312156134ae575f80fd5b825167ffffffffffffffff808211156134c5575f80fd5b818501915085601f8301126134d8575f80fd5b8151818111156134ea576134ea613283565b8060051b91506134fb8483016132b0565b8181529183018401918481019088841115613514575f80fd5b938501935b8385101561353257845182529385019390850190613519565b98975050505050505050565b5f825161354f818460208701612d9c565b9190910192915050565b848152608060208201525f613571608083018661342d565b73ffffffffffffffffffffffffffffffffffffffff949094166040830152506060015292915050565b818103818111156111e6576111e6612d5c56fea2646970667358221220c8f883dbe8b93885edce31c89e6dd24915b90b21dde92ac7627f9e69d7a4d9f664736f6c63430008180033",
					"opcodes": "PUSH1 0x80 PUSH1 0x40 MSTORE PUSH1 0x4 DUP1 SLOAD PUSH1 0xFF PUSH1 0xB8 SHL NOT AND SWAP1 SSTORE PUSH1 0x7 DUP1 SLOAD PUSH1 0xFF PUSH1 0xA0 SHL NOT AND SWAP1 SSTORE PUSH0 PUSH1 0xD DUP2 SWAP1 SSTORE PUSH1 0xE SSTORE CALLVALUE DUP1 ISZERO PUSH3 0x33 JUMPI PUSH0 DUP1 REVERT JUMPDEST POP PUSH1 0x40 MLOAD PUSH3 0x36AA CODESIZE SUB DUP1 PUSH3 0x36AA DUP4 CODECOPY DUP2 ADD PUSH1 0x40 DUP2 SWAP1 MSTORE PUSH3 0x56 SWAP2 PUSH3 0x8A JUMP JUMPDEST PUSH1 0x1 PUSH0 DUP2 SWAP1 SSTORE DUP1 SLOAD PUSH1 0x1 PUSH1 0x1 PUSH1 0xA0 SHL SUB SWAP1 SWAP3 AND PUSH1 0x1 PUSH1 0x1 PUSH1 0xA0 SHL SUB NOT SWAP3 DUP4 AND DUP2 OR SWAP1 SWAP2 SSTORE PUSH1 0x8 DUP1 SLOAD SWAP1 SWAP3 AND OR SWAP1 SSTORE PUSH3 0xB9 JUMP JUMPDEST PUSH0 PUSH1 0x20 DUP3 DUP5 SUB SLT ISZERO PUSH3 0x9B JUMPI PUSH0 DUP1 REVERT JUMPDEST DUP2 MLOAD PUSH1 0x1 PUSH1 0x1 PUSH1 0xA0 SHL SUB DUP2 AND DUP2 EQ PUSH3 0xB2 JUMPI PUSH0 DUP1 REVERT JUMPDEST SWAP4 SWAP3 POP POP POP JUMP JUMPDEST PUSH2 0x35E3 DUP1 PUSH3 0xC7 PUSH0 CODECOPY PUSH0 RETURN INVALID PUSH1 0x80 PUSH1 0x40 MSTORE PUSH1 0x4 CALLDATASIZE LT PUSH2 0x260 JUMPI PUSH0 CALLDATALOAD PUSH1 0xE0 SHR DUP1 PUSH4 0x76776B9F GT PUSH2 0x14B JUMPI DUP1 PUSH4 0xA0DB86F9 GT PUSH2 0xC6 JUMPI DUP1 PUSH4 0xF2B3B467 GT PUSH2 0x7C JUMPI DUP1 PUSH4 0xF4B0B756 GT PUSH2 0x62 JUMPI DUP1 PUSH4 0xF4B0B756 EQ PUSH2 0x7D7 JUMPI DUP1 PUSH4 0xF775CCA7 EQ PUSH2 0x803 JUMPI DUP1 PUSH4 0xFA34A5FD EQ PUSH2 0x822 JUMPI PUSH0 DUP1 REVERT JUMPDEST DUP1 PUSH4 0xF2B3B467 EQ PUSH2 0x78C JUMPI DUP1 PUSH4 0xF2FDE38B EQ PUSH2 0x7B8 JUMPI PUSH0 DUP1 REVERT JUMPDEST DUP1 PUSH4 0xD9D7438E GT PUSH2 0xAC JUMPI DUP1 PUSH4 0xD9D7438E EQ PUSH2 0x744 JUMPI DUP1 PUSH4 0xE086E5EC EQ PUSH2 0x763 JUMPI DUP1 PUSH4 0xE5EE1D40 EQ PUSH2 0x777 JUMPI PUSH0 DUP1 REVERT JUMPDEST DUP1 PUSH4 0xA0DB86F9 EQ PUSH2 0x6F9 JUMPI DUP1 PUSH4 0xAD5C4648 EQ PUSH2 0x718 JUMPI PUSH0 DUP1 REVERT JUMPDEST DUP1 PUSH4 0x8DA5CB5B GT PUSH2 0x11B JUMPI DUP1 PUSH4 0x91F59369 GT PUSH2 0x101 JUMPI DUP1 PUSH4 0x91F59369 EQ PUSH2 0x691 JUMPI DUP1 PUSH4 0x954B1FE4 EQ PUSH2 0x6BB JUMPI DUP1 PUSH4 0x9EC7E5DB EQ PUSH2 0x6DA JUMPI PUSH0 DUP1 REVERT JUMPDEST DUP1 PUSH4 0x8DA5CB5B EQ PUSH2 0x639 JUMPI DUP1 PUSH4 0x8DAE88C2 EQ PUSH2 0x665 JUMPI PUSH0 DUP1 REVERT JUMPDEST DUP1 PUSH4 0x76776B9F EQ PUSH2 0x5AE JUMPI DUP1 PUSH4 0x7CC1F867 EQ PUSH2 0x5C3 JUMPI DUP1 PUSH4 0x7DE0DD79 EQ PUSH2 0x5E4 JUMPI DUP1 PUSH4 0x8D8F2ADB EQ PUSH2 0x625 JUMPI PUSH0 DUP1 REVERT JUMPDEST DUP1 PUSH4 0x43C885BA GT PUSH2 0x1DB JUMPI DUP1 PUSH4 0x54A3B27A GT PUSH2 0x1AB JUMPI DUP1 PUSH4 0x59ACCD05 GT PUSH2 0x191 JUMPI DUP1 PUSH4 0x59ACCD05 EQ PUSH2 0x52F JUMPI DUP1 PUSH4 0x5B769F3C EQ PUSH2 0x54E JUMPI DUP1 PUSH4 0x5E5F2E26 EQ PUSH2 0x56D JUMPI PUSH0 DUP1 REVERT JUMPDEST DUP1 PUSH4 0x54A3B27A EQ PUSH2 0x4E5 JUMPI DUP1 PUSH4 0x55430892 EQ PUSH2 0x510 JUMPI PUSH0 DUP1 REVERT JUMPDEST DUP1 PUSH4 0x43C885BA EQ PUSH2 0x454 JUMPI DUP1 PUSH4 0x46639DBA EQ PUSH2 0x485 JUMPI DUP1 PUSH4 0x4BCE5AFD EQ PUSH2 0x4A4 JUMPI DUP1 PUSH4 0x502F7446 EQ PUSH2 0x4B9 JUMPI PUSH0 DUP1 REVERT JUMPDEST DUP1 PUSH4 0x20A05FF7 GT PUSH2 0x230 JUMPI DUP1 PUSH4 0x327107F7 GT PUSH2 0x216 JUMPI DUP1 PUSH4 0x327107F7 EQ PUSH2 0x3C5 JUMPI DUP1 PUSH4 0x3F79B667 EQ PUSH2 0x416 JUMPI DUP1 PUSH4 0x4178617F EQ PUSH2 0x435 JUMPI PUSH0 DUP1 REVERT JUMPDEST DUP1 PUSH4 0x20A05FF7 EQ PUSH2 0x372 JUMPI DUP1 PUSH4 0x3024B233 EQ PUSH2 0x387 JUMPI PUSH0 DUP1 REVERT JUMPDEST DUP1 PUSH4 0x24ECE89 EQ PUSH2 0x2B5 JUMPI DUP1 PUSH4 0x34F5423 EQ PUSH2 0x2DF JUMPI DUP1 PUSH4 0x1727533F EQ PUSH2 0x30C JUMPI DUP1 PUSH4 0x1B66CB00 EQ PUSH2 0x353 JUMPI PUSH0 DUP1 REVERT JUMPDEST CALLDATASIZE PUSH2 0x2B1 JUMPI PUSH1 0x7 SLOAD PUSH21 0x10000000000000000000000000000000000000000 SWAP1 DIV PUSH1 0xFF AND ISZERO PUSH2 0x2AF JUMPI CALLVALUE PUSH1 0xD PUSH0 DUP3 DUP3 SLOAD PUSH2 0x299 SWAP2 SWAP1 PUSH2 0x2D89 JUMP JUMPDEST SWAP1 SWAP2 SSTORE POP PUSH2 0x2A7 SWAP1 POP PUSH2 0x841 JUMP JUMPDEST PUSH2 0x2AF PUSH2 0x8CC JUMP JUMPDEST STOP JUMPDEST PUSH0 DUP1 REVERT JUMPDEST CALLVALUE DUP1 ISZERO PUSH2 0x2C0 JUMPI PUSH0 DUP1 REVERT JUMPDEST POP PUSH2 0x2C9 PUSH2 0xB88 JUMP JUMPDEST PUSH1 0x40 MLOAD PUSH2 0x2D6 SWAP2 SWAP1 PUSH2 0x2E07 JUMP JUMPDEST PUSH1 0x40 MLOAD DUP1 SWAP2 SUB SWAP1 RETURN JUMPDEST CALLVALUE DUP1 ISZERO PUSH2 0x2EA JUMPI PUSH0 DUP1 REVERT JUMPDEST POP PUSH2 0x2FE PUSH2 0x2F9 CALLDATASIZE PUSH1 0x4 PUSH2 0x2EEE JUMP JUMPDEST PUSH2 0x119D JUMP JUMPDEST PUSH1 0x40 MLOAD SWAP1 DUP2 MSTORE PUSH1 0x20 ADD PUSH2 0x2D6 JUMP JUMPDEST CALLVALUE DUP1 ISZERO PUSH2 0x317 JUMPI PUSH0 DUP1 REVERT JUMPDEST POP PUSH1 0x4 SLOAD PUSH2 0x33F SWAP1 PUSH21 0x10000000000000000000000000000000000000000 SWAP1 DIV PUSH3 0xFFFFFF AND DUP2 JUMP JUMPDEST PUSH1 0x40 MLOAD PUSH3 0xFFFFFF SWAP1 SWAP2 AND DUP2 MSTORE PUSH1 0x20 ADD PUSH2 0x2D6 JUMP JUMPDEST CALLVALUE DUP1 ISZERO PUSH2 0x35E JUMPI PUSH0 DUP1 REVERT JUMPDEST POP PUSH2 0x2AF PUSH2 0x36D CALLDATASIZE PUSH1 0x4 PUSH2 0x2F2D JUMP JUMPDEST PUSH2 0x11EC JUMP JUMPDEST CALLVALUE DUP1 ISZERO PUSH2 0x37D JUMPI PUSH0 DUP1 REVERT JUMPDEST POP PUSH2 0x2FE PUSH1 0xC SLOAD DUP2 JUMP JUMPDEST CALLVALUE DUP1 ISZERO PUSH2 0x392 JUMPI PUSH0 DUP1 REVERT JUMPDEST POP PUSH2 0x3B5 PUSH2 0x3A1 CALLDATASIZE PUSH1 0x4 PUSH2 0x2F2D JUMP JUMPDEST PUSH1 0xA PUSH1 0x20 MSTORE PUSH0 SWAP1 DUP2 MSTORE PUSH1 0x40 SWAP1 KECCAK256 SLOAD PUSH1 0xFF AND DUP2 JUMP JUMPDEST PUSH1 0x40 MLOAD SWAP1 ISZERO ISZERO DUP2 MSTORE PUSH1 0x20 ADD PUSH2 0x2D6 JUMP JUMPDEST CALLVALUE DUP1 ISZERO PUSH2 0x3D0 JUMPI PUSH0 DUP1 REVERT JUMPDEST POP PUSH1 0x2 SLOAD PUSH2 0x3F1 SWAP1 PUSH20 0xFFFFFFFFFFFFFFFFFFFFFFFFFFFFFFFFFFFFFFFF AND DUP2 JUMP JUMPDEST PUSH1 0x40 MLOAD PUSH20 0xFFFFFFFFFFFFFFFFFFFFFFFFFFFFFFFFFFFFFFFF SWAP1 SWAP2 AND DUP2 MSTORE PUSH1 0x20 ADD PUSH2 0x2D6 JUMP JUMPDEST CALLVALUE DUP1 ISZERO PUSH2 0x421 JUMPI PUSH0 DUP1 REVERT JUMPDEST POP PUSH2 0x2FE PUSH2 0x430 CALLDATASIZE PUSH1 0x4 PUSH2 0x2EEE JUMP JUMPDEST PUSH2 0x1336 JUMP JUMPDEST CALLVALUE DUP1 ISZERO PUSH2 0x440 JUMPI PUSH0 DUP1 REVERT JUMPDEST POP PUSH2 0x2AF PUSH2 0x44F CALLDATASIZE PUSH1 0x4 PUSH2 0x2F2D JUMP JUMPDEST PUSH2 0x13A1 JUMP JUMPDEST CALLVALUE DUP1 ISZERO PUSH2 0x45F JUMPI PUSH0 DUP1 REVERT JUMPDEST POP PUSH1 0x7 SLOAD PUSH2 0x3B5 SWAP1 PUSH21 0x10000000000000000000000000000000000000000 SWAP1 DIV PUSH1 0xFF AND DUP2 JUMP JUMPDEST CALLVALUE DUP1 ISZERO PUSH2 0x490 JUMPI PUSH0 DUP1 REVERT JUMPDEST POP PUSH2 0x2AF PUSH2 0x49F CALLDATASIZE PUSH1 0x4 PUSH2 0x2F4D JUMP JUMPDEST PUSH2 0x14F8 JUMP JUMPDEST CALLVALUE DUP1 ISZERO PUSH2 0x4AF JUMPI PUSH0 DUP1 REVERT JUMPDEST POP PUSH2 0x2FE PUSH1 0xE SLOAD DUP2 JUMP JUMPDEST CALLVALUE DUP1 ISZERO PUSH2 0x4C4 JUMPI PUSH0 DUP1 REVERT JUMPDEST POP PUSH1 0x3 SLOAD PUSH2 0x3F1 SWAP1 PUSH20 0xFFFFFFFFFFFFFFFFFFFFFFFFFFFFFFFFFFFFFFFF AND DUP2 JUMP JUMPDEST CALLVALUE DUP1 ISZERO PUSH2 0x4F0 JUMPI PUSH0 DUP1 REVERT JUMPDEST POP PUSH2 0x2FE PUSH2 0x4FF CALLDATASIZE PUSH1 0x4 PUSH2 0x2F2D JUMP JUMPDEST PUSH1 0xB PUSH1 0x20 MSTORE PUSH0 SWAP1 DUP2 MSTORE PUSH1 0x40 SWAP1 KECCAK256 SLOAD DUP2 JUMP JUMPDEST CALLVALUE DUP1 ISZERO PUSH2 0x51B JUMPI PUSH0 DUP1 REVERT JUMPDEST POP PUSH2 0x2AF PUSH2 0x52A CALLDATASIZE PUSH1 0x4 PUSH2 0x2F2D JUMP JUMPDEST PUSH2 0x187B JUMP JUMPDEST CALLVALUE DUP1 ISZERO PUSH2 0x53A JUMPI PUSH0 DUP1 REVERT JUMPDEST POP PUSH2 0x2AF PUSH2 0x549 CALLDATASIZE PUSH1 0x4 PUSH2 0x2F2D JUMP JUMPDEST PUSH2 0x19F1 JUMP JUMPDEST CALLVALUE DUP1 ISZERO PUSH2 0x559 JUMPI PUSH0 DUP1 REVERT JUMPDEST POP PUSH2 0x2AF PUSH2 0x568 CALLDATASIZE PUSH1 0x4 PUSH2 0x2F2D JUMP JUMPDEST PUSH2 0x1B36 JUMP JUMPDEST CALLVALUE DUP1 ISZERO PUSH2 0x578 JUMPI PUSH0 DUP1 REVERT JUMPDEST POP PUSH2 0x3F1 PUSH2 0x587 CALLDATASIZE PUSH1 0x4 PUSH2 0x2EEE JUMP JUMPDEST PUSH1 0x9 PUSH1 0x20 MSTORE PUSH0 SWAP1 DUP2 MSTORE PUSH1 0x40 SWAP1 KECCAK256 SLOAD PUSH20 0xFFFFFFFFFFFFFFFFFFFFFFFFFFFFFFFFFFFFFFFF AND DUP2 JUMP JUMPDEST CALLVALUE DUP1 ISZERO PUSH2 0x5B9 JUMPI PUSH0 DUP1 REVERT JUMPDEST POP PUSH2 0x2FE PUSH1 0xD SLOAD DUP2 JUMP JUMPDEST CALLVALUE DUP1 ISZERO PUSH2 0x5CE JUMPI PUSH0 DUP1 REVERT JUMPDEST POP PUSH2 0x5D7 PUSH2 0x1BFE JUMP JUMPDEST PUSH1 0x40 MLOAD PUSH2 0x2D6 SWAP2 SWAP1 PUSH2 0x2FFB JUMP JUMPDEST CALLVALUE DUP1 ISZERO PUSH2 0x5EF JUMPI PUSH0 DUP1 REVERT JUMPDEST POP PUSH1 0x4 SLOAD PUSH2 0x618 SWAP1 PUSH24 0x10000000000000000000000000000000000000000000000 SWAP1 DIV PUSH1 0xFF AND DUP2 JUMP JUMPDEST PUSH1 0x40 MLOAD PUSH2 0x2D6 SWAP2 SWAP1 PUSH2 0x314D JUMP JUMPDEST CALLVALUE DUP1 ISZERO PUSH2 0x630 JUMPI PUSH0 DUP1 REVERT JUMPDEST POP PUSH2 0x2AF PUSH2 0x8CC JUMP JUMPDEST CALLVALUE DUP1 ISZERO PUSH2 0x644 JUMPI PUSH0 DUP1 REVERT JUMPDEST POP PUSH1 0x1 SLOAD PUSH2 0x3F1 SWAP1 PUSH20 0xFFFFFFFFFFFFFFFFFFFFFFFFFFFFFFFFFFFFFFFF AND DUP2 JUMP JUMPDEST CALLVALUE DUP1 ISZERO PUSH2 0x670 JUMPI PUSH0 DUP1 REVERT JUMPDEST POP PUSH1 0x6 SLOAD PUSH2 0x3F1 SWAP1 PUSH20 0xFFFFFFFFFFFFFFFFFFFFFFFFFFFFFFFFFFFFFFFF AND DUP2 JUMP JUMPDEST CALLVALUE DUP1 ISZERO PUSH2 0x69C JUMPI PUSH0 DUP1 REVERT JUMPDEST POP PUSH1 0x7 SLOAD PUSH20 0xFFFFFFFFFFFFFFFFFFFFFFFFFFFFFFFFFFFFFFFF AND PUSH2 0x3F1 JUMP JUMPDEST CALLVALUE DUP1 ISZERO PUSH2 0x6C6 JUMPI PUSH0 DUP1 REVERT JUMPDEST POP PUSH2 0x2AF PUSH2 0x6D5 CALLDATASIZE PUSH1 0x4 PUSH2 0x315B JUMP JUMPDEST PUSH2 0x1D91 JUMP JUMPDEST CALLVALUE DUP1 ISZERO PUSH2 0x6E5 JUMPI PUSH0 DUP1 REVERT JUMPDEST POP PUSH2 0x2FE PUSH2 0x6F4 CALLDATASIZE PUSH1 0x4 PUSH2 0x3179 JUMP JUMPDEST PUSH2 0x1E6E JUMP JUMPDEST CALLVALUE DUP1 ISZERO PUSH2 0x704 JUMPI PUSH0 DUP1 REVERT JUMPDEST POP PUSH2 0x2AF PUSH2 0x713 CALLDATASIZE PUSH1 0x4 PUSH2 0x2F2D JUMP JUMPDEST PUSH2 0x1FDF JUMP JUMPDEST CALLVALUE DUP1 ISZERO PUSH2 0x723 JUMPI PUSH0 DUP1 REVERT JUMPDEST POP PUSH1 0x7 SLOAD PUSH2 0x3F1 SWAP1 PUSH20 0xFFFFFFFFFFFFFFFFFFFFFFFFFFFFFFFFFFFFFFFF AND DUP2 JUMP JUMPDEST CALLVALUE DUP1 ISZERO PUSH2 0x74F JUMPI PUSH0 DUP1 REVERT JUMPDEST POP PUSH2 0x2FE PUSH2 0x75E CALLDATASIZE PUSH1 0x4 PUSH2 0x31C3 JUMP JUMPDEST PUSH2 0x2124 JUMP JUMPDEST CALLVALUE DUP1 ISZERO PUSH2 0x76E JUMPI PUSH0 DUP1 REVERT JUMPDEST POP PUSH2 0x2AF PUSH2 0x2244 JUMP JUMPDEST CALLVALUE DUP1 ISZERO PUSH2 0x782 JUMPI PUSH0 DUP1 REVERT JUMPDEST POP PUSH2 0x2FE PUSH1 0x5 SLOAD DUP2 JUMP JUMPDEST CALLVALUE DUP1 ISZERO PUSH2 0x797 JUMPI PUSH0 DUP1 REVERT JUMPDEST POP PUSH1 0x4 SLOAD PUSH2 0x3F1 SWAP1 PUSH20 0xFFFFFFFFFFFFFFFFFFFFFFFFFFFFFFFFFFFFFFFF AND DUP2 JUMP JUMPDEST CALLVALUE DUP1 ISZERO PUSH2 0x7C3 JUMPI PUSH0 DUP1 REVERT JUMPDEST POP PUSH2 0x2AF PUSH2 0x7D2 CALLDATASIZE PUSH1 0x4 PUSH2 0x2F2D JUMP JUMPDEST PUSH2 0x2308 JUMP JUMPDEST CALLVALUE DUP1 ISZERO PUSH2 0x7E2 JUMPI PUSH0 DUP1 REVERT JUMPDEST POP PUSH1 0x8 SLOAD PUSH2 0x3F1 SWAP1 PUSH20 0xFFFFFFFFFFFFFFFFFFFFFFFFFFFFFFFFFFFFFFFF AND DUP2 JUMP JUMPDEST CALLVALUE DUP1 ISZERO PUSH2 0x80E JUMPI PUSH0 DUP1 REVERT JUMPDEST POP PUSH2 0x2AF PUSH2 0x81D CALLDATASIZE PUSH1 0x4 PUSH2 0x2EEE JUMP JUMPDEST PUSH2 0x244D JUMP JUMPDEST CALLVALUE DUP1 ISZERO PUSH2 0x82D JUMPI PUSH0 DUP1 REVERT JUMPDEST POP PUSH2 0x2AF PUSH2 0x83C CALLDATASIZE PUSH1 0x4 PUSH2 0x2F2D JUMP JUMPDEST PUSH2 0x24D3 JUMP JUMPDEST PUSH2 0x849 PUSH2 0x27F8 JUMP JUMPDEST SELFBALANCE PUSH0 DUP2 SWAP1 SUB PUSH2 0x858 JUMPI POP PUSH2 0x8C1 JUMP JUMPDEST PUSH0 DUP1 PUSH1 0x4 SLOAD PUSH24 0x10000000000000000000000000000000000000000000000 SWAP1 DIV PUSH1 0xFF AND PUSH1 0x1 DUP2 GT ISZERO PUSH2 0x88C JUMPI PUSH2 0x88C PUSH2 0x2F95 JUMP JUMPDEST EQ PUSH2 0x89F JUMPI PUSH2 0x89A DUP3 PUSH2 0x1336 JUMP JUMPDEST PUSH2 0x8A8 JUMP JUMPDEST PUSH2 0x8A8 DUP3 PUSH2 0x119D JUMP JUMPDEST SWAP1 POP PUSH1 0x5 SLOAD DUP2 LT PUSH2 0x8BE JUMPI PUSH2 0x8BC DUP3 PUSH2 0x2869 JUMP JUMPDEST POP JUMPDEST POP POP JUMPDEST PUSH2 0x8CA PUSH1 0x1 PUSH0 SSTORE JUMP JUMPDEST JUMP JUMPDEST PUSH2 0x8D4 PUSH2 0x27F8 JUMP JUMPDEST PUSH1 0x2 SLOAD PUSH1 0x40 MLOAD PUSH32 0x70A0823100000000000000000000000000000000000000000000000000000000 DUP2 MSTORE ADDRESS PUSH1 0x4 DUP3 ADD MSTORE PUSH0 SWAP2 PUSH20 0xFFFFFFFFFFFFFFFFFFFFFFFFFFFFFFFFFFFFFFFF AND SWAP1 PUSH4 0x70A08231 SWAP1 PUSH1 0x24 ADD PUSH1 0x20 PUSH1 0x40 MLOAD DUP1 DUP4 SUB DUP2 DUP7 GAS STATICCALL ISZERO DUP1 ISZERO PUSH2 0x940 JUMPI RETURNDATASIZE PUSH0 DUP1 RETURNDATACOPY RETURNDATASIZE PUSH0 REVERT JUMPDEST POP POP POP POP PUSH1 0x40 MLOAD RETURNDATASIZE PUSH1 0x1F NOT PUSH1 0x1F DUP3 ADD AND DUP3 ADD DUP1 PUSH1 0x40 MSTORE POP DUP2 ADD SWAP1 PUSH2 0x964 SWAP2 SWAP1 PUSH2 0x3216 JUMP JUMPDEST SWAP1 POP DUP1 ISZERO PUSH2 0xA0A JUMPI PUSH1 0x2 SLOAD PUSH1 0x8 SLOAD PUSH1 0x40 MLOAD PUSH32 0xA9059CBB00000000000000000000000000000000000000000000000000000000 DUP2 MSTORE PUSH20 0xFFFFFFFFFFFFFFFFFFFFFFFFFFFFFFFFFFFFFFFF SWAP2 DUP3 AND PUSH1 0x4 DUP3 ADD MSTORE PUSH1 0x24 DUP2 ADD DUP5 SWAP1 MSTORE SWAP2 AND SWAP1 PUSH4 0xA9059CBB SWAP1 PUSH1 0x44 ADD PUSH1 0x20 PUSH1 0x40 MLOAD DUP1 DUP4 SUB DUP2 PUSH0 DUP8 GAS CALL ISZERO DUP1 ISZERO PUSH2 0x9E4 JUMPI RETURNDATASIZE PUSH0 DUP1 RETURNDATACOPY RETURNDATASIZE PUSH0 REVERT JUMPDEST POP POP POP POP PUSH1 0x40 MLOAD RETURNDATASIZE PUSH1 0x1F NOT PUSH1 0x1F DUP3 ADD AND DUP3 ADD DUP1 PUSH1 0x40 MSTORE POP DUP2 ADD SWAP1 PUSH2 0xA08 SWAP2 SWAP1 PUSH2 0x322D JUMP JUMPDEST POP JUMPDEST PUSH1 0xC SLOAD ISZERO PUSH2 0xB7E JUMPI PUSH1 0x1 JUMPDEST PUSH1 0xC SLOAD DUP2 GT PUSH2 0x8BE JUMPI PUSH0 DUP2 DUP2 MSTORE PUSH1 0x9 PUSH1 0x20 MSTORE PUSH1 0x40 SWAP1 DUP2 SWAP1 KECCAK256 SLOAD SWAP1 MLOAD PUSH32 0x70A0823100000000000000000000000000000000000000000000000000000000 DUP2 MSTORE ADDRESS PUSH1 0x4 DUP3 ADD MSTORE PUSH20 0xFFFFFFFFFFFFFFFFFFFFFFFFFFFFFFFFFFFFFFFF SWAP1 SWAP2 AND SWAP1 PUSH4 0x70A08231 SWAP1 PUSH1 0x24 ADD PUSH1 0x20 PUSH1 0x40 MLOAD DUP1 DUP4 SUB DUP2 DUP7 GAS STATICCALL ISZERO DUP1 ISZERO PUSH2 0xA96 JUMPI RETURNDATASIZE PUSH0 DUP1 RETURNDATACOPY RETURNDATASIZE PUSH0 REVERT JUMPDEST POP POP POP POP PUSH1 0x40 MLOAD RETURNDATASIZE PUSH1 0x1F NOT PUSH1 0x1F DUP3 ADD AND DUP3 ADD DUP1 PUSH1 0x40 MSTORE POP DUP2 ADD SWAP1 PUSH2 0xABA SWAP2 SWAP1 PUSH2 0x3216 JUMP JUMPDEST SWAP2 POP DUP2 ISZERO PUSH2 0xB6C JUMPI PUSH0 DUP2 DUP2 MSTORE PUSH1 0x9 PUSH1 0x20 MSTORE PUSH1 0x40 SWAP1 DUP2 SWAP1 KECCAK256 SLOAD PUSH1 0x8 SLOAD SWAP2 MLOAD PUSH32 0xA9059CBB00000000000000000000000000000000000000000000000000000000 DUP2 MSTORE PUSH20 0xFFFFFFFFFFFFFFFFFFFFFFFFFFFFFFFFFFFFFFFF SWAP3 DUP4 AND PUSH1 0x4 DUP3 ADD MSTORE PUSH1 0x24 DUP2 ADD DUP6 SWAP1 MSTORE SWAP2 AND SWAP1 PUSH4 0xA9059CBB SWAP1 PUSH1 0x44 ADD PUSH1 0x20 PUSH1 0x40 MLOAD DUP1 DUP4 SUB DUP2 PUSH0 DUP8 GAS CALL ISZERO DUP1 ISZERO PUSH2 0xB46 JUMPI RETURNDATASIZE PUSH0 DUP1 RETURNDATACOPY RETURNDATASIZE PUSH0 REVERT JUMPDEST POP POP POP POP PUSH1 0x40 MLOAD RETURNDATASIZE PUSH1 0x1F NOT PUSH1 0x1F DUP3 ADD AND DUP3 ADD DUP1 PUSH1 0x40 MSTORE POP DUP2 ADD SWAP1 PUSH2 0xB6A SWAP2 SWAP1 PUSH2 0x322D JUMP JUMPDEST POP JUMPDEST DUP1 PUSH2 0xB76 DUP2 PUSH2 0x324C JUMP JUMPDEST SWAP2 POP POP PUSH2 0xA15 JUMP JUMPDEST POP PUSH2 0x8CA PUSH1 0x1 PUSH0 SSTORE JUMP JUMPDEST PUSH1 0x7 SLOAD PUSH1 0x60 SWAP1 PUSH21 0x10000000000000000000000000000000000000000 SWAP1 DIV PUSH1 0xFF AND ISZERO PUSH2 0x119A JUMPI PUSH1 0xC SLOAD PUSH2 0xBBC SWAP1 PUSH1 0x1 PUSH2 0x2D89 JUMP JUMPDEST PUSH8 0xFFFFFFFFFFFFFFFF DUP2 GT ISZERO PUSH2 0xBD4 JUMPI PUSH2 0xBD4 PUSH2 0x3283 JUMP JUMPDEST PUSH1 0x40 MLOAD SWAP1 DUP1 DUP3 MSTORE DUP1 PUSH1 0x20 MUL PUSH1 0x20 ADD DUP3 ADD PUSH1 0x40 MSTORE DUP1 ISZERO PUSH2 0xC53 JUMPI DUP2 PUSH1 0x20 ADD JUMPDEST PUSH2 0xC40 PUSH1 0x40 MLOAD DUP1 PUSH1 0xC0 ADD PUSH1 0x40 MSTORE DUP1 PUSH0 DUP2 MSTORE PUSH1 0x20 ADD PUSH0 PUSH20 0xFFFFFFFFFFFFFFFFFFFFFFFFFFFFFFFFFFFFFFFF AND DUP2 MSTORE PUSH1 0x20 ADD PUSH1 0x60 DUP2 MSTORE PUSH1 0x20 ADD PUSH1 0x60 DUP2 MSTORE PUSH1 0x20 ADD PUSH0 PUSH1 0xFF AND DUP2 MSTORE PUSH1 0x20 ADD PUSH0 DUP2 MSTORE POP SWAP1 JUMP JUMPDEST DUP2 MSTORE PUSH1 0x20 ADD SWAP1 PUSH1 0x1 SWAP1 SUB SWAP1 DUP2 PUSH2 0xBF2 JUMPI SWAP1 POP JUMPDEST POP PUSH1 0x2 SLOAD PUSH1 0x40 DUP1 MLOAD PUSH1 0xC0 DUP2 ADD DUP3 MSTORE PUSH0 DUP1 DUP3 MSTORE PUSH20 0xFFFFFFFFFFFFFFFFFFFFFFFFFFFFFFFFFFFFFFFF SWAP1 SWAP4 AND PUSH1 0x20 DUP3 ADD DUP2 SWAP1 MSTORE DUP3 MLOAD PUSH32 0x95D89B4100000000000000000000000000000000000000000000000000000000 DUP2 MSTORE DUP4 MLOAD SWAP6 SWAP7 POP SWAP1 SWAP5 SWAP2 SWAP4 SWAP3 DUP5 ADD SWAP3 DUP6 SWAP3 PUSH4 0x95D89B41 SWAP3 PUSH1 0x4 DUP1 DUP3 ADD SWAP4 SWAP3 SWAP2 DUP3 SWAP1 SUB ADD DUP2 DUP7 GAS STATICCALL ISZERO DUP1 ISZERO PUSH2 0xCDD JUMPI RETURNDATASIZE PUSH0 DUP1 RETURNDATACOPY RETURNDATASIZE PUSH0 REVERT JUMPDEST POP POP POP POP PUSH1 0x40 MLOAD RETURNDATASIZE PUSH0 DUP3 RETURNDATACOPY PUSH1 0x1F RETURNDATASIZE SWAP1 DUP2 ADD PUSH32 0xFFFFFFFFFFFFFFFFFFFFFFFFFFFFFFFFFFFFFFFFFFFFFFFFFFFFFFFFFFFFFFE0 AND DUP3 ADD PUSH1 0x40 MSTORE PUSH2 0xD22 SWAP2 SWAP1 DUP2 ADD SWAP1 PUSH2 0x32FF JUMP JUMPDEST DUP2 MSTORE PUSH1 0x20 ADD DUP3 PUSH20 0xFFFFFFFFFFFFFFFFFFFFFFFFFFFFFFFFFFFFFFFF AND PUSH4 0x6FDDE03 PUSH1 0x40 MLOAD DUP2 PUSH4 0xFFFFFFFF AND PUSH1 0xE0 SHL DUP2 MSTORE PUSH1 0x4 ADD PUSH0 PUSH1 0x40 MLOAD DUP1 DUP4 SUB DUP2 DUP7 GAS STATICCALL ISZERO DUP1 ISZERO PUSH2 0xD6F JUMPI RETURNDATASIZE PUSH0 DUP1 RETURNDATACOPY RETURNDATASIZE PUSH0 REVERT JUMPDEST POP POP POP POP PUSH1 0x40 MLOAD RETURNDATASIZE PUSH0 DUP3 RETURNDATACOPY PUSH1 0x1F RETURNDATASIZE SWAP1 DUP2 ADD PUSH32 0xFFFFFFFFFFFFFFFFFFFFFFFFFFFFFFFFFFFFFFFFFFFFFFFFFFFFFFFFFFFFFFE0 AND DUP3 ADD PUSH1 0x40 MSTORE PUSH2 0xDB4 SWAP2 SWAP1 DUP2 ADD SWAP1 PUSH2 0x32FF JUMP JUMPDEST DUP2 MSTORE PUSH1 0x20 ADD DUP3 PUSH20 0xFFFFFFFFFFFFFFFFFFFFFFFFFFFFFFFFFFFFFFFF AND PUSH4 0x313CE567 PUSH1 0x40 MLOAD DUP2 PUSH4 0xFFFFFFFF AND PUSH1 0xE0 SHL DUP2 MSTORE PUSH1 0x4 ADD PUSH1 0x20 PUSH1 0x40 MLOAD DUP1 DUP4 SUB DUP2 DUP7 GAS STATICCALL ISZERO DUP1 ISZERO PUSH2 0xE02 JUMPI RETURNDATASIZE PUSH0 DUP1 RETURNDATACOPY RETURNDATASIZE PUSH0 REVERT JUMPDEST POP POP POP POP PUSH1 0x40 MLOAD RETURNDATASIZE PUSH1 0x1F NOT PUSH1 0x1F DUP3 ADD AND DUP3 ADD DUP1 PUSH1 0x40 MSTORE POP DUP2 ADD SWAP1 PUSH2 0xE26 SWAP2 SWAP1 PUSH2 0x33AC JUMP JUMPDEST PUSH1 0xFF AND DUP2 MSTORE PUSH1 0x40 MLOAD PUSH32 0x70A0823100000000000000000000000000000000000000000000000000000000 DUP2 MSTORE ADDRESS PUSH1 0x4 DUP3 ADD MSTORE PUSH1 0x20 SWAP1 SWAP2 ADD SWAP1 PUSH20 0xFFFFFFFFFFFFFFFFFFFFFFFFFFFFFFFFFFFFFFFF DUP5 AND SWAP1 PUSH4 0x70A08231 SWAP1 PUSH1 0x24 ADD PUSH1 0x20 PUSH1 0x40 MLOAD DUP1 DUP4 SUB DUP2 DUP7 GAS STATICCALL ISZERO DUP1 ISZERO PUSH2 0xE99 JUMPI RETURNDATASIZE PUSH0 DUP1 RETURNDATACOPY RETURNDATASIZE PUSH0 REVERT JUMPDEST POP POP POP POP PUSH1 0x40 MLOAD RETURNDATASIZE PUSH1 0x1F NOT PUSH1 0x1F DUP3 ADD AND DUP3 ADD DUP1 PUSH1 0x40 MSTORE POP DUP2 ADD SWAP1 PUSH2 0xEBD SWAP2 SWAP1 PUSH2 0x3216 JUMP JUMPDEST DUP2 MSTORE POP DUP3 PUSH0 DUP2 MLOAD DUP2 LT PUSH2 0xED2 JUMPI PUSH2 0xED2 PUSH2 0x33CC JUMP JUMPDEST PUSH1 0x20 SWAP1 DUP2 MUL SWAP2 SWAP1 SWAP2 ADD ADD MSTORE PUSH1 0xC SLOAD ISZERO PUSH2 0x1198 JUMPI PUSH1 0x1 JUMPDEST PUSH1 0xC SLOAD DUP2 GT PUSH2 0x1196 JUMPI PUSH0 DUP2 DUP2 MSTORE PUSH1 0x9 PUSH1 0x20 DUP2 DUP2 MSTORE PUSH1 0x40 DUP1 DUP5 KECCAK256 SLOAD DUP2 MLOAD PUSH1 0xC0 DUP2 ADD DUP4 MSTORE DUP7 DUP2 MSTORE DUP7 DUP7 MSTORE SWAP4 DUP4 MSTORE PUSH20 0xFFFFFFFFFFFFFFFFFFFFFFFFFFFFFFFFFFFFFFFF AND SWAP2 DUP4 ADD DUP3 SWAP1 MSTORE DUP1 MLOAD PUSH32 0x95D89B4100000000000000000000000000000000000000000000000000000000 DUP2 MSTORE DUP2 MLOAD SWAP3 SWAP5 SWAP2 DUP5 ADD SWAP3 DUP6 SWAP3 PUSH4 0x95D89B41 SWAP3 PUSH1 0x4 DUP1 DUP3 ADD SWAP4 SWAP2 DUP3 SWAP1 SUB ADD DUP2 DUP7 GAS STATICCALL ISZERO DUP1 ISZERO PUSH2 0xF82 JUMPI RETURNDATASIZE PUSH0 DUP1 RETURNDATACOPY RETURNDATASIZE PUSH0 REVERT JUMPDEST POP POP POP POP PUSH1 0x40 MLOAD RETURNDATASIZE PUSH0 DUP3 RETURNDATACOPY PUSH1 0x1F RETURNDATASIZE SWAP1 DUP2 ADD PUSH32 0xFFFFFFFFFFFFFFFFFFFFFFFFFFFFFFFFFFFFFFFFFFFFFFFFFFFFFFFFFFFFFFE0 AND DUP3 ADD PUSH1 0x40 MSTORE PUSH2 0xFC7 SWAP2 SWAP1 DUP2 ADD SWAP1 PUSH2 0x32FF JUMP JUMPDEST DUP2 MSTORE PUSH1 0x20 ADD DUP3 PUSH20 0xFFFFFFFFFFFFFFFFFFFFFFFFFFFFFFFFFFFFFFFF AND PUSH4 0x6FDDE03 PUSH1 0x40 MLOAD DUP2 PUSH4 0xFFFFFFFF AND PUSH1 0xE0 SHL DUP2 MSTORE PUSH1 0x4 ADD PUSH0 PUSH1 0x40 MLOAD DUP1 DUP4 SUB DUP2 DUP7 GAS STATICCALL ISZERO DUP1 ISZERO PUSH2 0x1014 JUMPI RETURNDATASIZE PUSH0 DUP1 RETURNDATACOPY RETURNDATASIZE PUSH0 REVERT JUMPDEST POP POP POP POP PUSH1 0x40 MLOAD RETURNDATASIZE PUSH0 DUP3 RETURNDATACOPY PUSH1 0x1F RETURNDATASIZE SWAP1 DUP2 ADD PUSH32 0xFFFFFFFFFFFFFFFFFFFFFFFFFFFFFFFFFFFFFFFFFFFFFFFFFFFFFFFFFFFFFFE0 AND DUP3 ADD PUSH1 0x40 MSTORE PUSH2 0x1059 SWAP2 SWAP1 DUP2 ADD SWAP1 PUSH2 0x32FF JUMP JUMPDEST DUP2 MSTORE PUSH1 0x20 ADD DUP3 PUSH20 0xFFFFFFFFFFFFFFFFFFFFFFFFFFFFFFFFFFFFFFFF AND PUSH4 0x313CE567 PUSH1 0x40 MLOAD DUP2 PUSH4 0xFFFFFFFF AND PUSH1 0xE0 SHL DUP2 MSTORE PUSH1 0x4 ADD PUSH1 0x20 PUSH1 0x40 MLOAD DUP1 DUP4 SUB DUP2 DUP7 GAS STATICCALL ISZERO DUP1 ISZERO PUSH2 0x10A7 JUMPI RETURNDATASIZE PUSH0 DUP1 RETURNDATACOPY RETURNDATASIZE PUSH0 REVERT JUMPDEST POP POP POP POP PUSH1 0x40 MLOAD RETURNDATASIZE PUSH1 0x1F NOT PUSH1 0x1F DUP3 ADD AND DUP3 ADD DUP1 PUSH1 0x40 MSTORE POP DUP2 ADD SWAP1 PUSH2 0x10CB SWAP2 SWAP1 PUSH2 0x33AC JUMP JUMPDEST PUSH1 0xFF AND DUP2 MSTORE PUSH1 0x40 MLOAD PUSH32 0x70A0823100000000000000000000000000000000000000000000000000000000 DUP2 MSTORE ADDRESS PUSH1 0x4 DUP3 ADD MSTORE PUSH1 0x20 SWAP1 SWAP2 ADD SWAP1 PUSH20 0xFFFFFFFFFFFFFFFFFFFFFFFFFFFFFFFFFFFFFFFF DUP5 AND SWAP1 PUSH4 0x70A08231 SWAP1 PUSH1 0x24 ADD PUSH1 0x20 PUSH1 0x40 MLOAD DUP1 DUP4 SUB DUP2 DUP7 GAS STATICCALL ISZERO DUP1 ISZERO PUSH2 0x113E JUMPI RETURNDATASIZE PUSH0 DUP1 RETURNDATACOPY RETURNDATASIZE PUSH0 REVERT JUMPDEST POP POP POP POP PUSH1 0x40 MLOAD RETURNDATASIZE PUSH1 0x1F NOT PUSH1 0x1F DUP3 ADD AND DUP3 ADD DUP1 PUSH1 0x40 MSTORE POP DUP2 ADD SWAP1 PUSH2 0x1162 SWAP2 SWAP1 PUSH2 0x3216 JUMP JUMPDEST DUP2 MSTORE POP DUP5 DUP4 DUP2 MLOAD DUP2 LT PUSH2 0x1177 JUMPI PUSH2 0x1177 PUSH2 0x33CC JUMP JUMPDEST PUSH1 0x20 MUL PUSH1 0x20 ADD ADD DUP2 SWAP1 MSTORE POP POP DUP1 DUP1 PUSH2 0x118E SWAP1 PUSH2 0x324C JUMP JUMPDEST SWAP2 POP POP PUSH2 0xEE8 JUMP JUMPDEST POP JUMPDEST POP JUMPDEST SWAP1 JUMP JUMPDEST PUSH0 PUSH2 0x11E6 DUP3 PUSH2 0x11C1 PUSH1 0x7 SLOAD PUSH20 0xFFFFFFFFFFFFFFFFFFFFFFFFFFFFFFFFFFFFFFFF AND SWAP1 JUMP JUMPDEST PUSH1 0x2 SLOAD PUSH1 0x3 SLOAD PUSH20 0xFFFFFFFFFFFFFFFFFFFFFFFFFFFFFFFFFFFFFFFF SWAP2 DUP3 AND SWAP2 AND PUSH2 0x1E6E JUMP JUMPDEST SWAP3 SWAP2 POP POP JUMP JUMPDEST PUSH1 0x1 SLOAD PUSH20 0xFFFFFFFFFFFFFFFFFFFFFFFFFFFFFFFFFFFFFFFF AND CALLER EQ PUSH2 0x1272 JUMPI PUSH1 0x40 MLOAD PUSH32 0x8C379A000000000000000000000000000000000000000000000000000000000 DUP2 MSTORE PUSH1 0x20 PUSH1 0x4 DUP3 ADD MSTORE PUSH1 0xA PUSH1 0x24 DUP3 ADD MSTORE PUSH32 0x4F6E6C79206F776E657200000000000000000000000000000000000000000000 PUSH1 0x44 DUP3 ADD MSTORE PUSH1 0x64 ADD JUMPDEST PUSH1 0x40 MLOAD DUP1 SWAP2 SUB SWAP1 REVERT JUMPDEST PUSH20 0xFFFFFFFFFFFFFFFFFFFFFFFFFFFFFFFFFFFFFFFF DUP2 AND PUSH2 0x12EF JUMPI PUSH1 0x40 MLOAD PUSH32 0x8C379A000000000000000000000000000000000000000000000000000000000 DUP2 MSTORE PUSH1 0x20 PUSH1 0x4 DUP3 ADD MSTORE PUSH1 0xC PUSH1 0x24 DUP3 ADD MSTORE PUSH32 0x43616E74206265207A65726F0000000000000000000000000000000000000000 PUSH1 0x44 DUP3 ADD MSTORE PUSH1 0x64 ADD PUSH2 0x1269 JUMP JUMPDEST PUSH1 0x2 DUP1 SLOAD PUSH32 0xFFFFFFFFFFFFFFFFFFFFFFFF0000000000000000000000000000000000000000 AND PUSH20 0xFFFFFFFFFFFFFFFFFFFFFFFFFFFFFFFFFFFFFFFF SWAP3 SWAP1 SWAP3 AND SWAP2 SWAP1 SWAP2 OR SWAP1 SSTORE JUMP JUMPDEST PUSH0 PUSH2 0x11E6 DUP3 PUSH2 0x135A PUSH1 0x7 SLOAD PUSH20 0xFFFFFFFFFFFFFFFFFFFFFFFFFFFFFFFFFFFFFFFF AND SWAP1 JUMP JUMPDEST PUSH1 0x2 SLOAD PUSH1 0x4 SLOAD PUSH1 0x6 SLOAD PUSH20 0xFFFFFFFFFFFFFFFFFFFFFFFFFFFFFFFFFFFFFFFF SWAP3 DUP4 AND SWAP3 PUSH21 0x10000000000000000000000000000000000000000 SWAP1 SWAP3 DIV PUSH3 0xFFFFFF AND SWAP2 AND PUSH2 0x2124 JUMP JUMPDEST PUSH1 0x1 SLOAD PUSH20 0xFFFFFFFFFFFFFFFFFFFFFFFFFFFFFFFFFFFFFFFF AND CALLER EQ PUSH2 0x1422 JUMPI PUSH1 0x40 MLOAD PUSH32 0x8C379A000000000000000000000000000000000000000000000000000000000 DUP2 MSTORE PUSH1 0x20 PUSH1 0x4 DUP3 ADD MSTORE PUSH1 0xA PUSH1 0x24 DUP3 ADD MSTORE PUSH32 0x4F6E6C79206F776E657200000000000000000000000000000000000000000000 PUSH1 0x44 DUP3 ADD MSTORE PUSH1 0x64 ADD PUSH2 0x1269 JUMP JUMPDEST PUSH20 0xFFFFFFFFFFFFFFFFFFFFFFFFFFFFFFFFFFFFFFFF DUP2 AND PUSH0 SWAP1 DUP2 MSTORE PUSH1 0xA PUSH1 0x20 MSTORE PUSH1 0x40 SWAP1 KECCAK256 SLOAD PUSH1 0xFF AND PUSH2 0x14F5 JUMPI PUSH1 0xC DUP1 SLOAD SWAP1 PUSH0 PUSH2 0x145D DUP4 PUSH2 0x324C JUMP JUMPDEST SWAP1 SWAP2 SSTORE POP POP PUSH1 0xC DUP1 SLOAD PUSH0 SWAP1 DUP2 MSTORE PUSH1 0x9 PUSH1 0x20 SWAP1 DUP2 MSTORE PUSH1 0x40 DUP1 DUP4 KECCAK256 DUP1 SLOAD PUSH32 0xFFFFFFFFFFFFFFFFFFFFFFFF0000000000000000000000000000000000000000 AND PUSH20 0xFFFFFFFFFFFFFFFFFFFFFFFFFFFFFFFFFFFFFFFF DUP8 AND SWAP1 DUP2 OR SWAP1 SWAP2 SSTORE DUP4 MSTORE PUSH1 0xA DUP3 MSTORE DUP1 DUP4 KECCAK256 DUP1 SLOAD PUSH32 0xFFFFFFFFFFFFFFFFFFFFFFFFFFFFFFFFFFFFFFFFFFFFFFFFFFFFFFFFFFFFFF00 AND PUSH1 0x1 OR SWAP1 SSTORE SWAP3 SLOAD PUSH1 0xB SWAP1 SWAP2 MSTORE SWAP2 SWAP1 KECCAK256 SSTORE JUMPDEST POP JUMP JUMPDEST PUSH1 0x1 SLOAD PUSH20 0xFFFFFFFFFFFFFFFFFFFFFFFFFFFFFFFFFFFFFFFF AND CALLER EQ PUSH2 0x1579 JUMPI PUSH1 0x40 MLOAD PUSH32 0x8C379A000000000000000000000000000000000000000000000000000000000 DUP2 MSTORE PUSH1 0x20 PUSH1 0x4 DUP3 ADD MSTORE PUSH1 0xA PUSH1 0x24 DUP3 ADD MSTORE PUSH32 0x4F6E6C79206F776E657200000000000000000000000000000000000000000000 PUSH1 0x44 DUP3 ADD MSTORE PUSH1 0x64 ADD PUSH2 0x1269 JUMP JUMPDEST PUSH1 0x7 SLOAD PUSH21 0x10000000000000000000000000000000000000000 SWAP1 DIV PUSH1 0xFF AND ISZERO PUSH2 0x15FE JUMPI PUSH1 0x40 MLOAD PUSH32 0x8C379A000000000000000000000000000000000000000000000000000000000 DUP2 MSTORE PUSH1 0x20 PUSH1 0x4 DUP3 ADD MSTORE PUSH1 0xE PUSH1 0x24 DUP3 ADD MSTORE PUSH32 0x416C726561647920696E69746564000000000000000000000000000000000000 PUSH1 0x44 DUP3 ADD MSTORE PUSH1 0x64 ADD PUSH2 0x1269 JUMP JUMPDEST PUSH20 0xFFFFFFFFFFFFFFFFFFFFFFFFFFFFFFFFFFFFFFFF DUP5 AND PUSH2 0x167B JUMPI PUSH1 0x40 MLOAD PUSH32 0x8C379A000000000000000000000000000000000000000000000000000000000 DUP2 MSTORE PUSH1 0x20 PUSH1 0x4 DUP3 ADD MSTORE PUSH1 0x17 PUSH1 0x24 DUP3 ADD MSTORE PUSH32 0x496E76616C696420777261707065642061646472657373000000000000000000 PUSH1 0x44 DUP3 ADD MSTORE PUSH1 0x64 ADD PUSH2 0x1269 JUMP JUMPDEST PUSH20 0xFFFFFFFFFFFFFFFFFFFFFFFFFFFFFFFFFFFFFFFF DUP4 AND PUSH2 0x16F8 JUMPI PUSH1 0x40 MLOAD PUSH32 0x8C379A000000000000000000000000000000000000000000000000000000000 DUP2 MSTORE PUSH1 0x20 PUSH1 0x4 DUP3 ADD MSTORE PUSH1 0xD PUSH1 0x24 DUP3 ADD MSTORE PUSH32 0x496E76616C696420746F6B656E00000000000000000000000000000000000000 PUSH1 0x44 DUP3 ADD MSTORE PUSH1 0x64 ADD PUSH2 0x1269 JUMP JUMPDEST PUSH20 0xFFFFFFFFFFFFFFFFFFFFFFFFFFFFFFFFFFFFFFFF DUP3 AND PUSH2 0x1775 JUMPI PUSH1 0x40 MLOAD PUSH32 0x8C379A000000000000000000000000000000000000000000000000000000000 DUP2 MSTORE PUSH1 0x20 PUSH1 0x4 DUP3 ADD MSTORE PUSH1 0x11 PUSH1 0x24 DUP3 ADD MSTORE PUSH32 0x496E76616C696420563220726F75746572000000000000000000000000000000 PUSH1 0x44 DUP3 ADD MSTORE PUSH1 0x64 ADD PUSH2 0x1269 JUMP JUMPDEST PUSH0 DUP2 GT PUSH2 0x17DE JUMPI PUSH1 0x40 MLOAD PUSH32 0x8C379A000000000000000000000000000000000000000000000000000000000 DUP2 MSTORE PUSH1 0x20 PUSH1 0x4 DUP3 ADD MSTORE PUSH1 0x1A PUSH1 0x24 DUP3 ADD MSTORE PUSH32 0x4D696E20616D6F756E74206F7574206D757374206265203E2030000000000000 PUSH1 0x44 DUP3 ADD MSTORE PUSH1 0x64 ADD PUSH2 0x1269 JUMP JUMPDEST PUSH1 0x7 DUP1 SLOAD PUSH20 0xFFFFFFFFFFFFFFFFFFFFFFFFFFFFFFFFFFFFFFFF SWAP6 DUP7 AND PUSH32 0xFFFFFFFFFFFFFFFFFFFFFF000000000000000000000000000000000000000000 SWAP1 SWAP2 AND OR PUSH21 0x10000000000000000000000000000000000000000 OR SWAP1 SSTORE PUSH1 0x2 DUP1 SLOAD SWAP4 DUP6 AND PUSH32 0xFFFFFFFFFFFFFFFFFFFFFFFF0000000000000000000000000000000000000000 SWAP5 DUP6 AND OR SWAP1 SSTORE PUSH1 0x3 DUP1 SLOAD SWAP3 SWAP1 SWAP5 AND SWAP2 SWAP1 SWAP3 AND OR SWAP1 SWAP2 SSTORE PUSH1 0x5 SSTORE JUMP JUMPDEST PUSH1 0x1 SLOAD PUSH20 0xFFFFFFFFFFFFFFFFFFFFFFFFFFFFFFFFFFFFFFFF AND CALLER EQ PUSH2 0x18FC JUMPI PUSH1 0x40 MLOAD PUSH32 0x8C379A000000000000000000000000000000000000000000000000000000000 DUP2 MSTORE PUSH1 0x20 PUSH1 0x4 DUP3 ADD MSTORE PUSH1 0xA PUSH1 0x24 DUP3 ADD MSTORE PUSH32 0x4F6E6C79206F776E657200000000000000000000000000000000000000000000 PUSH1 0x44 DUP3 ADD MSTORE PUSH1 0x64 ADD PUSH2 0x1269 JUMP JUMPDEST PUSH20 0xFFFFFFFFFFFFFFFFFFFFFFFFFFFFFFFFFFFFFFFF DUP2 AND PUSH0 SWAP1 DUP2 MSTORE PUSH1 0xA PUSH1 0x20 MSTORE PUSH1 0x40 SWAP1 KECCAK256 SLOAD PUSH1 0xFF AND ISZERO PUSH2 0x14F5 JUMPI PUSH20 0xFFFFFFFFFFFFFFFFFFFFFFFFFFFFFFFFFFFFFFFF DUP1 DUP3 AND PUSH0 DUP2 DUP2 MSTORE PUSH1 0xB PUSH1 0x20 DUP2 DUP2 MSTORE PUSH1 0x40 DUP1 DUP5 KECCAK256 SLOAD PUSH1 0xC DUP1 SLOAD DUP7 MSTORE PUSH1 0x9 DUP1 DUP6 MSTORE DUP4 DUP8 KECCAK256 SLOAD DUP10 AND DUP8 MSTORE SWAP5 DUP5 MSTORE DUP3 DUP7 KECCAK256 DUP3 SWAP1 SSTORE DUP1 SLOAD DUP7 MSTORE SWAP4 DUP4 MSTORE DUP2 DUP6 KECCAK256 SLOAD DUP2 DUP7 MSTORE DUP3 DUP7 KECCAK256 DUP1 SLOAD PUSH32 0xFFFFFFFFFFFFFFFFFFFFFFFF0000000000000000000000000000000000000000 AND SWAP2 SWAP1 SWAP9 AND OR SWAP1 SWAP7 SSTORE SWAP4 DUP4 MSTORE PUSH1 0xA SWAP1 MSTORE SWAP2 DUP2 KECCAK256 DUP1 SLOAD PUSH32 0xFFFFFFFFFFFFFFFFFFFFFFFFFFFFFFFFFFFFFFFFFFFFFFFFFFFFFFFFFFFFFF00 AND SWAP1 SSTORE DUP2 SLOAD SWAP2 SWAP1 PUSH2 0x19E8 DUP4 PUSH2 0x33F9 JUMP JUMPDEST SWAP2 SWAP1 POP SSTORE POP POP POP JUMP JUMPDEST PUSH1 0x1 SLOAD PUSH20 0xFFFFFFFFFFFFFFFFFFFFFFFFFFFFFFFFFFFFFFFF AND CALLER EQ PUSH2 0x1A72 JUMPI PUSH1 0x40 MLOAD PUSH32 0x8C379A000000000000000000000000000000000000000000000000000000000 DUP2 MSTORE PUSH1 0x20 PUSH1 0x4 DUP3 ADD MSTORE PUSH1 0xA PUSH1 0x24 DUP3 ADD MSTORE PUSH32 0x4F6E6C79206F776E657200000000000000000000000000000000000000000000 PUSH1 0x44 DUP3 ADD MSTORE PUSH1 0x64 ADD PUSH2 0x1269 JUMP JUMPDEST PUSH20 0xFFFFFFFFFFFFFFFFFFFFFFFFFFFFFFFFFFFFFFFF DUP2 AND PUSH2 0x1AEF JUMPI PUSH1 0x40 MLOAD PUSH32 0x8C379A000000000000000000000000000000000000000000000000000000000 DUP2 MSTORE PUSH1 0x20 PUSH1 0x4 DUP3 ADD MSTORE PUSH1 0xC PUSH1 0x24 DUP3 ADD MSTORE PUSH32 0x43616E74206265207A65726F0000000000000000000000000000000000000000 PUSH1 0x44 DUP3 ADD MSTORE PUSH1 0x64 ADD PUSH2 0x1269 JUMP JUMPDEST PUSH1 0x3 DUP1 SLOAD PUSH32 0xFFFFFFFFFFFFFFFFFFFFFFFF0000000000000000000000000000000000000000 AND PUSH20 0xFFFFFFFFFFFFFFFFFFFFFFFFFFFFFFFFFFFFFFFF SWAP3 SWAP1 SWAP3 AND SWAP2 SWAP1 SWAP2 OR SWAP1 SSTORE JUMP JUMPDEST PUSH1 0x1 SLOAD PUSH20 0xFFFFFFFFFFFFFFFFFFFFFFFFFFFFFFFFFFFFFFFF AND CALLER EQ PUSH2 0x1BB7 JUMPI PUSH1 0x40 MLOAD PUSH32 0x8C379A000000000000000000000000000000000000000000000000000000000 DUP2 MSTORE PUSH1 0x20 PUSH1 0x4 DUP3 ADD MSTORE PUSH1 0xA PUSH1 0x24 DUP3 ADD MSTORE PUSH32 0x4F6E6C79206F776E657200000000000000000000000000000000000000000000 PUSH1 0x44 DUP3 ADD MSTORE PUSH1 0x64 ADD PUSH2 0x1269 JUMP JUMPDEST PUSH1 0x7 DUP1 SLOAD PUSH32 0xFFFFFFFFFFFFFFFFFFFFFFFF0000000000000000000000000000000000000000 AND PUSH20 0xFFFFFFFFFFFFFFFFFFFFFFFFFFFFFFFFFFFFFFFF SWAP3 SWAP1 SWAP3 AND SWAP2 SWAP1 SWAP2 OR SWAP1 SSTORE JUMP JUMPDEST PUSH2 0x1C8E PUSH1 0x40 DUP1 MLOAD PUSH2 0x1A0 DUP2 ADD DUP3 MSTORE PUSH0 DUP1 DUP3 MSTORE PUSH1 0x20 DUP3 ADD DUP2 SWAP1 MSTORE SWAP2 DUP2 ADD DUP3 SWAP1 MSTORE PUSH1 0x60 DUP2 ADD DUP3 SWAP1 MSTORE PUSH1 0x80 DUP2 ADD DUP3 SWAP1 MSTORE PUSH1 0xA0 DUP2 ADD DUP3 SWAP1 MSTORE SWAP1 PUSH1 0xC0 DUP3 ADD SWAP1 DUP2 MSTORE PUSH1 0x20 ADD PUSH0 DUP2 MSTORE PUSH1 0x20 ADD PUSH0 PUSH20 0xFFFFFFFFFFFFFFFFFFFFFFFFFFFFFFFFFFFFFFFF AND DUP2 MSTORE PUSH1 0x20 ADD PUSH0 PUSH20 0xFFFFFFFFFFFFFFFFFFFFFFFFFFFFFFFFFFFFFFFF AND DUP2 MSTORE PUSH1 0x20 ADD PUSH0 DUP2 MSTORE PUSH1 0x20 ADD PUSH0 DUP2 MSTORE PUSH1 0x20 ADD PUSH0 DUP2 MSTORE POP SWAP1 JUMP JUMPDEST PUSH1 0x40 DUP1 MLOAD PUSH2 0x1A0 DUP2 ADD DUP3 MSTORE PUSH1 0x7 SLOAD PUSH21 0x10000000000000000000000000000000000000000 SWAP1 DUP2 SWAP1 DIV PUSH1 0xFF SWAP1 DUP2 AND ISZERO ISZERO DUP4 MSTORE PUSH1 0x1 DUP1 SLOAD PUSH20 0xFFFFFFFFFFFFFFFFFFFFFFFFFFFFFFFFFFFFFFFF SWAP1 DUP2 AND PUSH1 0x20 DUP7 ADD MSTORE PUSH1 0x2 SLOAD DUP2 AND SWAP6 DUP6 ADD SWAP6 SWAP1 SWAP6 MSTORE PUSH1 0x3 SLOAD DUP6 AND PUSH1 0x60 DUP6 ADD MSTORE PUSH1 0x4 SLOAD SWAP5 DUP6 AND PUSH1 0x80 DUP6 ADD MSTORE SWAP2 DUP5 DIV PUSH3 0xFFFFFF AND PUSH1 0xA0 DUP5 ADD MSTORE SWAP2 SWAP3 PUSH1 0xC0 DUP5 ADD SWAP3 PUSH24 0x10000000000000000000000000000000000000000000000 SWAP1 SWAP2 DIV AND SWAP1 DUP2 GT ISZERO PUSH2 0x1D42 JUMPI PUSH2 0x1D42 PUSH2 0x2F95 JUMP JUMPDEST DUP2 MSTORE PUSH1 0x5 SLOAD PUSH1 0x20 DUP3 ADD MSTORE PUSH1 0x6 SLOAD PUSH20 0xFFFFFFFFFFFFFFFFFFFFFFFFFFFFFFFFFFFFFFFF SWAP1 DUP2 AND PUSH1 0x40 DUP4 ADD MSTORE PUSH1 0x7 SLOAD AND PUSH1 0x60 DUP3 ADD MSTORE SELFBALANCE PUSH1 0x80 DUP3 ADD MSTORE PUSH1 0xD SLOAD PUSH1 0xA0 DUP3 ADD MSTORE PUSH1 0xE SLOAD PUSH1 0xC0 SWAP1 SWAP2 ADD MSTORE SWAP2 SWAP1 POP JUMP JUMPDEST PUSH1 0x1 SLOAD PUSH20 0xFFFFFFFFFFFFFFFFFFFFFFFFFFFFFFFFFFFFFFFF AND CALLER EQ PUSH2 0x1E12 JUMPI PUSH1 0x40 MLOAD PUSH32 0x8C379A000000000000000000000000000000000000000000000000000000000 DUP2 MSTORE PUSH1 0x20 PUSH1 0x4 DUP3 ADD MSTORE PUSH1 0xA PUSH1 0x24 DUP3 ADD MSTORE PUSH32 0x4F6E6C79206F776E657200000000000000000000000000000000000000000000 PUSH1 0x44 DUP3 ADD MSTORE PUSH1 0x64 ADD PUSH2 0x1269 JUMP JUMPDEST PUSH1 0x4 DUP1 SLOAD DUP3 SWAP2 SWAP1 PUSH32 0xFFFFFFFFFFFFFFFF00FFFFFFFFFFFFFFFFFFFFFFFFFFFFFFFFFFFFFFFFFFFFFF AND PUSH24 0x10000000000000000000000000000000000000000000000 DUP4 PUSH1 0x1 DUP2 GT ISZERO PUSH2 0x1E66 JUMPI PUSH2 0x1E66 PUSH2 0x2F95 JUMP JUMPDEST MUL OR SWAP1 SSTORE POP POP JUMP JUMPDEST PUSH1 0x40 DUP1 MLOAD PUSH1 0x2 DUP1 DUP3 MSTORE PUSH1 0x60 DUP3 ADD DUP4 MSTORE PUSH0 SWAP3 DUP4 SWAP3 SWAP2 SWAP1 PUSH1 0x20 DUP4 ADD SWAP1 DUP1 CALLDATASIZE DUP4 CALLDATACOPY ADD SWAP1 POP POP SWAP1 POP DUP5 DUP2 PUSH0 DUP2 MLOAD DUP2 LT PUSH2 0x1EA5 JUMPI PUSH2 0x1EA5 PUSH2 0x33CC JUMP JUMPDEST PUSH1 0x20 MUL PUSH1 0x20 ADD ADD SWAP1 PUSH20 0xFFFFFFFFFFFFFFFFFFFFFFFFFFFFFFFFFFFFFFFF AND SWAP1 DUP2 PUSH20 0xFFFFFFFFFFFFFFFFFFFFFFFFFFFFFFFFFFFFFFFF AND DUP2 MSTORE POP POP DUP4 DUP2 PUSH1 0x1 DUP2 MLOAD DUP2 LT PUSH2 0x1EF3 JUMPI PUSH2 0x1EF3 PUSH2 0x33CC JUMP JUMPDEST PUSH20 0xFFFFFFFFFFFFFFFFFFFFFFFFFFFFFFFFFFFFFFFF SWAP3 DUP4 AND PUSH1 0x20 SWAP2 DUP3 MUL SWAP3 SWAP1 SWAP3 ADD ADD MSTORE PUSH1 0x40 MLOAD PUSH32 0xD06CA61F00000000000000000000000000000000000000000000000000000000 DUP2 MSTORE PUSH0 SWAP2 DUP6 AND SWAP1 PUSH4 0xD06CA61F SWAP1 PUSH2 0x1F57 SWAP1 DUP11 SWAP1 DUP7 SWAP1 PUSH1 0x4 ADD PUSH2 0x347D JUMP JUMPDEST PUSH0 PUSH1 0x40 MLOAD DUP1 DUP4 SUB DUP2 DUP7 GAS STATICCALL ISZERO DUP1 ISZERO PUSH2 0x1F71 JUMPI RETURNDATASIZE PUSH0 DUP1 RETURNDATACOPY RETURNDATASIZE PUSH0 REVERT JUMPDEST POP POP POP POP PUSH1 0x40 MLOAD RETURNDATASIZE PUSH0 DUP3 RETURNDATACOPY PUSH1 0x1F RETURNDATASIZE SWAP1 DUP2 ADD PUSH32 0xFFFFFFFFFFFFFFFFFFFFFFFFFFFFFFFFFFFFFFFFFFFFFFFFFFFFFFFFFFFFFFE0 AND DUP3 ADD PUSH1 0x40 MSTORE PUSH2 0x1FB6 SWAP2 SWAP1 DUP2 ADD SWAP1 PUSH2 0x349D JUMP JUMPDEST SWAP1 POP DUP1 PUSH1 0x1 DUP2 MLOAD DUP2 LT PUSH2 0x1FCB JUMPI PUSH2 0x1FCB PUSH2 0x33CC JUMP JUMPDEST PUSH1 0x20 MUL PUSH1 0x20 ADD ADD MLOAD SWAP3 POP POP POP SWAP5 SWAP4 POP POP POP POP JUMP JUMPDEST PUSH1 0x1 SLOAD PUSH20 0xFFFFFFFFFFFFFFFFFFFFFFFFFFFFFFFFFFFFFFFF AND CALLER EQ PUSH2 0x2060 JUMPI PUSH1 0x40 MLOAD PUSH32 0x8C379A000000000000000000000000000000000000000000000000000000000 DUP2 MSTORE PUSH1 0x20 PUSH1 0x4 DUP3 ADD MSTORE PUSH1 0xA PUSH1 0x24 DUP3 ADD MSTORE PUSH32 0x4F6E6C79206F776E657200000000000000000000000000000000000000000000 PUSH1 0x44 DUP3 ADD MSTORE PUSH1 0x64 ADD PUSH2 0x1269 JUMP JUMPDEST PUSH20 0xFFFFFFFFFFFFFFFFFFFFFFFFFFFFFFFFFFFFFFFF DUP2 AND PUSH2 0x20DD JUMPI PUSH1 0x40 MLOAD PUSH32 0x8C379A000000000000000000000000000000000000000000000000000000000 DUP2 MSTORE PUSH1 0x20 PUSH1 0x4 DUP3 ADD MSTORE PUSH1 0xC PUSH1 0x24 DUP3 ADD MSTORE PUSH32 0x43616E74206265207A65726F0000000000000000000000000000000000000000 PUSH1 0x44 DUP3 ADD MSTORE PUSH1 0x64 ADD PUSH2 0x1269 JUMP JUMPDEST PUSH1 0x8 DUP1 SLOAD PUSH32 0xFFFFFFFFFFFFFFFFFFFFFFFF0000000000000000000000000000000000000000 AND PUSH20 0xFFFFFFFFFFFFFFFFFFFFFFFFFFFFFFFFFFFFFFFF SWAP3 SWAP1 SWAP3 AND SWAP2 SWAP1 SWAP2 OR SWAP1 SSTORE JUMP JUMPDEST PUSH1 0x40 DUP1 MLOAD PUSH20 0xFFFFFFFFFFFFFFFFFFFFFFFFFFFFFFFFFFFFFFFF DUP7 DUP2 AND PUSH1 0x24 DUP4 ADD MSTORE DUP6 DUP2 AND PUSH1 0x44 DUP4 ADD MSTORE PUSH1 0x64 DUP3 ADD DUP9 SWAP1 MSTORE PUSH1 0x84 DUP3 ADD DUP6 SWAP1 MSTORE PUSH0 PUSH1 0xA4 DUP1 DUP5 ADD DUP3 SWAP1 MSTORE DUP5 MLOAD DUP1 DUP6 SUB SWAP1 SWAP2 ADD DUP2 MSTORE PUSH1 0xC4 SWAP1 SWAP4 ADD DUP5 MSTORE PUSH1 0x20 DUP4 ADD DUP1 MLOAD PUSH28 0xFFFFFFFFFFFFFFFFFFFFFFFFFFFFFFFFFFFFFFFFFFFFFFFFFFFFFFFF AND PUSH32 0x1296323F00000000000000000000000000000000000000000000000000000000 OR SWAP1 MSTORE SWAP3 MLOAD DUP4 SWAP3 DUP4 SWAP3 DUP7 AND SWAP2 PUSH2 0x21D0 SWAP2 SWAP1 PUSH2 0x353E JUMP JUMPDEST PUSH0 PUSH1 0x40 MLOAD DUP1 DUP4 SUB DUP2 DUP6 GAS STATICCALL SWAP2 POP POP RETURNDATASIZE DUP1 PUSH0 DUP2 EQ PUSH2 0x2208 JUMPI PUSH1 0x40 MLOAD SWAP2 POP PUSH1 0x1F NOT PUSH1 0x3F RETURNDATASIZE ADD AND DUP3 ADD PUSH1 0x40 MSTORE RETURNDATASIZE DUP3 MSTORE RETURNDATASIZE PUSH0 PUSH1 0x20 DUP5 ADD RETURNDATACOPY PUSH2 0x220D JUMP JUMPDEST PUSH1 0x60 SWAP2 POP JUMPDEST POP SWAP2 POP SWAP2 POP DUP2 ISZERO PUSH2 0x2235 JUMPI DUP1 DUP1 PUSH1 0x20 ADD SWAP1 MLOAD DUP2 ADD SWAP1 PUSH2 0x222C SWAP2 SWAP1 PUSH2 0x3216 JUMP JUMPDEST SWAP3 POP POP POP PUSH2 0x223B JUMP JUMPDEST PUSH0 SWAP3 POP POP POP JUMPDEST SWAP6 SWAP5 POP POP POP POP POP JUMP JUMPDEST PUSH1 0x1 SLOAD PUSH20 0xFFFFFFFFFFFFFFFFFFFFFFFFFFFFFFFFFFFFFFFF AND CALLER EQ PUSH2 0x22C5 JUMPI PUSH1 0x40 MLOAD PUSH32 0x8C379A000000000000000000000000000000000000000000000000000000000 DUP2 MSTORE PUSH1 0x20 PUSH1 0x4 DUP3 ADD MSTORE PUSH1 0xA PUSH1 0x24 DUP3 ADD MSTORE PUSH32 0x4F6E6C79206F776E657200000000000000000000000000000000000000000000 PUSH1 0x44 DUP3 ADD MSTORE PUSH1 0x64 ADD PUSH2 0x1269 JUMP JUMPDEST PUSH1 0x8 SLOAD PUSH1 0x40 MLOAD PUSH20 0xFFFFFFFFFFFFFFFFFFFFFFFFFFFFFFFFFFFFFFFF SWAP1 SWAP2 AND SWAP1 SELFBALANCE DUP1 ISZERO PUSH2 0x8FC MUL SWAP2 PUSH0 DUP2 DUP2 DUP2 DUP6 DUP9 DUP9 CALL SWAP4 POP POP POP POP ISZERO DUP1 ISZERO PUSH2 0x14F5 JUMPI RETURNDATASIZE PUSH0 DUP1 RETURNDATACOPY RETURNDATASIZE PUSH0 REVERT JUMPDEST PUSH1 0x1 SLOAD PUSH20 0xFFFFFFFFFFFFFFFFFFFFFFFFFFFFFFFFFFFFFFFF AND CALLER EQ PUSH2 0x2389 JUMPI PUSH1 0x40 MLOAD PUSH32 0x8C379A000000000000000000000000000000000000000000000000000000000 DUP2 MSTORE PUSH1 0x20 PUSH1 0x4 DUP3 ADD MSTORE PUSH1 0xA PUSH1 0x24 DUP3 ADD MSTORE PUSH32 0x4F6E6C79206F776E657200000000000000000000000000000000000000000000 PUSH1 0x44 DUP3 ADD MSTORE PUSH1 0x64 ADD PUSH2 0x1269 JUMP JUMPDEST PUSH20 0xFFFFFFFFFFFFFFFFFFFFFFFFFFFFFFFFFFFFFFFF DUP2 AND PUSH2 0x2406 JUMPI PUSH1 0x40 MLOAD PUSH32 0x8C379A000000000000000000000000000000000000000000000000000000000 DUP2 MSTORE PUSH1 0x20 PUSH1 0x4 DUP3 ADD MSTORE PUSH1 0xC PUSH1 0x24 DUP3 ADD MSTORE PUSH32 0x43616E74206265207A65726F0000000000000000000000000000000000000000 PUSH1 0x44 DUP3 ADD MSTORE PUSH1 0x64 ADD PUSH2 0x1269 JUMP JUMPDEST PUSH1 0x1 DUP1 SLOAD PUSH32 0xFFFFFFFFFFFFFFFFFFFFFFFF0000000000000000000000000000000000000000 AND PUSH20 0xFFFFFFFFFFFFFFFFFFFFFFFFFFFFFFFFFFFFFFFF SWAP3 SWAP1 SWAP3 AND SWAP2 SWAP1 SWAP2 OR SWAP1 SSTORE JUMP JUMPDEST PUSH1 0x1 SLOAD PUSH20 0xFFFFFFFFFFFFFFFFFFFFFFFFFFFFFFFFFFFFFFFF AND CALLER EQ PUSH2 0x24CE JUMPI PUSH1 0x40 MLOAD PUSH32 0x8C379A000000000000000000000000000000000000000000000000000000000 DUP2 MSTORE PUSH1 0x20 PUSH1 0x4 DUP3 ADD MSTORE PUSH1 0xA PUSH1 0x24 DUP3 ADD MSTORE PUSH32 0x4F6E6C79206F776E657200000000000000000000000000000000000000000000 PUSH1 0x44 DUP3 ADD MSTORE PUSH1 0x64 ADD PUSH2 0x1269 JUMP JUMPDEST PUSH1 0x5 SSTORE JUMP JUMPDEST PUSH1 0x1 SLOAD PUSH20 0xFFFFFFFFFFFFFFFFFFFFFFFFFFFFFFFFFFFFFFFF AND CALLER EQ PUSH2 0x2554 JUMPI PUSH1 0x40 MLOAD PUSH32 0x8C379A000000000000000000000000000000000000000000000000000000000 DUP2 MSTORE PUSH1 0x20 PUSH1 0x4 DUP3 ADD MSTORE PUSH1 0xA PUSH1 0x24 DUP3 ADD MSTORE PUSH32 0x4F6E6C79206F776E657200000000000000000000000000000000000000000000 PUSH1 0x44 DUP3 ADD MSTORE PUSH1 0x64 ADD PUSH2 0x1269 JUMP JUMPDEST PUSH1 0x2 SLOAD PUSH20 0xFFFFFFFFFFFFFFFFFFFFFFFFFFFFFFFFFFFFFFFF DUP3 DUP2 AND SWAP2 AND EQ DUP1 ISZERO SWAP1 PUSH2 0x25A4 JUMPI POP PUSH20 0xFFFFFFFFFFFFFFFFFFFFFFFFFFFFFFFFFFFFFFFF DUP2 AND PUSH0 SWAP1 DUP2 MSTORE PUSH1 0xA PUSH1 0x20 MSTORE PUSH1 0x40 SWAP1 KECCAK256 SLOAD PUSH1 0xFF AND ISZERO JUMPDEST PUSH2 0x2630 JUMPI PUSH1 0x40 MLOAD PUSH32 0x8C379A000000000000000000000000000000000000000000000000000000000 DUP2 MSTORE PUSH1 0x20 PUSH1 0x4 DUP3 ADD MSTORE PUSH1 0x25 PUSH1 0x24 DUP3 ADD MSTORE PUSH32 0x43616E74207265636F7665727920746172676574206F7220616C6C6F77656420 PUSH1 0x44 DUP3 ADD MSTORE PUSH32 0x746F6B656E000000000000000000000000000000000000000000000000000000 PUSH1 0x64 DUP3 ADD MSTORE PUSH1 0x84 ADD PUSH2 0x1269 JUMP JUMPDEST PUSH1 0x40 MLOAD PUSH32 0x70A0823100000000000000000000000000000000000000000000000000000000 DUP2 MSTORE ADDRESS PUSH1 0x4 DUP3 ADD MSTORE DUP2 SWAP1 PUSH0 SWAP1 PUSH20 0xFFFFFFFFFFFFFFFFFFFFFFFFFFFFFFFFFFFFFFFF DUP4 AND SWAP1 PUSH4 0x70A08231 SWAP1 PUSH1 0x24 ADD PUSH1 0x20 PUSH1 0x40 MLOAD DUP1 DUP4 SUB DUP2 DUP7 GAS STATICCALL ISZERO DUP1 ISZERO PUSH2 0x269C JUMPI RETURNDATASIZE PUSH0 DUP1 RETURNDATACOPY RETURNDATASIZE PUSH0 REVERT JUMPDEST POP POP POP POP PUSH1 0x40 MLOAD RETURNDATASIZE PUSH1 0x1F NOT PUSH1 0x1F DUP3 ADD AND DUP3 ADD DUP1 PUSH1 0x40 MSTORE POP DUP2 ADD SWAP1 PUSH2 0x26C0 SWAP2 SWAP1 PUSH2 0x3216 JUMP JUMPDEST GT ISZERO PUSH2 0x27F4 JUMPI PUSH1 0x1 SLOAD PUSH1 0x40 MLOAD PUSH32 0x70A0823100000000000000000000000000000000000000000000000000000000 DUP2 MSTORE ADDRESS PUSH1 0x4 DUP3 ADD MSTORE PUSH20 0xFFFFFFFFFFFFFFFFFFFFFFFFFFFFFFFFFFFFFFFF DUP4 DUP2 AND SWAP3 PUSH4 0xA9059CBB SWAP3 SWAP2 AND SWAP1 DUP4 SWAP1 PUSH4 0x70A08231 SWAP1 PUSH1 0x24 ADD PUSH1 0x20 PUSH1 0x40 MLOAD DUP1 DUP4 SUB DUP2 DUP7 GAS STATICCALL ISZERO DUP1 ISZERO PUSH2 0x273D JUMPI RETURNDATASIZE PUSH0 DUP1 RETURNDATACOPY RETURNDATASIZE PUSH0 REVERT JUMPDEST POP POP POP POP PUSH1 0x40 MLOAD RETURNDATASIZE PUSH1 0x1F NOT PUSH1 0x1F DUP3 ADD AND DUP3 ADD DUP1 PUSH1 0x40 MSTORE POP DUP2 ADD SWAP1 PUSH2 0x2761 SWAP2 SWAP1 PUSH2 0x3216 JUMP JUMPDEST PUSH1 0x40 MLOAD PUSH32 0xFFFFFFFF00000000000000000000000000000000000000000000000000000000 PUSH1 0xE0 DUP6 SWAP1 SHL AND DUP2 MSTORE PUSH20 0xFFFFFFFFFFFFFFFFFFFFFFFFFFFFFFFFFFFFFFFF SWAP1 SWAP3 AND PUSH1 0x4 DUP4 ADD MSTORE PUSH1 0x24 DUP3 ADD MSTORE PUSH1 0x44 ADD PUSH1 0x20 PUSH1 0x40 MLOAD DUP1 DUP4 SUB DUP2 PUSH0 DUP8 GAS CALL ISZERO DUP1 ISZERO PUSH2 0x27CE JUMPI RETURNDATASIZE PUSH0 DUP1 RETURNDATACOPY RETURNDATASIZE PUSH0 REVERT JUMPDEST POP POP POP POP PUSH1 0x40 MLOAD RETURNDATASIZE PUSH1 0x1F NOT PUSH1 0x1F DUP3 ADD AND DUP3 ADD DUP1 PUSH1 0x40 MSTORE POP DUP2 ADD SWAP1 PUSH2 0x27F2 SWAP2 SWAP1 PUSH2 0x322D JUMP JUMPDEST POP JUMPDEST POP POP JUMP JUMPDEST PUSH1 0x2 PUSH0 SLOAD SUB PUSH2 0x2863 JUMPI PUSH1 0x40 MLOAD PUSH32 0x8C379A000000000000000000000000000000000000000000000000000000000 DUP2 MSTORE PUSH1 0x20 PUSH1 0x4 DUP3 ADD MSTORE PUSH1 0x1F PUSH1 0x24 DUP3 ADD MSTORE PUSH32 0x5265656E7472616E637947756172643A207265656E7472616E742063616C6C00 PUSH1 0x44 DUP3 ADD MSTORE PUSH1 0x64 ADD PUSH2 0x1269 JUMP JUMPDEST PUSH1 0x2 PUSH0 SSTORE JUMP JUMPDEST PUSH0 DUP1 DUP3 GT PUSH2 0x28D3 JUMPI PUSH1 0x40 MLOAD PUSH32 0x8C379A000000000000000000000000000000000000000000000000000000000 DUP2 MSTORE PUSH1 0x20 PUSH1 0x4 DUP3 ADD MSTORE PUSH1 0xE PUSH1 0x24 DUP3 ADD MSTORE PUSH32 0x4E6F2045544820746F2073776170000000000000000000000000000000000000 PUSH1 0x44 DUP3 ADD MSTORE PUSH1 0x64 ADD PUSH2 0x1269 JUMP JUMPDEST PUSH1 0x2 SLOAD PUSH1 0x40 MLOAD PUSH32 0x70A0823100000000000000000000000000000000000000000000000000000000 DUP2 MSTORE ADDRESS PUSH1 0x4 DUP3 ADD MSTORE PUSH0 SWAP2 PUSH20 0xFFFFFFFFFFFFFFFFFFFFFFFFFFFFFFFFFFFFFFFF AND SWAP1 PUSH4 0x70A08231 SWAP1 PUSH1 0x24 ADD PUSH1 0x20 PUSH1 0x40 MLOAD DUP1 DUP4 SUB DUP2 DUP7 GAS STATICCALL ISZERO DUP1 ISZERO PUSH2 0x293F JUMPI RETURNDATASIZE PUSH0 DUP1 RETURNDATACOPY RETURNDATASIZE PUSH0 REVERT JUMPDEST POP POP POP POP PUSH1 0x40 MLOAD RETURNDATASIZE PUSH1 0x1F NOT PUSH1 0x1F DUP3 ADD AND DUP3 ADD DUP1 PUSH1 0x40 MSTORE POP DUP2 ADD SWAP1 PUSH2 0x2963 SWAP2 SWAP1 PUSH2 0x3216 JUMP JUMPDEST SWAP1 POP PUSH0 PUSH1 0x4 SLOAD PUSH24 0x10000000000000000000000000000000000000000000000 SWAP1 DIV PUSH1 0xFF AND PUSH1 0x1 DUP2 GT ISZERO PUSH2 0x2998 JUMPI PUSH2 0x2998 PUSH2 0x2F95 JUMP JUMPDEST SUB PUSH2 0x2AEF JUMPI PUSH1 0x40 DUP1 MLOAD PUSH1 0x2 DUP1 DUP3 MSTORE PUSH1 0x60 DUP3 ADD DUP4 MSTORE PUSH0 SWAP3 PUSH1 0x20 DUP4 ADD SWAP1 DUP1 CALLDATASIZE DUP4 CALLDATACOPY POP POP PUSH1 0x7 SLOAD SWAP2 SWAP3 POP POP PUSH20 0xFFFFFFFFFFFFFFFFFFFFFFFFFFFFFFFFFFFFFFFF AND DUP2 PUSH0 DUP2 MLOAD DUP2 LT PUSH2 0x29E8 JUMPI PUSH2 0x29E8 PUSH2 0x33CC JUMP JUMPDEST PUSH20 0xFFFFFFFFFFFFFFFFFFFFFFFFFFFFFFFFFFFFFFFF SWAP3 DUP4 AND PUSH1 0x20 SWAP2 DUP3 MUL SWAP3 SWAP1 SWAP3 ADD ADD MSTORE PUSH1 0x2 SLOAD DUP3 MLOAD SWAP2 AND SWAP1 DUP3 SWAP1 PUSH1 0x1 SWAP1 DUP2 LT PUSH2 0x2A26 JUMPI PUSH2 0x2A26 PUSH2 0x33CC JUMP JUMPDEST PUSH20 0xFFFFFFFFFFFFFFFFFFFFFFFFFFFFFFFFFFFFFFFF SWAP3 DUP4 AND PUSH1 0x20 SWAP2 DUP3 MUL SWAP3 SWAP1 SWAP3 ADD ADD MSTORE PUSH1 0x3 SLOAD PUSH1 0x5 SLOAD SWAP2 AND SWAP1 PUSH4 0x7FF36AB5 SWAP1 DUP7 SWAP1 DUP5 ADDRESS PUSH2 0x2A68 TIMESTAMP PUSH2 0x12C PUSH2 0x2D89 JUMP JUMPDEST PUSH1 0x40 MLOAD DUP7 PUSH4 0xFFFFFFFF AND PUSH1 0xE0 SHL DUP2 MSTORE PUSH1 0x4 ADD PUSH2 0x2A87 SWAP5 SWAP4 SWAP3 SWAP2 SWAP1 PUSH2 0x3559 JUMP JUMPDEST PUSH0 PUSH1 0x40 MLOAD DUP1 DUP4 SUB DUP2 DUP6 DUP9 GAS CALL ISZERO DUP1 ISZERO PUSH2 0x2AA2 JUMPI RETURNDATASIZE PUSH0 DUP1 RETURNDATACOPY RETURNDATASIZE PUSH0 REVERT JUMPDEST POP POP POP POP POP PUSH1 0x40 MLOAD RETURNDATASIZE PUSH0 DUP3 RETURNDATACOPY PUSH1 0x1F RETURNDATASIZE SWAP1 DUP2 ADD PUSH32 0xFFFFFFFFFFFFFFFFFFFFFFFFFFFFFFFFFFFFFFFFFFFFFFFFFFFFFFFFFFFFFFE0 AND DUP3 ADD PUSH1 0x40 MSTORE PUSH2 0x2AE8 SWAP2 SWAP1 DUP2 ADD SWAP1 PUSH2 0x349D JUMP JUMPDEST POP POP PUSH2 0x2C9E JUMP JUMPDEST PUSH1 0x4 SLOAD PUSH1 0x40 DUP1 MLOAD PUSH2 0x100 DUP2 ADD SWAP1 SWAP2 MSTORE PUSH20 0xFFFFFFFFFFFFFFFFFFFFFFFFFFFFFFFFFFFFFFFF SWAP1 SWAP2 AND SWAP1 PUSH4 0x414BF389 SWAP1 DUP6 SWAP1 DUP1 PUSH2 0x2B3F PUSH1 0x7 SLOAD PUSH20 0xFFFFFFFFFFFFFFFFFFFFFFFFFFFFFFFFFFFFFFFF AND SWAP1 JUMP JUMPDEST PUSH20 0xFFFFFFFFFFFFFFFFFFFFFFFFFFFFFFFFFFFFFFFF SWAP1 DUP2 AND DUP3 MSTORE PUSH1 0x2 SLOAD AND PUSH1 0x20 DUP3 ADD MSTORE PUSH1 0x4 SLOAD PUSH21 0x10000000000000000000000000000000000000000 SWAP1 DIV PUSH3 0xFFFFFF AND PUSH1 0x40 DUP3 ADD MSTORE ADDRESS PUSH1 0x60 DUP3 ADD MSTORE PUSH1 0x80 ADD PUSH2 0x2B9C TIMESTAMP PUSH2 0x12C PUSH2 0x2D89 JUMP JUMPDEST DUP2 MSTORE PUSH1 0x20 ADD DUP8 DUP2 MSTORE PUSH1 0x20 ADD PUSH1 0x5 SLOAD DUP2 MSTORE PUSH1 0x20 ADD PUSH0 PUSH20 0xFFFFFFFFFFFFFFFFFFFFFFFFFFFFFFFFFFFFFFFF AND DUP2 MSTORE POP PUSH1 0x40 MLOAD DUP4 PUSH4 0xFFFFFFFF AND PUSH1 0xE0 SHL DUP2 MSTORE PUSH1 0x4 ADD PUSH2 0x2C5B SWAP2 SWAP1 PUSH0 PUSH2 0x100 DUP3 ADD SWAP1 POP PUSH20 0xFFFFFFFFFFFFFFFFFFFFFFFFFFFFFFFFFFFFFFFF DUP1 DUP5 MLOAD AND DUP4 MSTORE DUP1 PUSH1 0x20 DUP6 ADD MLOAD AND PUSH1 0x20 DUP5 ADD MSTORE PUSH3 0xFFFFFF PUSH1 0x40 DUP6 ADD MLOAD AND PUSH1 0x40 DUP5 ADD MSTORE DUP1 PUSH1 0x60 DUP6 ADD MLOAD AND PUSH1 0x60 DUP5 ADD MSTORE PUSH1 0x80 DUP5 ADD MLOAD PUSH1 0x80 DUP5 ADD MSTORE PUSH1 0xA0 DUP5 ADD MLOAD PUSH1 0xA0 DUP5 ADD MSTORE PUSH1 0xC0 DUP5 ADD MLOAD PUSH1 0xC0 DUP5 ADD MSTORE DUP1 PUSH1 0xE0 DUP6 ADD MLOAD AND PUSH1 0xE0 DUP5 ADD MSTORE POP SWAP3 SWAP2 POP POP JUMP JUMPDEST PUSH1 0x20 PUSH1 0x40 MLOAD DUP1 DUP4 SUB DUP2 DUP6 DUP9 GAS CALL ISZERO DUP1 ISZERO PUSH2 0x2C77 JUMPI RETURNDATASIZE PUSH0 DUP1 RETURNDATACOPY RETURNDATASIZE PUSH0 REVERT JUMPDEST POP POP POP POP POP PUSH1 0x40 MLOAD RETURNDATASIZE PUSH1 0x1F NOT PUSH1 0x1F DUP3 ADD AND DUP3 ADD DUP1 PUSH1 0x40 MSTORE POP DUP2 ADD SWAP1 PUSH2 0x2C9C SWAP2 SWAP1 PUSH2 0x3216 JUMP JUMPDEST POP JUMPDEST PUSH1 0x2 SLOAD PUSH1 0x40 MLOAD PUSH32 0x70A0823100000000000000000000000000000000000000000000000000000000 DUP2 MSTORE ADDRESS PUSH1 0x4 DUP3 ADD MSTORE PUSH0 SWAP2 DUP4 SWAP2 PUSH20 0xFFFFFFFFFFFFFFFFFFFFFFFFFFFFFFFFFFFFFFFF SWAP1 SWAP2 AND SWAP1 PUSH4 0x70A08231 SWAP1 PUSH1 0x24 ADD PUSH1 0x20 PUSH1 0x40 MLOAD DUP1 DUP4 SUB DUP2 DUP7 GAS STATICCALL ISZERO DUP1 ISZERO PUSH2 0x2D0E JUMPI RETURNDATASIZE PUSH0 DUP1 RETURNDATACOPY RETURNDATASIZE PUSH0 REVERT JUMPDEST POP POP POP POP PUSH1 0x40 MLOAD RETURNDATASIZE PUSH1 0x1F NOT PUSH1 0x1F DUP3 ADD AND DUP3 ADD DUP1 PUSH1 0x40 MSTORE POP DUP2 ADD SWAP1 PUSH2 0x2D32 SWAP2 SWAP1 PUSH2 0x3216 JUMP JUMPDEST PUSH2 0x2D3C SWAP2 SWAP1 PUSH2 0x359A JUMP JUMPDEST SWAP1 POP DUP1 PUSH1 0xE PUSH0 DUP3 DUP3 SLOAD PUSH2 0x2D4F SWAP2 SWAP1 PUSH2 0x2D89 JUMP JUMPDEST SWAP1 SWAP2 SSTORE POP SWAP1 SWAP5 SWAP4 POP POP POP POP JUMP JUMPDEST PUSH32 0x4E487B7100000000000000000000000000000000000000000000000000000000 PUSH0 MSTORE PUSH1 0x11 PUSH1 0x4 MSTORE PUSH1 0x24 PUSH0 REVERT JUMPDEST DUP1 DUP3 ADD DUP1 DUP3 GT ISZERO PUSH2 0x11E6 JUMPI PUSH2 0x11E6 PUSH2 0x2D5C JUMP JUMPDEST PUSH0 JUMPDEST DUP4 DUP2 LT ISZERO PUSH2 0x2DB6 JUMPI DUP2 DUP2 ADD MLOAD DUP4 DUP3 ADD MSTORE PUSH1 0x20 ADD PUSH2 0x2D9E JUMP JUMPDEST POP POP PUSH0 SWAP2 ADD MSTORE JUMP JUMPDEST PUSH0 DUP2 MLOAD DUP1 DUP5 MSTORE PUSH2 0x2DD5 DUP2 PUSH1 0x20 DUP7 ADD PUSH1 0x20 DUP7 ADD PUSH2 0x2D9C JUMP JUMPDEST PUSH1 0x1F ADD PUSH32 0xFFFFFFFFFFFFFFFFFFFFFFFFFFFFFFFFFFFFFFFFFFFFFFFFFFFFFFFFFFFFFFE0 AND SWAP3 SWAP1 SWAP3 ADD PUSH1 0x20 ADD SWAP3 SWAP2 POP POP JUMP JUMPDEST PUSH0 PUSH1 0x20 DUP1 DUP4 ADD DUP2 DUP5 MSTORE DUP1 DUP6 MLOAD DUP1 DUP4 MSTORE PUSH1 0x40 SWAP3 POP PUSH1 0x40 DUP7 ADD SWAP2 POP PUSH1 0x40 DUP2 PUSH1 0x5 SHL DUP8 ADD ADD DUP5 DUP9 ADD PUSH0 JUMPDEST DUP4 DUP2 LT ISZERO PUSH2 0x2EE0 JUMPI PUSH32 0xFFFFFFFFFFFFFFFFFFFFFFFFFFFFFFFFFFFFFFFFFFFFFFFFFFFFFFFFFFFFFFC0 DUP10 DUP5 SUB ADD DUP6 MSTORE DUP2 MLOAD PUSH1 0xC0 DUP2 MLOAD DUP6 MSTORE PUSH20 0xFFFFFFFFFFFFFFFFFFFFFFFFFFFFFFFFFFFFFFFF DUP10 DUP4 ADD MLOAD AND DUP10 DUP7 ADD MSTORE DUP8 DUP3 ADD MLOAD DUP2 DUP10 DUP8 ADD MSTORE PUSH2 0x2E98 DUP3 DUP8 ADD DUP3 PUSH2 0x2DBE JUMP JUMPDEST SWAP2 POP POP PUSH1 0x60 DUP1 DUP4 ADD MLOAD DUP7 DUP4 SUB DUP3 DUP9 ADD MSTORE PUSH2 0x2EB2 DUP4 DUP3 PUSH2 0x2DBE JUMP JUMPDEST PUSH1 0x80 DUP6 DUP2 ADD MLOAD PUSH1 0xFF AND SWAP1 DUP10 ADD MSTORE PUSH1 0xA0 SWAP5 DUP6 ADD MLOAD SWAP5 SWAP1 SWAP8 ADD SWAP4 SWAP1 SWAP4 MSTORE POP POP POP SWAP4 DUP7 ADD SWAP4 SWAP1 DUP7 ADD SWAP1 PUSH1 0x1 ADD PUSH2 0x2E2E JUMP JUMPDEST POP SWAP1 SWAP9 SWAP8 POP POP POP POP POP POP POP POP JUMP JUMPDEST PUSH0 PUSH1 0x20 DUP3 DUP5 SUB SLT ISZERO PUSH2 0x2EFE JUMPI PUSH0 DUP1 REVERT JUMPDEST POP CALLDATALOAD SWAP2 SWAP1 POP JUMP JUMPDEST DUP1 CALLDATALOAD PUSH20 0xFFFFFFFFFFFFFFFFFFFFFFFFFFFFFFFFFFFFFFFF DUP2 AND DUP2 EQ PUSH2 0x2F28 JUMPI PUSH0 DUP1 REVERT JUMPDEST SWAP2 SWAP1 POP JUMP JUMPDEST PUSH0 PUSH1 0x20 DUP3 DUP5 SUB SLT ISZERO PUSH2 0x2F3D JUMPI PUSH0 DUP1 REVERT JUMPDEST PUSH2 0x2F46 DUP3 PUSH2 0x2F05 JUMP JUMPDEST SWAP4 SWAP3 POP POP POP JUMP JUMPDEST PUSH0 DUP1 PUSH0 DUP1 PUSH1 0x80 DUP6 DUP8 SUB SLT ISZERO PUSH2 0x2F60 JUMPI PUSH0 DUP1 REVERT JUMPDEST PUSH2 0x2F69 DUP6 PUSH2 0x2F05 JUMP JUMPDEST SWAP4 POP PUSH2 0x2F77 PUSH1 0x20 DUP7 ADD PUSH2 0x2F05 JUMP JUMPDEST SWAP3 POP PUSH2 0x2F85 PUSH1 0x40 DUP7 ADD PUSH2 0x2F05 JUMP JUMPDEST SWAP4 SWAP7 SWAP3 SWAP6 POP SWAP3 SWAP4 PUSH1 0x60 ADD CALLDATALOAD SWAP3 POP POP JUMP JUMPDEST PUSH32 0x4E487B7100000000000000000000000000000000000000000000000000000000 PUSH0 MSTORE PUSH1 0x21 PUSH1 0x4 MSTORE PUSH1 0x24 PUSH0 REVERT JUMPDEST PUSH1 0x2 DUP2 LT PUSH2 0x2FF7 JUMPI PUSH32 0x4E487B7100000000000000000000000000000000000000000000000000000000 PUSH0 MSTORE PUSH1 0x21 PUSH1 0x4 MSTORE PUSH1 0x24 PUSH0 REVERT JUMPDEST SWAP1 MSTORE JUMP JUMPDEST DUP2 MLOAD ISZERO ISZERO DUP2 MSTORE PUSH2 0x1A0 DUP2 ADD PUSH1 0x20 DUP4 ADD MLOAD PUSH2 0x302D PUSH1 0x20 DUP5 ADD DUP3 PUSH20 0xFFFFFFFFFFFFFFFFFFFFFFFFFFFFFFFFFFFFFFFF AND SWAP1 MSTORE JUMP JUMPDEST POP PUSH1 0x40 DUP4 ADD MLOAD PUSH2 0x3055 PUSH1 0x40 DUP5 ADD DUP3 PUSH20 0xFFFFFFFFFFFFFFFFFFFFFFFFFFFFFFFFFFFFFFFF AND SWAP1 MSTORE JUMP JUMPDEST POP PUSH1 0x60 DUP4 ADD MLOAD PUSH2 0x307D PUSH1 0x60 DUP5 ADD DUP3 PUSH20 0xFFFFFFFFFFFFFFFFFFFFFFFFFFFFFFFFFFFFFFFF AND SWAP1 MSTORE JUMP JUMPDEST POP PUSH1 0x80 DUP4 ADD MLOAD PUSH2 0x30A5 PUSH1 0x80 DUP5 ADD DUP3 PUSH20 0xFFFFFFFFFFFFFFFFFFFFFFFFFFFFFFFFFFFFFFFF AND SWAP1 MSTORE JUMP JUMPDEST POP PUSH1 0xA0 DUP4 ADD MLOAD PUSH2 0x30BC PUSH1 0xA0 DUP5 ADD DUP3 PUSH3 0xFFFFFF AND SWAP1 MSTORE JUMP JUMPDEST POP PUSH1 0xC0 DUP4 ADD MLOAD PUSH2 0x30CF PUSH1 0xC0 DUP5 ADD DUP3 PUSH2 0x2FC2 JUMP JUMPDEST POP PUSH1 0xE0 DUP4 ADD MLOAD PUSH1 0xE0 DUP4 ADD MSTORE PUSH2 0x100 DUP1 DUP5 ADD MLOAD PUSH2 0x3102 DUP3 DUP6 ADD DUP3 PUSH20 0xFFFFFFFFFFFFFFFFFFFFFFFFFFFFFFFFFFFFFFFF AND SWAP1 MSTORE JUMP JUMPDEST POP POP PUSH2 0x120 DUP4 DUP2 ADD MLOAD PUSH20 0xFFFFFFFFFFFFFFFFFFFFFFFFFFFFFFFFFFFFFFFF AND SWAP1 DUP4 ADD MSTORE PUSH2 0x140 DUP1 DUP5 ADD MLOAD SWAP1 DUP4 ADD MSTORE PUSH2 0x160 DUP1 DUP5 ADD MLOAD SWAP1 DUP4 ADD MSTORE PUSH2 0x180 SWAP3 DUP4 ADD MLOAD SWAP3 SWAP1 SWAP2 ADD SWAP2 SWAP1 SWAP2 MSTORE SWAP1 JUMP JUMPDEST PUSH1 0x20 DUP2 ADD PUSH2 0x11E6 DUP3 DUP5 PUSH2 0x2FC2 JUMP JUMPDEST PUSH0 PUSH1 0x20 DUP3 DUP5 SUB SLT ISZERO PUSH2 0x316B JUMPI PUSH0 DUP1 REVERT JUMPDEST DUP2 CALLDATALOAD PUSH1 0x2 DUP2 LT PUSH2 0x2F46 JUMPI PUSH0 DUP1 REVERT JUMPDEST PUSH0 DUP1 PUSH0 DUP1 PUSH1 0x80 DUP6 DUP8 SUB SLT ISZERO PUSH2 0x318C JUMPI PUSH0 DUP1 REVERT JUMPDEST DUP5 CALLDATALOAD SWAP4 POP PUSH2 0x319C PUSH1 0x20 DUP7 ADD PUSH2 0x2F05 JUMP JUMPDEST SWAP3 POP PUSH2 0x31AA PUSH1 0x40 DUP7 ADD PUSH2 0x2F05 JUMP JUMPDEST SWAP2 POP PUSH2 0x31B8 PUSH1 0x60 DUP7 ADD PUSH2 0x2F05 JUMP JUMPDEST SWAP1 POP SWAP3 SWAP6 SWAP2 SWAP5 POP SWAP3 POP JUMP JUMPDEST PUSH0 DUP1 PUSH0 DUP1 PUSH0 PUSH1 0xA0 DUP7 DUP9 SUB SLT ISZERO PUSH2 0x31D7 JUMPI PUSH0 DUP1 REVERT JUMPDEST DUP6 CALLDATALOAD SWAP5 POP PUSH2 0x31E7 PUSH1 0x20 DUP8 ADD PUSH2 0x2F05 JUMP JUMPDEST SWAP4 POP PUSH2 0x31F5 PUSH1 0x40 DUP8 ADD PUSH2 0x2F05 JUMP JUMPDEST SWAP3 POP PUSH1 0x60 DUP7 ADD CALLDATALOAD SWAP2 POP PUSH2 0x320A PUSH1 0x80 DUP8 ADD PUSH2 0x2F05 JUMP JUMPDEST SWAP1 POP SWAP3 SWAP6 POP SWAP3 SWAP6 SWAP1 SWAP4 POP JUMP JUMPDEST PUSH0 PUSH1 0x20 DUP3 DUP5 SUB SLT ISZERO PUSH2 0x3226 JUMPI PUSH0 DUP1 REVERT JUMPDEST POP MLOAD SWAP2 SWAP1 POP JUMP JUMPDEST PUSH0 PUSH1 0x20 DUP3 DUP5 SUB SLT ISZERO PUSH2 0x323D JUMPI PUSH0 DUP1 REVERT JUMPDEST DUP2 MLOAD DUP1 ISZERO ISZERO DUP2 EQ PUSH2 0x2F46 JUMPI PUSH0 DUP1 REVERT JUMPDEST PUSH0 PUSH32 0xFFFFFFFFFFFFFFFFFFFFFFFFFFFFFFFFFFFFFFFFFFFFFFFFFFFFFFFFFFFFFFFF DUP3 SUB PUSH2 0x327C JUMPI PUSH2 0x327C PUSH2 0x2D5C JUMP JUMPDEST POP PUSH1 0x1 ADD SWAP1 JUMP JUMPDEST PUSH32 0x4E487B7100000000000000000000000000000000000000000000000000000000 PUSH0 MSTORE PUSH1 0x41 PUSH1 0x4 MSTORE PUSH1 0x24 PUSH0 REVERT JUMPDEST PUSH1 0x40 MLOAD PUSH1 0x1F DUP3 ADD PUSH32 0xFFFFFFFFFFFFFFFFFFFFFFFFFFFFFFFFFFFFFFFFFFFFFFFFFFFFFFFFFFFFFFE0 AND DUP2 ADD PUSH8 0xFFFFFFFFFFFFFFFF DUP2 GT DUP3 DUP3 LT OR ISZERO PUSH2 0x32F7 JUMPI PUSH2 0x32F7 PUSH2 0x3283 JUMP JUMPDEST PUSH1 0x40 MSTORE SWAP2 SWAP1 POP JUMP JUMPDEST PUSH0 PUSH1 0x20 DUP3 DUP5 SUB SLT ISZERO PUSH2 0x330F JUMPI PUSH0 DUP1 REVERT JUMPDEST DUP2 MLOAD PUSH8 0xFFFFFFFFFFFFFFFF DUP1 DUP3 GT ISZERO PUSH2 0x3326 JUMPI PUSH0 DUP1 REVERT JUMPDEST DUP2 DUP5 ADD SWAP2 POP DUP5 PUSH1 0x1F DUP4 ADD SLT PUSH2 0x3339 JUMPI PUSH0 DUP1 REVERT JUMPDEST DUP2 MLOAD DUP2 DUP2 GT ISZERO PUSH2 0x334B JUMPI PUSH2 0x334B PUSH2 0x3283 JUMP JUMPDEST PUSH2 0x337C PUSH1 0x20 PUSH32 0xFFFFFFFFFFFFFFFFFFFFFFFFFFFFFFFFFFFFFFFFFFFFFFFFFFFFFFFFFFFFFFE0 PUSH1 0x1F DUP5 ADD AND ADD PUSH2 0x32B0 JUMP JUMPDEST SWAP2 POP DUP1 DUP3 MSTORE DUP6 PUSH1 0x20 DUP3 DUP6 ADD ADD GT ISZERO PUSH2 0x3392 JUMPI PUSH0 DUP1 REVERT JUMPDEST PUSH2 0x33A3 DUP2 PUSH1 0x20 DUP5 ADD PUSH1 0x20 DUP7 ADD PUSH2 0x2D9C JUMP JUMPDEST POP SWAP5 SWAP4 POP POP POP POP JUMP JUMPDEST PUSH0 PUSH1 0x20 DUP3 DUP5 SUB SLT ISZERO PUSH2 0x33BC JUMPI PUSH0 DUP1 REVERT JUMPDEST DUP2 MLOAD PUSH1 0xFF DUP2 AND DUP2 EQ PUSH2 0x2F46 JUMPI PUSH0 DUP1 REVERT JUMPDEST PUSH32 0x4E487B7100000000000000000000000000000000000000000000000000000000 PUSH0 MSTORE PUSH1 0x32 PUSH1 0x4 MSTORE PUSH1 0x24 PUSH0 REVERT JUMPDEST PUSH0 DUP2 PUSH2 0x3407 JUMPI PUSH2 0x3407 PUSH2 0x2D5C JUMP JUMPDEST POP PUSH32 0xFFFFFFFFFFFFFFFFFFFFFFFFFFFFFFFFFFFFFFFFFFFFFFFFFFFFFFFFFFFFFFFF ADD SWAP1 JUMP JUMPDEST PUSH0 DUP2 MLOAD DUP1 DUP5 MSTORE PUSH1 0x20 DUP1 DUP6 ADD SWAP5 POP PUSH1 0x20 DUP5 ADD PUSH0 JUMPDEST DUP4 DUP2 LT ISZERO PUSH2 0x3472 JUMPI DUP2 MLOAD PUSH20 0xFFFFFFFFFFFFFFFFFFFFFFFFFFFFFFFFFFFFFFFF AND DUP8 MSTORE SWAP6 DUP3 ADD SWAP6 SWAP1 DUP3 ADD SWAP1 PUSH1 0x1 ADD PUSH2 0x3440 JUMP JUMPDEST POP SWAP5 SWAP6 SWAP5 POP POP POP POP POP JUMP JUMPDEST DUP3 DUP2 MSTORE PUSH1 0x40 PUSH1 0x20 DUP3 ADD MSTORE PUSH0 PUSH2 0x3495 PUSH1 0x40 DUP4 ADD DUP5 PUSH2 0x342D JUMP JUMPDEST SWAP5 SWAP4 POP POP POP POP JUMP JUMPDEST PUSH0 PUSH1 0x20 DUP1 DUP4 DUP6 SUB SLT ISZERO PUSH2 0x34AE JUMPI PUSH0 DUP1 REVERT JUMPDEST DUP3 MLOAD PUSH8 0xFFFFFFFFFFFFFFFF DUP1 DUP3 GT ISZERO PUSH2 0x34C5 JUMPI PUSH0 DUP1 REVERT JUMPDEST DUP2 DUP6 ADD SWAP2 POP DUP6 PUSH1 0x1F DUP4 ADD SLT PUSH2 0x34D8 JUMPI PUSH0 DUP1 REVERT JUMPDEST DUP2 MLOAD DUP2 DUP2 GT ISZERO PUSH2 0x34EA JUMPI PUSH2 0x34EA PUSH2 0x3283 JUMP JUMPDEST DUP1 PUSH1 0x5 SHL SWAP2 POP PUSH2 0x34FB DUP5 DUP4 ADD PUSH2 0x32B0 JUMP JUMPDEST DUP2 DUP2 MSTORE SWAP2 DUP4 ADD DUP5 ADD SWAP2 DUP5 DUP2 ADD SWAP1 DUP9 DUP5 GT ISZERO PUSH2 0x3514 JUMPI PUSH0 DUP1 REVERT JUMPDEST SWAP4 DUP6 ADD SWAP4 JUMPDEST DUP4 DUP6 LT ISZERO PUSH2 0x3532 JUMPI DUP5 MLOAD DUP3 MSTORE SWAP4 DUP6 ADD SWAP4 SWAP1 DUP6 ADD SWAP1 PUSH2 0x3519 JUMP JUMPDEST SWAP9 SWAP8 POP POP POP POP POP POP POP POP JUMP JUMPDEST PUSH0 DUP3 MLOAD PUSH2 0x354F DUP2 DUP5 PUSH1 0x20 DUP8 ADD PUSH2 0x2D9C JUMP JUMPDEST SWAP2 SWAP1 SWAP2 ADD SWAP3 SWAP2 POP POP JUMP JUMPDEST DUP5 DUP2 MSTORE PUSH1 0x80 PUSH1 0x20 DUP3 ADD MSTORE PUSH0 PUSH2 0x3571 PUSH1 0x80 DUP4 ADD DUP7 PUSH2 0x342D JUMP JUMPDEST PUSH20 0xFFFFFFFFFFFFFFFFFFFFFFFFFFFFFFFFFFFFFFFF SWAP5 SWAP1 SWAP5 AND PUSH1 0x40 DUP4 ADD MSTORE POP PUSH1 0x60 ADD MSTORE SWAP3 SWAP2 POP POP JUMP JUMPDEST DUP2 DUP2 SUB DUP2 DUP2 GT ISZERO PUSH2 0x11E6 JUMPI PUSH2 0x11E6 PUSH2 0x2D5C JUMP INVALID LOG2 PUSH5 0x6970667358 0x22 SLT KECCAK256 0xC8 0xF8 DUP4 0xDB 0xE8 0xB9 CODESIZE DUP6 0xED 0xCE BALANCE 0xC8 SWAP15 PUSH14 0xD24915B90B21DDE92AC7627F9E69 0xD7 LOG4 0xD9 0xF6 PUSH5 0x736F6C6343 STOP ADDMOD XOR STOP CALLER "
				},
				"gasEstimates": {
					"creation": {
						"codeDepositCost": "2759000",
						"executionCost": "infinite",
						"totalCost": "infinite"
					},
					"external": {
						"QUOTER()": "2402",
						"WETH()": "2402",
						"_getWETH()": "2373",
						"_quoteV2(uint256)": "infinite",
						"_quoteV3(uint256)": "infinite",
						"addAllowedToken(address)": "103971",
						"allowedTokens(uint256)": "2561",
						"allowedTokensCount()": "2363",
						"allowedTokensExists(address)": "2607",
						"allowedTokensIds(address)": "2572",
						"delAllowedToken(address)": "110452",
						"dexVersion()": "2485",
						"getAllowedTokens()": "infinite",
						"getContractInfo()": "22598",
						"getQuoteV2(uint256,address,address,address)": "infinite",
						"getQuoteV3(uint256,address,address,uint256,address)": "infinite",
						"init(address,address,address,uint256)": "infinite",
						"inited()": "2366",
						"minAmountOut()": "2405",
						"owner()": "2380",
						"reciever()": "2378",
						"recoveryToken(address)": "infinite",
						"routerV2()": "2424",
						"routerV3()": "2379",
						"setDexVersion(uint8)": "26732",
						"setMinAmountOut(uint256)": "24538",
						"setReciever(address)": "26749",
						"setRouterV2(address)": "26748",
						"setTargetToken(address)": "26794",
						"setWETH(address)": "26747",
						"targetToken()": "2380",
						"totalEthIn()": "2340",
						"totalSwapOut()": "2384",
						"transferOwnership(address)": "26770",
						"v3PoolFee()": "2414",
						"withdrawETH()": "infinite",
						"withdrawTokens()": "infinite"
					},
					"internal": {
						"_performSwap(uint256)": "infinite",
						"trySwapIfProfitable()": "infinite"
					}
				},
				"methodIdentifiers": {
					"QUOTER()": "8dae88c2",
					"WETH()": "ad5c4648",
					"_getWETH()": "91f59369",
					"_quoteV2(uint256)": "034f5423",
					"_quoteV3(uint256)": "3f79b667",
					"addAllowedToken(address)": "4178617f",
					"allowedTokens(uint256)": "5e5f2e26",
					"allowedTokensCount()": "20a05ff7",
					"allowedTokensExists(address)": "3024b233",
					"allowedTokensIds(address)": "54a3b27a",
					"delAllowedToken(address)": "55430892",
					"dexVersion()": "7de0dd79",
					"getAllowedTokens()": "024ece89",
					"getContractInfo()": "7cc1f867",
					"getQuoteV2(uint256,address,address,address)": "9ec7e5db",
					"getQuoteV3(uint256,address,address,uint256,address)": "d9d7438e",
					"init(address,address,address,uint256)": "46639dba",
					"inited()": "43c885ba",
					"minAmountOut()": "e5ee1d40",
					"owner()": "8da5cb5b",
					"reciever()": "f4b0b756",
					"recoveryToken(address)": "fa34a5fd",
					"routerV2()": "502f7446",
					"routerV3()": "f2b3b467",
					"setDexVersion(uint8)": "954b1fe4",
					"setMinAmountOut(uint256)": "f775cca7",
					"setReciever(address)": "a0db86f9",
					"setRouterV2(address)": "59accd05",
					"setTargetToken(address)": "1b66cb00",
					"setWETH(address)": "5b769f3c",
					"targetToken()": "327107f7",
					"totalEthIn()": "76776b9f",
					"totalSwapOut()": "4bce5afd",
					"transferOwnership(address)": "f2fde38b",
					"v3PoolFee()": "1727533f",
					"withdrawETH()": "e086e5ec",
					"withdrawTokens()": "8d8f2adb"
				}
			},
			"storageLayout": {
				"storage": [
					{
						"astId": 9,
						"contract": "TokenSwapper.sol:InoPay",
						"label": "_status",
						"offset": 0,
						"slot": "0",
						"type": "t_uint256"
					},
					{
						"astId": 199,
						"contract": "TokenSwapper.sol:InoPay",
						"label": "owner",
						"offset": 0,
						"slot": "1",
						"type": "t_address"
					},
					{
						"astId": 201,
						"contract": "TokenSwapper.sol:InoPay",
						"label": "targetToken",
						"offset": 0,
						"slot": "2",
						"type": "t_address"
					},
					{
						"astId": 203,
						"contract": "TokenSwapper.sol:InoPay",
						"label": "routerV2",
						"offset": 0,
						"slot": "3",
						"type": "t_address"
					},
					{
						"astId": 205,
						"contract": "TokenSwapper.sol:InoPay",
						"label": "routerV3",
						"offset": 0,
						"slot": "4",
						"type": "t_address"
					},
					{
						"astId": 207,
						"contract": "TokenSwapper.sol:InoPay",
						"label": "v3PoolFee",
						"offset": 20,
						"slot": "4",
						"type": "t_uint24"
					},
					{
						"astId": 212,
						"contract": "TokenSwapper.sol:InoPay",
						"label": "dexVersion",
						"offset": 23,
						"slot": "4",
						"type": "t_enum(DexVersion)197"
					},
					{
						"astId": 214,
						"contract": "TokenSwapper.sol:InoPay",
						"label": "minAmountOut",
						"offset": 0,
						"slot": "5",
						"type": "t_uint256"
					},
					{
						"astId": 216,
						"contract": "TokenSwapper.sol:InoPay",
						"label": "QUOTER",
						"offset": 0,
						"slot": "6",
						"type": "t_address"
					},
					{
						"astId": 218,
						"contract": "TokenSwapper.sol:InoPay",
						"label": "WETH",
						"offset": 0,
						"slot": "7",
						"type": "t_address"
					},
					{
						"astId": 221,
						"contract": "TokenSwapper.sol:InoPay",
						"label": "inited",
						"offset": 20,
						"slot": "7",
						"type": "t_bool"
					},
					{
						"astId": 223,
						"contract": "TokenSwapper.sol:InoPay",
						"label": "reciever",
						"offset": 0,
						"slot": "8",
						"type": "t_address"
					},
					{
						"astId": 227,
						"contract": "TokenSwapper.sol:InoPay",
						"label": "allowedTokens",
						"offset": 0,
						"slot": "9",
						"type": "t_mapping(t_uint256,t_address)"
					},
					{
						"astId": 231,
						"contract": "TokenSwapper.sol:InoPay",
						"label": "allowedTokensExists",
						"offset": 0,
						"slot": "10",
						"type": "t_mapping(t_address,t_bool)"
					},
					{
						"astId": 235,
						"contract": "TokenSwapper.sol:InoPay",
						"label": "allowedTokensIds",
						"offset": 0,
						"slot": "11",
						"type": "t_mapping(t_address,t_uint256)"
					},
					{
						"astId": 237,
						"contract": "TokenSwapper.sol:InoPay",
						"label": "allowedTokensCount",
						"offset": 0,
						"slot": "12",
						"type": "t_uint256"
					},
					{
						"astId": 240,
						"contract": "TokenSwapper.sol:InoPay",
						"label": "totalEthIn",
						"offset": 0,
						"slot": "13",
						"type": "t_uint256"
					},
					{
						"astId": 243,
						"contract": "TokenSwapper.sol:InoPay",
						"label": "totalSwapOut",
						"offset": 0,
						"slot": "14",
						"type": "t_uint256"
					}
				],
				"types": {
					"t_address": {
						"encoding": "inplace",
						"label": "address",
						"numberOfBytes": "20"
					},
					"t_bool": {
						"encoding": "inplace",
						"label": "bool",
						"numberOfBytes": "1"
					},
					"t_enum(DexVersion)197": {
						"encoding": "inplace",
						"label": "enum InoPay.DexVersion",
						"numberOfBytes": "1"
					},
					"t_mapping(t_address,t_bool)": {
						"encoding": "mapping",
						"key": "t_address",
						"label": "mapping(address => bool)",
						"numberOfBytes": "32",
						"value": "t_bool"
					},
					"t_mapping(t_address,t_uint256)": {
						"encoding": "mapping",
						"key": "t_address",
						"label": "mapping(address => uint256)",
						"numberOfBytes": "32",
						"value": "t_uint256"
					},
					"t_mapping(t_uint256,t_address)": {
						"encoding": "mapping",
						"key": "t_uint256",
						"label": "mapping(uint256 => address)",
						"numberOfBytes": "32",
						"value": "t_address"
					},
					"t_uint24": {
						"encoding": "inplace",
						"label": "uint24",
						"numberOfBytes": "3"
					},
					"t_uint256": {
						"encoding": "inplace",
						"label": "uint256",
						"numberOfBytes": "32"
					}
				}
			},
			"userdoc": {
				"kind": "user",
				"methods": {},
				"version": 1
			}
		}
	}
}